:030000000210ECFF
:03000B000200A54B
:03002B000202AE20
:03005B0002040C90
:030073000203E69F
:1000800002030406080C10182030406080040608A3
:100090000C10182030406080A0C00D0D0405060D26
:1000A0000503030302C2AFC0D0C0E020620C206889
:1000B00002419D306602415DE47385258AC262E596
:1000C00025F4700221242068022111207210758B02
:1000D00000D0E0D0D0C283C294C295D2AF32C283E6
:1000E000C294C2957408D5E0FDE53C1420E21520C9
:1000F000E10D207D02D297307D02D280020121D213
:1001000082020121207D02D280307D02D29702013D
:1001100021758B00D0E0D0D0C283C294C295D2AFFB
:1001200032758B00D0E0D0D0D2AF32419DE5256052
:100130000A207D02D283307D02D295C294419DE592
:10014000256002D294207D02C295307D02C2834197
:100150009DE525600A207D02D295307D02D2832064
:100160007D02C283307D02C295419D207D02C28006
:10017000307D02C297207D02C297307D02C280741A
:1001800006D5E0FDE525600A207D02D283307D02A0
:10019000D295C294419D207D02C280307D02C297DB
:1001A000C2827406D5E0FDE525600A207D02D28377
:1001B000307D02D295C294419DC282207D02C280D0
:1001C000307D02C2977406D5E0FDE5256002D29429
:1001D000207D02C295307D02C283419DC282207D76
:1001E00002C297307D02C2807406D5E0FDE525602D
:1001F00002D294207D02C295307D02C283419D20AF
:100200007D02C297307D02C280C2827406D5E0FDB5
:10021000E525600A207D02D295307D02D283207DC3
:1002200002C283307D02C295419D207D02C297307B
:100230007D02C280207D02C280307D02C29774069A
:10024000D5E0FDE525600A207D02D295307D02D201
:1002500083207D02C283307D02C295419D30723D74
:10026000E53C20E21A20E129207D02C280307D0297
:10027000C297207D02C297307D02C28002029D207B
:10028000E1E6207D02C280307D02C297C282020276
:100290009DC282207D02C297307D02C280E525F496
:1002A000F58A758B00D262D0E0D0D0D2AF32C2AF27
:1002B000C2AD53E6EFC0D0C0E0D2D3D2AFC2CEE5DC
:1002C0002960072074461529610C78007900E580C3
:1002D000307E01F430E50278FF53DACF207E03430D
:1002E000DA20307E0343DA10C2D8C271E580307E56
:1002F00001F430E50279FFC3E89970CE30610375EF
:1003000029182074037529188859D270E52A6004C9
:10031000152A611C20740543DA01C2D820700261DD
:1003200083A859206102C2702074367982B70431E3
:10033000C3E894F0400374F0F8E8C4540F28F87947
:1003400084B703026161C313C3138721200802C36A
:1003500013200A06C3C898F8616128F8500374FF97
:10036000F88822306915E5222408F5225003752209
:10037000FFC3E522955E4003855E227882B60418AD
:10038000852224A824C3E524955E4002A85EC3E824
:1003900095604002A8608825C3E52594404002D2BC
:1003A0006420CF0CD0E0D0D0C2D343E610D2AD321F
:1003B000C2CF7801E52960053074021529C3E559DB
:1003C00094014005755C0061DA755D00756400E5B7
:1003D0005C2401F55C5003755CFFD0E0D0D0C2D343
:1003E00043E610D2AD32C0D0C0E0C2AF53917F53CC
:1003F000E67FC260759100C3E49550F594E4955191
:10040000F595759104D0E0D0D0D2AF32C2AF53E6AB
:10041000EFC2ADC0D0C0E0C0F0D2D3D2AFA8FBA92C
:10042000FCC2D8307102817353DACF207E0343DAE5
:1004300010307E0343DA20D271E580307E01F42053
:10044000E502814A88268927C1AF53DACF207E038F
:1004500043DA20307E0343DA10C2D8C2713074020E
:10046000C19B7800E580307E01F430E502C19B88B5
:0F04700059C18253DACF207E0343DA20307E0356
:10047F0043DA10C271206102A14353DACF207E0309
:10048F0043DA10307E0343DA20C2D8D27188548900
:10049F0055C3E89552F8E99553F9E4FB7E027A00CB
:1004AF00C3E8948CE994005005755800A133C3E854
:1004BF0094C8E994005008E4D2E4FB7A0AA110C36F
:1004CF00E89468E994015008E4D2E3FB7A0FA11095
:1004DF00C3E894D0E994025008E4D2E2FB7A1EA15B
:1004EF0010C3E894A0E994055008E4D2E1FB7A3CEC
:1004FF00A110C3E89498E994085008E4D2E0FB7A7D
:10050F00787E00C3E89556FCE99557FD30E708EC77
:10051F00F42401FCEDF4FD755800C3EC9AED9E50E8
:10052F000375580188568957A854A955885289537D
:10053F007802C182C3E89526F8E99527F9307C0245
:10054F00C166307B02C166307A02C15F207502A19D
:10055F0066E9FDE8FCA185E9C313F9E813F83079E2
:10056F0002C15FE9C313F9E813F8307802C15FE9FC
:10057F00C313FDE813FC206126C3EC941CED940219
:10058F004002A19CED7018C3EC94C850120528C30B
:10059F00E528940A5002C19B755900D270C19BE5A2
:1005AF0028600215287400207F0B7888E67896B4AF
:1005BF000302789EE624FAFEE43400FFC3EC9EFCAF
:1005CF00ED9FFD92087888E6B40327A20850092012
:1005DF007D20C2AFD27DA1EE307D17C2AFC27DC2EA
:1005EF0083C294C295C280C282C297206902D26B25
:1005FF00D2AFA2085017E6B4030DECF42401FCEDC2
:10060F00F43400FD02061C78007900C1667888E694
:10061F00B40315EC33FCED33FDC3EC940AFCED94FD
:10062F0000FD50047C007D00C3EC94FFED9400406E
:10063F000678FF7900C166EC856FF0A4C5F0A2F7CC
:10064F0033F87900400302068278FF7900020682B0
:10065F00E9C313F9E813F8307C0EE9600278FFC3A1
:10066F00E81338F8E43400F9C3E894FFE994004044
:10067F000278FF8859D270206102C19B741FF45514
:10068F002F4BF52FC274E42B7002D27475291830DA
:10069F00740375290A306102C1AF20740353DAFE67
:1006AF00752A06307403752A0AD0F0D0E0D0D0C274
:1006BF00D3D2AD43E6103279010206E47903020684
:1006CF00E4790A0206E4791E0206E479640206E47C
:1006DF0079C80206E47817E4D5E0FDD8FAD9F622F6
:1006EF007A147B7802070B7A107B8C02070B7A0D3A
:1006FF007BB402070B7A0B7BC802070BAC25752561
:10070F00017902B27DE4C282D5E0FDE5256002D217
:10071F0094D5E0FDC294D5E0FDD282D5E0FDE5256C
:10072F00600A207D02D283307D02D295E570D5E03C
:10073F00FD207D02C283307D02C2957496D5E0FD07
:10074F00D9C1EAF8D5E0FDD8FBDBB1C2828C2522F6
:10075F00C37C007D0075F00005F0EA33FAEB33FB44
:10076F0050F6EB13FBEA13FAC3E9FFE8FEE89AF839
:10077F00E99BF95004EFF9EEF8B3EC33FCED33FDE0
:10078F00D5F0DFEDF9ECF822E889F08A20D2D4F821
:10079F00A9F07B0030F70B7BFFF42401F8E9F43468
:1007AF0000F9E88520F0A4ADF0F8E98520F0A4AFBA
:1007BF00F0FEED2EF974003FFA7C04C3EA13FAE958
:1007CF0013F9E813F8DCF48BF030F70AE8F424019E
:1007DF00F8E9F43400F9E889F0C2D4F8A9F02278E6
:1007EF0082B6040302084BC3E55994014003020883
:1007FF0013852224E4F53EF53FF540F541F542F52A
:10080F004702084B7882E6FC754701E522F523780D
:10081F003879C7AA3AAB3BC3EB13FBEA13FAEC14D4
:10082F006013C3EB13FBEA13FAEC14146007C3EB6A
:10083F0013FBEA13FA12075F883E893F22E54760F0
:10084F0034C3E53E9523F8E53F9400F9500CC3E817
:10085F009480E994FF4016020880C3E8947FE994DE
:0F086F00005003020880787F79000208807880AB
:10087E0079FF8843894422E5476058E5432540F8CF
:10088E00E5443541F9854420E4300701F43542FA58
:10089E0030E709C3EA94F040150208C2C3EA940F88
:1008AE0050030208C278FF79FF7A0F0208C278005F
:1008BE0079007AF0C3E524955E5006E524600901BF
:1008CE00DBE54420E70D01DBE54430E7068840898F
:1008DE00418A4222E547700302094678A1E6FAC32F
:1008EE00E54333F8E54433F9120797E930E70BC3D4
:1008FE00E89480E994FF4013211DC3E8947FE994A6
:10090E00005002211D787F7900211D788079FFE843
:10091E0020E715C3E52398F84009C3E89401400386
:10092E000209447801020944E8F424012523F84021
:10093E000302094478FF884522E54770030209A99E
:10094E0078A2E6FAA841A942120797E930E70CC34C
:10095E00E89401E994FF4016020980C3E894FFE988
:10096E009400500302098078FF7900020980780113
:10097E0079FFE920E715C3E54598F84009C3E894E7
:10098E000140030209A778000209A7E8F424012513
:10099E0045F840030209A778FF88242278FFC26435
:1009AE00E52D5406702FD264C3E53B940A4009C36B
:1009BE00E52594405002C264E53B601974FF853B07
:1009CE00F0848537F0A4F8C5F0600278FFC3E8958F
:1009DE00615002A8618860227883E6F520120F0428
:1009EE0075E8901206C675E890E5E820ECFBA8BD08
:1009FE00A9BE120F9A756B55756C00C3740013FD6A
:100A0E00745513FC74552CFC74003DFDECFAEDFB93
:100A1E00C3E89AE99B4014E56B2455F56BE56C34FD
:100A2E0000F56CEA2CFAEB3DFB80E5AE6BAF6CC3C8
:100A3E00E56C13F9E56B13F8C3E913F9E813F8E560
:100A4E006B28F569E56C39F56A7A03C3E913F9E8A1
:100A5E0013F8DAF7AA201A7009756B00756C00028C
:100A6E000A801AEA6008EE28FEEF39FFDAF88E6B7C
:100A7E008F6C2275E890227883E6FFE5E820ECF78C
:100A8E00A8BDA9BE056DC3E56D94084052756D00F5
:100A9E00E9FA79A0E76044EA7007E56E601B020A86
:100AAE00BBC3E8956E6010E56E5006600C14020A2A
:100ABE00C70460F9020AC7E56EF56EC3946D401B5C
:100ACE00755EC0C394044013755E80C39404400BDE
:100ADE00755E40C394044003755E0075BB0922EF3A
:100AEE00C39401601BC3E894FFE994035012C3E85A
:100AFE00956BE9956C5009E55E601A155E020B2345
:100B0E00E55EF46010055E7888E6B40308E55E24C1
:100B1E00044002F55EA85EC3E524985002A824C3E3
:100B2E00E8955F400AA85FE55FF46003855F5E7934
:100B3E0082B70402614EC3E895604002A860882522
:100B4E00E56DB4070375BB1022743279A387F0A448
:100B5E00C5F0A2F733F8C3E8955E4002A85E88227E
:100B6E0088248825886122753A00753B7F2275C8D6
:100B7E0020A8CCA9CD75C824AA38AB3988388939B4
:100B8E00C3E89AF8E99BF9AA3AAB3BAC3AAD3B7E87
:100B9E00047F02C3EB940440021E1FC3EB94084073
:100BAE00021E1FC3ED13FDEC13FCDEF7C3EA9CFA25
:100BBE00EB9DFBEF6009C3E913F9E813F8DFF7EAE1
:100BCE0028FAEB39FB8A3A8B3B400122753AFF75C6
:100BDE003BFF2230600261E1854C50854D51D26061
:100BEE0043E680227892E6FFC3E535948240010FFA
:100BFE00C3E53594A040010FC3EF940640027F0574
:100C0E007E021E3072010EC3E53B940350060E0E9B
:100C1E003072010EC3E53B940250060E0E30720187
:100C2E000EA93BA83A7A04C3E913F9E813F8DAF7E8
:100C3E00C3E89EF8E99400F94009C3E89402E994E8
:100C4E000050047802E4F9E9FBE8FAC3E913FDE881
:100C5E0013FC884C894DC3EF94036037EF20E00DF1
:0F0C6E00E82CF8E93DF9ECFAEDFB020C8EE828D2
:100C7D00F8E939F9C3E89402F8E99400F97A02E445
:100C8D00FBC3EF9403400D8A4E8B4F884889498CE6
:100C9D004A8D4B22884E894F8A488B498C4A8D4B01
:100CAD002230600281AED26043E680E52D540660AD
:100CBD0027A83AA93BE53494085006E820E002A99C
:100CCD004D759100C3E498F594E499F595759104EB
:100CDD00D26053917F43E68022D265753D00752029
:100CED0000020CF9D265753D00752040E52D5406C6
:100CFD006002C265D2AF206005E53D60012278013A
:100D0D007A02C3E53B940540027802C3E53B940AA1
:100D1D0040027803C3E53B940F40027A0330690427
:100D2D00781E7A01206007E53D6003D2AF22D2AF75
:100D3D000000C2AFC3E53BFB940F40027B0FEB04F9
:100D4D003073012320620123F93069027982E58B2A
:100D5D00C39940D0053DEAFBE59BF45440B5200412
:100D6D00DBF6A19520650281F9C265759100AE3A59
:100D7D00AF3BC3E49EF594E49FF595759104D26065
:100D8D0053917F43E68081F930650281F9D895D280
:100D9D00AF2230690B0534206016753400020DBD8D
:100DAD0020600D20650A206B0715811581021647FD
:100DBD0022A84EA94F75910053917FC3E498F594E5
:100DCD00E499F595759104854850854951D2604354
:100DDD00E6802278003064053065027801E53575CE
:100DED00F007A4F9E5F028F5F0E9A2F013A2F1134C
:100DFD00A2F213F535C394785003753578C3E535F4
:100E0D0095364008D266C283C294C295306002C145
:100E1D0019854A50854B51D26043E68022C2AFC23C
:100E2D0080C282C29730720B9001FF7406D5E0FD2F
:100E3D00020E40207D02D280307D02D297759F43F5
:100E4D00753C02020F7FC2AF207D02C295307D023C
:100E5D00C2833072179001DCC282207D02C29730AE
:100E6D007D02C2807406D5E0FD020E7C90013F30FC
:100E7D006206E5256002D294207D03759F53307D77
:100E8D0003759F33753C03020F7FC2AFC280C282D0
:100E9D00C29730720B9001B97406D5E0FD020EAD0C
:100EAD00207D02D297307D02D280207D03759F3345
:100EBD00307D03759F53753C04020F7FC2AFC29402
:100ECD00307217900196207D02C280307D02C2974C
:100EDD00C2827406D5E0FD020EEA90012D30620E3D
:100EED00E525600A207D02D283307D02D295759F63
:100EFD0043753C05020F7FC2AFC280C282C29730DC
:100F0D00720B90016B7406D5E0FD020F1AD2822090
:100F1D007D03759F53307D03759F33753C06020F1E
:100F2D007FC2AF207D02C283307D02C29530721F19
:100F3D0090022A207D02C280307D02C297207D0260
:100F4D00C297307D02C2807406D5E0FD020F5F901E
:100F5D00015130620EE525600A207D02D295307D6B
:100F6D0002D283207D03759F33307D03759F5375AA
:100F7D003C01306B13120F9A7406D5E0FD7408D541
:100F8D00E0FDD280D282D297C266D2AF2290012BE1
:100F9D00C283C294C295C280C282C297C2622278B5
:100FAD008076090876090876040876010876030824
:100FBD0076FF087609087601087601087601788CA7
:100FCD0076000876FF0876FF0876FF0876FF08762C
:100FDD00FF0876030876FF0876FF0876FF0876038C
:100FED000876FA0876280876500876050876FF0800
:100FFD00760208760008767D0876FF08760022785E
:10100D0087E6FFC272BF0302D2727888E6C39403EB
:10101D006008C27DE630E102D27DC27E7889E6307D
:10102D00E102D27EC3EF94026008758E01D2730285
:10103D001044758E00C273227880E6149000809360
:10104D0078A1F67881E6149000809378A2F6120FBD
:10105D009A227886E61490008D9378A3F6120F9A53
:0E106D002222789CE67536FF75370CB4020619
:10107B007536A075370AB4030675368275370522A7
:10108B00D281789DE66002C281227896E6FA789743
:10109B00E6FB307F047A007BFFC3EB9AFCC39482A0
:1010AB0050027C82756F00056FEC856FF0A4C3E571
:1010BB00F0948040F222D27F11951206D57A007BF4
:1010CB00007C101206CBE5592AFA74003BFBDCF3CB
:1010DB007C04C3EB13FBEA13FADCF7FEC27F11951A
:1010EB0022E5EF20E6037520000520903FFFE52069
:1010FB00146006901DFF1460009304600375EF12DB
:10110B00C2D353D9BF7581C043FF801206C675EF9A
:10111B000243B203E5B3240420E702F5B3120F9A9E
:10112B007580F075A40F75F13F75D4DF75904F7511
:10113B00A5B075F2F575D50075A60175E241120FD4
:10114B00AC1216BA78988670C2AF1206DF1207047B
:10115B001207041206DA1206DA1206DA1206DA128D
:10116B0007041207041206DA1206DA1206D5120663
:10117B00D51207041206D51206D51207041207045E
:10118B001206DA1206DA1206DA1206DA120704125D
:10119B0007041206DA1206DA1206DA1206DA120659
:1011AB00FD1206FD1206DA1206DA1206DA1206DA5A
:1011BB001206EF1206EF1206DA1206DA1206D51233
:1011CB0006D51206FD1206D51206D5120704120714
:1011DB00041206DA1206DA1206DA1206DA1206DA46
:1011EB001206DA1206DA1206DAC2AFE4F8F6D8FD06
:1011FB0078C879C8308504D9FBD8F7120FAC121612
:10120B00BA110C1145115F116E116F118B1195787D
:10121B00988670120F9A75885075891275C8247547
:10122B00910475D84075A82275B80275E690759B28
:10123B0080759D0075D10E75BC5875BB0975BA11BB
:10124B0075E8801206C6D2AF1209E643DA01C2D89E
:10125B00C2711206DF753001D2617B037A0CE5583F
:10126B0070067A0CDB0221F41206D520700221F4F1
:10127B00C270E559C3940240E3E52F541F855B5AB6
:10128B00F55BB55AD7DAD7C26153DACF207E034369
:10129B00DA20307E0343DA10C2D8C271C2757528CA
:1012AB00001206DA307409C3E528940A4002D2759D
:1012BB001206CB78023074027800C3E5599840F0DF
:1012CB00C2AF1206EF1206D51206EF1206D51206A2
:1012DB00F61206D51206F6D2AF1206DF7546007867
:1012EB0088E6B4030261C61206CB788CE6C3940180
:1012FB0050030213C6E530C3940150030213C620FA
:10130B007435C3E55994FF50030213C6C2AF1207DD
:10131B0004D2AF1206DAC3E559940150EFC2AF12F3
:10132B0006EF1206D01206EFD2AF1206DAC3E5595A
:10133B0094FF40E90218207F02D27F11951206DA42
:10134B00C2AFC27F1195AE59C3E559947FD2AF405E
:10135B00741206C6C2AF120704D2AFDFDC11C1C3D1
:10136B00EE94057897F61206DF1216BA1217A37FC2
:10137B000AD27F11951206DAC2AFC27F1195AE5910
:10138B00C3E559947FD2AF50E61206C6C2AF120620
:10139B00EF1206D01206EFD2AFDFD611C1EE240545
:1013AB007896F61206DF1216BA1217D21206DA1157
:1013BB0095C3E55994FF40F4021820C3E5599546AF
:1013CB0040038559461206DA78017988E7B403029F
:1013DB007805C3E55998400241EAC2AF12070412DF
:1013EB0006D51207041206D51206FD1206D51206F3
:1013FB00FDD2AF1206DF753000E4F531F532053161
:10140B00E531F470390532789AE678191460127860
:10141B003214600D787D14600878FA14600375320D
:10142B0000C3E53298401715327531B47899867040
:10143B00C2AF120704D2AF789886701206DA120682
:10144B00D0E529700530740221F4780120740278FC
:10145B0006C3E5599840A77888E6C3940360031246
:0E146B0006DAE529700221F4C2AF120F9AE4EE
:10147900F522F523F524F525D2AF78858662F53E68
:10148900F53FF540F541F542F56DF547F52CF52D9C
:10149900F535120B75756D0875BB101206C6120A63
:1014A90081E5E820ECFBA8BDA9BEE97001F8886ECA
:1014B900120A85756D0875BB107887E6FE760211EC
:1014C9000C7887EEF6C2AF755EFF120B5785225E68
:1014D90085225F852260D2AF7522017524017525A9
:1014E90001855D64756501D268D269753400120F92
:1014F90004120F2E120B75120B7C120BF20215142B
:10150900120F9A110C756D0075BB09120CF1120DB1
:101519009F120DBE1207EE120DE0120E2A120B7C5D
:10152900120BE1120BF2120CAE120CE6120D9F1205
:101539000DBE12084C1209AA120DE0120E53120B1D
:101549007C120BE1120BF2120CAE120CF1120D9F70
:10155900120DBE120885120DE0120E97120B7C12A5
:101569000BE1120BF2120CAE120CE6120D9F120DCA
:10157900BE1208E2120DE0120EC9120B7C120BE129
:10158900120BF2120CAE120CF1120D9F120DBE12BB
:101599000947120DE0120F04120B7C120BE1120B1A
:1015A900F2120CAE120CE6120A81120D9F120DBE38
:1015B900120A85120DE0120F2E120B7C120BE1128A
:1015C9000BF2120CAE306938206B3585615E85618E
:1015D9005F855D6475650179327A0AC3E53499409E
:1015E90012C269D26A8A3385615E755FFF756020B0
:1015F900021609C3E559940140030215140216475E
:10160900306A1E206B1BE533147007C26A755EFFD2
:10161900A109F533C3E559940140030215140216D3
:1016290047C3E55C94FA5016307404E529600FC38A
:10163900E53B78F0306B027860985002A114C2AF94
:10164900120F9A7887E6FE7602110C7887EEF6E497
:10165900F522F523F524F525F562C268D2AF120605
:10166900C6120F9A307406E529700221F48104909C
:101679001A0D78201216FCE520B4550CA31216FC9D
:10168900E520B4AA0302169A120FAC1216BA021672
:10169900B9901A0378807B0A1216FCA308DBF9902B
:1016A9001A0F788C7B151216FCA308DBF9901A2403
:1016B90022C2AF12173B121715901A00740D121798
:1016C90001A37402121701A37413121701901A03CC
:1016D90078807B0A121700A308DBF9901A0F788C1F
:1016E9007B15121700A308DBF912174E12172C905D
:1016F9001A2422E493F622E6438F01538FFD75EFF6
:101709000275B7A575B7F1F0538FFE22438F0243D7
:101719008F0175EF0275B7A575B7F1901A0DF053E2
:101729008FFC22901A0D7455F101901A0E74AAF1CA
:1017390001227A3079D07820901A40D1FCE520F73F
:1017490009A3DAF7227A3079D0901A40E7F1010932
:10175900A3DAF922AB71A872BB01027980BB02023C
:101769007981BB03027982BB04027984BB050279C2
:1017790083BB06027986BB07027992BB0802798787
:10178900BB0902799CBB0A027988BB0B027989E8FB
:10179900F7227C051206DFDCFB22C2AF1206EF122C
:1017A90006F61206FD1207041206D01206EF1206FB
:1017B900F61206FD1207041206D01206EF1206F6FB
:1017C9001206FD120704D2AF22C2AF120704120695
:1017D900FD1206F61206EF1206D01207041206FDD4
:1017E9001206F61206EF1206D01207041206FD12AF
:1017F90006F61206EFD2AF22AE71AF72C2AF120671
:10180900EF1206EF1206EF1206D0DEF212070412EB
:1018190006D0DFF8D2AF221217A312179B12179B1B
:1018290075710175720175730011017C05AD59124D
:1018390006DFC3ED955970F5C3E5599401400AC314
:10184900E55994FF403702186312175D1216BA1250
:1018590017A3C2AF75EF1212179BDCD10573C3E54D
:0F186900739403500280C212179B0572E571142D
:1018780090009A93F808C3E57298500280A912174D
:101888009B12179B0571C3E571940C500280951249
:0D1898000FAC1216BAC2AF75EF1212179BFB
:101A00000D02130909040103FF0901010155AA0090
:101A1000FFFFFFFFFF03FFFFFF03FA285005FF0250
:051A2000007DFF00FF46
:101A400023416C69676E424C33355023202020209F
:101A500023424C48454C4923463333302320202031
:101A60002020202020202020202020202020202076
:00000001FF
