:0300000002116387
:03000B000200A54B
:03002B000202AB23
:03005B0002045C40
:030073000204364E
:1000800002030406080C10182030406080040608A3
:100090000C10182030406080A0C00D0D0403060D28
:1000A0000502030202C2AFC0D0C0E020620C20688B
:1000B00002419A306602415AE47385258AC262E59C
:1000C00025F470022121206802210E758B00D0E0FA
:1000D000D0D0C286C291C295D2AF32C286C291C27E
:1000E00095741AD5E0FDE53C1420E21520E10D20C1
:1000F0007D02D296307D02D29002011ED292020180
:100100001E207D02D290307D02D29602011E758B98
:1001100000D0E0D0D0C286C291C295D2AF32758BEA
:1001200000D0E0D0D0D2AF32419AE525600A207DE0
:1001300002D286307D02D295C291419AE5256002B5
:10014000D291207D02C295307D02C286419AE5257A
:10015000600A207D02D295307D02D286207D02C2C7
:1001600086307D02C295419A207D02C290307D0288
:10017000C296207D02C296307D02C290740ED5E0F8
:10018000FDE525600A207D02D286307D02D295C22F
:1001900091419A207D02C290307D02C296C2927433
:1001A0000ED5E0FDE525600A207D02D286307D0275
:1001B000D295C291419AC292207D02C290307D02B6
:1001C000C296740ED5E0FDE5256002D291207D0235
:1001D000C295307D02C286419AC292207D02C296AB
:1001E000307D02C290740ED5E0FDE5256002D2910B
:1001F000207D02C295307D02C286419A207D02C2D6
:1002000096307D02C290C292740ED5E0FDE5256065
:100210000A207D02D295307D02D286207D02C286E0
:10022000307D02C295419A207D02C296307D02C285
:1002300090207D02C290307D02C296740ED5E0FD02
:10024000E525600A207D02D295307D02D286207D90
:1002500002C286307D02C295419A30723DE53C2053
:10026000E21A20E129207D02C290307D02C2962050
:100270007D02C296307D02C29002029A20E1E62001
:100280007D02C290307D02C296C29202029AC29250
:10029000207D02C296307D02C290E525F4F58A7574
:1002A0008B00D262D0E0D0D0D2AF32C2AFC2AD5359
:1002B000E6EFC0D0C0E0D2D3D2AFC2CEE52960070E
:1002C0002074461529610978007900E580307E01A7
:1002D000F430E50278FF53DACF207E0343DA203092
:1002E0007E0343DA10C2D8C271E580307E01F4305B
:1002F000E50279FFC3E89970CE306103752940208B
:1003000074037529408859D270E52A6004152A6162
:100310001920740543DA01C2D82070026141A8593E
:10032000206102C270207402612A882230690AC3E7
:10033000E522955E4003855E227882B6040385221D
:1003400024C3E52594404002D26420CF0CD0E0D0F5
:10035000D0C2D343E610D2AD32C2CF7802E52960D5
:10036000053074021529C3E55994014005755C00F8
:100370006183755D00756400E55C2401F55C5003E4
:10038000755CFF7982B7020EE547601EC3E52294D3
:100390003240178546227982B7030FE547600BC3C9
:1003A000E52294324004798E8722C3E523952260AA
:1003B000084004152361B90523D8C80564E56470B5
:1003C000021564D565647565017805C3E5649566B5
:1003D0004058C3E5649567500878017565030203CA
:1003E000EDC3E564956850057801756501C3E55F67
:1003F0009524401F7982B70402811FE54770148558
:10040000245FE56404600385666475650175233CBB
:1004100002042AE55F285005755FFF811FF55FE53F
:100420005F047006755DFF7564FFD0E0D0D0C2D365
:1004300043E610D2AD32C0D0C0E0C2AF53917F537B
:10044000E67FC260759100C3E49550F594E4955140
:10045000F595759104D0E0D0D0D2AF32C2AF53E65B
:10046000EFC2ADC0D0C0E0C0F0D2D3D2AFA8FBA9DC
:0E047000FCC2D830710281C353DACF207E0364
:10047E0043DA10307E0343DA20D271E580307E01FC
:10048E00F420E502819A88268927C19A53DACF2073
:10049E007E0343DA20307E0343DA10C2D8C27130B5
:1004AE007402C1867800E580307E01F430E502C129
:1004BE00868859C16D53DACF207E0343DA20307E11
:1004CE000343DA10C271206102A19353DACF207E6A
:1004DE000343DA10307E0343DA20C2D8D271885437
:1004EE008955C3E89552F8E99553F9E4FB7E027AF3
:1004FE0000C3E8948CE994005005755800A183C39D
:10050E00E894C8E994005008E4D2E4FB7A0AA160AA
:10051E00C3E89468E994015008E4D2E3FB7A0FA192
:10052E0060C3E894D0E994025008E4D2E2FB7A1E4C
:10053E00A160C3E894A0E994055008E4D2E1FB7AE7
:10054E003CA160C3E89498E994085008E4D2E0FB1B
:10055E007A787E00C3E89556FCE99557FD30E7089A
:10056E00ECF42401FCEDF4FD755800C3EC9AED9EFD
:10057E00500375580188568957A854A95588528931
:10058E00537802C16DC3E89526F8E99527F9307CBA
:10059E0002C151307B02C151307A02C14A2075022C
:1005AE00A1B6E9FDE8FCA1D5E9C313F9E813F830CB
:1005BE007902C14AE9C313F9E813F8307802C14A47
:1005CE00E9C313FDE813FC206126C3EC941CED94E3
:1005DE00024002A1ECED7018C3EC94C8501205282D
:1005EE00C3E528940A5002C186755900D270C1869F
:1005FE00E528600215287400207F037896E624FA19
:10060E00FEE43400FFC3EC9EFCED9FFD5006780027
:10061E007900C151C3EC94FFED9400400678FF7948
:10062E0000C151EC856FF0A4C5F0A2F733F8790044
:10063E00400302066D78FF790002066DE9C313F9D7
:10064E00E813F8307C0EE9600278FFC3E81338F83F
:10065E00E43400F9C3E894FFE99400400278FF887F
:10066E0059D270206102C186741FF4552F4BF52F9D
:10067E00C274E42B7002D27475294030740375294C
:10068E000A306102C19A20740353DAFE752A2030B3
:10069E007403752A0AD0F0D0E0D0D0C2D3D2AD43C5
:1006AE00E6103279010206CF79030206CF790A02EB
:1006BE0006CF791E0206CF79640206CF79C80206EC
:1006CE00CF7817E4D5E0FDD8FAD9F6227A147B78E4
:1006DE000206F67A107B8C0206F67A0D7BB40206C1
:1006EE00F67A0B7BC80206F6AC257525017902B2A7
:1006FE007DE4C292D5E0FDE5256002D291D5E0FD04
:10070E00C291D5E0FDD292D5E0FDE525600A207DAF
:10071E0002D286307D02D295E570D5E0FD207D02B5
:10072E00C286307D02C2957496D5E0FDD9C1EAF835
:10073E00D5E0FDD8FBDBB1C2928C2522C37C007DB7
:10074E000075F00005F0EA33FAEB33FB50F6EB13CD
:10075E00FBEA13FAC3E9FFE8FEE89AF8E99BF950C1
:10076E0004EFF9EEF8B3EC33FCED33FDD5F0DFED2D
:10077E00F9ECF822E889F08A20D2D4F8A9F07B00AF
:10078E0030F70B7BFFF42401F8E9F43400F9E88527
:10079E0020F0A4ADF0F8E98520F0A4AFF0FEED2E28
:1007AE00F974003FFA7C04C3EA13FAE913F9E8136B
:1007BE00F8DCF48BF030F70AE8F42401F8E9F434AD
:1007CE0000F9E889F0C2D4F8A9F0227882B60403C1
:1007DE0002087BC3E5599419401FE52D5406701984
:1007EE00E547703878057994E7146007780A146045
:1007FE00027812C3E53B984020E547600985615FAA
:10080E007564FF756501852224E4F53EF53FF540DC
:10081E00F541F542F54702087B7547017994E714D7
:10082E007013E523F43333F913F8E9540104F9E8AE
:10083E0054FE02086FE714147014E523F4333333B7
:10084E00F913F8E9540304F9E854FC020877E52398
:10085E00F433333333F913F8E954070404F9E85445
:0E086E00F8C39440F8E99400F9883E893F22CF
:10087C00E547603BC3E53B13F9E53A13F8C3E53EA6
:10088C0098F8E53F99F9500CC3E89480E994FF403F
:10089C00160208B7C3E8947FE9940050030208B726
:1008AC00787F79000208B7788079FF8843894422E1
:1008BC00E5476058E5432540F8E5443541F9854462
:1008CC0020E4300701F43542FA30E709C3EA94F02A
:1008DC0040150208F9C3EA940F50030208F978FF97
:1008EC0079FF7A0F0208F9780079007AF0C3E524D1
:1008FC00955E5006E52460092112E54420E70D21A0
:10090C0012E54430E706884089418A4222E5477067
:10091C000302097D78A1E6FAC3E54333F8E54433D5
:10092C00F9120782E930E70BC3E89480E994FF40A1
:10093C00132154C3E8947FE9940050022154787F2A
:10094C0079002154788079FFE820E715C3E52398D6
:10095C00F84009C3E89401400302097B78010209BD
:10096C007BE8F424012523F8400302097B78FF88F7
:10097C004522E54770030209E078A2E6FAA841A9EE
:10098C0042120782E930E70CC3E89401E994FF4076
:10099C00160209B7C3E894FFE9940050030209B7A3
:1009AC0078FF79000209B7780179FFE920E715C3D0
:1009BC00E54598F84009C3E8940140030209DE7844
:1009CC00000209DEE8F424012545F840030209DEA3
:1009DC0078FF88242278FFC264E52D5406702FD24C
:1009EC0064C3E53B940A4009C3E52594405002C218
:1009FC0064E53B601974FF853BF0848537F0A4F8FF
:100A0C00C5F0600278FFC3E895615002A861886068
:100A1C00227883E6F520120F6E75E8901206B175F8
:100A2C00E890E5E820ECFBA8BDA9BE121006756B9A
:100A3C0055756C00C3740013FD745513FC74552C60
:100A4C00FC74003DFDECFAEDFBC3E89AE99B401405
:100A5C00E56B2455F56BE56C3400F56CEA2CFAEB80
:100A6C003DFB80E5AE6BAF6CC3E56C13F9E56B1326
:100A7C00F8C3E913F9E813F8E56B28F569E56C3967
:100A8C00F56A7A03C3E913F9E813F8DAF7AA201A1E
:100A9C007009756B00756C00020AB71AEA6008EEF3
:100AAC0028FEEF39FFDAF88E6B8F6C2275E89022F6
:100ABC007883E6FFE5E820ECF7A8BDA9BE056DC379
:100ACC00E56D94084052756D00E9FA79A0E7604431
:100ADC00EA7007E56E601B020AF2C3E8956E6010BF
:100AEC00E56E5006600C14020AFE0460F9020AFE60
:100AFC00E56EF56EC3946D401B755EC0C3940440E7
:100B0C0013755E80C39404400B755E40C39404401F
:100B1C0003755E0075BB0B22EFC39401601BC3E829
:100B2C0094FFE994035012C3E8956BE9956C500956
:100B3C00E55E600C155E020B4CE55EF46002055E32
:100B4C00A85EC3E524985002A824C3E8955F400A28
:100B5C00A85FE55FF46003855F5E8825E56DB407EB
:100B6C000375BB1022743279A387F0A4C5F0A2F7E9
:100B7C0033F8C3E8955E4002A85E88228824882555
:100B8C00886122753A00753B7F2275C820A8CCA9D4
:100B9C00CD75C824AA38AB3988388939C3E89AF896
:100BAC00E99BF9AA3AAB3BAC3AAD3B7E047F02C35E
:100BBC00EB940440021E1FC3EB940840021E1FC39B
:100BCC00ED13FDEC13FCDEF7C3EA9CFAEB9DFBEF97
:100BDC006009C3E913F9E813F8DFF7EA28FAEB39EF
:100BEC00FB8A3A8B3B400122753AFF753BFF223062
:100BFC00600261FB854C50854D51D26043E68022EA
:100C0C007892E6FFC3E535948240010FC3E5359435
:100C1C00A040010FC3EF940640027F057E021E30F8
:100C2C0072010EC3E53B940350060E0E3072010E9A
:100C3C00C3E53B940250060E0E3072010EA93BA880
:100C4C003A7A04C3E913F9E813F8DAF7C3E89EF823
:100C5C00E99400F94009C3E89402E994005004783F
:0E0C6C0002E4F9E9FBE8FAC3E913FDE813FC22
:100C7A00884C894DC3EF94036037EF20E00DE82CD0
:100C8A00F8E93DF9ECFAEDFB020CA8E828F8E93995
:100C9A00F9C3E89402F8E99400F97A02E4FBC3EF95
:100CAA009403400D8A4E8B4F884889498C4A8D4B54
:100CBA0022884E894F8A488B498C4A8D4B22306054
:100CCA000281C8D26043E680E52D54066027A83A1F
:100CDA00A93BE53494085006E820E002A94D759135
:100CEA0000C3E498F594E499F595759104D260539C
:100CFA00917F43E68022D265753D00752000020D82
:100D0A0013D265753D00752040E52D54066002C278
:100D1A0065D2AF206005E53D60012278017A02C301
:100D2A00E53B940540027802C3E53B940A40027809
:100D3A0003C3E53B940F40027A03306904781E7AB4
:100D4A0001206007E53D6003D2AF22D2AF0000C2A6
:100D5A00AFC3E53BFB940F40027B0FEB04307301FA
:100D6A002320620123F93069027982E58BC3994015
:100D7A00D0053DEAFBE59BF45440B52004DBF6A11F
:100D8A00AF206502A113C265759100AE3AAF3BC3AD
:100D9A00E49EF594E49FF595759104D26053917F92
:100DAA0043E680A113306502A113D895D2AF223051
:100DBA00690B0534206016753400020DD720600DCA
:100DCA0020650A206B07158115810216B822A84EE4
:100DDA00A94F75910053917FC3E498F594E499F56E
:100DEA0095759104854850854951D26043E6802221
:100DFA0078003064053065027801E53575F007A49E
:100E0A00F9E5F028F5F0E9A2F013A2F113A2F21322
:100E1A00F535C394785003753578C3E53595364072
:100E2A0008D266C286C291C295306002C133854A31
:100E3A0050854B51D26043E68022C2AFC290C29223
:100E4A00C29630720B9001FC740ED5E0FD020E8240
:100E5A00E53B54F86022E525600A207D02D28630FF
:100E6A007D02D2957401D5E0FD207D02C286307DD7
:100E7A0002C295741AD5E0FD207D02D290307D021F
:100E8A00D296759F56753C02021001C2AF207D02B0
:100E9A00C295307D02C2863072179001D9C2922063
:100EAA007D02C296307D02C290740ED5E0FD020E1C
:100EBA00BE90013C306206E5256002D291207D0396
:100ECA00759F76307D03759F36753C03021001C20B
:100EDA00AFC290C292C29630720B9001B6740ED510
:100EEA00E0FD020F17E53B54F86022E525600A2071
:100EFA007D02D295307D02D2867401D5E0FD207D37
:100F0A0002C295307D02C286741AD5E0FD207D02A8
:100F1A00D296307D02D290207D03759F36307D03B4
:100F2A00759F76753C04021001C2AFC291307217E8
:100F3A00900193207D02C290307D02C296C29274C3
:100F4A000ED5E0FD020F5490012A30620EE52560AD
:100F5A000A207D02D286307D02D295759F56753C55
:100F6A0005021001C2AFC290C292C29630720B90B3
:100F7A000168740ED5E0FD020F9CE53B54F860123F
:100F8A00E5256002D2917401D5E0FDC291741AD5AB
:100F9A00E0FDD292207D03759F76307D03759F36E2
:100FAA00753C06021001C2AF207D02C286307D0266
:100FBA00C29530721F900227207D02C290307D02B6
:100FCA00C296207D02C296307D02C290740ED5E090
:100FDA00FD020FE190014E30620EE525600A207D88
:100FEA0002D295307D02D286207D03759F36307DF0
:100FFA0003759F76753C01C266D2AF22900128C262
:10100A0086C291C295C290C292C296C2622278806A
:10101A0076070876070876010876040876FF0876C8
:10102A00FF08760A087602087601087601788C7637
:10103A00000876000876B40876FF0876FF0876FF7F
:10104A000876030876FF0876010876FF0876030813
:10105A0076FA0876780876C80876040876FF08765D
:0E106A000108760008767D08760A08760022D6
:101078007887E6FFC2727888C27DE630E102D27DC9
:10108800C27E7889E630E102D27EC3EF940260081E
:10109800758E01D2730210A5758E00C273227880F6
:1010A800E6149000809378A1F67881E61490008089
:1010B8009378A2F61106227886E61490008D93782C
:1010C800A3F6110622789FE6F8700108C3E8941188
:1010D80040027811E82828F5662566256628F56710
:1010E80025662828F56822789CE67536FF75370C42
:1010F800B402067536A075370AB4030675368275CC
:10110800370522227896E6FA7897E6FB307F047A4C
:10111800007BFFC3EB9AFCC3948250027C82756FFC
:1011280000056FEC856FF0A4C3E5F0948040F222CF
:10113800D27F310C1206C07A007B007C101206B6F2
:10114800E5592AFA74003BFBDCF37C04C3EB13FB80
:10115800EA13FADCF7FEC27F310C22E5EF20E60342
:101168007520000520903FFFE520146006901DFFC4
:101178001460009304600375EF12C2D353D9BF758E
:1011880081C043FF801206B175EF0243B203E5B395
:10119800240420E702F5B311067580BF75A44075D5
:1011A800F17F75D4DF75909875A56775F26775D569
:1011B8000075A60175E241111812173278988670E9
:1011C800C2AF1206CA1206EF1206EF1206C51206C1
:1011D800C51206C51206C51206EF1206EF1206C59D
:1011E8001206C51206C01206C01206EF1206C01279
:1011F80006C01206EF1206EF1206C51206C5120641
:10120800C51206C51206EF1206EF1206C51206C56C
:101218001206C51206C51206E81206E81206C5121D
:1012280006C51206C51206C51206DA1206DA120635
:10123800C51206C51206C01206C01206E81206C07C
:101248001206C01206EF1206EF1206C51206C512E4
:1012580006C51206C51206C51206C51206C512062F
:10126800C51218131206CA1206CA1206C5C2AFE47E
:10127800F8F6D8FD78C879C8308504D9FBD8F711B5
:1012880018121732117811A611BF11CD11EF310BB9
:10129800310C78988670110675885075891275C852
:1012A8002475910475D84075A82275B80275E69022
:1012B800759B80759D0075D10E75BC5875BB0B75F7
:1012C800BA1175E8801206B1D2AF120A1D43DA01CD
:1012D800C2D8C2711206CA753001D2617B037A0C7A
:1012E800E55870067A0CDB0241751206C0207002C0
:1012F8004175C270E559C3940240E3E52F541F8538
:101308005B5AF55BB55AD7DAD7C26153DACF207E7C
:101318000343DA20307E0343DA10C2D8C271C275A3
:101328007528001206C5307409C3E528940A4002DE
:10133800D2751206B678023074027800C3E559985F
:1013480040F0C2AF1206DA1206C01206DA1206C060
:101358001206E11206C01206E1D2AF1206CA75469D
:10136800001206B6788CE6C39401500302143DE5DA
:1013780030C39401500302143D207435C3E55994D9
:10138800FF500302143DC2AF1206EFD2AF1206C5DA
:10139800C3E559940150EFC2AF1206DA1206BB1228
:1013A80006DAD2AF1206C5C3E55994FF40E9021820
:1013B800987F05D27F310C1206C5C2AFC27F310CAF
:1013C800AE59C3E559947FD2AF40741206B1C2AF8B
:1013D8001206EFD2AFDFDC3138C3EE94057897F60A
:1013E8001206CA12173212181B7F0AD27F310C124A
:1013F80006C5C2AFC27F310CAE59C3E559947FD23E
:10140800AF50E61206B1C2AF1206DA1206BB1206D8
:10141800DAD2AFDFD63138EE24057896F61206CA4E
:1014280012173212184A1206C5310CC3E55994FF37
:1014380040F4021898C3E559954640038559461269
:1014480006C578017988E7B403027805C3E5599899
:1014580040026169C2AF1206EF1206C01206EF120F
:0D14680006C01206E81206C01206E8D2AF58
:101475001206CA753000E4F531F5320531E531F46F
:1014850070390532789AE67819146012783214604A
:101495000D787D14600878FA146003753200C3E591
:1014A5003298401715327531B478998670C2AF12EB
:1014B50006EFD2AF789886701206C51206BBE529ED
:1014C5007005307402417578012074027806C3E511
:1014D500599840A71206C5E52970024175C2AF119A
:1014E50006E4F522F523F524F525D2AF7885866245
:1014F500F53EF53FF540F541F542F56DF547F52C1F
:10150500F52DF535120B8F756D0875BB101206B1EB
:10151500120AB8E5E820ECFBA8BDA9BEE97001F800
:10152500886E120ABC756D0875BB107887E6FE7665
:101535000211787887EEF6C2AF755EFF120B7185E2
:10154500225E85225F852260D2AF75220175240156
:10155500752501855D64756501D268D269753400AC
:10156500120F6E120FB0120B8F120B96120C0C028B
:10157500158111061178756D0075BB0B120D0B12D7
:101585000DB9120DD81207D9120DFA120E44120B0D
:1015950096120BFB120C0C120CC8120D00120DB991
:1015A500120DD812087C1209E1120DFA120E9512CD
:1015B5000B96120BFB120C0C120CC8120D0B120D14
:1015C500B9120DD81208BC120DFA120ED9120B96CB
:1015D500120BFB120C0C120CC8120D00120DB912D5
:1015E5000DD8120919120DFA120F33120B96120BA0
:1015F500FB120C0C120CC8120D0B120DB9120DD8E2
:1016050012097E120DFA120F6E120B96120BFB12B7
:101615000C0C120CC8120D00120AB8120DB9120DDD
:10162500D8120ABC120DFA120FB0120B96120BFB50
:10163500120C0C120CC830692F206B2C85615E854D
:10164500615F855D6475650179327A0AC3E5349910
:101655004009C269D26A8A3302166DC3E5599401FD
:1016650040030215810216B8306A1B206B18E5335A
:10167500147004C26AA177F533C3E5599401400398
:101685000215810216B8C3E55C9401400985615FC6
:10169500855D64756501C3E55C94FA501630740484
:1016A500E529600FC3E53B78F0306B027860985010
:1016B50002A181C2AF11067887E6FE76021178781D
:1016C50087EEF6E4F522F523F524F525F562C268E3
:1016D500D2AF1206B11106307406E52970024175C4
:1016E500788DE6C394014002613A817B901A0D78AA
:1016F50020121774E520B4A50CA3121774E520B4C5
:101705005A030217121118121732021731901A03D1
:1017150078807B0A121774A308DBF9901A0F788C6E
:101725007B15121774A308DBF9901A2422C2AF1295
:1017350017B312178D901A00740D121779A374023E
:10174500121779A37413121779901A0378807B0AFC
:10175500121778A308DBF9901A0F788C7B151217EE
:1017650078A308DBF91217C61217A4901A2422E4ED
:1017750093F622E6438F01538FFD75EF0275B7A5EA
:1017850075B7F1F0538FFE22438F02438F0175EF3A
:101795000275B7A575B7F1901A0DF0538FFC22901D
:1017A5001A0D74A5F179901A0E745AF179227A30CE
:1017B50079D07820901A40F174E520F709A3DAF77B
:1017C500227A3079D0901A40E7F17909A3DAF92223
:1017D500AB71A872BB01027980BB02027981BB03A0
:1017E500027982BB04027994BB05027983BB0602A8
:1017F5007986BB07027992BB08027987BB09027912
:101805009CBB0A027988BB0B027989E8F7227C0523
:101815001206CADCFB22C2AF1206DA1206E1120674
:10182500E81206EF1206BB1206DA1206E11206E806
:101835001206EF1206BB1206DA1206E11206E812CC
:1018450006EFD2AF22C2AF1206EF1206E81206E18A
:101855001206DA1206BB1206EF1206E81206E112AC
:0E18650006DA1206BB1206EF1206E81206E1C2
:101873001206DAD2AF22AE71AF72C2AF1206DA121B
:1018830006DA1206DA1206BBDEF21206EF1206BB06
:10189300DFF8D2AF22111B11131113757101757289
:1018A3000175730011797C05AD591206CAC3ED9514
:1018B3005970F5C3E5599401400AC3E55994FF40B3
:1018C300340218D61217D5121732111BC2AF75EF97
:1018D300121113DCD30573C3E5739403500280C460
:1018E30011130572E5711490009A93F808C3E57219
:1018F30098500280AC111311130571C3E571940C58
:101903005002809A121018121732C2AF75EF1211DB
:0119130013C0
:101A00000D021307070104FFFF0A020101A55A0096
:101A100000B4FFFFFF03FF01FF03FA78C804FF01D2
:051A200000FF0A00FFB9
:101A400023416C69676E424C313558232020202099
:101A500023424C48454C4923463333302320202031
:101A60002020202020202020202020202020202076
:00000001FF
