:0300000002110EDC
:03000B000200A54B
:03002B000202AE20
:03005B0002045F3D
:030073000204394B
:1000800002030406080C10182030406080040608A3
:100090000C10182030406080A0C00D0D0403060D28
:1000A0000503030202C2AFC0D0C0E020620C20688A
:1000B00002419D306602415DE47385258AC262E596
:1000C00025F4700221242068022111207210758B02
:1000D00000D0E0D0D0C283C294C295D2AF32C283E6
:1000E000C294C2957408D5E0FDE53C1420E21520C9
:1000F000E10D207D02D297307D02D280020121D213
:1001000082020121207D02D280307D02D29702013D
:1001100021758B00D0E0D0D0C283C294C295D2AFFB
:1001200032758B00D0E0D0D0D2AF32419DE5256052
:100130000A207D02D283307D02D295C294419DE592
:10014000256002D294207D02C295307D02C2834197
:100150009DE525600A207D02D295307D02D2832064
:100160007D02C283307D02C295419D207D02C28006
:10017000307D02C297207D02C297307D02C280741A
:1001800006D5E0FDE525600A207D02D283307D02A0
:10019000D295C294419D207D02C280307D02C297DB
:1001A000C2827406D5E0FDE525600A207D02D28377
:1001B000307D02D295C294419DC282207D02C280D0
:1001C000307D02C2977406D5E0FDE5256002D29429
:1001D000207D02C295307D02C283419DC282207D76
:1001E00002C297307D02C2807406D5E0FDE525602D
:1001F00002D294207D02C295307D02C283419D20AF
:100200007D02C297307D02C280C2827406D5E0FDB5
:10021000E525600A207D02D295307D02D283207DC3
:1002200002C283307D02C295419D207D02C297307B
:100230007D02C280207D02C280307D02C29774069A
:10024000D5E0FDE525600A207D02D295307D02D201
:1002500083207D02C283307D02C295419D30723D74
:10026000E53C20E21A20E129207D02C280307D0297
:10027000C297207D02C297307D02C28002029D207B
:10028000E1E6207D02C280307D02C297C282020276
:100290009DC282207D02C297307D02C280E525F496
:1002A000F58A758B00D262D0E0D0D0D2AF32C2AF27
:1002B000C2AD53E6EFC0D0C0E0D2D3D2AFC2CEE5DC
:1002C0002960072074461529610C78007900E580C3
:1002D000307E01F430E50278FF53DACF207E03430D
:1002E000DA20307E0343DA10C2D8C271E580307E56
:1002F00001F430E50279FFC3E89970CE30610375EF
:1003000029402074037529408859D270E52A600479
:10031000152A611C20740543DA01C2D820700261DD
:1003200044A859206102C270207402612D882230D5
:10033000690AC3E522955E4003855E227882B60491
:1003400003852224C3E52594404002D26420CF0CCB
:10035000D0E0D0D0C2D343E610D2AD32C2CF7802C3
:10036000E52960053074021529C3E559940140055B
:10037000755C006186755D00756400E55C2401F5BF
:100380005C5003755CFF7982B7020EE547601EC3BF
:10039000E522943240178546227982B7030FE5475C
:1003A000600BC3E52294324004798E8722C3E52393
:1003B000952260084004152361BC0523D8C8056454
:1003C000E56470021564D565647565017805C3E55B
:1003D0006495664058C3E564956750087801756573
:1003E000030203F0C3E56495685005780175650163
:1003F000C3E55F9524401F7982B704028122E54757
:10040000701485245FE56404600385666475650186
:1004100075233C02042DE55F285005755FFF81229E
:10042000F55FE55F047006755DFF7564FFD0E0D091
:10043000D0C2D343E610D2AD32C0D0C0E0C2AF5379
:10044000917F53E67FC260759100C3E49550F594A7
:10045000E49551F595759104D0E0D0D0D2AF32C279
:10046000AF53E6EFC2ADC0D0C0E0C0F0D2D3D2AF40
:0E047000A8FBA9FCC2D830710281C653DACFB6
:10047E00207E0343DA10307E0343DA20D271E5800A
:10048E00307E01F420E502819D88268927C19D5387
:10049E00DACF207E0343DA20307E0343DA10C2D84F
:1004AE00C271307402C1897800E580307E01F4306B
:1004BE00E502C1898859C17053DACF207E0343DA31
:1004CE0020307E0343DA10C271206102A19653DA06
:1004DE00CF207E0343DA10307E0343DA20C2D8D217
:1004EE007188548955C3E89552F8E99553F9E4FBA0
:1004FE007E027A00C3E8948CE9940050057558008A
:10050E00A186C3E894C8E994005008E4D2E4FB7ACB
:10051E000AA163C3E89468E994015008E4D2E3FBAE
:10052E007A0FA163C3E894D0E994025008E4D2E2B2
:10053E00FB7A1EA163C3E894A0E994055008E4D2A7
:10054E00E1FB7A3CA163C3E89498E994085008E46F
:10055E00D2E0FB7A787E00C3E89556FCE99557FD0C
:10056E0030E708ECF42401FCEDF4FD755800C3EC03
:10057E009AED9E500375580188568957A854A9556F
:10058E00885289537802C170C3E89526F8E99527F9
:10059E00F9307C02C154307B02C154307A02C14D15
:1005AE00207502A1B9E9FDE8FCA1D8E9C313F9E869
:1005BE0013F8307902C14DE9C313F9E813F8307816
:1005CE0002C14DE9C313FDE813FC206126C3EC9470
:1005DE001CED94024002A1EFED7018C3EC94C850CC
:1005EE00120528C3E528940A5002C189755900D214
:1005FE0070C189E528600215287400207F03789663
:10060E00E624FAFEE43400FFC3EC9EFCED9FFD50A1
:10061E000678007900C154C3EC94FFED94004006B7
:10062E0078FF7900C154EC856FF0A4C5F0A2F733C2
:10063E00F87900400302067078FF7900020670E92F
:10064E00C313F9E813F8307C0EE9600278FFC3E8B3
:10065E001338F8E43400F9C3E894FFE9940040023B
:10066E0078FF8859D270206102C189741FF4552F0A
:10067E004BF52FC274E42B7002D27475294030747E
:10068E000375290A306102C19D20740353DAFE7589
:10069E002A20307403752A0AD0F0D0E0D0D0C2D30D
:1006AE00D2AD43E6103279010206D279030206D2A8
:1006BE00790A0206D2791E0206D279640206D2792E
:1006CE00C80206D27817E4D5E0FDD8FAD9F6227A18
:1006DE00147B780206F97A107B8C0206F97A0D7B70
:1006EE00B40206F97A0B7BC80206F9AC2575250112
:1006FE007902B27DE4C282D5E0FDE5256002D29496
:10070E00D5E0FDC294D5E0FDD282D5E0FDE52560B1
:10071E000A207D02D283307D02D295E570D5E0FDB0
:10072E00207D02C283307D02C2957496D5E0FDD93C
:10073E00C1EAF8D5E0FDD8FBDBB1C2828C2522C31D
:10074E007C007D0075F00005F0EA33FAEB33FB50C8
:10075E00F6EB13FBEA13FAC3E9FFE8FEE89AF8E9B1
:10076E009BF95004EFF9EEF8B3EC33FCED33FDD505
:10077E00F0DFEDF9ECF822E889F08A20D2D4F8A95E
:10078E00F07B0030F70B7BFFF42401F8E9F4340022
:10079E00F9E88520F0A4ADF0F8E98520F0A4AFF0DB
:1007AE00FEED2EF974003FFA7C04C3EA13FAE91346
:1007BE00F9E813F8DCF48BF030F70AE8F42401F8CA
:1007CE00E9F43400F9E889F0C2D4F8A9F02278826D
:1007DE00B6040302087EC3E5599419401FE52D5453
:1007EE00067019E547703878057994E71460077834
:1007FE000A1460027812C3E53B984020E547600971
:10080E0085615F7564FF756501852224E4F53EF50B
:10081E003FF540F541F542F54702087E75470179EF
:10082E0094E7147013E523F43333F913F8E9540104
:10083E0004F9E854FE020872E714147014E523F468
:10084E00333333F913F8E9540304F9E854FC02087E
:10085E007AE523F433333333F913F8E954070404F8
:0E086E00F9E854F8C39440F8E99400F9883E84
:10087C00893F22E547603BC3E53B13F9E53A13F8A2
:10088C00C3E53E98F8E53F99F9500CC3E89480E92C
:10089C0094FF40160208BAC3E8947FE99400500311
:1008AC000208BA787F79000208BA788079FF884309
:1008BC00894422E5476058E5432540F8E544354135
:1008CC00F9854420E4300701F43542FA30E709C3D6
:1008DC00EA94F040150208FCC3EA940F5003020896
:1008EC00FC78FF79FF7A0F0208FC780079007AF027
:1008FC00C3E524955E5006E52460092115E54420E6
:10090C00E70D2115E54430E706884089418A4222EB
:10091C00E547700302098078A1E6FAC3E54333F892
:10092C00E54433F9120785E930E70BC3E89480E915
:10093C0094FF40132157C3E8947FE994005002219F
:10094C0057787F79002157788079FFE820E715C325
:10095C00E52398F84009C3E89401400302097E7826
:10096C000102097EE8F424012523F8400302097EE4
:10097C0078FF884522E54770030209E378A2E6FA7E
:10098C00A841A942120785E930E70CC3E89401E9B4
:10099C0094FF40160209BAC3E894FFE9940050038F
:1009AC000209BA78FF79000209BA780179FFE920C7
:1009BC00E715C3E54598F84009C3E89401400302E4
:1009CC0009E178000209E1E8F424012545F8400327
:1009DC000209E178FF88242278FFC264E52D5406D1
:1009EC00702FD264C3E53B940A4009C3E5259440BB
:1009FC005002C264E53B601974FF853BF084853777
:100A0C00F0A4F8C5F0600278FFC3E895615002A825
:100A1C00618860227883E6F520120F2175E8901228
:100A2C0006B475E890E5E820ECFBA8BDA9BE120F52
:100A3C00A1756B55756C00C3740013FD745513FCD4
:100A4C0074552CFC74003DFDECFAEDFBC3E89AE9FF
:100A5C009B4014E56B2455F56BE56C3400F56CEAA2
:100A6C002CFAEB3DFB80E5AE6BAF6CC3E56C13F978
:100A7C00E56B13F8C3E913F9E813F8E56B28F5698E
:100A8C00E56C39F56A7A03C3E913F9E813F8DAF778
:100A9C00AA201A7009756B00756C00020ABA1AEA62
:100AAC006008EE28FEEF39FFDAF88E6B8F6C22753A
:100ABC00E890227883E6FFE5E820ECF7A8BDA9BE14
:100ACC00056DC3E56D94084052756D00E9FA79A087
:100ADC00E76044EA7007E56E601B020AF5C3E8950F
:100AEC006E6010E56E5006600C14020B010460F988
:100AFC00020B01E56EF56EC3946D401B755EC0C3B1
:100B0C0094044013755E80C39404400B755E40C31F
:100B1C0094044003755E0075BB0922EFC394016019
:100B2C001BC3E894FFE994035012C3E8956BE99555
:100B3C006C5009E55E600C155E020B4FE55EF460CF
:100B4C0002055EA85EC3E524985002A824C3E8956C
:100B5C005F400AA85FE55FF46003855F5E8825E56A
:100B6C006DB4070375BB1022743279A387F0A4C54A
:100B7C00F0A2F733F8C3E8955E4002A85E8822889D
:100B8C00248825886122753A00753B7F2275C82020
:100B9C00A8CCA9CD75C824AA38AB3988388939C3F3
:100BAC00E89AF8E99BF9AA3AAB3BAC3AAD3B7E0428
:100BBC007F02C3EB940440021E1FC3EB9408400257
:100BCC001E1FC3ED13FDEC13FCDEF7C3EA9CFAEB1E
:100BDC009DFBEF6009C3E913F9E813F8DFF7EA2886
:100BEC00FAEB39FB8A3A8B3B400122753AFF753B95
:100BFC00FF2230600261FE854C50854D51D260431E
:100C0C00E680227892E6FFC3E535948240010FC35B
:100C1C00E53594A040010FC3EF940640027F057E9A
:100C2C00021E3072010EC3E53B940350060E0E30CB
:100C3C0072010EC3E53B940250060E0E3072010E8B
:100C4C00A93BA83A7A04C3E913F9E813F8DAF7C315
:100C5C00E89EF8E99400F94009C3E89402E994008D
:0F0C6C0050047802E4F9E9FBE8FAC3E913FDE864
:100C7B0013FC884C894DC3EF94036037EF20E00DD4
:100C8B00E82CF8E93DF9ECFAEDFB020CABE828F89F
:100C9B00E939F9C3E89402F8E99400F97A02E4FB24
:100CAB00C3EF9403400D8A4E8B4F884889498C4A79
:100CBB008D4B22884E894F8A488B498C4A8D4B220B
:100CCB0030600281CBD26043E680E52D540660276D
:100CDB00A83AA93BE53494085006E820E002A94D58
:100CEB00759100C3E498F594E499F595759104D248
:100CFB006053917F43E68022D265753D00752000DD
:100D0B00020D16D265753D00752040E52D54066029
:100D1B0002C265D2AF206005E53D60012278017A01
:100D2B0002C3E53B940540027802C3E53B940A40BD
:100D3B00027803C3E53B940F40027A0330690478D1
:100D4B001E7A01206007E53D6003D2AF22D2AF00CF
:100D5B0000C2AFC3E53BFB940F40027B0FEB0430AB
:100D6B0073012320620123F93069027982E58BC379
:100D7B009940D0053DEAFBE59BF45440B52004DBDC
:100D8B00F6A1B2206502A116C265759100AE3AAF0D
:100D9B003BC3E49EF594E49FF595759104D26053A3
:100DAB00917F43E680A116306502A116D895D2AF8C
:100DBB002230690B0534206016753400020DDA20E1
:100DCB00600D20650A206B071581158102166922BB
:100DDB00A84EA94F75910053917FC3E498F594E405
:100DEB0099F595759104854850854951D26043E634
:100DFB00802278003064053065027801E53575F0A6
:100E0B0007A4F9E5F028F5F0E9A2F013A2F113A27B
:100E1B00F213F535C394785003753578C3E53595E2
:100E2B00364008D266C283C294C295306002C13686
:100E3B00854A50854B51D26043E68022C2AFC280B7
:100E4B00C282C29730720B9001FF7406D5E0FD028F
:100E5B000E5D207D02D280307D02D297759F437547
:100E6B003C02020F9CC2AF207D02C295307D02C2B4
:100E7B00833072179001DCC282207D02C297307DD5
:100E8B0002C2807406D5E0FD020E9990013F3062DC
:100E9B0006E5256002D294207D03759F53307D03B8
:100EAB00759F33753C03020F9CC2AFC280C282C2D6
:100EBB009730720B9001B97406D5E0FD020ECA2073
:100ECB007D02D297307D02D280207D03759F333017
:100EDB007D03759F53753C04020F9CC2AFC29430C7
:100EEB007217900196207D02C280307D02C297C29C
:100EFB00827406D5E0FD020F0790012D30620EE5DE
:100F0B0025600A207D02D283307D02D295759F43E6
:100F1B00753C05020F9CC2AFC280C282C297307271
:100F2B000B90016B7406D5E0FD020F37D282207D4A
:100F3B0003759F53307D03759F33753C06020F9CE1
:100F4B00C2AF207D02C283307D02C29530721F90EA
:100F5B00022A207D02C280307D02C297207D02C210
:100F6B0097307D02C2807406D5E0FD020F7C9001A4
:100F7B005130620EE525600A207D02D295307D024C
:100F8B00D283207D03759F33307D03759F53753C52
:100F9B0001C266D2AF2290012BC283C294C295C20A
:100FAB0080C282C297C262227880760708760708D1
:100FBB0076010876040876FF0876FF08760908762E
:100FCB0002087601087601788C76000876000876A0
:100FDB00B40876FF0876FF0876FF0876030876FFDD
:100FEB000876010876FF0876030876FA0876780803
:100FFB0076C80876040876FF08760108760008762E
:10100B007D08760A087600227887E6FFC272BF0356
:10101B0002D2727888C27DE630E102D27DC27E7840
:10102B0089E630E102D27EC3EF94026008758E012F
:10103B00D273021045758E00C273227880E614902D
:10104B0000809378A1F67881E6149000809378A2C3
:10105B00F6120FA1227886E61490008D9378A3F6F2
:0F106B00120FA122789FE6F8700108C3E89411D4
:10107A0040027811E82828F5662566256628F5676E
:10108A0025662828F56822789CE67536FF75370CA0
:10109A00B402067536A075370AB40306753682752A
:1010AA00370522D281789DE66002C281227896E6CF
:1010BA00FA7897E6FB307F047A007BFFC3EB9AFC51
:1010CA00C3948250027C82756F00056FEC856FF0C5
:1010DA00A4C3E5F0948040F222D27F11B71206C36E
:1010EA007A007B007C101206B9E5592AFA74003B93
:1010FA00FBDCF37C04C3EB13FBEA13FADCF7FEC256
:10110A007F11B722E5EF20E6037520000520903F06
:10111A00FFE520146006901DFF146000930460032D
:10112A0075EF12C2D353D9BF7581C043FF8012062F
:10113A00B475EF0243B203E5B3240420E702F5B322
:10114A00120FA17580F075A40F75F13F75D4DF7584
:10115A00904F75A5B075F2F575D50075A60175E2C3
:10116A0041120FB31216E678988670C2AF1206CDF6
:10117A001206F21206F21206C81206C81206C8129F
:10118A0006C81206F21206F21206C81206C812069B
:10119A00C31206C31206F21206C31206C31206F2DD
:1011AA001206F21206C81206C81206C81206C81299
:1011BA0006F21206F21206C81206C81206C812066B
:1011CA00C81206EB1206EB1206C81206C81206C8A7
:1011DA001206C81206DD1206DD1206C81206C81269
:1011EA0006C31206C31206EB1206C31206C3120680
:1011FA00F21206F21206C81206C81206C81206C869
:10120A001206C81206C81206C81206C81217C71252
:10121A0006CD1206CD1206C8C2AFE4F8F6D8FD789C
:10122A00C879C8308504D9FBD8F7120FB31216E66D
:10123A00111311461160116F119111AD11B7789800
:10124A008670120FA175885075891275C824759118
:10125A000475D84075A82275B80275E690759B800A
:10126A00759D0075D10E75BC5875BB0975BA117597
:10127A00E8801206B4D2AF120A2043DA01C2D8C2F9
:10128A00711206CD753001D2617B037A0CE5587074
:10129A00067A0CDB0241221206C32070024122C2E6
:1012AA0070E559C3940240E3E52F541F855B5AF554
:1012BA005BB55AD7DAD7C26153DACF207E0343DA55
:1012CA0020307E0343DA10C2D8C271C27575280075
:1012DA001206C8307409C3E528940A4002D275126E
:1012EA0006B978023074027800C3E5599840F0C212
:1012FA00AF1206DD1206C31206DD1206C31206E499
:10130A001206C31206E4D2AF1206CD7546001206C3
:10131A00B9788CE6C3940150030213ECE530C39408
:10132A000150030213EC207435C3E55994FF5003AE
:10133A000213ECC2AF1206F2D2AF1206C8C3E559C5
:10134A00940150EFC2AF1206DD1206BE1206DDD2BC
:10135A00AF1206C8C3E55994FF40E902184C7F054D
:10136A00D27F11B71206C8C2AFC27F11B7AE59C336
:10137A00E559947FD2AF40741206B4C2AF1206F296
:10138A00D2AFDFDC11E3C3EE94057897F61206CDEF
:10139A001216E61217CF7F0AD27F11B71206C8C2F9
:1013AA00AFC27F11B7AE59C3E559947FD2AF50E6A9
:1013BA001206B4C2AF1206DD1206BE1206DDD2AFA5
:1013CA00DFD611E3EE24057896F61206CD1216E65C
:1013DA001217FE1206C811B7C3E55994FF40F4026A
:1013EA00184CC3E559954640038559461206C878F4
:1013FA00017988E7B403027805C3E5599840026188
:10140A0018C2AF1206F21206C31206F21206C3126D
:10141A0006EB1206C31206EBD2AF1206CD753000E8
:10142A00E4F531F5320531E531F470390532789A4F
:10143A00E67819146012783214600D787D14600809
:10144A0078FA146003753200C3E5329840171532F2
:10145A007531B478998670C2AF1206F2D2AF789815
:0F146A0086701206C81206BEE52970053074029E
:10147900412278012074027806C3E5599840A712E1
:1014890006C8E52970024122C2AF120FA1E4F52274
:10149900F523F524F525D2AF78858662F53EF53F2B
:1014A900F540F541F542F56DF547F52CF52DF53586
:1014B900120B92756D0875BB101206B4120ABBE5C2
:1014C900E820ECFBA8BDA9BEE97001F8886E120AF4
:1014D900BF756D0875BB107887E6FE760211137823
:1014E90087EEF6C2AF755EFF120B7485225E852208
:1014F9005F852260D2AF75220175240175250185AA
:101509005D64756501D268D269753400120F2112C4
:101519000F4B120B92120B99120C0F021532120F6C
:10152900A11113756D0075BB09120D0E120DBC12B8
:101539000DDB1207DC120DFD120E47120B99120B6F
:10154900FE120C0F120CCB120D03120DBC120DDB87
:1015590012087F1209E4120DFD120E70120B991276
:101569000BFE120C0F120CCB120D0E120DBC120D2C
:10157900DB1208BF120DFD120EB4120B99120BFEED
:10158900120C0F120CCB120D03120DBC120DDB1233
:10159900091C120DFD120EE6120B99120BFE120C0C
:1015A9000F120CCB120D0E120DBC120DDB1209819C
:1015B900120DFD120F21120B99120BFE120C0F12B4
:1015C9000CCB120D03120ABB120DBC120DDB120A51
:1015D900BF120DFD120F4B120B99120BFE120C0FBD
:1015E900120CCB30692F206B2C85615E85615F857C
:1015F9005D6475650179327A0AC3E534994009C297
:1016090069D26A8A3302161EC3E55994014003025E
:101619001532021669306A1B206B18E53314700401
:10162900C26AA127F533C3E5599401400302153273
:10163900021669C3E55C9401400985615F855D64B3
:10164900756501C3E55C94FA5016307404E52960A8
:101659000FC3E53B78F0306B027860985002A132F5
:10166900C2AF120FA17887E6FE760211137887EED2
:10167900F6E4F522F523F524F525F562C268D2AF23
:101689001206B4120FA1307406E5297002412278BE
:101699008DE6C39401400241E9812A901A0D782010
:1016A900121728E520B4A50CA3121728E520B45A6F
:1016B900030216C6120FB31216E60216E5901A03B4
:1016C90078807B0A121728A308DBF9901A0F788C07
:1016D9007B15121728A308DBF9901A2422C2AF122E
:1016E9001767121741901A00740D12172DA374026F
:1016F90012172DA3741312172D901A0378807B0AE1
:1017090012172CA308DBF9901A0F788C7B15121786
:101719002CA308DBF912177A121758901A2422E41D
:1017290093F622E6438F01538FFD75EF0275B7A536
:1017390075B7F1F0538FFE22438F02438F0175EF86
:101749000275B7A575B7F1901A0DF0538FFC229069
:101759001A0D74A5F12D901A0E745AF12D227A30B2
:1017690079D07820901A40F128E520F709A3DAF713
:10177900227A3079D0901A40E7F12D09A3DAF922BB
:10178900AB71A872BB01027980BB02027981BB03EC
:10179900027982BB04027994BB05027983BB0602F4
:1017A9007986BB07027992BB08027987BB0902795E
:1017B9009CBB0A027988BB0B027989E8F7227C0570
:1017C9001206CDDCFB22C2AF1206DD1206E41206B8
:1017D900EB1206F21206BE1206DD1206E41206EB41
:1017E9001206F21206BE1206DD1206E41206EB120A
:1017F90006F2D2AF22C2AF1206F21206EB1206E4CB
:101809001206DD1206BE1206F21206EB1206E412E9
:1018190006DD1206BE1206F21206EB1206E41206E5
:10182900DDD2AF22AE71AF72C2AF1206DD1206DD94
:101839001206DD1206BEDEF21206F21206BEDFF84D
:10184900D2AF221217CF1217C71217C775710175B8
:101859007201757300112D7C05AD591206CDC3EDCA
:0E186900955970F5C3E5599401400AC3E5593D
:1018770094FF403702188F1217891216E61217CFF6
:10188700C2AF75EF121217C7DCD10573C3E57394A6
:1018970003500280C21217C70572E5711490009AAF
:1018A70093F808C3E57298500280A91217C7121758
:1018B700C70571C3E571940C50028095120FB312DE
:0A18C70016E6C2AF75EF121217C744
:101A00000D021307070104FFFF09020101A55A0097
:101A100000B4FFFFFF03FF01FF03FA78C804FF01D2
:051A200000FF0A00FFB9
:101A400023416C69676E424C33355023202020209F
:101A500023424C48454C4923463333302320202031
:101A60002020202020202020202020202020202076
:00000001FF
