:0300000002116B7F
:03000B000200A54B
:03002B000202AE20
:03005B0002045F3D
:030073000204394B
:1000800002030406080C10182030406080040608A3
:100090000C10182030406080A0C00D0D0403060D28
:1000A0000503030202C2AFC0D0C0E020620C20688A
:1000B00002419D306602415DE47385258AC262E596
:1000C00025F4700221242068022111207210758B02
:1000D00000D0E0D0D0C292C291C290D2AF32C292D0
:1000E000C291C2907406D5E0FDE53C1420E21520D3
:1000F000E10D207D02D293307D02D295020121D202
:1001000094020121207D02D295307D02D29302011A
:1001100021758B00D0E0D0D0C292C291C290D2AFF4
:1001200032758B00D0E0D0D0D2AF32419DE5256052
:100130000A207D02D292307D02D290C291419DE58B
:10014000256002D291207D02C290307D02C2924190
:100150009DE525600A207D02D290307D02D292205A
:100160007D02C292307D02C290419D207D02C295E7
:10017000307D02C293207D02C293307D02C295740D
:1001800006D5E0FDE525600A207D02D292307D0291
:10019000D290C291419D207D02C295307D02C293D2
:1001A000C2947406D5E0FDE525600A207D02D29256
:1001B000307D02D290C291419DC294207D02C295B1
:1001C000307D02C2937406D5E0FDE5256002D29130
:1001D000207D02C290307D02C292419DC294207D5A
:1001E00002C293307D02C2957406D5E0FDE525601C
:1001F00002D291207D02C290307D02C292419D20A8
:100200007D02C293307D02C295C2947406D5E0FD92
:10021000E525600A207D02D290307D02D292207DB9
:1002200002C292307D02C290419D207D02C2933075
:100230007D02C295207D02C295307D02C293740674
:10024000D5E0FDE525600A207D02D290307D02D206
:1002500092207D02C292307D02C290419D30723D5B
:10026000E53C20E21A20E129207D02C295307D0282
:10027000C293207D02C293307D02C29502029D206E
:10028000E1E6207D02C295307D02C293C294020253
:100290009DC294207D02C293307D02C295E525F473
:1002A000F58A758B00D262D0E0D0D0D2AF32C2AF27
:1002B000C2AD53E6EFC0D0C0E0D2D3D2AFC2CEE5DC
:1002C0002960072074461529610C78007900E580C3
:1002D000307E01F430E70278FF53DACF207E03430B
:1002E000DA20307E0343DA10C2D8C271E580307E56
:1002F00001F430E70279FFC3E89970CE30610375ED
:1003000029402074037529408859D270E52A600479
:10031000152A611C20740543DA01C2D820700261DD
:1003200044A859206102C270207402612D882230D5
:10033000690AC3E522955E4003855E227882B60491
:1003400003852224C3E52594404002D26420CF0CCB
:10035000D0E0D0D0C2D343E610D2AD32C2CF7802C3
:10036000E52960053074021529C3E559940140055B
:10037000755C006186755D00756400E55C2401F5BF
:100380005C5003755CFF7982B7020EE547601EC3BF
:10039000E522943240178546227982B7030FE5475C
:1003A000600BC3E52294324004798E8722C3E52393
:1003B000952260084004152361BC0523D8C8056454
:1003C000E56470021564D565647565017805C3E55B
:1003D0006495664058C3E564956750087801756573
:1003E000030203F0C3E56495685005780175650163
:1003F000C3E55F9524401F7982B704028122E54757
:10040000701485245FE56404600385666475650186
:1004100075233C02042DE55F285005755FFF81229E
:10042000F55FE55F047006755DFF7564FFD0E0D091
:10043000D0C2D343E610D2AD32C0D0C0E0C2AF5379
:10044000917F53E67FC260759100C3E49550F594A7
:10045000E49551F595759104D0E0D0D0D2AF32C279
:10046000AF53E6EFC2ADC0D0C0E0C0F0D2D3D2AF40
:0E047000A8FBA9FCC2D830710281C653DACFB6
:10047E00207E0343DA10307E0343DA20D271E5800A
:10048E00307E01F420E702819D88268927C19D5385
:10049E00DACF207E0343DA20307E0343DA10C2D84F
:1004AE00C271307402C1897800E580307E01F4306B
:1004BE00E702C1898859C17053DACF207E0343DA2F
:1004CE0020307E0343DA10C271206102A19653DA06
:1004DE00CF207E0343DA10307E0343DA20C2D8D217
:1004EE007188548955C3E89552F8E99553F9E4FBA0
:1004FE007E027A00C3E8948CE9940050057558008A
:10050E00A186C3E894C8E994005008E4D2E4FB7ACB
:10051E000AA163C3E89468E994015008E4D2E3FBAE
:10052E007A0FA163C3E894D0E994025008E4D2E2B2
:10053E00FB7A1EA163C3E894A0E994055008E4D2A7
:10054E00E1FB7A3CA163C3E89498E994085008E46F
:10055E00D2E0FB7A787E00C3E89556FCE99557FD0C
:10056E0030E708ECF42401FCEDF4FD755800C3EC03
:10057E009AED9E500375580188568957A854A9556F
:10058E00885289537802C170C3E89526F8E99527F9
:10059E00F9307C02C154307B02C154307A02C14D15
:1005AE00207502A1B9E9FDE8FCA1D8E9C313F9E869
:1005BE0013F8307902C14DE9C313F9E813F8307816
:1005CE0002C14DE9C313FDE813FC206126C3EC9470
:1005DE001CED94024002A1EFED7018C3EC94C850CC
:1005EE00120528C3E528940A5002C189755900D214
:1005FE0070C189E528600215287400207F03789663
:10060E00E624FAFEE43400FFC3EC9EFCED9FFD50A1
:10061E000678007900C154C3EC94FFED94004006B7
:10062E0078FF7900C154EC856FF0A4C5F0A2F733C2
:10063E00F87900400302067078FF7900020670E92F
:10064E00C313F9E813F8307C0EE9600278FFC3E8B3
:10065E001338F8E43400F9C3E894FFE9940040023B
:10066E0078FF8859D270206102C189741FF4552F0A
:10067E004BF52FC274E42B7002D27475294030747E
:10068E000375290A306102C19D20740353DAFE7589
:10069E002A20307403752A0AD0F0D0E0D0D0C2D30D
:1006AE00D2AD43E6103279010206D279030206D2A8
:1006BE00790A0206D2791E0206D279640206D2792E
:1006CE00C80206D27817E4D5E0FDD8FAD9F6227A18
:1006DE00147B780206F97A107B8C0206F97A0D7B70
:1006EE00B40206F97A0B7BC80206F9AC2575250112
:1006FE007902B27DE4C294D5E0FDE5256002D29187
:10070E00D5E0FDC291D5E0FDD294D5E0FDE52560A2
:10071E000A207D02D292307D02D290E570D5E0FDA6
:10072E00207D02C292307D02C2907496D5E0FDD932
:10073E00C1EAF8D5E0FDD8FBDBB1C2948C2522C30B
:10074E007C007D0075F00005F0EA33FAEB33FB50C8
:10075E00F6EB13FBEA13FAC3E9FFE8FEE89AF8E9B1
:10076E009BF95004EFF9EEF8B3EC33FCED33FDD505
:10077E00F0DFEDF9ECF822E889F08A20D2D4F8A95E
:10078E00F07B0030F70B7BFFF42401F8E9F4340022
:10079E00F9E88520F0A4ADF0F8E98520F0A4AFF0DB
:1007AE00FEED2EF974003FFA7C04C3EA13FAE91346
:1007BE00F9E813F8DCF48BF030F70AE8F42401F8CA
:1007CE00E9F43400F9E889F0C2D4F8A9F02278826D
:1007DE00B6040302087EC3E5599419401FE52D5453
:1007EE00067019E547703878057994E71460077834
:1007FE000A1460027812C3E53B984020E547600971
:10080E0085615F7564FF756501852224E4F53EF50B
:10081E003FF540F541F542F54702087E75470179EF
:10082E0094E7147013E523F43333F913F8E9540104
:10083E0004F9E854FE020872E714147014E523F468
:10084E00333333F913F8E9540304F9E854FC02087E
:10085E007AE523F433333333F913F8E954070404F8
:0E086E00F9E854F8C39440F8E99400F9883E84
:10087C00893F22E547603BC3E53B13F9E53A13F8A2
:10088C00C3E53E98F8E53F99F9500CC3E89480E92C
:10089C0094FF40160208BAC3E8947FE99400500311
:1008AC000208BA787F79000208BA788079FF884309
:1008BC00894422E5476058E5432540F8E544354135
:1008CC00F9854420E4300701F43542FA30E709C3D6
:1008DC00EA94F040150208FCC3EA940F5003020896
:1008EC00FC78FF79FF7A0F0208FC780079007AF027
:1008FC00C3E524955E5006E52460092115E54420E6
:10090C00E70D2115E54430E706884089418A4222EB
:10091C00E547700302098078A1E6FAC3E54333F892
:10092C00E54433F9120785E930E70BC3E89480E915
:10093C0094FF40132157C3E8947FE994005002219F
:10094C0057787F79002157788079FFE820E715C325
:10095C00E52398F84009C3E89401400302097E7826
:10096C000102097EE8F424012523F8400302097EE4
:10097C0078FF884522E54770030209E378A2E6FA7E
:10098C00A841A942120785E930E70CC3E89401E9B4
:10099C0094FF40160209BAC3E894FFE9940050038F
:1009AC000209BA78FF79000209BA780179FFE920C7
:1009BC00E715C3E54598F84009C3E89401400302E4
:1009CC0009E178000209E1E8F424012545F8400327
:1009DC000209E178FF88242278FFC264E52D5406D1
:1009EC00702FD264C3E53B940A4009C3E5259440BB
:1009FC005002C264E53B601974FF853BF084853777
:100A0C00F0A4F8C5F0600278FFC3E895615002A825
:100A1C00618860227883E6F520120F7175E89012D8
:100A2C0006B475E890E5E820ECFBA8BDA9BE121051
:100A3C0009756B55756C00C3740013FD745513FC6C
:100A4C0074552CFC74003DFDECFAEDFBC3E89AE9FF
:100A5C009B4014E56B2455F56BE56C3400F56CEAA2
:100A6C002CFAEB3DFB80E5AE6BAF6CC3E56C13F978
:100A7C00E56B13F8C3E913F9E813F8E56B28F5698E
:100A8C00E56C39F56A7A03C3E913F9E813F8DAF778
:100A9C00AA201A7009756B00756C00020ABA1AEA62
:100AAC006008EE28FEEF39FFDAF88E6B8F6C22753A
:100ABC00E890227883E6FFE5E820ECF7A8BDA9BE14
:100ACC00056DC3E56D94084052756D00E9FA79A087
:100ADC00E76044EA7007E56E601B020AF5C3E8950F
:100AEC006E6010E56E5006600C14020B010460F988
:100AFC00020B01E56EF56EC3946D401B755EC0C3B1
:100B0C0094044013755E80C39404400B755E40C31F
:100B1C0094044003755E0075BB0622EFC39401601C
:100B2C001BC3E894FFE994035012C3E8956BE99555
:100B3C006C5009E55E600C155E020B4FE55EF460CF
:100B4C0002055EA85EC3E524985002A824C3E8956C
:100B5C005F400AA85FE55FF46003855F5E8825E56A
:100B6C006DB4070375BB1022743279A387F0A4C54A
:100B7C00F0A2F733F8C3E8955E4002A85E8822889D
:100B8C00248825886122753A00753B7F2275C82020
:100B9C00A8CCA9CD75C824AA38AB3988388939C3F3
:100BAC00E89AF8E99BF9AA3AAB3BAC3AAD3B7E0428
:100BBC007F02C3EB940440021E1FC3EB9408400257
:100BCC001E1FC3ED13FDEC13FCDEF7C3EA9CFAEB1E
:100BDC009DFBEF6009C3E913F9E813F8DFF7EA2886
:100BEC00FAEB39FB8A3A8B3B400122753AFF753B95
:100BFC00FF2230600261FE854C50854D51D260431E
:100C0C00E680227892E6FFC3E535948240010FC35B
:100C1C00E53594A040010FC3EF940640027F057E9A
:100C2C00021E3072010EC3E53B940350060E0E30CB
:100C3C0072010EC3E53B940250060E0E3072010E8B
:100C4C00A93BA83A7A04C3E913F9E813F8DAF7C315
:100C5C00E89EF8E99400F94009C3E89402E994008D
:0F0C6C0050047802E4F9E9FBE8FAC3E913FDE864
:100C7B0013FC884C894DC3EF94036037EF20E00DD4
:100C8B00E82CF8E93DF9ECFAEDFB020CABE828F89F
:100C9B00E939F9C3E89402F8E99400F97A02E4FB24
:100CAB00C3EF9403400D8A4E8B4F884889498C4A79
:100CBB008D4B22884E894F8A488B498C4A8D4B220B
:100CCB0030600281CBD26043E680E52D540660276D
:100CDB00A83AA93BE53494085006E820E002A94D58
:100CEB00759100C3E498F594E499F595759104D248
:100CFB006053917F43E68022D265753D00752000DD
:100D0B00020D16D265753D00752040E52D54066029
:100D1B0002C265D2AF206005E53D60012278017A01
:100D2B0002C3E53B940540027802C3E53B940A40BD
:100D3B00027803C3E53B940F40027A0330690478D1
:100D4B001E7A01206007E53D6003D2AF22D2AF00CF
:100D5B0000C2AFC3E53BFB940F40027B0FEB0430AB
:100D6B0073012320620123F93069027982E58BC379
:100D7B009940D0053DEAFBE59BF45440B52004DBDC
:100D8B00F6A1B2206502A116C265759100AE3AAF0D
:100D9B003BC3E49EF594E49FF595759104D26053A3
:100DAB00917F43E680A116306502A116D895D2AF8C
:100DBB002230690B0534206016753400020DDA20E1
:100DCB00600D20650A206B07158115810216C02264
:100DDB00A84EA94F75910053917FC3E498F594E405
:100DEB0099F595759104854850854951D26043E634
:100DFB00802278003064053065027801E53575F0A6
:100E0B0007A4F9E5F028F5F0E9A2F013A2F113A27B
:100E1B00F213F535C394785003753578C3E53595E2
:100E2B00364008D266C292C291C290306002C1367F
:100E3B00854A50854B51D26043E68022C2AFC295A2
:100E4B00C294C29330720B9001FF7406D5E0FD0281
:100E5B000E85E53B54F86022E525600A207D02D221
:100E6B0092307D02D290740FD5E0FD207D02C292AC
:100E7B00307D02C2907406D5E0FD207D02D2953004
:100E8B007D02D293759F11753C02021004C2AF20F4
:100E9B007D02C290307D02C2923072179001DCC28B
:100EAB0094207D02C293307D02C2957406D5E0FD7D
:100EBB00020EC190013F306206E5256002D29120FF
:100ECB007D03759F01307D03759F21753C030210D7
:100EDB0004C2AFC295C294C29330720B9001B97425
:100EEB0006D5E0FD020F1AE53B54F86022E52560BC
:100EFB000A207D02D290307D02D292740FD5E0FD94
:100F0B00207D02C290307D02C2927406D5E0FD2096
:100F1B007D02D293307D02D295207D03759F2130C7
:100F2B007D03759F01753C04021004C2AFC2913062
:100F3B007217900196207D02C295307D02C293C23A
:100F4B00947406D5E0FD020F5790012D30620EE52B
:100F5B0025600A207D02D292307D02D290759F11BE
:100F6B00753C05021004C2AFC295C294C293307295
:100F7B000B90016B7406D5E0FD020F9FE53B54F817
:100F8B006012E5256002D291740FD5E0FDC2917419
:100F9B0006D5E0FDD294207D03759F01307D03754E
:100FAB009F21753C06021004C2AF207D02C2923015
:100FBB007D02C29030721F90022A207D02C29530B2
:100FCB007D02C293207D02C293307D02C2957406CE
:100FDB00D5E0FD020FE490015130620EE525600A69
:100FEB00207D02D290307D02D292207D03759F210D
:100FFB00307D03759F01753C01C266D2AF22900113
:10100B002BC292C291C290C295C294C293C2622269
:10101B00788076070876070876010876040876FF4D
:10102B000876FF08760A08760208760108760178BA
:10103B008C76000876000876B40876FF0876FF08F1
:10104B0076FF0876030876FF0876010876FF0876A8
:10105B00030876FA0876780876C80876040876FFCF
:0F106B0008760108760008767D08760A08760078
:10107A00227887E6FFC272BF0302D2727888C27DE5
:10108A00E630E102D27DC27E7889E630E102D27E84
:10109A00C3EF94026008758E01D2730210AD758E8B
:1010AA0000C273227880E6149000809378A1F678C3
:1010BA0081E6149000809378A2F61109227886E6D8
:1010CA001490008D9378A3F6110922789FE6F870A0
:1010DA000108C3E8941140027811E82828F566252A
:1010EA0066256628F56725662828F56822789CE62D
:1010FA007536FF75370CB402067536A075370AB413
:10110A00030675368275370522227896E6FA7897AD
:10111A00E6FB307F047A007BFFC3EB9AFCC3948220
:10112A0050027C82756F00056FEC856FF0A4C3E5F1
:10113A00F0948040F222D27F31141206C37A007BE7
:10114A00007C101206B9E5592AFA74003BFBDCF35D
:10115A007C04C3EB13FBEA13FADCF7FEC27F3114FB
:10116A0022E5EF20E6037520000520903FFFE520E9
:10117A00146006901DFF1460009304600375EF125B
:10118A00C2D353D9BF7581C043FF801206B475EF2D
:10119A000243B203E5B3240420E702F5B31109754B
:1011AA0080FF75A40075F19075D47F75900075A5C0
:1011BA003F75F23F75D50075A60175E241111B1204
:1011CA00173A78988670C2AF1206CD1206F2120646
:1011DA00F21206C81206C81206C81206C81206F289
:1011EA001206F21206C81206C81206C31206C31263
:1011FA0006F21206C31206C31206F21206F212060B
:10120A00C81206C81206C81206C81206F21206F258
:10121A001206C81206C81206C81206C81206EB122F
:10122A0006EB1206C81206C81206C81206C812062B
:10123A00DD1206DD1206C81206C81206C31206C35C
:10124A001206EB1206C31206C31206F21206F212B5
:10125A0006C81206C81206C81206C81206C812061E
:10126A00C81206C81206C812181B1206CD1206CDDD
:10127A001206C8C2AFE4F8F6D8FD78C879C8308734
:10128A0004D9FBD8F7111B12173A117B11AE11C7FB
:10129A0011D511F7311331147898867011097588B0
:1012AA005075891275C82475910475D84075A8229D
:1012BA0075B80275E690759B80759D0075D10E759F
:1012CA00BC5875BB0675BA1175E8801206B4D2AF60
:1012DA00120A2043DA01C2D8C2711206CD75300152
:1012EA00D2617B037A0CE55870067A0CDB02417DE9
:1012FA001206C3207002417DC270E559C3940240B0
:10130A00E3E52F541F855B5AF55BB55AD7DAD7C286
:10131A006153DACF207E0343DA20307E0343DA10AA
:10132A00C2D8C271C2757528001206C8307409C3C2
:10133A00E528940A4002D2751206B978023074027E
:10134A007800C3E5599840F0C2AF1206DD1206C311
:10135A001206DD1206C31206E41206C31206E4D20E
:10136A00AF1206CD7546001206B9788CE6C3940111
:10137A005003021445E530C394015003021445207A
:10138A007435C3E55994FF5003021445C2AF1206DF
:10139A00F2D2AF1206C8C3E559940150EFC2AF1298
:1013AA0006DD1206BE1206DDD2AF1206C8C3E55923
:1013BA0094FF40E90218A07F05D27F31141206C8B3
:1013CA00C2AFC27F3114AE59C3E559947FD2AF4040
:1013DA00741206B4C2AF1206F2D2AFDFDC3140C3D8
:1013EA00EE94057897F61206CD12173A1218237F53
:1013FA000AD27F31141206C8C2AFC27F3114AE5965
:10140A00C3E559947FD2AF50E61206B4C2AF1206B2
:10141A00DD1206BE1206DDD2AFDFD63140EE24055C
:10142A007896F61206CD12173A1218521206C831D9
:10143A0014C3E55994FF40F40218A0C3E559954630
:10144A0040038559461206C878017988E7B4030231
:10145A007805C3E5599840026171C2AF1206F212CB
:0E146A0006C31206F21206C31206EB1206C3E8
:101478001206EBD2AF1206CD753000E4F531F53225
:101488000531E531F470390532789AE67819146037
:1014980012783214600D787D14600878FA146003AD
:1014A800753200C3E53298401715327531B4789912
:1014B8008670C2AF1206F2D2AF789886701206C84C
:1014C8001206BEE5297005307402417D780120744A
:1014D800027806C3E5599840A71206C8E5297002A4
:1014E800417DC2AF1109E4F522F523F524F525D293
:1014F800AF78858662F53EF53FF540F541F542F552
:101508006DF547F52CF52DF535120B92756D0875AF
:10151800BB101206B4120ABBE5E820ECFBA8BDA973
:10152800BEE97001F8886E120ABF756D0875BB10A8
:101538007887E6FE7602117B7887EEF6C2AF755E95
:10154800FF120B7485225E85225F852260D2AF75FB
:101558002201752401752501855D64756501D268D0
:10156800D269753400120F71120FB3120B92120B5D
:1015780099120C0F0215891109117B756D0075BB45
:1015880006120D0E120DBC120DDB1207DC120DFD3A
:10159800120E47120B99120BFE120C0F120CCB12E3
:1015A8000D03120DBC120DDB12087F1209E4120D97
:1015B800FD120E98120B99120BFE120C0F120CCB87
:1015C800120D0E120DBC120DDB1208BF120DFD120A
:1015D8000EDC120B99120BFE120C0F120CCB120D13
:1015E80003120DBC120DDB12091C120DFD120F3671
:1015F800120B99120BFE120C0F120CCB120D0E12BD
:101608000DBC120DDB120981120DFD120F71120BA8
:1016180099120BFE120C0F120CCB120D03120ABBFF
:10162800120DBC120DDB120ABF120DFD120FB31200
:101638000B99120BFE120C0F120CCB30692F206B7A
:101648002C85615E85615F855D6475650179327A97
:101658000AC3E534994009C269D26A8A3302167509
:10166800C3E559940140030215890216C0306A1B6C
:10167800206B18E533147004C26AA17FF533C3E503
:1016880059940140030215890216C0C3E55C940110
:10169800400985615F855D64756501C3E55C94FA01
:1016A8005016307404E529600FC3E53B78F0306BC1
:1016B800027860985002A189C2AF11097887E6FEC6
:1016C8007602117B7887EEF6E4F522F523F524F50A
:1016D80025F562C268D2AF1206B41109307406E566
:1016E800297002417D788DE6C394014002614281F0
:1016F80083901A0D782012177CE520B4A50CA3124C
:10170800177CE520B45A0302171A111B12173A0264
:101718001739901A0378807B0A12177CA308DBF923
:10172800901A0F788C7B1512177CA308DBF9901A96
:101738002422C2AF1217BB121795901A00740D120B
:101748001781A37402121781A37413121781901AB8
:101758000378807B0A121780A308DBF9901A0F78A8
:101768008C7B15121780A308DBF91217CE1217AC61
:10177800901A2422E493F622E6438F01538FFD75D5
:10178800EF0275B7A575B7F1F0538FFE22438F02AC
:10179800438F0175EF0275B7A575B7F1901A0DF073
:1017A800538FFC22901A0D74A5F181901A0E745A69
:1017B800F181227A3079D07820901A40F17CE520A6
:1017C800F709A3DAF7227A3079D0901A40E7F18145
:1017D80009A3DAF922AB71A872BB01027980BB02B6
:1017E800027981BB03027982BB04027994BB0502AA
:1017F8007983BB06027986BB07027992BB08027916
:1018080087BB0902799CBB0A027988BB0B027989DC
:10181800E8F7227C051206CDDCFB22C2AF1206DDFA
:101828001206E41206EB1206F21206BE1206DD12CA
:1018380006E41206EB1206F21206BE1206DD1206C6
:10184800E41206EB1206F2D2AF22C2AF1206F2126F
:1018580006EB1206E41206DD1206BE1206F21206A6
:0D186800EB1206E41206DD1206BE1206F2B7
:101875001206EB1206E41206DDD2AF22AE71AF728C
:10188500C2AF1206DD1206DD1206DD1206BEDEF25D
:101895001206F21206BEDFF8D2AF221123111B1178
:1018A5001B75710175720175730011817C05AD5948
:1018B5001206CDC3ED955970F5C3E5599401400A5B
:1018C500C3E55994FF40340218DE1217DD12173AAA
:1018D5001123C2AF75EF12111BDCD30573C3E5737A
:1018E5009403500280C4111B0572E5711490009A8F
:1018F50093F808C3E57298500280AC111B111B05C3
:1019050071C3E571940C5002809A12101B12173A9C
:07191500C2AF75EF12111BB8
:101A00000D021307070104FFFF0A020101A55A0096
:101A100000B4FFFFFF03FF01FF03FA78C804FF01D2
:051A200000FF0A00FFB9
:101A400023454D41583230412320202020202020A2
:101A500023424C48454C4923463333302320202031
:101A60002020202020202020202020202020202076
:00000001FF
