:03000000021149A1
:03000B000200A54B
:03002B000202AE20
:03005B0002040C90
:030073000203E69F
:1000800002030406080C10182030406080040608A3
:100090000C10182030406080A0C00D0D0405060D26
:1000A0000503030302C2AFC0D0C0E020620C206889
:1000B00002419D306602415DE47385258AC262E596
:1000C00025F4700221242068022111207210758B02
:1000D00000D0E0D0D0C292C291C290D2AF32C292D0
:1000E000C291C2907406D5E0FDE53C1420E21520D3
:1000F000E10D207D02D295307D02D293020121D202
:1001000094020121207D02D293307D02D29502011A
:1001100021758B00D0E0D0D0C292C291C290D2AFF4
:1001200032758B00D0E0D0D0D2AF32419DE5256052
:100130000A207D02D292307D02D290C291419DE58B
:10014000256002D291207D02C290307D02C2924190
:100150009DE525600A207D02D290307D02D292205A
:100160007D02C292307D02C290419D207D02C293E9
:10017000307D02C295207D02C295307D02C293740B
:1001800006D5E0FDE525600A207D02D292307D0291
:10019000D290C291419D207D02C293307D02C295D2
:1001A000C2947406D5E0FDE525600A207D02D29256
:1001B000307D02D290C291419DC294207D02C293B3
:1001C000307D02C2957406D5E0FDE5256002D2912E
:1001D000207D02C290307D02C292419DC294207D5A
:1001E00002C295307D02C2937406D5E0FDE525601C
:1001F00002D291207D02C290307D02C292419D20A8
:100200007D02C295307D02C293C2947406D5E0FD92
:10021000E525600A207D02D290307D02D292207DB9
:1002200002C292307D02C290419D207D02C2953073
:100230007D02C293207D02C293307D02C295740676
:10024000D5E0FDE525600A207D02D290307D02D206
:1002500092207D02C292307D02C290419D30723D5B
:10026000E53C20E21A20E129207D02C293307D0284
:10027000C295207D02C295307D02C29302029D206C
:10028000E1E6207D02C293307D02C295C294020253
:100290009DC294207D02C295307D02C293E525F473
:1002A000F58A758B00D262D0E0D0D0D2AF32C2AF27
:1002B000C2AD53E6EFC0D0C0E0D2D3D2AFC2CEE5DC
:1002C0002960072074461529610C78007900E580C3
:1002D000307E01F430E40278FF53DACF207E03430E
:1002E000DA20307E0343DA10C2D8C271E580307E56
:1002F00001F430E40279FFC3E89970CE30610375F0
:1003000029182074037529188859D270E52A6004C9
:10031000152A611C20740543DA01C2D820700261DD
:1003200083A859206102C2702074367982B70431E3
:10033000C3E894F0400374F0F8E8C4540F28F87947
:1003400084B703026161C313C3138721200802C36A
:1003500013200A06C3C898F8616128F8500374FF97
:10036000F88822306915E5222408F5225003752209
:10037000FFC3E522955E4003855E227882B60418AD
:10038000852224A824C3E524955E4002A85EC3E824
:1003900095604002A8608825C3E52594404002D2BC
:1003A0006420CF0CD0E0D0D0C2D343E610D2AD321F
:1003B000C2CF7801E52960053074021529C3E559DB
:1003C00094014005755C0061DA755D00756400E5B7
:1003D0005C2401F55C5003755CFFD0E0D0D0C2D343
:1003E00043E610D2AD32C0D0C0E0C2AF53917F53CC
:1003F000E67FC260759100C3E49550F594E4955191
:10040000F595759104D0E0D0D0D2AF32C2AF53E6AB
:10041000EFC2ADC0D0C0E0C0F0D2D3D2AFA8FBA92C
:10042000FCC2D8307102817353DACF207E0343DAE5
:1004300010307E0343DA20D271E580307E01F42053
:10044000E402814A88268927C1AF53DACF207E0390
:1004500043DA20307E0343DA10C2D8C2713074020E
:10046000C19B7800E580307E01F430E402C19B88B6
:0F04700059C18253DACF207E0343DA20307E0356
:10047F0043DA10C271206102A14353DACF207E0309
:10048F0043DA10307E0343DA20C2D8D27188548900
:10049F0055C3E89552F8E99553F9E4FB7E027A00CB
:1004AF00C3E8948CE994005005755800A133C3E854
:1004BF0094C8E994005008E4D2E4FB7A0AA110C36F
:1004CF00E89468E994015008E4D2E3FB7A0FA11095
:1004DF00C3E894D0E994025008E4D2E2FB7A1EA15B
:1004EF0010C3E894A0E994055008E4D2E1FB7A3CEC
:1004FF00A110C3E89498E994085008E4D2E0FB7A7D
:10050F00787E00C3E89556FCE99557FD30E708EC77
:10051F00F42401FCEDF4FD755800C3EC9AED9E50E8
:10052F000375580188568957A854A955885289537D
:10053F007802C182C3E89526F8E99527F9307C0245
:10054F00C166307B02C166307A02C15F207502A19D
:10055F0066E9FDE8FCA185E9C313F9E813F83079E2
:10056F0002C15FE9C313F9E813F8307802C15FE9FC
:10057F00C313FDE813FC206126C3EC941CED940219
:10058F004002A19CED7018C3EC94C850120528C30B
:10059F00E528940A5002C19B755900D270C19BE5A2
:1005AF0028600215287400207F0B7888E67896B4AF
:1005BF000302789EE624FAFEE43400FFC3EC9EFCAF
:1005CF00ED9FFD92087888E6B40327A20850092012
:1005DF007D20C2AFD27DA1EE307D17C2AFC27DC2EA
:1005EF0092C291C290C293C294C295206902D26BFB
:1005FF00D2AFA2085017E6B4030DECF42401FCEDC2
:10060F00F43400FD02061C78007900C1667888E694
:10061F00B40315EC33FCED33FDC3EC940AFCED94FD
:10062F0000FD50047C007D00C3EC94FFED9400406E
:10063F000678FF7900C166EC856FF0A4C5F0A2F7CC
:10064F0033F87900400302068278FF7900020682B0
:10065F00E9C313F9E813F8307C0EE9600278FFC3A1
:10066F00E81338F8E43400F9C3E894FFE994004044
:10067F000278FF8859D270206102C19B741FF45514
:10068F002F4BF52FC274E42B7002D27475291830DA
:10069F00740375290A306102C1AF20740353DAFE67
:1006AF00752A06307403752A0AD0F0D0E0D0D0C274
:1006BF00D3D2AD43E6103279010206E47903020684
:1006CF00E4790A0206E4791E0206E479640206E47C
:1006DF0079C80206E47817E4D5E0FDD8FAD9F622F6
:1006EF007A147B7802070B7A107B8C02070B7A0D3A
:1006FF007BB402070B7A0B7BC802070BAC25752561
:10070F00017902B27DE4C294D5E0FDE5256002D205
:10071F0091D5E0FDC291D5E0FDD294D5E0FDE52560
:10072F00600A207D02D292307D02D290E570D5E032
:10073F00FD207D02C292307D02C2907496D5E0FDFD
:10074F00D9C1EAF8D5E0FDD8FBDBB1C2948C2522E4
:10075F00C37C007D0075F00005F0EA33FAEB33FB44
:10076F0050F6EB13FBEA13FAC3E9FFE8FEE89AF839
:10077F00E99BF95004EFF9EEF8B3EC33FCED33FDE0
:10078F00D5F0DFEDF9ECF822E889F08A20D2D4F821
:10079F00A9F07B0030F70B7BFFF42401F8E9F43468
:1007AF0000F9E88520F0A4ADF0F8E98520F0A4AFBA
:1007BF00F0FEED2EF974003FFA7C04C3EA13FAE958
:1007CF0013F9E813F8DCF48BF030F70AE8F424019E
:1007DF00F8E9F43400F9E889F0C2D4F8A9F02278E6
:1007EF0082B6040302084BC3E55994014003020883
:1007FF0013852224E4F53EF53FF540F541F542F52A
:10080F004702084B7882E6FC754701E522F523780D
:10081F003879C7AA3AAB3BC3EB13FBEA13FAEC14D4
:10082F006013C3EB13FBEA13FAEC14146007C3EB6A
:10083F0013FBEA13FA12075F883E893F22E54760F0
:10084F0034C3E53E9523F8E53F9400F9500CC3E817
:10085F009480E994FF4016020880C3E8947FE994DE
:0F086F00005003020880787F79000208807880AB
:10087E0079FF8843894422E5476058E5432540F8CF
:10088E00E5443541F9854420E4300701F43542FA58
:10089E0030E709C3EA94F040150208C2C3EA940F88
:1008AE0050030208C278FF79FF7A0F0208C278005F
:1008BE0079007AF0C3E524955E5006E524600901BF
:1008CE00DBE54420E70D01DBE54430E7068840898F
:1008DE00418A4222E547700302094678A1E6FAC32F
:1008EE00E54333F8E54433F9120797E930E70BC3D4
:1008FE00E89480E994FF4013211DC3E8947FE994A6
:10090E00005002211D787F7900211D788079FFE843
:10091E0020E715C3E52398F84009C3E89401400386
:10092E000209447801020944E8F424012523F84021
:10093E000302094478FF884522E54770030209A99E
:10094E0078A2E6FAA841A942120797E930E70CC34C
:10095E00E89401E994FF4016020980C3E894FFE988
:10096E009400500302098078FF7900020980780113
:10097E0079FFE920E715C3E54598F84009C3E894E7
:10098E000140030209A778000209A7E8F424012513
:10099E0045F840030209A778FF88242278FFC26435
:1009AE00E52D5406702FD264C3E53B940A4009C36B
:1009BE00E52594405002C264E53B601974FF853B07
:1009CE00F0848537F0A4F8C5F0600278FFC3E8958F
:1009DE00615002A8618860227883E6F520120F54D8
:1009EE0075E8901206C675E890E5E820ECFBA8BD08
:1009FE00A9BE121002756BAF756C00C3740013FDA7
:100A0E0074AF13FC74AF2CFC74003DFDECFAEDFBDF
:100A1E00C3E89AE99B4014E56B24AFF56BE56C34A3
:100A2E0000F56CEA2CFAEB3DFB80E5AE6BAF6CC3C8
:100A3E00E56C13F9E56B13F8C3E913F9E813F8E560
:100A4E006B28F569E56C39F56A7A03C3E913F9E8A1
:100A5E0013F8DAF7AA201A7009756B00756C00028C
:100A6E000A801AEA6008EE28FEEF39FFDAF88E6B7C
:100A7E008F6C2275E890227883E6FFE5E820ECF78C
:100A8E00A8BDA9BE056DC3E56D94084052756D00F5
:100A9E00E9FA79A0E76044EA7007E56E601B020A86
:100AAE00BBC3E8956E6010E56E5006600C14020A2A
:100ABE00C70460F9020AC7E56EF56EC39458401B71
:100ACE00755EC0C394044013755E80C39404400BDE
:100ADE00755E40C394044003755E0075BB0322EF40
:100AEE00C39401601BC3E894FFE994035012C3E85A
:100AFE00956BE9956C5009E55E601A155E020B2345
:100B0E00E55EF46010055E7888E6B40308E55E24C1
:100B1E00044002F55EA85EC3E524985002A824C3E3
:100B2E00E8955F400AA85FE55FF46003855F5E7934
:100B3E0082B70402614EC3E895604002A860882522
:100B4E00E56DB4070375BB1022743279A387F0A448
:100B5E00C5F0A2F733F8C3E8955E4002A85E88227E
:100B6E0088248825886122753A00753B7F2275C8D6
:100B7E0020A8CCA9CD75C824AA38AB3988388939B4
:100B8E00C3E89AF8E99BF9AA3AAB3BAC3AAD3B7E87
:100B9E00047F02C3EB940440021E1FC3EB94084073
:100BAE00021E1FC3ED13FDEC13FCDEF7C3EA9CFA25
:100BBE00EB9DFBEF6009C3E913F9E813F8DFF7EAE1
:100BCE0028FAEB39FB8A3A8B3B400122753AFF75C6
:100BDE003BFF2230600261E1854C50854D51D26061
:100BEE0043E680227892E6FFC3E535948240010FFA
:100BFE00C3E53594A040010FC3EF940640027F0574
:100C0E007E021E3072010EC3E53B940350060E0E9B
:100C1E003072010EC3E53B940250060E0E30720187
:100C2E000EA93BA83A7A04C3E913F9E813F8DAF7E8
:100C3E00C3E89EF8E99400F94009C3E89402E994E8
:100C4E000050047802E4F9E9FBE8FAC3E913FDE881
:100C5E0013FC884C894DC3EF94036037EF20E00DF1
:0F0C6E00E82CF8E93DF9ECFAEDFB020C8EE828D2
:100C7D00F8E939F9C3E89402F8E99400F97A02E445
:100C8D00FBC3EF9403400D8A4E8B4F884889498CE6
:100C9D004A8D4B22884E894F8A488B498C4A8D4B01
:100CAD002230600281AED26043E680E52D540660AD
:100CBD0027A83AA93BE53494085006E820E002A99C
:100CCD004D759100C3E498F594E499F595759104EB
:100CDD00D26053917F43E68022D265753D00752029
:100CED0000020CF9D265753D00752040E52D5406C6
:100CFD006002C265D2AF206005E53D60012278013A
:100D0D007A02C3E53B940540027802C3E53B940AA1
:100D1D0040027803C3E53B940F40027A0330690427
:100D2D00781E7A01206007E53D6003D2AF22D2AF75
:100D3D000000C2AFC3E53BFB940F40027B0FEB04F9
:100D4D003073012320620123F93069027982E58B2A
:100D5D00C39940D0053DEAFBE59BF45440B5200412
:100D6D00DBF6A19520650281F9C265759100AE3A59
:100D7D00AF3BC3E49EF594E49FF595759104D26065
:100D8D0053917F43E68081F930650281F9D895D280
:100D9D00AF2230690B0534206016753400020DBD8D
:100DAD0020600D20650A206B071581158102169EA6
:100DBD0022A84EA94F75910053917FC3E498F594E5
:100DCD00E499F595759104854850854951D2604354
:100DDD00E6802278003064053065027801E53575CE
:100DED00F007A4F9E5F028F5F0E9A2F013A2F1134C
:100DFD00A2F213F535C394785003753578C3E535F4
:100E0D0095364008D266C292C291C290306002C13E
:100E1D0019854A50854B51D26043E68022C2AFC23C
:100E2D0093C294C29530720B9001FF7406D5E0FD0C
:100E3D00020E68E53B54F86022E525600A207D022C
:100E4D00D292307D02D2907406D5E0FD207D02C293
:100E5D0092307D02C2907406D5E0FD207D02D293C2
:100E6D00307D02D295759F10753C02020FE7C2AF1F
:100E7D00207D02C290307D02C2923072179001DC4B
:100E8D00C294207D02C295307D02C2937406D5E0D6
:100E9D00FD020EA490013F306206E5256002D2915D
:100EAD00207D03759F20307D03759F00753C0302E7
:100EBD000FE7C2AFC293C294C29530720B9001B9C5
:100ECD007406D5E0FD020EFDE53B54F86022E525E4
:100EDD00600A207D02D290307D02D2927406D5E058
:100EED00FD207D02C290307D02C2927406D5E0FDD8
:100EFD00207D02D295307D02D293207D03759F0017
:100F0D00307D03759F20753C04020FE7C2AFC2917F
:100F1D00307217900196207D02C293307D02C295EA
:100F2D00C2947406D5E0FD020F3A90012D30620E89
:100F3D00E525600A207D02D292307D02D290759F08
:100F4D0010753C05020FE7C2AFC293C294C2953033
:100F5D00720B90016B7406D5E0FD020F82E53B54D8
:100F6D00F86012E5256002D2917406D5E0FDC291BC
:100F7D007406D5E0FDD294207D03759F20307D034E
:100F8D00759F00753C06020FE7C2AF207D02C2922D
:100F9D00307D02C29030721F90022A207D02C293D2
:100FAD00307D02C295207D02C295307D02C29374C0
:100FBD0006D5E0FD020FC790015130620EE52560A8
:100FCD000A207D02D290307D02D292207D03759F42
:100FDD0000307D03759F20753C01306B131210029C
:100FED007406D5E0FD7406D5E0FDD293D294D2956A
:100FFD00C266D2AF2290012BC292C291C290C2930F
:10100D00C294C295C2622278807609087609087664
:10101D00040876010876030876FF08760B0876013A
:10102D00087601087601788C76000876FF0876FF41
:10103D000876FF0876FF0876FF0876030876FF0826
:10104D0076FF0876FF0876030876FA087628087684
:10105D00500876050876FF08760208760008767D3A
:0D106D000876FF087600227887E6FFC27241
:10107A00BF0302D2727888E6C394036008C27DE691
:10108A0030E102D27DC27E7889E630E102D27EC3A7
:10109A00EF94026008758E01D2730210AC758E004F
:1010AA00C273227880E6149000809378A1F6788142
:1010BA00E6149000809378A2F61102227886E6144C
:1010CA0090008D9378A3F611022222789CE6753659
:1010DA00FF75370CB402067536A075370AB40306D5
:1010EA0075368275370522227896E6FA7897E6FBF6
:1010FA00307F047A007BFFC3EB9AFCC394825002D0
:10110A007C82756F00056FEC856FF0A4C3E5F094DF
:10111A008040F222D27F11F21206D57A007B007C3F
:10112A00101206CBE5592AFA74003BFBDCF37C0467
:10113A00C3EB13FBEA13FADCF7FEC27F11F222E5D6
:10114A00EF20E6037520000520903FFFE52014609C
:10115A0006901DFF1460009304600375EF12C2D35A
:10116A0053D9BF7581C043FF801206C675EF02438B
:10117A00B203E5B3240420E702F5B311027580FF38
:10118A0075A40075F1D475D4EF7590C075A53F7537
:10119A00F2FF75D50075A60175E241111412170EFA
:1011AA0078988670C2AF1206DF120704120704127B
:1011BA0006DA1206DA1206DA1206DA120704120739
:1011CA00041206DA1206DA1206D51206D512070436
:1011DA001206D51206D51207041207041206DA12ED
:1011EA0006DA1206DA1206DA1207041207041206DF
:1011FA00DA1206DA1206DA1206DA1206FD1206FD0B
:10120A001206DA1206DA1206DA1206DA1206EF12F3
:10121A0006EF1206DA1206DA1206D51206D51206F9
:10122A00FD1206D51206D51207041207041206DAB1
:10123A001206DA1206DA1206DA1206DA1206DA12D8
:10124A0006DA1206DAC2AFE4F8F6D8FD78C879C829
:10125A00308404D9FBD8F7111412170E117411AD8A
:10126A0011C611D411D511F111F2789886701102B4
:10127A0075885075891275C82475910475D840759A
:10128A00A82275B80275E690759B80759D0075D188
:10129A000E75BC5875BB0375BA1175E8801206C67F
:1012AA00D2AF1209E643DA01C2D8C2711206DF755B
:1012BA003001D2617B037A0CE55870067A0CDB02A6
:1012CA00414F1206D5207002414FC270E559C394AE
:1012DA000240E3E52F541F855B5AF55BB55AD7DA0E
:1012EA00D7C26153DACF207E0343DA20307E03432C
:1012FA00DA10C2D8C271C2757528001206DA3074C3
:10130A0009C3E528940A4002D2751206CB78023046
:10131A0074027800C3E5599840F0C2AF1206EF1282
:10132A0006D51206EF1206D51206F61206D51206D1
:10133A00F6D2AF1206DF7546007888E6B40302815A
:10134A001F1206CB788CE6C39401500302141FE5E2
:10135A0030C39401500302141F207435C3E5599415
:10136A00FF500302141FC2AF120704D2AF1206DAEB
:10137A00C3E559940150EFC2AF1206EF1206D0121C
:10138A0006EFD2AF1206DAC3E55994FF40E9021814
:10139A00747F02D27F11F21206DAC2AFC27F11F253
:1013AA00AE59C3E559947FD2AF40741206C6C2AF94
:1013BA00120704D2AFDFDC311EC3EE94057897F62C
:1013CA001206DF12170E1217F77F0AD27F11F212D6
:1013DA0006DAC2AFC27F11F2AE59C3E559947FD281
:1013EA00AF50E61206C6C2AF1206EF1206D01206B8
:1013FA00EFD2AFDFD6311EEE24057896F61206DF5D
:10140A0012170E1218261206DA11F2C3E55994FFC2
:10141A0040F4021874C3E5599546400385594612AB
:10142A0006DA78017988E7B403027805C3E55998A2
:10143A0040026143C2AF1207041206D51207041212
:10144A0006D51206FD1206D51206FDD2AF1206DF28
:10145A00753000E4F531F5320531E531F4703905BE
:0E146A0032789AE67819146012783214600D08
:10147800787D14600878FA146003753200C3E53289
:1014880098401715327531B478998670C2AF120733
:1014980004D2AF789886701206DA1206D0E5297061
:1014A80005307402414F78012074027806C3E5596B
:1014B8009840A77888E6C3940360031206DAE52902
:1014C8007002414FC2AF1102E4F522F523F524F56D
:1014D80025D2AF78858662F53EF53FF540F541F5B2
:1014E80042F56DF547F52CF52DF535120B75756D33
:1014F8000875BB101206C6120A81E5E820ECFBA8A5
:10150800BDA9BEE97001F8886E120A85756D087567
:10151800BB107887E6FE760211747887EEF6C2AFC4
:10152800755EFF120B5785225E85225F852260D289
:10153800AF752201752401752501855D6475650106
:10154800D268D269753400120F54120F96120B75B7
:10155800120B7C120BF202156B11021174756D00DF
:1015680075BB03120CF1120D9F120DBE1207EE127D
:101578000DE0120E2A120B7C120BE1120BF2120C68
:10158800AE120CE6120D9F120DBE12084C1209AADB
:10159800120DE0120E7B120B7C120BE1120BF212F1
:1015A8000CAE120CF1120D9F120DBE120885120D11
:1015B800E0120EBF120B7C120BE1120BF2120CAEF2
:1015C800120CE6120D9F120DBE1208E2120DE01267
:1015D8000F19120B7C120BE1120BF2120CAE120C4B
:1015E800F1120D9F120DBE120947120DE0120F5491
:1015F800120B7C120BE1120BF2120CAE120CE6125B
:101608000A81120D9F120DBE120A85120DE0120FEB
:1016180096120B7C120BE1120BF2120CAE306938E9
:10162800206B3585615E85615F855D6475650179CF
:10163800327A0AC3E534994012C269D26A8A33857C
:10164800615E755FFF756020021660C3E5599401FD
:10165800400302156B02169E306A1E206B1BE53391
:10166800147007C26A755EFFA161F533C3E559942A
:1016780001400302156B02169EC3E55C94FA5016EE
:10168800307404E529600FC3E53B78F0306B0278CD
:1016980060985002A16BC2AF11027887E6FE76020D
:1016A80011747887EEF6E4F522F523F524F525F58F
:1016B80062C268D2AF1206C61102307406E52970FC
:1016C80002414F815D901A0D7820121750E520B421
:1016D800550CA3121750E520B4AA030216EE1114F4
:1016E80012170E02170D901A0378807B0A121750F2
:1016F800A308DBF9901A0F788C7B15121750A308F2
:10170800DBF9901A2422C2AF12178F121769901AA8
:1017180000740D121755A37402121755A3741312EF
:101728001755901A0378807B0A121754A308DBF91F
:10173800901A0F788C7B15121754A308DBF912172F
:10174800A2121780901A2422E493F622E6438F010E
:10175800538FFD75EF0275B7A575B7F1F0538FFE7E
:1017680022438F02438F0175EF0275B7A575B7F154
:10177800901A0DF0538FFC22901A0D7455F1559064
:101788001A0E74AAF155227A3079D07820901A402E
:10179800F150E520F709A3DAF7227A3079D0901AC8
:1017A80040E7F15509A3DAF922AB71A872BB01022F
:1017B8007980BB02027981BB03027982BB0402797A
:1017C80084BB05027983BB06027986BB070279923E
:1017D800BB08027987BB0902799CBB0A027988BBDE
:1017E8000B027989E8F7227C051206DFDCFB22C2AE
:1017F800AF1206EF1206F61206FD1207041206D003
:101808001206EF1206F61206FD1207041206D0128F
:1018180006EF1206F61206FD120704D2AF22C2AF77
:101828001207041206FD1206F61206EF1206D0126F
:1018380007041206FD1206F61206EF1206D012076A
:10184800041206FD1206F61206EFD2AF22AE71AFF1
:1018580072C2AF1206EF1206EF1206EF1206D0DEC2
:0F186800F21207041206D0DFF8D2AF221217F7E0
:101877001217EF1217EF7571017572017573001169
:10188700557C05AD591206DFC3ED955970F5C3E5D3
:10189700599401400AC3E55994FF40370218B7121B
:1018A70017B112170E1217F7C2AF75EF121217EF13
:1018B700DCD10573C3E5739403500280C21217EF9E
:1018C7000572E5711490009A93F808C3E572985071
:1018D7000280A91217EF1217EF0571C3E571940C77
:1018E7005002809512101412170EC2AF75EF121224
:0218F70017EFE9
:101A00000D02130909040103FF0B01010155AA008E
:101A1000FFFFFFFFFF03FFFFFF03FA285005FF0250
:051A2000007DFF00FF46
:101A400023484B696E67313041232020202020201D
:101A500023424C48454C4923463333302320202031
:101A60002020202020202020202020202020202076
:00000001FF
