:030000000210AE3D
:03000B000200A24E
:03002B000202CE00
:03005B0002041884
:030073000203F293
:1000800002030406080C10182030406080040608A3
:100090000C10182030406080A0C005050D0503033A
:1000A0000302C2AFC0D0C0E020622C20680241BA77
:1000B000306602417A302F02E4730563C3740595FC
:1000C0002540F5956340F12069EE758A78E5257045
:1000D00003758A000202C785258AC262E525F4708D
:1000E000022141206802212E207210758B00D0E081
:1000F000D0D0D292D291D290D2AF32D292D291D2EB
:10010000907406D5E0FDE53C1420E21520E10D20B9
:100110007D02D295307D02D29302013ED29402013B
:100120003E207D02D293307D02D29502013E758B36
:1001300000D0E0D0D0D292D291D290D2AF32758B93
:1001400000D0E0D0D0D2AF3241BAE525600A207DA0
:1001500002C292307D02C290D29141BAE52560027E
:10016000C291207D02D290307D02D29241BAE52523
:10017000600A207D02C290307D02C292207D02D2B0
:1001800092307D02D29041BA207D02C293307D022E
:10019000C295207D02C295307D02C2937406D5E0DF
:1001A000FDE525600A207D02C292307D02C290D218
:1001B0009141BA207D02C293307D02C295C29474EF
:1001C00006D5E0FDE525600A207D02C292307D0261
:1001D000C290D29141BAC294207D02C293307D0276
:1001E000C2957406D5E0FDE5256002C291207D022E
:1001F000D290307D02D29241BAC294207D02C29543
:10020000307D02C2937406D5E0FDE5256002C291FF
:10021000207D02D290307D02D29241BA207D02C26E
:1002200095307D02C293C2947406D5E0FDE5256049
:100230000A207D02C290307D02C292207D02D292BD
:10024000307D02D29041BA207D02C295307D02C23B
:1002500093207D02C293307D02C2957406D5E0FDE5
:10026000E525600A207D02C290307D02C292207D89
:1002700002D292307D02D29041BA30723DE53C20EC
:10028000E21A20E129207D02C293307D02C295202E
:100290007D02C295307D02C2930202BA20E1E620BF
:1002A0007D02C293307D02C295C2940202BAC2940A
:1002B000207D02C295307D02C293E525F4F58A7552
:1002C0008B00756300D262D0E0D0D0D2AF32C2AF23
:1002D000C2AD53E6EFC0D0C0E0D2D3D2AFC2CEE5BC
:1002E0002960072074461529612C78007900E58083
:1002F000307E01F430E40278FF53DACF207E0343EE
:10030000DA20307E0343DA10C2D8C271E580307E35
:1003100001F430E40279FFC3E89970CE30610375CF
:1003200029182074037529188859D270E52A6004A9
:10033000152A613C20740543DA01C2D8207002619D
:1003400097A859206102C270207431C3E894F0402C
:100350000374F0F8E8C4540F28F87984B7030261F5
:100360007CC313C3138721200802C313200A06C3CA
:10037000C898F8617C28F8500374FFF8C3E89562C8
:100380005003E562F8882230690AC3E522955E4091
:1003900003855E22852224A824C3E524955E4002BD
:1003A000A85E8825C3E52594404002D26420CF0C86
:1003B000D0E0D0D0C2D343E610D2AD32C2CF780164
:1003C000E52960053074021529C3E55994014005FB
:1003D000755C0061E6755D00756400E55C2401F5FF
:1003E0005C5003755CFFD0E0D0D0C2D343E610D29E
:1003F000AD32C0D0C0E0C2AF53917F53E67FC26040
:10040000759100C3E49550F594E49551F595759177
:1004100004D0E0D0D0D2AF32C2AF53E6EFC2ADC00D
:10042000D0C0E0C0F0D2D3D2AFA8FBA9FCC2D83074
:100430007102817F53DACF207E0343DA10307E03CE
:1004400043DA20D271E580307E01F420E402815647
:1004500088268927C1BB53DACF207E0343DA2030B8
:100460007E0343DA10C2D8C271307402C1A778008B
:0F047000E580307E01F430E402C1A78859C18EC7
:10047F0053DACF207E0343DA20307E0343DA10C2F3
:10048F0071206102A14F53DACF207E0343DA10307F
:10049F007E0343DA20C2D8D27188548955C3E895B8
:1004AF0052F8E99553F9E4FB7E027A00C3E8948C85
:1004BF00E994005005755800A13FC3E894C8E9942A
:1004CF00005008E4D2E4FB7A0AA11CC3E89468E95F
:1004DF0094015008E4D2E3FB7A0FA11CC3E894D037
:1004EF00E994025008E4D2E2FB7A1EA11CC3E894FF
:1004FF00A0E994055008E4D2E1FB7A3CA11CC3E8C3
:10050F009498E994085008E4D2E0FB7A787E00C30F
:10051F00E89556FCE99557FD30E708ECF42401FC0B
:10052F00EDF4FD755800C3EC9AED9E50037558011C
:10053F0088568957A854A955885289537802C18E75
:10054F00C3E89526F8E99527F9307C02C172307B14
:10055F0002C172307A02C16B207502A172E9FDE807
:10056F00FCA191E9C313F9E813F8307902C16BE9E3
:10057F00C313F9E813F8307802C16BE9C313FDE830
:10058F0013FC206126C3EC941CED94024002A1A839
:10059F00ED7018C3EC94C850120528C3E528940ACF
:1005AF005002C1A7755900D270C1A7E52860021586
:1005BF00287400207F0B7888E67896B40302789E23
:1005CF00E624FAFEE43400FFC3EC9EFCED9FFD929F
:1005DF00087888E6B40327A2085009207D20C2AF0F
:1005EF00D27DA1FA307D17C2AFC27DD292D291D205
:1005FF0090C293C294C295206902D26BD2AFA20867
:10060F005017E6B4030DECF42401FCEDF43400FDB7
:10061F0002062878007900C1727888E6B40315ECD9
:10062F0033FCED33FDC3EC940AFCED9400FD500454
:10063F007C007D00C3EC94FFED9400400678FF79B9
:10064F0000C172EC856FF0A4C5F0A2F733F8790002
:10065F00400302068E78FF790002068EE9C313F974
:10066F00E813F8307C0EE9600278FFC3E81338F81E
:10067F00E43400F9C3E894FFE99400400278FF885E
:10068F0059D270206102C1A7741FF4552F4BF52F5B
:10069F00C274E42B7002D274752918307403752953
:1006AF000A306102C1BB20740353DAFE752A06308B
:1006BF007403752A0AD0F0D0E0D0D0C2D3D2AD43A4
:1006CF00E6103279010206F079030206F0790A0288
:1006DF0006F0791E0206F079640206F079C8020668
:1006EF00F07817E4D5E0FDD8FAD9F6227A147B78A2
:1006FF000207177A107B8C0207177A0D7BB402075B
:10070F00177A0B7BC8020717AC257525017902B242
:10071F007DE4C294D5E0FDE5256002C291D5E0FDF0
:10072F00D291D5E0FDD294D5E0FDE525600A207D7C
:10073F0002C292307D02C290E570D5E0FD207D02AD
:10074F00D292307D02D2907496D5E0FDD9C1EAF8ED
:10075F00D5E0FDD8FBDBB1C2948C2522C37C007D94
:10076F000075F00005F0EA33FAEB33FB50F6EB13AC
:10077F00FBEA13FAC3E9FFE8FEE89AF8E99BF950A0
:10078F0004EFF9EEF8B3EC33FCED33FDD5F0DFED0C
:10079F00F9ECF822E889F08A20D2D4F8A9F07B008E
:1007AF0030F70B7BFFF42401F8E9F43400F9E88506
:1007BF0020F0A4ADF0F8E98520F0A4AFF0FEED2E07
:1007CF00F974003FFA7C04C3EA13FAE913F9E8134A
:1007DF00F8DCF48BF030F70AE8F42401F8E9F4348C
:1007EF0000F9E889F0C2D4F8A9F02222E547603B6E
:1007FF00C3E53B13F9E53A13F8C3E53E98F8E53F37
:10080F0099F9500CC3E89480E994FF40160208361A
:10081F00C3E8947FE994005003020836787F79008B
:10082F00020836788079FF8843894422E54760586B
:10083F00E5432540F8E5443541F9854420E4300788
:10084F0001F43542FA30E709C3EA94F04015020883
:10085F0078C3EA940F500302087878FF79FF7A0F74
:0E086F00020878780079007AF0C3E524955EDF
:10087D005006E52460090191E54420E70D0191E55D
:10088D004430E706884089418A4222E547700302D9
:10089D0008FC78A1E6FAC3E54333F8E54433F912D1
:1008AD0007A3E930E70BC3E89480E994FF401301F7
:1008BD00D3C3E8947FE99400500201D3787F790087
:1008CD0001D3788079FFE820E715C3E52398F84038
:1008DD0009C3E8940140030208FA78010208FAE816
:1008ED00F424012523F840030208FA78FF884522F5
:1008FD00E547700302095F78A2E6FAA841A9421202
:10090D0007A3E930E70CC3E89401E994FF40160210
:10091D000936C3E894FFE99400500302093678FFC5
:10092D007900020936780179FFE920E715C3E5451D
:10093D0098F84009C3E89401400302095D7800026C
:10094D00095DE8F424012545F8400302095D78FFAF
:10095D0088242278FFC264E52D5406702FD264C31B
:10096D00E53B940A4009C3E52594405002C264E575
:10097D003B601974FF853BF0848537F0A4F8C5F012
:10098D00600278FFC3E895615002A8618860220279
:10099D000A397883E6F520120EB775E8901206D263
:1009AD0075E890E5E820ECFBA8BDA9BE120F6575B2
:1009BD006BAF756C00C3740013FD74AF13FC74AF93
:1009CD002CFC74003DFDECFAEDFBC3E89AE99B406D
:1009DD0014E56B24AFF56BE56C3400F56CEA2CFA7D
:1009ED00EB3DFB80E5AE6BAF6CC3E56C13F9E56BCE
:1009FD0013F8C3E913F9E813F8E56B28F569E56C0D
:100A0D0039F56A7A03C3E913F9E813F8DAF7AA207E
:100A1D001A7009756B00756C00020A391AEA6008C4
:100A2D00EE28FEEF39FFDAF88E6B8F6C2275E890A9
:100A3D00227883E6FFE5E820ECF7A8BDA9BE056D99
:100A4D00C3E56D94084052756D00E9FA79A0E76031
:100A5D0044EA7007E56E601B020A74C3E8956E6088
:100A6D0010E56E5006600C14020A800460F9020A4B
:100A7D0080E56EF56EC39458401B755EC0C394043B
:100A8D004013755E80C39404400B755E40C394049F
:100A9D004003755E0075BB0322E55EF46002055EE2
:100AAD00E56DB4070375BB1022743279A387F0A4EA
:100ABD00C5F0A2F733F8C3E8955E4002A85E882220
:100ACD0088248825886122753A00753B7F2275C878
:100ADD0020A8CCA9CD75C824AA38AB398838893956
:100AED00C3E89AF8E99BF9AA3AAB3BAC3AAD3B7E29
:100AFD00047F02C3EB940440021E1FC3EB94084015
:100B0D00021E1FC3ED13FDEC13FCDEF7C3EA9CFAC6
:100B1D00EB9DFBEF6009C3E913F9E813F8DFF7EA82
:100B2D0028FAEB39FB8A3A8B3B400122753AFF7567
:100B3D003BFF223060026140854C50854D51D260A3
:100B4D0043E680227892E6FFC3E535948240010F9B
:100B5D00C3E53594A040010FC3EF940640027F0515
:100B6D007E021E3072010EC3E53B940350060E0E3D
:100B7D003072010EC3E53B940250060E0E30720129
:100B8D000EA93BA83A7A04C3E913F9E813F8DAF78A
:100B9D00C3E89EF8E99400F94009C3E89402E9948A
:100BAD000050047802E4F9E9FBE8FAC3E913FDE823
:100BBD0013FC884C894DC3EF94036037EF20E00D93
:100BCD00E82CF8E93DF9ECFAEDFB020BEDE828F81D
:100BDD00E939F9C3E89402F8E99400F97A02E4FBE3
:100BED00C3EF9403400D8A4E8B4F884889498C4A38
:100BFD008D4B22884E894F8A488B498C4A8D4B22CA
:100C0D00306002810DD26043E680E52D54066027E9
:100C1D00A83AA93BE53494085006E820E002A94D16
:100C2D00759100C3E498F594E499F595759104D206
:100C3D006053917F43E68022D265753D007520009B
:100C4D00020C58D265753D00752040E52D540660A7
:100C5D0002C265D2AF206005E53D60012278017AC0
:0F0C6D0002C3E53B940540027802C3E53B940ABD
:100C7C0040027803C3E53B940F40027A03306904C9
:100C8C00781E7A01206007E53D6003D2AF22D2AF17
:100C9C000000C2AFC3E53BFB940F40027B0FEB049B
:100CAC003073012320620123F93069027982E58BCC
:100CBC00C39940D0053DEAFBE59BF45440B52004B4
:100CCC00DBF681F42065028158C265759100AE3A5D
:100CDC00AF3BC3E49EF594E49FF595759104D26007
:100CEC0053917F43E68081583065028158D895D264
:100CFC00AF2230690B0534206016753400020D1CD0
:100D0C0020600D20650A206B0715811581021618CD
:100D1C0022A84EA94F75910053917FC3E498F59486
:100D2C00E499F595759104854850854951D26043F5
:100D3C00E6802278003064053065027801E535756F
:100D4C00F007A4F9E5F028F5F0E9A2F013A2F113ED
:100D5C00A2F213F535C394785003753578C3E53595
:100D6C0095364008D266D292D291D290306002A1D0
:100D7C0078854A50854B51D26043E68022D2A0C27E
:100D8C00AFC293C294C29530720B90021C7406D5FC
:100D9C00E0FD020DC9E53B54F86022E525600A2010
:100DAC007D02C292307D02C2907406D5E0FD207D9A
:100DBC0002D292307D02D2907406D5E0FD207D02E5
:100DCC00D293307D02D295759F10753C02020F4A6A
:100DDC00C2A0C2AF207D02D290307D02D29230727E
:100DEC00179001F9C294207D02C295307D02C29306
:100DFC007406D5E0FD020E0790015C306206E52515
:100E0C006002C291207D03759F20307D03759F0089
:100E1C00753C03020F4AC2AFC293C294C2953072A2
:100E2C000B9001D67406D5E0FD020E60E53B54F83C
:100E3C006022E525600A207D02C290307D02C292BC
:100E4C007406D5E0FD207D02D290307D02D29274E2
:100E5C0006D5E0FD207D02D295307D02D293207D17
:100E6C0003759F00307D03759F20753C04020F4A6B
:100E7C00C2AFD2913072179001B3207D02C2933071
:100E8C007D02C295C2947406D5E0FD020E9D9001C0
:100E9C004A30620EE525600A207D02C292307D0246
:100EAC00C290759F10753C05020F4AC2AFC293C227
:100EBC0094C29530720B9001887406D5E0FD020E39
:100ECC00E5E53B54F86012E5256002C2917406D545
:100EDC00E0FDD2917406D5E0FDD294207D03759F80
:100EEC0020307D03759F00753C06020F4AC2AF206F
:100EFC007D02D292307D02D29030721F9002472038
:100F0C007D02C293307D02C295207D02C295307D58
:100F1C0002C2937406D5E0FD020F2A90016E306276
:100F2C000EE525600A207D02C290307D02C292201F
:100F3C007D03759F00307D03759F20753C01306BE0
:100F4C0013120F657406D5E0FD7406D5E0FDD2933F
:100F5C00D294D295C266D2AF22900148D292D2914D
:100F6C00D290C293C294C295C26222788076FF0856
:100F7C0076FF0876FF0876FF087603087604087675
:100F8C000A087603087601087601788C76000876D4
:100F9C00FF0876FF0876FF0876FF0876FF087603D1
:100FAC000876FF0876FF0876FF0876030876FA08BD
:100FBC0076FA0876FA0876040876FF087601087641
:100FCC000008767D0876FF087600227887E6FFC257
:100FDC0072BF0302D2727888E6C394036008C27DA4
:100FEC00E630E102D27DC27E7889E630E102D27E23
:100FFC00C3EF94026008758E01D27302100F758EC8
:10100C0000C273227880E6149000809378A1F67861
:10101C0081E6149000809378A2F6120F65227886F0
:10102C00E61490008D9378A3F6120F652222789C1B
:10103C00E67536FF75370CB402067536A075370A9F
:10104C00B4030675368275370522227896E6FA784F
:10105C0097E6FB307F047A007BFFC3EB9AFCC394CA
:0F106C008250027C82756F00056FEC856FF0A4D7
:10107B00C3E5F0948040F222D27F11571206E17A39
:10108B00007B007C101206D7E5592AFA74003BFB53
:10109B00DCF37C04C3EB13FBEA13FADCF7FEC27F31
:1010AB00115722E5EF20E6037520000520903FFF46
:1010BB00E520146006901DFF146000930460037517
:1010CB00EF12C2D353D9BF7581C043FF801206D232
:1010DB0075EF0243B203E5B3240420E702F5B31224
:1010EB000F657580FF75A40075F1D475D4EF7590FD
:1010FB008775A54075F2FF75D5BF75A60175E242E0
:10110B0075DB4675EA02120F7712168C789886708B
:10111B00C2AF1206EB1207101207101206E61206E8
:10112B00E61206E61206E61207101207101206E682
:10113B001206E61206E11206E11207101206E11280
:10114B0006E11207101207101206E61206E6120647
:10115B00E61206E61207101207101206E61206E652
:10116B001206E61206E61207091207091206E61224
:10117B0006E61206E61206E61206FB1206FB12063E
:10118B00E61206E61206E11206E11207091206E163
:10119B001206E11207101207101206E61206E612EB
:1011AB0006E61206E61206E61206E61206E6120638
:1011BB00E612175E1206EB1206EB1206E6C2AFE45E
:1011CB00F8F6D8FD78C879C8308404D9FBD8F71263
:1011DB000F7712168C120FD71110112A1139113AE1
:1011EB001156115778988670120F6575885075894E
:1011FB001275C82475910475D84075A82275B8026C
:10120B0075E690759B80759D0075D10E75BC5875F4
:10121B00BB0375BA1175E8801206D2D2AF12099CC6
:10122B0043DA01C2D8C2711206EB753001D2617B71
:10123B00037A0CE55870067A0CDB0221C81206E122
:10124B0020700221C8C270E559C3940240E3E52F18
:10125B00541F855B5AF55BB55AD7DAD7C26153DA9F
:10126B00CF207E0343DA20307E0343DA10C2D8C28C
:10127B0071C2757528001206E6307409C3E528940F
:10128B000A4002D2751206D778023074027800C376
:10129B00E5599840F0C2AF1206FB1206E11206FBAD
:1012AB001206E11207021206E1120702D2AF120672
:1012BB00EB7546007888E6B40302619B1206D7787B
:1012CB008CE6C39401500302139BE530C394015089
:1012DB000302139B207435C3E55994FF500302138B
:1012EB009BC2AF120710D2AF1206E6C3E5599401A9
:1012FB0050EFC2AF1206FB1206DC1206FBD2AF1286
:10130B0006E6C3E55994FF40E90217E37F05D27F58
:10131B0011571206E6C2AFC27F1157AE59C3E5593A
:10132B00947FD2AF40741206D2C2AF120710D2AF65
:10133B00DFDC1183C3EE94057897F61206EB1216D9
:10134B008C1217667F0AD27F11571206E6C2AFC204
:10135B007F1157AE59C3E559947FD2AF50E61206B1
:10136B00D2C2AF1206FB1206DC1206FBD2AFDFD6DF
:10137B001183EE24057896F61206EB12168C1217D3
:10138B00951206E61157C3E55994FF40F40217E393
:10139B00C3E559954640038559461206E67801790F
:1013AB0088E7B403027805C3E55998400241BFC2F0
:1013BB00AF1207101206E11207101206E11207090D
:1013CB001206E1120709D2AF1206EB753000E4F5F5
:1013DB0031F5320531E531F470390532789AE6781A
:1013EB0019146012783214600D787D14600878FA45
:1013FB00146003753200C3E532984017153275310E
:10140B00B478998670C2AF120710D2AF78988670F5
:10141B001206E61206DCE529700530740221C87845
:10142B00012074027806C3E5599840A77888E6C373
:10143B00940360031206E6E529700221C8C2AF12BD
:10144B000F65E4F522F523F524F525D2AF788586D3
:10145B0062F53EF53FF540F541F542F56DF547F583
:0E146B002CF52DF535120AD4756D0875BB10E1
:101479001206D2120A3AE5E820ECFBA8BDA9BEE99A
:101489007001F8886E120A3E756D0875BB10788771
:10149900E6FE7602120FD77887EEF6C2AF755EFFC9
:1014A900120AB685225E85225F852260D2AF752237
:1014B90001752401752501855D64756501D268D2C0
:1014C90069753400120EB7120EF9120AD4120ADB2A
:1014D900120B510214EB120F65120FD7756D0075BF
:1014E900BB03120C50120CFE120D1D1207FA120D3D
:1014F9003F120D89120ADB120B40120B51120C0D0F
:10150900120C45120CFE120D1D1207FB1209601276
:101519000D3F120DDC120ADB120B40120B51120C9B
:101529000D120C50120CFE120D1D12083B120D3F2C
:10153900120E22120ADB120B40120B51120C0D1261
:101549000C45120CFE120D1D120898120D3F120EB9
:101559007C120ADB120B40120B51120C0D120C50AB
:10156900120CFE120D1D1208FD120D3F120EB712BC
:101579000ADB120B40120B51120C0D120C45120A08
:101589003A120CFE120D1D120A3E120D3F120EF9EF
:10159900120ADB120B40120B51120C0D3069352067
:1015A9006B3285615E85615F855D64756501793240
:1015B9007A0AC3E53499400FC269D26A8A33755EE3
:1015C900FF755FFF0215DDC3E5599401400302145D
:1015D900EB021618306A1B206B18E533147004C22D
:1015E9006A81DFF533C3E559940140030214EB0224
:1015F9001618C3E55C94825016307404E529600F0F
:10160900C3E53B78F0306B02786098500281EBC2F9
:10161900AF120F657887E6FE7602120FD77887EE4C
:10162900F6E4F522F523F524F525F562C268D2AF73
:101639001206D2120F65307406E529700221C861BD
:10164900D9901A0D78201216CEE520B45A0CA3129F
:1016590016CEE520B4A50302166C120F7712168C6C
:1016690002168B901A0378807B0A1216CEA308DB28
:10167900F9901A0F788C7B151216CEA308DBF99016
:101689001A2422C2AF12170D1216E7901A00740D10
:101699001216D3A374021216D3A374131216D3907D
:1016A9001A0378807B0A1216D2A308DBF9901A0F65
:1016B900788C7B151216D2A308DBF91217201216A3
:1016C900FE901A2422E493F622E6438F01538FFDFC
:1016D90075EF0275B7A575B7F1F0538FFE22438FE9
:1016E90002438F0175EF0275B7A575B7F1901A0D11
:1016F900F0538FFC22901A0D745AD1D3901A0E749C
:10170900A5D1D3227A3079D07820901A40D1CEE56C
:1017190020F709A3DAF7227A3079D0901A40E7D175
:10172900D309A3DAF922AB71A872BB01027984BB90
:1017390002027985BB03027986BB04027992BB0553
:10174900027987BB0602799CBB07027988BB08022C
:101759007989E8F7227C051206EBDCFB22C2AF127D
:1017690006FB1207021207091207101206DC1206FD
:10177900FB1207021207091207101206DC1206FBF8
:10178900120702120709120710D2AF22C2AF1207BD
:10179900101207091207021206FB1206DC120710C3
:1017A9001207091207021206FB1206DC12071012B1
:1017B90007091207021206FBD2AF22AE71AF72C23D
:1017C900AF1206FB1206FB1206FB1206DCDEF21252
:1017D90007101206DCDFF8D2AF22F166F15EF15E86
:1017E900757101757201757300F1C47C05AD5912EB
:1017F90006EBC3ED955970F5C3E5599401400AC349
:10180900E55994FF403702182312172F12168C122C
:101819001766C2AF75EF1212175EDCD10573C3E507
:10182900739403500280C212175E0572E571149019
:10183900009A93F808C3E57298500280A912175EBE
:1018490012175E0571C3E571940950028095120F54
:0C1859007712168CC2AF75EF1212175EEA
:101A00000D0213FFFFFFFF03040A0301015AA500A3
:101A1000FFFFFFFFFF03FFFFFF03FAFAFA04FF01D6
:051A2000007DFF00FF46
:101A400023484B696E67323041232020202020201C
:101A500023424C48454C4923463333302320202031
:101A60002020202020202020202020202020202076
:00000001FF
