:03000000021113D7
:03000B000200A54B
:03002B000202AE20
:03005B0002045F3D
:030073000204394B
:1000800002030406080C10182030406080040608A3
:100090000C10182030406080A0C00D0D0403060D28
:1000A0000503030202C2AFC0D0C0E020620C20688A
:1000B00002419D306602415DE47385258AC262E596
:1000C00025F4700221242068022111207210758B02
:1000D00000D0E0D0D0C293C295C297D2AF32C293C3
:1000E000C295C2977406D5E0FDE53C1420E21520C8
:1000F000E10D207D02D296307D02D292020121D202
:1001000094020121207D02D292307D02D29602011A
:1001100021758B00D0E0D0D0C293C295C297D2AFE8
:1001200032758B00D0E0D0D0D2AF32419DE5256052
:100130000A207D02D293307D02D297C295419DE57F
:10014000256002D295207D02C297307D02C2934184
:100150009DE525600A207D02D297307D02D2932052
:100160007D02C293307D02C297419D207D02C292E2
:10017000307D02C296207D02C296307D02C292740A
:1001800006D5E0FDE525600A207D02D293307D0290
:10019000D297C295419D207D02C292307D02C296C7
:1001A000C2947406D5E0FDE525600A207D02D29355
:1001B000307D02D297C295419DC294207D02C292A9
:1001C000307D02C2967406D5E0FDE5256002D29529
:1001D000207D02C297307D02C293419DC294207D52
:1001E00002C296307D02C2927406D5E0FDE525601C
:1001F00002D295207D02C297307D02C293419D209C
:100200007D02C296307D02C292C2947406D5E0FD92
:10021000E525600A207D02D297307D02D293207DB1
:1002200002C293307D02C297419D207D02C296306A
:100230007D02C292207D02C292307D02C296740677
:10024000D5E0FDE525600A207D02D297307D02D2FF
:1002500093207D02C293307D02C297419D30723D52
:10026000E53C20E21A20E129207D02C292307D0285
:10027000C296207D02C296307D02C29202029D206B
:10028000E1E6207D02C292307D02C296C294020253
:100290009DC294207D02C296307D02C292E525F473
:1002A000F58A758B00D262D0E0D0D0D2AF32C2AF27
:1002B000C2AD53E6EFC0D0C0E0D2D3D2AFC2CEE5DC
:1002C0002960072074461529610C78007900E580C3
:1002D000307E01F430E30278FF53DACF207E03430F
:1002E000DA20307E0343DA10C2D8C271E580307E56
:1002F00001F430E30279FFC3E89970CE30610375F1
:1003000029402074037529408859D270E52A600479
:10031000152A611C20740543DA01C2D820700261DD
:1003200044A859206102C270207402612D882230D5
:10033000690AC3E522955E4003855E227882B60491
:1003400003852224C3E52594404002D26420CF0CCB
:10035000D0E0D0D0C2D343E610D2AD32C2CF7802C3
:10036000E52960053074021529C3E559940140055B
:10037000755C006186755D00756400E55C2401F5BF
:100380005C5003755CFF7982B7020EE547601EC3BF
:10039000E522943240178546227982B7030FE5475C
:1003A000600BC3E52294324004798E8722C3E52393
:1003B000952260084004152361BC0523D8C8056454
:1003C000E56470021564D565647565017805C3E55B
:1003D0006495664058C3E564956750087801756573
:1003E000030203F0C3E56495685005780175650163
:1003F000C3E55F9524401F7982B704028122E54757
:10040000701485245FE56404600385666475650186
:1004100075233C02042DE55F285005755FFF81229E
:10042000F55FE55F047006755DFF7564FFD0E0D091
:10043000D0C2D343E610D2AD32C0D0C0E0C2AF5379
:10044000917F53E67FC260759100C3E49550F594A7
:10045000E49551F595759104D0E0D0D0D2AF32C279
:10046000AF53E6EFC2ADC0D0C0E0C0F0D2D3D2AF40
:0E047000A8FBA9FCC2D830710281C653DACFB6
:10047E00207E0343DA10307E0343DA20D271E5800A
:10048E00307E01F420E302819D88268927C19D5389
:10049E00DACF207E0343DA20307E0343DA10C2D84F
:1004AE00C271307402C1897800E580307E01F4306B
:1004BE00E302C1898859C17053DACF207E0343DA33
:1004CE0020307E0343DA10C271206102A19653DA06
:1004DE00CF207E0343DA10307E0343DA20C2D8D217
:1004EE007188548955C3E89552F8E99553F9E4FBA0
:1004FE007E027A00C3E8948CE9940050057558008A
:10050E00A186C3E894C8E994005008E4D2E4FB7ACB
:10051E000AA163C3E89468E994015008E4D2E3FBAE
:10052E007A0FA163C3E894D0E994025008E4D2E2B2
:10053E00FB7A1EA163C3E894A0E994055008E4D2A7
:10054E00E1FB7A3CA163C3E89498E994085008E46F
:10055E00D2E0FB7A787E00C3E89556FCE99557FD0C
:10056E0030E708ECF42401FCEDF4FD755800C3EC03
:10057E009AED9E500375580188568957A854A9556F
:10058E00885289537802C170C3E89526F8E99527F9
:10059E00F9307C02C154307B02C154307A02C14D15
:1005AE00207502A1B9E9FDE8FCA1D8E9C313F9E869
:1005BE0013F8307902C14DE9C313F9E813F8307816
:1005CE0002C14DE9C313FDE813FC206126C3EC9470
:1005DE001CED94024002A1EFED7018C3EC94C850CC
:1005EE00120528C3E528940A5002C189755900D214
:1005FE0070C189E528600215287400207F03789663
:10060E00E624FAFEE43400FFC3EC9EFCED9FFD50A1
:10061E000678007900C154C3EC94FFED94004006B7
:10062E0078FF7900C154EC856FF0A4C5F0A2F733C2
:10063E00F87900400302067078FF7900020670E92F
:10064E00C313F9E813F8307C0EE9600278FFC3E8B3
:10065E001338F8E43400F9C3E894FFE9940040023B
:10066E0078FF8859D270206102C189741FF4552F0A
:10067E004BF52FC274E42B7002D27475294030747E
:10068E000375290A306102C19D20740353DAFE7589
:10069E002A20307403752A0AD0F0D0E0D0D0C2D30D
:1006AE00D2AD43E6103279010206D279030206D2A8
:1006BE00790A0206D2791E0206D279640206D2792E
:1006CE00C80206D27817E4D5E0FDD8FAD9F6227A18
:1006DE00147B780206F97A107B8C0206F97A0D7B70
:1006EE00B40206F97A0B7BC80206F9AC2575250112
:1006FE007902B27DE4C294D5E0FDE5256002D29583
:10070E00D5E0FDC295D5E0FDD294D5E0FDE525609E
:10071E000A207D02D293307D02D297E570D5E0FD9E
:10072E00207D02C293307D02C2977496D5E0FDD92A
:10073E00C1EAF8D5E0FDD8FBDBB1C2948C2522C30B
:10074E007C007D0075F00005F0EA33FAEB33FB50C8
:10075E00F6EB13FBEA13FAC3E9FFE8FEE89AF8E9B1
:10076E009BF95004EFF9EEF8B3EC33FCED33FDD505
:10077E00F0DFEDF9ECF822E889F08A20D2D4F8A95E
:10078E00F07B0030F70B7BFFF42401F8E9F4340022
:10079E00F9E88520F0A4ADF0F8E98520F0A4AFF0DB
:1007AE00FEED2EF974003FFA7C04C3EA13FAE91346
:1007BE00F9E813F8DCF48BF030F70AE8F42401F8CA
:1007CE00E9F43400F9E889F0C2D4F8A9F02278826D
:1007DE00B6040302087EC3E5599419401FE52D5453
:1007EE00067019E547703878057994E71460077834
:1007FE000A1460027812C3E53B984020E547600971
:10080E0085615F7564FF756501852224E4F53EF50B
:10081E003FF540F541F542F54702087E75470179EF
:10082E0094E7147013E523F43333F913F8E9540104
:10083E0004F9E854FE020872E714147014E523F468
:10084E00333333F913F8E9540304F9E854FC02087E
:10085E007AE523F433333333F913F8E954070404F8
:0E086E00F9E854F8C39440F8E99400F9883E84
:10087C00893F22E547603BC3E53B13F9E53A13F8A2
:10088C00C3E53E98F8E53F99F9500CC3E89480E92C
:10089C0094FF40160208BAC3E8947FE99400500311
:1008AC000208BA787F79000208BA788079FF884309
:1008BC00894422E5476058E5432540F8E544354135
:1008CC00F9854420E4300701F43542FA30E709C3D6
:1008DC00EA94F040150208FCC3EA940F5003020896
:1008EC00FC78FF79FF7A0F0208FC780079007AF027
:1008FC00C3E524955E5006E52460092115E54420E6
:10090C00E70D2115E54430E706884089418A4222EB
:10091C00E547700302098078A1E6FAC3E54333F892
:10092C00E54433F9120785E930E70BC3E89480E915
:10093C0094FF40132157C3E8947FE994005002219F
:10094C0057787F79002157788079FFE820E715C325
:10095C00E52398F84009C3E89401400302097E7826
:10096C000102097EE8F424012523F8400302097EE4
:10097C0078FF884522E54770030209E378A2E6FA7E
:10098C00A841A942120785E930E70CC3E89401E9B4
:10099C0094FF40160209BAC3E894FFE9940050038F
:1009AC000209BA78FF79000209BA780179FFE920C7
:1009BC00E715C3E54598F84009C3E89401400302E4
:1009CC0009E178000209E1E8F424012545F8400327
:1009DC000209E178FF88242278FFC264E52D5406D1
:1009EC00702FD264C3E53B940A4009C3E5259440BB
:1009FC005002C264E53B601974FF853BF084853777
:100A0C00F0A4F8C5F0600278FFC3E895615002A825
:100A1C00618860227883E6F520120F2F75E890121A
:100A2C0006B475E890E5E820ECFBA8BDA9BE120F52
:100A3C00AF756B55756C00C3740013FD745513FCC6
:100A4C0074552CFC74003DFDECFAEDFBC3E89AE9FF
:100A5C009B4014E56B2455F56BE56C3400F56CEAA2
:100A6C002CFAEB3DFB80E5AE6BAF6CC3E56C13F978
:100A7C00E56B13F8C3E913F9E813F8E56B28F5698E
:100A8C00E56C39F56A7A03C3E913F9E813F8DAF778
:100A9C00AA201A7009756B00756C00020ABA1AEA62
:100AAC006008EE28FEEF39FFDAF88E6B8F6C22753A
:100ABC00E890227883E6FFE5E820ECF7A8BDA9BE14
:100ACC00056DC3E56D94084052756D00E9FA79A087
:100ADC00E76044EA7007E56E601B020AF5C3E8950F
:100AEC006E6010E56E5006600C14020B010460F988
:100AFC00020B01E56EF56EC394A8401B755EC0C376
:100B0C0094054013755E80C39405400B755E40C31D
:100B1C0094054003755E0075BB0122EFC394016020
:100B2C001BC3E894FFE994035012C3E8956BE99555
:100B3C006C5009E55E600C155E020B4FE55EF460CF
:100B4C0002055EA85EC3E524985002A824C3E8956C
:100B5C005F400AA85FE55FF46003855F5E8825E56A
:100B6C006DB4070375BB1E22743279A387F0A4C53C
:100B7C00F0A2F733F8C3E8955E4002A85E8822889D
:100B8C00248825886122753A00753B7F2275C82020
:100B9C00A8CCA9CD75C824AA38AB3988388939C3F3
:100BAC00E89AF8E99BF9AA3AAB3BAC3AAD3B7E0428
:100BBC007F02C3EB940440021E1FC3EB9408400257
:100BCC001E1FC3ED13FDEC13FCDEF7C3EA9CFAEB1E
:100BDC009DFBEF6009C3E913F9E813F8DFF7EA2886
:100BEC00FAEB39FB8A3A8B3B400122753AFF753B95
:100BFC00FF2230600261FE854C50854D51D260431E
:100C0C00E680227892E6FFC3E535948240010FC35B
:100C1C00E53594A040010FC3EF940640027F057E9A
:100C2C00021E3072010EC3E53B940350060E0E30CB
:100C3C0072010EC3E53B940250060E0E3072010E8B
:100C4C00A93BA83A7A04C3E913F9E813F8DAF7C315
:100C5C00E89EF8E99400F94009C3E89402E994008D
:0F0C6C0050047802E4F9E9FBE8FAC3E913FDE864
:100C7B0013FC884C894DC3EF94036037EF20E00DD4
:100C8B00E82CF8E93DF9ECFAEDFB020CABE828F89F
:100C9B00E939F9C3E89402F8E99400F97A02E4FB24
:100CAB00C3EF9403400D8A4E8B4F884889498C4A79
:100CBB008D4B22884E894F8A488B498C4A8D4B220B
:100CCB0030600281CBD26043E680E52D540660276D
:100CDB00A83AA93BE53494085006E820E002A94D58
:100CEB00759100C3E498F594E499F595759104D248
:100CFB006053917F43E68022D265753D00752000DD
:100D0B00020D16D265753D00752040E52D54066029
:100D1B0002C265D2AF206005E53D60012278017A01
:100D2B0002C3E53B940540027802C3E53B940A40BD
:100D3B00027803C3E53B940F40027A0330690478D1
:100D4B001E7A01206007E53D6003D2AF22D2AF00CF
:100D5B0000C2AFC3E53BFB940F40027B0FEB0430AB
:100D6B0073012320620123F93069027982E58BC379
:100D7B009940D0053DEAFBE59E7005E59B020D8D84
:100D8B00E59A5440B52004DBEEA1BA206502A1160A
:100D9B00C265759100AE3AAF3BC3E49EF594E49FF8
:100DAB00F595759104D26053917F43E680A116307F
:100DBB006502A116D88DD2AF2230690B05342060A5
:100DCB0016753400020DE220600D20650A206B07BA
:100DDB001581158102168622A84EA94F75910053D5
:100DEB00917FC3E498F594E499F595759104854842
:100DFB0050854951D26043E680227800306405303B
:100E0B0065027801E53575F007A4F9E5F028F5F0F2
:100E1B00E9A2F013A2F113A2F213F535C3947850A3
:100E2B0003753578C3E53595364008D266C293C253
:100E3B0095C297306002C13E854A50854B51D260B6
:100E4B0043E68022C2AFC292C294C29630720B901C
:100E5B0001FF7406D5E0FD020E65207D02D29230B3
:100E6B007D02D296759F33759E00753C02020FAAC8
:100E7B00C2AF207D02C297307D02C29330721790B1
:100E8B0001DCC294207D02C296307D02C2927406B0
:100E9B00D5E0FD020EA490013F306206E52560020D
:100EAB00D295207D03759E23307D03759E22753C64
:100EBB0003020FAAC2AFC292C294C29630720B90B9
:100ECB0001B97406D5E0FD020ED5207D02D2963015
:100EDB007D02D292207D03759E22307D03759E2369
:100EEB00753C04020FAAC2AFC295307217900196DF
:100EFB00207D02C292307D02C296C2947406D5E068
:100F0B00FD020F1290012D30620EE525600A207D47
:100F1B0002D293307D02D297759F33759E00753C3C
:100F2B0005020FAAC2AFC292C294C29630720B9046
:100F3B00016B7406D5E0FD020F45D294207D03753D
:100F4B009E23307D03759E22753C06020FAAC2AF0D
:100F5B00207D02C293307D02C29730721F90022A0D
:100F6B00207D02C292307D02C296207D02C2963055
:100F7B007D02C2927406D5E0FD020F8A90015130BA
:100F8B00620EE525600A207D02D297307D02D29356
:100F9B00207D03759E22307D03759E23753C01C217
:100FAB0066D2AF2290012BC293C295C297C292C256
:100FBB0094C296C26222788076070876070876017B
:100FCB000876040876FF0876FF087607087602088D
:100FDB007601087601788C76000876000876B408DE
:100FEB0076FF0876FF0876FF0876030876FF08760B
:100FFB00010876FF0876030876FA0876780876C833
:10100B000876040876FF08760108760008767D08D6
:10101B007610087600227887E6FFC272BF0302D2F1
:10102B00727888C27DE630E102D27DC27E7889E695
:10103B0030E102D27EC3EF94026008758E01D27349
:10104B00021053758E00C273227880E614900080D4
:10105B009378A1F67881E6149000809378A2F6122B
:0E106B000FAF227886E61490008D9378A3F6DE
:10107900120FAF22789FE6F8700108C3E894114077
:10108900027811E82828F5662566256628F567257A
:10109900662828F56822789CE67536FF75370CB402
:1010A90002067536A075370AB40306753682753798
:1010B9000522227896E6FA7897E6FB307F047A00D3
:1010C9007BFFC3EB9AFCC3948250027C82756F004C
:1010D900056FEC856FF0A4C3E5F0948040F222D24D
:1010E9007F11BC1206C37A007B007C101206B9E599
:1010F900592AFA74003BFBDCF37C04C3EB13FBEACB
:1011090013FADCF7FEC27F11BC22E5EF20E6037576
:1011190020000520903DFFE520146006901FFF1474
:1011290060009304600375EF12C2D353D9BF758170
:10113900C043FF801206B475EF0243B203E5B3243E
:101149000420E702F5B3120FAF75800875A4007586
:10115900F1FF75D4F775900275A5FC75F2FC75D58C
:101169000075A0FD75A60275F30275D60075B0FF6E
:1011790075A70175F4FF75E241120FC112170378C3
:10118900988670C2AF1206CD1206F21206F2120646
:10119900C81206C81206C81206C81206F21206F2CA
:1011A9001206C81206C81206C31206C31206F212A4
:1011B90006C31206C31206F21206F21206C8120676
:1011C900C81206C81206C81206F21206F21206C89A
:1011D9001206C81206C81206C81206EB1206EB124E
:1011E90006C81206C81206C81206C81206DD12067B
:1011F900DD1206C81206C81206C31206C31206EB90
:101209001206C31206C31206F21206F21206C81219
:1012190006C81206C81206C81206C81206C812065F
:10122900C81206C81217E41206CD1206CD1206C856
:10123900C2AFE4F8F6D8FD78C879C8308304D9FB81
:10124900D8F7120FC112170311211154116E117D14
:10125900119F11BB11BC78988670120FAF75885019
:1012690075891275C82475910475D84075A82275B9
:10127900B80275E690759B80759D00759A80759C7E
:101289000075D10E75BC5875BB0175BA1F75E8801C
:101299001206B4D2AF120A2043DA01C2D8C27112BF
:1012A90006CD753001D2617B037A0CE55870067A58
:1012B9000CDB0241391206C32070024139C270E5C4
:1012C90059C3940240E3E52F541F855B5AF55BB57A
:1012D9005AD7DAD7C26153DACF207E0343DA2030F6
:1012E9007E0343DA10C2D8C271C27575280012068E
:1012F900C8307409C3E528940A4002D2751206B9A8
:1013090078023074027800C3E5599840F0C2AF12F0
:1013190006DD1206C31206DD1206C31206E4120622
:10132900C31206E4D2AF1206CD7546001206B9788B
:101339008CE6C394015003021409E530C3940150AB
:1013490003021409207435C3E55994FF50030214AC
:1013590009C2AF1206F2D2AF1206C8C3E559940109
:1013690050EFC2AF1206DD1206BE1206DDD2AF1271
:1013790006C8C3E55994FF40E90218697F05D27F81
:1013890011BC1206C8C2AFC27F11BCAE59C3E55920
:10139900947FD2AF40741206B4C2AF1206F2D2AF34
:1013A900DFDC11E8C3EE94057897F61206CD121723
:1013B900031217EC7F0AD27F11BC1206C8C2AFC252
:1013C9007F11BCAE59C3E559947FD2AF50E61206DE
:1013D900B4C2AF1206DD1206BE1206DDD2AFDFD6E9
:1013E90011E8EE24057896F61206CD1217031218A5
:1013F9001B1206C811BCC3E55994FF40F4021869D1
:10140900C3E559954640038559461206C8780179BE
:1014190088E7B403027805C3E5599840026135C2EB
:10142900AF1206F21206C31206F21206C31206EB37
:101439001206C31206EBD2AF1206CD753000E4F5E1
:1014490031F5320531E531F470390532789AE678AB
:1014590019146012783214600D787D14600878FAD6
:0E146900146003753200C3E532984017153247
:101477007531B478998670C2AF1206F2D2AF7898F8
:1014870086701206C81206BEE5297005307402413F
:101497003978012074027806C3E5599840A71206E7
:1014A700C8E52970024139C2AF120FAFE4F522F542
:1014B70023F524F525D2AF78858662F53EF53FF50D
:1014C70040F541F542F56DF547F52CF52DF535124B
:1014D7000B92756D0875BB1E1206B4120ABBE5E8C0
:1014E70020ECFBA8BDA9BEE97001F8886E120ABFFF
:1014F700756D0875BB1E7887E6FE76021121788721
:10150700EEF6C2AF755EFF120B7485225E85225F11
:10151700852260D2AF752201752401752501855D8D
:1015270064756501D268D269753400120F2F120FE6
:1015370059120B92120B99120C0F02154F120FAF83
:101547001121756D0075BB01120D0E120DC4120D20
:10155700E31207DC120E05120E4F120B99120BFE47
:10156700120C0F120CCB120D03120DC4120DE31245
:10157700087F1209E4120E05120E7B120B99120B4B
:10158700FE120C0F120CCB120D0E120DC4120DE32E
:101597001208BF120E05120EBF120B99120BFE1284
:1015A7000C0F120CCB120D03120DC4120DE312090E
:1015B7001C120E05120EF1120B99120BFE120C0FD4
:1015C700120CCB120D0E120DC4120DE3120981126B
:1015D7000E05120F2F120B99120BFE120C0F120C85
:1015E700CB120D03120ABB120DC4120DE3120ABF70
:1015F700120E05120F59120B99120BFE120C0F1235
:101607000CCB30692F206B2C85615E85615F855D12
:101617006475650179327A0AC3E534994009C2696C
:10162700D26A8A3302163BC3E55994014003021577
:101637004F021686306A1B206B18E533147004C2FC
:101647006AA144F533C3E5599401400302154F02DB
:101657001686C3E55C9401400985615F855D647505
:101667006501C3E55C94FA5016307404E529600FF0
:10167700C3E53B78F0306B027860985002A14FC207
:10168700AF120FAF7887E6FE760211217887EEF664
:10169700E4F522F523F524F525F562C268D2AF12E9
:1016A70006B4120FAF307406E52970024139788D00
:1016B700E6C39401400261068147901A0D78201213
:1016C7001745E520B4A50CA3121745E520B45A0326
:1016D7000216E3120FC1121703021702901A0378BA
:1016E700807B0A121745A308DBF9901A0F788C7BC9
:1016F70015121745A308DBF9901A2422C2AF121757
:101707008412175E901A00740D12174AA3740212FE
:10171700174AA3741312174A901A0378807B0A1288
:101727001749A308DBF9901A0F788C7B1512174914
:10173700A308DBF9121797121775901A2422E4935E
:10174700F622E6438F01538FFD75EF0275B7A57536
:10175700B7F1F0538FFE22438F02438F0175EF02DB
:1017670075B7A575B7F1901A0DF0538FFC22901A33
:101777000D74A5F14A901A0E745AF14A227A3079FB
:10178700D07820901A40F145E520F709A3DAF7222F
:101797007A3079D0901A40E7F14A09A3DAF922ABF7
:1017A70071A872BB01027980BB02027981BB030277
:1017B7007982BB04027994BB05027983BB0602795F
:1017C70086BB07027992BB08027987BB0902799C1D
:1017D700BB0A027988BB0B027989E8F7227C0512DC
:1017E70006CDDCFB22C2AF1206DD1206E41206EBC1
:1017F7001206F21206BE1206DD1206E41206EB12FC
:1018070006F21206BE1206DD1206E41206EB1206F7
:10181700F2D2AF22C2AF1206F21206EB1206E412A0
:1018270006DD1206BE1206F21206EB1206E41206D7
:10183700DD1206BE1206F21206EB1206E41206DDF0
:10184700D2AF22AE71AF72C2AF1206DD1206DD1241
:1018570006DD1206BEDEF21206F21206BEDFF8D26F
:0E186700AF221217EC1217E41217E47571018C
:10187500757201757300114A7C05AD591206CDC309
:10188500ED955970F5C3E5599401400AC3E559949E
:10189500FF40370218AC1217A61217031217ECC235
:1018A500AF75EF121217E4DCD10573C3E57394032A
:1018B500500280C21217E40572E5711490009A93E4
:1018C500F808C3E57298500280A91217E41217E4CC
:1018D5000571C3E571940C50028095120FC1121762
:0918E50003C2AF75EF121217E403
:101A00000D021307070104FFFF07020101A55A0099
:101A100000B4FFFFFF03FF01FF03FA78C804FF01D2
:051A200000FF1000FFB3
:101A400023506C6174696E756D31353041232020EF
:101A500023424C48454C4923463331302320202033
:101A60002020202020202020202020202020202076
:00000001FF
