:030000000210D219
:03000B000200A24E
:03002B00020309C4
:03005B0002047E1E
:0300730002044D37
:1000800002030406080C10182030406080040608A3
:100090000C10182030406080A0C005050D0503033A
:1000A0000302306306C26385768A32C2AFC0D0C015
:1000B000E020623720680241E530660241A5302F1A
:1000C00002E4730563C37405952540F5956340F11B
:1000D0002069EE758A00758D00E525700B758A0024
:1000E000758D00D263757600020302C3E5253340A7
:1000F00009758A00D263F57601FCF58AC262E525AE
:10010000F47002216C2068022153207213758B0059
:10011000758D00D0E0D0D0C292C296C295D2AF32D7
:10012000C292C296C2957406D5E0FDE53C1420E269
:100130001520E10D207D02D297307D02D29302017D
:1001400066D294020166207D02D293307D02D2975E
:10015000020166758B00758D00D0E0D0D0C292C2CE
:1001600096C295D2AF32758B00758D00D0E0D0D09D
:10017000D2AF3241E5E525600A207D02D292307D82
:1001800002D296C29541E5E5256002D295207D0216
:10019000C296307D02C29241E5E525600A207D02CB
:1001A000D296307D02D292207D02C292307D02C270
:1001B0009641E5207D02C293307D02C297207D02E8
:1001C000C297307D02C2937406D5E0FDE525600A32
:1001D000207D02D292307D02D296C29541E5207DEB
:1001E00002C293307D02C297C2947406D5E0FDE549
:1001F00025600A207D02D292307D02D296C29541BE
:10020000E5C294207D02C293307D02C2977406D568
:10021000E0FDE5256002D295207D02C296307D0288
:10022000C29241E5C294207D02C297307D02C29302
:100230007406D5E0FDE5256002D295207D02C296C8
:10024000307D02C29241E5207D02C297307D02C21C
:1002500093C2947406D5E0FDE525600A207D02D2A4
:1002600096307D02D292207D02C292307D02C296EB
:1002700041E5207D02C297307D02C293207D02C2FB
:1002800093307D02C2977406D5E0FDE525600A2013
:100290007D02D296307D02D292207D02C292307DC4
:1002A00002C29641E530723DE53C20E21A20E12988
:1002B000207D02C293307D02C297207D02C297301A
:1002C0007D02C2930202E520E1E6207D02C2933066
:1002D0007D02C297C2940202E5C294207D02C297B9
:1002E000307D02C293E525F4C3334009758A00D2FC
:1002F00063F57641F7F58A758B00758D007563009F
:10030000D262D0E0D0D0D2AF32C2AFC2AD53E6EFAE
:10031000C0D0C0E0D2D3D2AFE5776009E574600504
:1003200075740061F8757401C2CEE5296007207408
:10033000461529617778007900E580307E01F43038
:10034000E50278FF53DACF207E0343DA20307E03C4
:1003500043DA10C2D8C271E580307E01F430E50284
:1003600079FFC3E89970CE306103752918207403B2
:100370007529188859D270E52A6004152A618720EA
:10038000740543DA01C2D820700261E2A8592061E5
:1003900002C270207431C3E894F0400374F0F8E8AE
:1003A000C4540F28F87984B7030261C7C313C31379
:1003B0008721200802C313200A06C3C898F861C722
:1003C00028F8500374FFF8C3E895625003E562F81B
:1003D000882230690AC3E522955E4003855E228546
:1003E0002224A824C3E524955E4002A85E8825C384
:1003F000E52594404002D26420CF0CD0E0D0D0C29A
:10040000D343E610D2AD32E5776009E57560057536
:1004100075008141757501C2CF7801E5296005300D
:1004200074021529C3E55994014005755C008141AA
:10043000755D00756400E55C2401F55C5003755C36
:10044000FFD0E0D0D0C2D343E610D2AD32C0D0C08E
:10045000E0C2AF53917F53E67FC260C3E55033F5EE
:1004600050E55133F551759100C3E49550F594E48E
:0E0470009551F595759104D0E0D0D0D2AF3201
:10047E00C2AF53E6EFC2ADC0D0C0E0C0F0D2D3D20F
:10048E00AFA8FBA9FCE5776007C3E913F9E813F8F9
:10049E00C2D830710281F053DACF207E0343DA10D6
:1004AE00307E0343DA20D271E580307E01F420E500
:1004BE000281C788268927E12C53DACF207E034399
:1004CE00DA20307E0343DA10C2D8C271307402E1F2
:1004DE00187800E580307E01F430E502E118885985
:1004EE00C1FF53DACF207E0343DA20307E0343DA96
:1004FE0010C271206102A1C053DACF207E0343DA0D
:10050E0010307E0343DA20C2D8D27188548955C385
:10051E00E89552F8E99553F9E4FB7E027A00C3E8B8
:10052E00948CE994005005755800A1B0C3E894C8A6
:10053E00E994005008E4D2E4FB7A0AA18DC3E89452
:10054E0068E994015008E4D2E3FB7A0FA18DC3E869
:10055E0094D0E994025008E4D2E2FB7A1EA18DC336
:10056E00E894A0E994055008E4D2E1FB7A3CA18D11
:10057E00C3E89498E994085008E4D2E0FB7A787EB8
:10058E0000C3E89556FCE99557FD30E708ECF424D6
:10059E0001FCEDF4FD755800C3EC9AED9E50037509
:1005AE00580188568957A854A955885289537802FC
:1005BE00C1FFC3E89526F8E99527F9307C02C1E31F
:1005CE00307B02C1E3307A02C1DC207502A1E3E97F
:1005DE00FDE8FCC102E9C313F9E813F8307902C152
:1005EE00DCE9C313F9E813F8307802C1DCE9C31370
:1005FE00FDE813FC206126C3EC941CED940240022E
:10060E00C119ED7018C3EC94C850120528C3E52823
:10061E00940A5002E118755900D270E118E528606D
:10062E000215287400207F0B7888E67896B40302B2
:10063E00789EE624FAFEE43400FFC3EC9EFCED9FA8
:10064E00FD92087888E6B40327A2085009207D2081
:10065E00C2AFD27DC16B307D17C2AFC27DC292C216
:10066E0096C295C293C297C294206902D26BD2AF42
:10067E00A2085017E6B4030DECF42401FCEDF4349B
:10068E0000FD02069978007900C1E37888E6B4038C
:10069E0015EC33FCED33FDC3EC940AFCED9400FD38
:1006AE0050047C007D00C3EC94FFED94004006786E
:1006BE00FF7900C1E3EC856FF0A4C5F0A2F733F823
:1006CE00790040030206FF78FF79000206FFE9C3B6
:1006DE0013F9E813F8307C0EE9600278FFC3E813D3
:1006EE0038F8E43400F9C3E894FFE9940040027846
:1006FE00FF8859D270206102E118741FF4552F4BF8
:10070E00F52FC274E42B7002D2747529183074035D
:10071E0075290A306102E12C20740353DAFE752A22
:10072E0006307403752A0AD0F0D0E0D0D0C2D3D2EE
:10073E00AD43E61032790102076179030207617950
:10074E000A020761791E020761796402076179C89E
:10075E000207617817E4D5E0FDD8FAD9F6227A14AB
:10076E007B780207887A107B8C0207887A0D7BB41F
:10077E000207887A0B7BC8020788AC25752501799C
:10078E0002B27DE4C294D5E0FDE5256002D295D596
:10079E00E0FDC295D5E0FDD294D5E0FDE525600AD9
:1007AE00207D02D292307D02D296E570D5E0FD20FA
:1007BE007D02C292307D02C2967496D5E0FDD9C1FB
:1007CE00EAF8D5E0FDD8FBDBB1C2948C2522C37CC0
:1007DE00007D0075F00005F0EA33FAEB33FB50F6BE
:1007EE00EB13FBEA13FAC3E9FFE8FEE89AF8E99B7C
:1007FE00F95004EFF9EEF8B3EC33FCED33FDD5F020
:10080E00DFEDF9ECF822E889F08A20D2D4F8A9F0CD
:10081E007B0030F70B7BFFF42401F8E9F43400F988
:10082E00E88520F0A4ADF0F8E98520F0A4AFF0FE45
:10083E00ED2EF974003FFA7C04C3EA13FAE913F9BA
:10084E00E813F8DCF48BF030F70AE8F42401F8E949
:10085E00F43400F9E889F0C2D4F8A9F02222E54771
:0F086E00603BC3E53B13F9E53A13F8C3E53E9849
:10087D00F8E53F99F9500CC3E89480E994FF4016D0
:10088D000208A7C3E8947FE9940050030208A778F3
:10089D007F79000208A7788079FF8843894422E593
:1008AD00476058E5432540F8E5443541F985442036
:1008BD00E4300701F43542FA30E709C3EA94F04019
:1008CD00150208E9C3EA940F50030208E978FF798D
:1008DD00FF7A0F0208E9780079007AF0C3E52495D4
:1008ED005E5006E52460092102E54420E70D210252
:1008FD00E54430E706884089418A4222E547700386
:10090D0002096C78A1E6FAC3E54333F8E54433F9FF
:10091D001114E930E70BC3E89480E994FF401321EB
:10092D0043C3E8947FE9940050022143787F790016
:10093D002143788079FFE820E715C3E52398F84037
:10094D0009C3E89401400302096A780102096AE8C3
:10095D00F424012523F8400302096A78FF88452213
:10096D00E54770030209CE78A2E6FAA841A9421123
:10097D0014E930E70CC3E89401E994FF401602092D
:10098D00A5C3E894FFE9940050030209A578FF7907
:10099D00000209A5780179FFE920E715C3E545981F
:1009AD00F84009C3E8940140030209CC780002091C
:1009BD00CCE8F424012545F840030209CC78FF88E2
:1009CD00242278FFC264E52D5406702FD264C3E54E
:1009DD003B940A4009C3E52594405002C264E53BAF
:1009ED00601974FF853BF0848537F0A4F8C5F0607D
:1009FD000278FFC3E895615002A861886022020A5F
:100A0D00A87883E6F520120EF375E890120743756A
:100A1D00E890E5E820ECFBA8BDA9BE120F89756B27
:100A2D0055756C00C3740013FD745513FC74552C6F
:100A3D00FC74003DFDECFAEDFBC3E89AE99B401414
:100A4D00E56B2455F56BE56C3400F56CEA2CFAEB8F
:100A5D003DFB80E5AE6BAF6CC3E56C13F9E56B1335
:100A6D00F8C3E913F9E813F8E56B28F569E56C3976
:100A7D00F56A7A03C3E913F9E813F8DAF7AA201A2D
:100A8D007009756B00756C00020AA81AEA6008EE11
:100A9D0028FEEF39FFDAF88E6B8F6C2275E8902205
:100AAD007883E6FFE5E820ECF7A8BDA9BE056DC388
:100ABD00E56D94084052756D00E9FA79A0E7604440
:100ACD00EA7007E56E601B020AE3C3E8956E6010DD
:100ADD00E56E5006600C14020AEF0460F9020AEF8D
:100AED00E56EF56EC39472401B755EC0C3940440F1
:100AFD0013755E80C39404400B755E40C39404402F
:100B0D0003755E0075BB0922E55EF46002055EE5C6
:100B1D006DB4070375BB1022743279A387F0A4C599
:100B2D00F0A2F733F8C3E8955E4002A85E882288EC
:100B3D00248825886122753A00753B7F2275C8206F
:100B4D00A8CCA9CD75C824C3E913F9E813F8AA38C0
:100B5D00AB3988388939C3E89AF8E99B547FF9AAEB
:100B6D003AAB3BAC3AAD3B7E047F02C3EB94044001
:100B7D00021E1FC3EB940840021E1FC3ED13FDECB4
:100B8D0013FCDEF7C3EA9CFAEB9DFBEF6009C3E9AA
:100B9D0013F9E813F8DFF7EA28FAEB39FB8A3A8BF9
:100BAD003B400122753AFF753BFF2230600261B870
:100BBD00854C50854D51D26043E680227892E6FFF8
:100BCD00C3E535948240010FC3E53594A040010F74
:100BDD00C3EF940640027F057E021E3072010EC3E4
:100BED00E53B940350060E0E3072010EC3E53B94A7
:100BFD000250060E0E3072010EA93BA83A7A04C3BC
:100C0D00E913F9E813F8DAF7C3E89EF8E99400F967
:100C1D004009C3E89402E9940050047802E4F9E92C
:100C2D00FBE8FAC3E913FDE813FC884C894DC3EFCB
:100C3D0094036037EF20E00DE82CF8E93DF9ECFA6C
:100C4D00EDFB020C65E828F8E939F9C3E89402F8E0
:100C5D00E99400F97A02E4FBC3EF9403400D8A4E48
:0F0C6D008B4F884889498C4A8D4B22884E894F7E
:100C7C008A488B498C4A8D4B223060028185D26028
:100C8C0043E680E52D5406602EA83AA93BE5349442
:100C9C00085006E820E002A94DC3E833F8E933F91F
:100CAC00759100C3E498F594E499F595759104D287
:100CBC006053917F43E68022D265753D007520001C
:100CCC00020CD7D265753D00752040E52D540660A9
:100CDC0002C265D2AF206005E53D60012278017A41
:100CEC0002C3E53B940540027802C3E53B940A40FD
:100CFC00027803C3E53B940F40027A033069047811
:100D0C001E7A01206007E53D6003D2AF22D2AF000E
:100D1C0000C2AFC3E53BFB940F40027B0FEB0430EA
:100D2C0073012320620123F93069027982E58D1366
:100D3C00E58B13C39940CC053DEAFBE59B5440B5CC
:100D4C002004DBF7A17D20650281D7C26575910077
:100D5C00AE3AAF3BC3EE33FEEF33FFC3E49EF594E4
:100D6C00E49FF595759104D26053917F43E68081A1
:100D7C00D730650281D7D88BD2AF2230690B0534BE
:100D8C00206016753400020DA520600D20650A2028
:100D9C006B071581158102164E22A84EA94FC3E888
:100DAC0033F8E933F975910053917FC3E498F594C6
:100DBC00E499F595759104854850854951D2604365
:100DCC00E6802278003064053065027801E53575DF
:100DDC00F007A4F9E5F028F5F0E9A2F013A2F1135D
:100DEC00A2F213F535C394785003753578C3E53505
:100DFC0095364008D266C292C296C295306002C146
:100E0C0008854A50854B51D26043E68022C2AFC25E
:100E1C0093C297C29430720B9002477406D5E0FDD2
:100E2C00020E2F207D02D293307D02D297759F80C7
:100E3C00753C02020F6EC2AF207D02C296307D025D
:100E4C00C292307217900224C294207D02C2973055
:100E5C007D02C2937406D5E0FD020E6B90018730C3
:100E6C006206E5256002D295207D03759F89307D51
:100E7C0003759F81753C03020F6EC2AFC293C2977C
:100E8C00C29430720B9002017406D5E0FD020E9CE8
:100E9C00207D02D297307D02D293207D03759F81F5
:100EAC00307D03759F89753C04020F6EC2AFC295ED
:100EBC003072179001DE207D02C293307D02C29702
:100ECC00C2947406D5E0FD020ED990017530620E05
:100EDC00E525600A207D02D292307D02D296759F64
:100EEC0080753C05020F6EC2AFC293C297C294309C
:100EFC00720B9001B37406D5E0FD020F09D2942059
:100F0C007D03759F89307D03759F81753C06020FAB
:100F1C006EC2AF207D02C292307D02C29630721F2B
:100F2C00900272207D02C293307D02C297207D0216
:100F3C00C297307D02C2937406D5E0FD020F4E902D
:100F4C00019930620EE525600A207D02D296307D33
:100F5C0002D292207D03759F81307D03759F897528
:100F6C003C01306B13120F897406D5E0FD7406D565
:100F7C00E0FDD293D297D294C266D2AF2290017385
:100F8C00C292C296C295C293C297C294C262227890
:100F9C008076FF0876FF0876FF0876FF0876030850
:100FAC007604087609087603087601087601788CB1
:100FBC0076000876FF0876FF0876FF0876FF08763D
:100FCC00FF0876030876FF0876FF0876FF0876039D
:100FDC000876FA0876FA0876FA0876040876FF0896
:100FEC00760108760008767D0876FF087600227870
:100FFC0087E6FFC272BF0302D2727888E6C39403FD
:10100C006008C27DE630E102D27DC27E7889E6308E
:10101C00E102D27EC3EF94026008758E01D2730296
:10102C001033758E00C273227880E6149000809382
:10103C0078A1F67881E6149000809378A2F6120FCE
:10104C0089227886E61490008D9378A3F6120F8986
:10105C002222789CE67536FF75370CB4020675367D
:0F106C00A075370AB40306753682753705222240
:10107B007896E6FA7897E6FB307F047A007BFFC31D
:10108B00EB9AFCC3948250027C82756F00056FEC67
:10109B00856FF0A4C3E5F0948040F222D27F117BE0
:1010AB001207527A007B007C10120748E5592AFA86
:1010BB0074003BFBDCF37C04C3EB13FBEA13FADC9D
:1010CB00F7FEC27F117B22E5EF20E60375200005BA
:1010DB0020903FFFE520146006901FFF14600093E3
:1010EB0004600375EF12C2D353D9BF7581C043FFA0
:1010FB008012074375EF0243B203E5B3240420E7E4
:10110B0002F5B3120F897580FF75A40075F1F075A8
:10111B00D4DF75900275A5FC75F2FD75D50275A629
:10112B001075A0FF75F3F175E241120F9B1216CBF0
:10113B0078988670C2AF12075C1207811207811272
:10114B000757120757120757120757120781120733
:10115B0081120757120757120752120752120781B3
:10116B0012075212075212078112078112075712E8
:10117B0007571207571207571207811207811207D9
:10118B005712075712075712075712077A12077A87
:10119B0012075712075712075712075712076C12ED
:1011AB00076C1207571207571207521207521207F2
:1011BB007A12075212075212078112078112075730
:1011CB0012075712075712075712075712075712D2
:1011DB00075712075712179D12075C12075C12076D
:1011EB0057C2AFE4F8F6D8FD78C879C8308504D972
:1011FB00FBD8F7120F9B1216CB120FFB1134114EAB
:10120B00115D115E117A117B78988670120F8975BA
:10121B00B68075A90075770075885075891275C8E9
:10122B002475910475D84075A82275B80275E6909F
:10123B00759B80759D0075D10E75BCC075BB09750E
:10124B00BA1175E880120743D2AF120A0B43DA01C9
:10125B00C2D8C27112075C753001D2617B037A0C64
:10126B00E55870067A0CDB0221EC12075220700253
:10127B0021ECC270E559C3940240E3E52F541F855E
:10128B005B5AF55BB55AD7DAD7C26153DACF207EFA
:10129B000343DA20307E0343DA10C2D8C271C27521
:1012AB00752800120757307409C3E528940A4002C9
:1012BB00D27512074878023074027800C3E559984A
:1012CB0040F0C2AF12076C12075212076C12075292
:1012DB00120773120752120773D2AF12075C7546CF
:1012EB00007888E6B4030261C8120748788CE6C31D
:1012FB00940150030213C8E530C394015003021349
:10130B00C8207435C3E55994FF50030213C8C2AF0C
:10131B00120781D2AF120757C3E559940150EFC2A0
:10132B00AF12076C12074D12076CD2AF120757C3DF
:10133B00E55994FF40E90218227F05D27F117B12F9
:10134B000757C2AFC27F117BAE59C3E559947FD209
:10135B00AF4074120743C2AF120781D2AFDFDC116B
:10136B00A7C3EE94057897F612075C1216CB1217EB
:10137B00A57F0AD27F117B120757C2AFC27F117BA9
:10138B00AE59C3E559947FD2AF50E6120743C2AFB3
:10139B0012076C12074D12076CD2AFDFD611A7EEF6
:1013AB0024057896F612075C1216CB1217D4120787
:1013BB0057117BC3E55994FF40F4021822C3E5593A
:1013CB009546400385594612075778017988E7B44B
:1013DB0003027805C3E55998400241ECC2AF1207EE
:1013EB008112075212078112075212077A12075203
:1013FB0012077AD2AF12075C753000E4F531F53283
:10140B000531E531F470390532789AE678191460B4
:10141B0012783214600D787D14600878FA1460032A
:10142B00753200C3E53298401715327531B478998F
:10143B008670C2AF120781D2AF78988670120757A9
:10144B0012074DE529700530740221EC78012074E8
:10145B00027806C3E5599840A77888E6C3940360E1
:0F146B0003120757E529700221ECC2AF120F8957
:10147A00E4F522F523F524F525D2AF78858662F5C1
:10148A003EF53FF540F541F542F56DF547F52CF58A
:10149A002DF535120B43756D0875BB1012074312F3
:1014AA000AA9E5E820ECFBA8BDA9BEE97001F88805
:1014BA006E120AAD756D0875BB107887E6FE760266
:1014CA00120FFB7887EEF6C2AF755EFF120B258509
:1014DA00225E85225F852260D2AF752201752401C2
:1014EA00752501855D6475650175B69075A90375E5
:1014FA007701D268D269753400120EF3120F1D12E9
:10150A000B43120B4A120BC9021521120F89120F33
:10151A00FB756D0075BB09120CCF120D87120DA653
:10152A0012086B120DCF120E19120B4A120BB812B7
:10153A000BC9120C85120CC4120D87120DA61208C3
:10154A006C1209CF120DCF120E42120B4A120BB8AF
:10155A00120BC9120C85120CCF120D87120DA6128E
:10156A0008AC120DCF120E86120B4A120BB8120BD0
:10157A00C9120C85120CC4120D87120DA612090984
:10158A00120DCF120EB8120B4A120BB8120BC91257
:10159A000C85120CCF120D87120DA612096D120DB1
:1015AA00CF120EF3120B4A120BB8120BC9120C858A
:1015BA00120CC4120AA9120D87120DA6120AAD1234
:1015CA000DCF120F1D120B4A120BB8120BC9120CB7
:1015DA0085306935206B3285615E85615F855D6422
:1015EA0075650179327A0AC3E53499400FC269D226
:1015FA006A8A33755EFF755FFF021613C3E5599455
:10160A0001400302152102164E306A1B206B18E5B1
:10161A0033147004C26AA115F533C3E55994014025
:10162A000302152102164EC3E55C948250163074EB
:10163A0004E529600FC3E53B78F0306B02786098C7
:10164A005002A121C2AF120F897887E6FE760212F4
:10165A000FFB7887EEF6E4F522F523F524F525F558
:10166A0062C26875B68075A900757700D2AF120795
:10167A0043120F89307406E529700221EC81069025
:10168A001A0D782012170DE520B45A0CA312170D63
:10169A00E520B4A5030216AB120F9B1216CB021655
:1016AA00CA901A0378807B0A12170DA308DBF990F7
:1016BA001A0F788C7B1512170DA308DBF9901A24E0
:1016CA0022C2AF12174C121726901A00740D121765
:1016DA0012A37402121712A37413121712901A0388
:1016EA0078807B0A121711A308DBF9901A0F788CFD
:1016FA007B15121711A308DBF912175F12173D9019
:10170A001A2422E493F622E6438F01538FFD75EFE4
:10171A000275B7A575B7F1F0538FFE22438F0243C6
:10172A008F0175EF0275B7A575B7F1901A0DF053D1
:10173A008FFC22901A0D745AF112901A0E74A5F1A8
:10174A0012227A3079D07820901A40F10DE520F7EC
:10175A0009A3DAF7227A3079D0901A40E7F1120910
:10176A00A3DAF922AB71A872BB01027984BB020227
:10177A007985BB03027986BB04027992BB0502799B
:10178A0087BB0602799CBB07027988BB0802798964
:10179A00E8F7227C0512075CDCFB22C2AF12076C59
:1017AA0012077312077A12078112074D12076C1279
:1017BA00077312077A12078112074D12076C120774
:1017CA007312077A120781D2AF22C2AF12078112AF
:1017DA00077A12077312076C12074D120781120754
:1017EA007A12077312076C12074D12078112077AD1
:1017FA0012077312076CD2AF22AE71AF72C2AF1268
:10180A00076C12076C12076C12074DDEF212078181
:10181A0012074DDFF8D2AF221217A512179D121721
:10182A009D75710175720175730011037C05AD59BF
:10183A0012075CC3ED955970F5C3E5599401400A46
:10184A00C3E55994FF403702186512176E1216CB7A
:10185A001217A5C2AF75EF1212179DDCD10573C31B
:0F186A00E5739403500280C212179D0572E57159
:101879001490009A93F808C3E57298500280A9124F
:10188900179D12179D0571C3E57194095002809542
:0E189900120F9B1216CBC2AF75EF1212179DE5
:101A00000D0213FFFFFFFF0304090301015AA500A4
:101A1000FFFFFFFFFF03FFFFFF03FAFAFA04FF01D6
:051A2000007DFF00FF46
:101A400023506C6174696E756D50726F3330412331
:101A500023424C48454C492346333930232020202B
:101A60002020202020202020202020202020202076
:00000001FF
