:0300000002118A60
:03000B000200A54B
:03002B000202DEF0
:03005B000204BAE2
:03007300020489FB
:1000800002030406080C10182030406080040608A3
:100090000C10182030406080A0C00D0D0403060D28
:1000A0000503030202306306C26385768A32C2AF5B
:1000B000C0D0C0E020620C20680241BD3066024121
:1000C0007DE473C3E525334009758A00D263F57674
:1000D00001D4F58AC262E525F47002214420680249
:1000E000212B207213758B00758D00D0E0D0D0C20B
:1000F00092C296C295D2AF32C292C296C29574068F
:10010000D5E0FDE53C1420E21520E10D207D02D272
:1001100097307D02D29302013ED29402013E207DAF
:1001200002D293307D02D29702013E758B00758D0D
:1001300000D0E0D0D0C292C296C295D2AF32758BB9
:1001400000758D00D0E0D0D0D2AF3241BDE5256042
:100150000A207D02D292307D02D296C29541BDE541
:10016000256002D295207D02C296307D02C2924166
:10017000BDE525600A207D02D296307D02D2922014
:100180007D02C292307D02C29641BD207D02C293A3
:10019000307D02C297207D02C297307D02C29374E7
:1001A00006D5E0FDE525600A207D02D292307D0271
:1001B000D296C29541BD207D02C293307D02C29786
:1001C000C2947406D5E0FDE525600A207D02D29236
:1001D000307D02D296C29541BDC294207D02C29369
:1001E000307D02C2977406D5E0FDE5256002D29508
:1001F000207D02C296307D02C29241BDC294207D14
:1002000002C297307D02C2937406D5E0FDE52560F9
:1002100002D295207D02C296307D02C29241BD205D
:100220007D02C297307D02C293C2947406D5E0FD70
:10023000E525600A207D02D296307D02D292207D93
:1002400002C292307D02C29641BD207D02C297302B
:100250007D02C293207D02C293307D02C297740654
:10026000D5E0FDE525600A207D02D296307D02D2E0
:1002700092207D02C292307D02C29641BD30723D15
:10028000E53C20E21A20E129207D02C293307D0264
:10029000C297207D02C297307D02C2930202BD2028
:1002A000E1E6207D02C293307D02C297C294020231
:1002B000BDC294207D02C297307D02C293E525F431
:1002C000C3334009758A00D263F57641CFF58A754C
:1002D0008B00758D00D262D0E0D0D0D2AF32C2AFE9
:1002E000C2AD53E6EFC0D0C0E0D2D3D2AFE5776065
:1002F00009E5746005757400618D757401C2CEE501
:100300002960072074461529614C78007900E58042
:10031000307E01F430E50278FF53DACF207E0343CC
:10032000DA20307E0343DA10C2D8C271E580307E15
:1003300001F430E50279FFC3E89970CE30610375AE
:1003400029402074037529408859D270E52A600439
:10035000152A615C20740543DA01C2D8207002615D
:1003600084A859206102C270207402616D88223015
:10037000690AC3E522955E4003855E227882B60451
:1003800003852224C3E52594404002D26420CF0C8B
:10039000D0E0D0D0C2D343E610D2AD32E5776009C9
:1003A000E5756005757500817D757501C2CF7802B0
:1003B000E52960053074021529C3E559940140050B
:1003C000755C0061D6755D00756400E55C2401F51F
:1003D0005C5003755CFF7982B7020EE547601EC36F
:1003E000E522943240178546227982B7030FE5470C
:1003F000600BC3E52294324004798E8722C3E52343
:100400009522600840041523810C0523D8C8056493
:10041000E56470021564D565647565017805C3E50A
:100420006495664058C3E564956750087801756522
:1004300003020440C3E564956850057801756501C1
:10044000C3E55F9524401F7982B704028172E547B6
:10045000701485245FE56404600385666475650136
:1004600075233C02047DE55F285005755FFF8172AE
:0F047000F55FE55F047006755DFF7564FFD0E012
:10047F00D0D0C2D343E610D2AD32C0D0C0E0C2AFAD
:10048F0053917F53E67FC260C3E55033F550E5517A
:10049F0033F551759100C3E49550F594E49551F5FA
:1004AF0095759104D0E0D0D0D2AF32C2AF53E6EF02
:1004BF00C2ADC0D0C0E0C0F0D2D3D2AFA8FBA9FC70
:1004CF00E5776007C3E913F9E813F8C2D830710272
:1004DF00A12C53DACF207E0343DA10307E0343DAA8
:1004EF0020D271E580307E01F420E502A103882639
:1004FF008927E10353DACF207E0343DA20307E03CE
:10050F0043DA10C2D8C271307402C1EF7800E580AF
:10051F00307E01F430E502C1EF8859C1D653DACFEE
:10052F00207E0343DA20307E0343DA10C27120614C
:10053F0002A1FC53DACF207E0343DA10307E03434F
:10054F00DA20C2D8D27188548955C3E89552F8E998
:10055F009553F9E4FB7E027A00C3E8948CE994008A
:10056F005005755800A1ECC3E894C8E994005008F1
:10057F00E4D2E4FB7A0AA1C9C3E89468E994015074
:10058F0008E4D2E3FB7A0FA1C9C3E894D0E994023F
:10059F005008E4D2E2FB7A1EA1C9C3E894A0E99403
:1005AF00055008E4D2E1FB7A3CA1C9C3E89498E96D
:1005BF0094085008E4D2E0FB7A787E00C3E89556A1
:1005CF00FCE99557FD30E708ECF42401FCEDF4FD50
:1005DF00755800C3EC9AED9E5003755801885689E3
:1005EF0057A854A955885289537802C1D6C3E895A4
:1005FF0026F8E99527F9307C02C1BA307B02C1BADF
:10060F00307A02C1B3207502C11FE9FDE8FCC13E7B
:10061F00E9C313F9E813F8307902C1B3E9C313F949
:10062F00E813F8307802C1B3E9C313FDE813FC20D7
:10063F006126C3EC941CED94024002C155ED701875
:10064F00C3EC94C850120528C3E528940A5002C180
:10065F00EF755900D270C1EFE528600215287400BC
:10066F00207F037896E624FAFEE43400FFC3EC9E65
:10067F00FCED9FFD500678007900C1BAC3EC94FFE2
:10068F00ED9400400678FF7900C1BAEC856FF0A4B5
:10069F00C5F0A2F733F8790040030206D678FF7948
:1006AF00000206D6E9C313F9E813F8307C0EE960AF
:1006BF000278FFC3E81338F8E43400F9C3E894FF75
:1006CF00E99400400278FF8859D270206102C1EF8F
:1006DF00741FF4552F4BF52FC274E42B7002D27494
:1006EF0075294030740375290A306102E1032074C3
:1006FF000353DAFE752A20307403752A0AD0F0D01E
:10070F00E0D0D0C2D3D2AD43E61032790102073820
:10071F007903020738790A020738791E02073879F8
:10072F006402073879C80207387817E4D5E0FDD896
:10073F00FAD9F6227A147B7802075F7A107B8C0243
:10074F00075F7A0D7BB402075F7A0B7BC802075FE6
:10075F00AC257525017902B27DE4C294D5E0FDE5A3
:10076F00256002D295D5E0FDC295D5E0FDD294D596
:10077F00E0FDE525600A207D02D292307D02D296FF
:10078F00E570D5E0FD207D02C292307D02C29674E5
:10079F0096D5E0FDD9C1EAF8D5E0FDD8FBDBB1C2B3
:1007AF00948C2522C37C007D0075F00005F0EA33A0
:1007BF00FAEB33FB50F6EB13FBEA13FAC3E9FFE84E
:1007CF00FEE89AF8E99BF95004EFF9EEF8B3EC3331
:1007DF00FCED33FDD5F0DFEDF9ECF822E889F08A76
:1007EF0020D2D4F8A9F07B0030F70B7BFFF4240163
:1007FF00F8E9F43400F9E88520F0A4ADF0F8E985C4
:10080F0020F0A4AFF0FEED2EF974003FFA7C04C384
:10081F00EA13FAE913F9E813F8DCF48BF030F70A6E
:10082F00E8F42401F8E9F43400F9E889F0C2D4F8C7
:10083F00A9F0227882B604030208E4C3E55994199B
:10084F00401FE52D54067019E547703878057994E7
:10085F00E7146007780A1460027812C3E53B9840EA
:0E086F0020E547600985615F7564FF756501CE
:10087D00852224E4F53EF53FF540F541F542F54777
:10088D000208E47547017994E7147013E523F433F6
:10089D0033F913F8E9540104F9E854FE0208D8E7D6
:1008AD0014147014E523F4333333F913F8E95403B6
:1008BD0004F9E854FC0208E0E523F433333333F94B
:1008CD0013F8E954070404F9E854F8C39440F8E91F
:1008DD009400F9883E893F22E547603BC3E53B1311
:1008ED00F9E53A13F8C3E53E98F8E53F99F9500C50
:1008FD00C3E89480E994FF4016020920C3E8947F71
:10090D00E994005003020920787F790002092078CC
:10091D008079FF8843894422E5476058E5432540A7
:10092D00F8E5443541F9854420E4300701F43542BA
:10093D00FA30E709C3EA94F04015020962C3EA945C
:10094D000F500302096278FF79FF7A0F020962786E
:10095D000079007AF0C3E524955E5006E524600920
:10096D00217BE54420E70D217BE54430E7068840F7
:10097D0089418A4222E54770030209E678A1E6FA29
:10098D00C3E54333F8E54433F91207EBE930E70BE0
:10099D00C3E89480E994FF401321BDC3E8947FE937
:1009AD009400500221BD787F790021BD788079FFB8
:1009BD00E820E715C3E52398F84009C3E894014002
:1009CD00030209E478010209E4E8F424012523F87F
:1009DD0040030209E478FF884522E5477003020AC7
:1009ED004978A2E6FAA841A9421207EBE930E70CD3
:1009FD00C3E89401E994FF4016020A20C3E894FF6E
:100A0D00E994005003020A2078FF7900020A207849
:100A1D000179FFE920E715C3E54598F84009C3E8DA
:100A2D0094014003020A477800020A47E8F42401C2
:100A3D002545F84003020A4778FF88242278FFC233
:100A4D0064E52D5406702FD264C3E53B940A40092A
:100A5D00C3E52594405002C264E53B601974FF85DF
:100A6D003BF0848537F0A4F8C5F0600278FFC3E849
:100A7D0095615002A8618860227883E6F520120FF7
:100A8D00A875E89012071A75E890E5E820ECFBA828
:100A9D00BDA9BE121028756B55756C00C37400137B
:100AAD00FD745513FC74552CFC74003DFDECFAEDF2
:100ABD00FBC3E89AE99B4014E56B2455F56BE56C97
:100ACD003400F56CEA2CFAEB3DFB80E5AE6BAF6CB8
:100ADD00C3E56C13F9E56B13F8C3E913F9E813F8E3
:100AED00E56B28F569E56C39F56A7A03C3E913F905
:100AFD00E813F8DAF7AA201A7009756B00756C0007
:100B0D00020B201AEA6008EE28FEEF39FFDAF88EA4
:100B1D006B8F6C2275E890227883E6FFE5E820EC78
:100B2D00F7A8BDA9BE056DC3E56D94084052756D5E
:100B3D0000E9FA79A0E76044EA7007E56E601B02F0
:100B4D000B5BC3E8956E6010E56E5006600C1402E9
:100B5D000B670460F9020B67E56EF56EC394724086
:100B6D001B755EC0C394044013755E80C39404402E
:100B7D000B755E40C394044003755E0075BB09227E
:100B8D00EFC39401601BC3E894FFE994035012C3B3
:100B9D00E8956BE9956C5009E55E600C155E020BEE
:100BAD00B5E55EF46002055EA85EC3E524985002CB
:100BBD00A824C3E8955F400AA85FE55FF46003854C
:100BCD005F5E8825E56DB4070375BB10227432791D
:100BDD00A387F0A4C5F0A2F733F8C3E8955E4002F1
:100BED00A85E882288248825886122753A00753B85
:100BFD007F2275C820A8CCA9CD75C824C3E913F9E7
:100C0D00E813F8AA38AB3988388939C3E89AF8E976
:100C1D009B547FF9AA3AAB3BAC3AAD3B7E047F02C5
:100C2D00C3EB940440021E1FC3EB940840021E1F29
:100C3D00C3ED13FDEC13FCDEF7C3EA9CFAEB9DFB51
:100C4D00EF6009C3E913F9E813F8DFF7EA28FAEBC7
:100C5D0039FB8A3A8B3B400122753AFF753BFF22E7
:0D0C6D00306002816D854C50854D51D26084
:100C7A0043E680227892E6FFC3E535948240010F6D
:100C8A00C3E53594A040010FC3EF940640027F05E7
:100C9A007E021E3072010EC3E53B940350060E0E0F
:100CAA003072010EC3E53B940250060E0E307201FB
:100CBA000EA93BA83A7A04C3E913F9E813F8DAF75C
:100CCA00C3E89EF8E99400F94009C3E89402E9945C
:100CDA000050047802E4F9E9FBE8FAC3E913FDE8F5
:100CEA0013FC884C894DC3EF94036037EF20E00D65
:100CFA00E82CF8E93DF9ECFAEDFB020D1AE828F8C0
:100D0A00E939F9C3E89402F8E99400F97A02E4FBB4
:100D1A00C3EF9403400D8A4E8B4F884889498C4A09
:100D2A008D4B22884E894F8A488B498C4A8D4B229B
:100D3A00306002A13AD26043E680E52D5406602E67
:100D4A00A83AA93BE53494085006E820E002A94DE8
:100D5A00C3E833F8E933F9759100C3E498F594E4EC
:100D6A0099F595759104D26053917F43E68022D21A
:100D7A0065753D00752000020D8CD265753D0075C4
:100D8A002040E52D54066002C265D2AF206005E519
:100D9A003D60012278017A02C3E53B94054002785E
:100DAA0002C3E53B940A40027803C3E53B940F4033
:100DBA00027A03306904781E7A01206007E53D60F3
:100DCA0003D2AF22D2AF0000C2AFC3E53BFB940F00
:100DDA0040027B0FEB043073012320620123F930B8
:100DEA0069027982E58D13E58B13C39940CC053DE1
:100DFA00EAFBE59B5440B52004DBF7C132206502CB
:100E0A00A18CC265759100AE3AAF3BC3EE33FEEFDB
:100E1A0033FFC3E49EF594E49FF595759104D2607F
:100E2A0053917F43E680A18C306502A18CD88BD286
:100E3A00AF2230690B0534206016753400020E5A51
:100E4A0020600D20650A206B07158115810216F7AF
:100E5A0022A84EA94FC3E833F8E933F97591005334
:100E6A00917FC3E498F594E499F5957591048548C2
:100E7A0050854951D26043E68022780030640530BB
:100E8A0065027801E53575F007A4F9E5F028F5F073
:100E9A00E9A2F013A2F113A2F213F535C394785024
:100EAA0003753578C3E53595364008D266C292C2D5
:100EBA0096C295306002C1BD854A50854B51D260B9
:100ECA0043E68022C2AFC293C297C29430720B909B
:100EDA00021F7406D5E0FD020EE4207D02D2933093
:100EEA007D02D297759F80753C02021023C2AF2003
:100EFA007D02C296307D02C2923072179001FCC206
:100F0A0094207D02C297307D02C2937406D5E0FD1B
:100F1A00020F2090015F306206E5256002D295201B
:100F2A007D03759F89307D03759F81753C0302108F
:100F3A0023C2AFC293C297C29430720B9001D97484
:100F4A0006D5E0FD020F51207D02D297307D02D2F4
:100F5A0093207D03759F81307D03759F89753C04BD
:100F6A00021023C2AFC2953072179001B6207D02DB
:100F7A00C293307D02C297C2947406D5E0FD020F77
:100F8A008E90014D30620EE525600A207D02D292D4
:100F9A00307D02D296759F80753C05021023C2AF40
:100FAA00C293C297C29430720B90018B7406D5E03B
:100FBA00FD020FBED294207D03759F89307D037593
:100FCA009F81753C06021023C2AF207D02C2923077
:100FDA007D02C29630721F90024A207D02C293306F
:100FEA007D02C297207D02C297307D02C2937406A9
:100FFA00D5E0FD02100390017130620EE525600A0A
:10100A00207D02D296307D02D292207D03759F8187
:10101A00307D03759F89753C01C266D2AF2290016B
:10102A004BC292C296C295C293C297C294C262221E
:10103A00788076070876070876010876040876FF2E
:10104A000876FF087609087602087601087601789C
:10105A008C76000876000876B40876FF0876FF08D2
:0F106A0076FF0876030876FF0876010876FF0800
:1010790076030876FA0876780876C808760408763A
:10108900FF08760108760008767D08760A0876005A
:10109900227887E6FFC272BF0302D2727888C27DC6
:1010A900E630E102D27DC27E7889E630E102D27E65
:1010B900C3EF94026008758E01D2730210CC758E4D
:1010C90000C273227880E6149000809378A1F678A4
:1010D90081E6149000809378A2F61128227886E69A
:1010E9001490008D9378A3F6112822789FE6F87062
:1010F9000108C3E8941140027811E82828F566250B
:1011090066256628F56725662828F56822789CE60D
:101119007536FF75370CB402067536A075370AB4F3
:10112900030675368275370522227896E6FA78978E
:10113900E6FB307F047A007BFFC3EB9AFCC3948201
:1011490050027C82756F00056FEC856FF0A4C3E5D2
:10115900F0948040F222D27F31331207297A007B42
:10116900007C1012071FE5592AFA74003BFBDCF3D7
:101179007C04C3EB13FBEA13FADCF7FEC27F3133BD
:1011890022E5EF20E6037520000520903FFFE520CA
:10119900146006901FFF1460009304600375EF123A
:1011A900C2D353D9BF7581C043FF8012071A75EFA7
:1011B9000243B203E5B3240420E702F5B31128750D
:1011C90080FF75A40075F1F075D4DF75900275A5DF
:1011D900FC75F2FD75D50275A61075A0FF75F3F1C2
:1011E90075E241113A12177A78988670C2AF1207E0
:1011F9003312075812075812072E12072E12072EFC
:1012090012072E12075812075812072E12072E120C
:101219000729120729120758120729120729120745
:101229005812075812072E12072E12072E12072ED0
:1012390012075812075812072E12072E12072E12DC
:10124900072E12075112075112072E12072E1207E5
:101259002E12072E12074312074312072E12072ECA
:1012690012072912072912075112072912072912F1
:10127900075812075812072E12072E12072E1207A7
:101289002E12072E12072E12072E12072E12185D84
:1012990012073312073312072EC2AFE4F8F6D8FD4E
:1012A90078C879C8308504D9FBD8F7113A12177A6A
:1012B900119A11CD11E611F4311631323133789882
:1012C9008670112875B68075A900757700758850E4
:1012D90075891275C82475910475D84075A8227549
:1012E900B80275E690759B80759D0075D10E75BC29
:1012F900C075BB0975BA1175E88012071AD2AF1209
:101309000A8643DA01C2D8C271120733753001D295
:10131900617B037A0CE55870067A0CDB0241A21254
:10132900072920700241A2C270E559C3940240E323
:10133900E52F541F855B5AF55BB55AD7DAD7C261D9
:1013490053DACF207E0343DA20307E0343DA10C21A
:10135900D8C271C27575280012072E307409C3E509
:1013690028940A4002D27512071F78023074027855
:1013790000C3E5599840F0C2AF120743120729127A
:10138900074312072912074A12072912074AD2AF3F
:1013990012073375460012071F788CE6C394015073
:1013A90003021473E530C3940150030214732074CB
:1013B90035C3E55994FF5003021473C2AF1207589D
:1013C900D2AF12072EC3E559940150EFC2AF1207ED
:1013D90043120724120743D2AF12072EC3E55994CB
:1013E900FF40E90218E27F05D27F313312072EC28E
:1013F900AFC27F3133AE59C3E559947FD2AF407440
:1014090012071AC2AF120758D2AFDFDC315FC3EE41
:1014190094057897F612073312177A1218657F0A1E
:10142900D27F313312072EC2AFC27F3133AE59C3D7
:10143900E559947FD2AF50E612071AC2AF1207439B
:10144900120724120743D2AFDFD6315FEE240578A5
:1014590096F612073312177A12189412072E31339F
:0F146900C3E55994FF40F40218E2C3E5599546D4
:10147800400385594612072E78017988E7B403029C
:101488007805C3E559984002619FC2AF1207581208
:10149800072912075812072912075112072912079C
:1014A80051D2AF120733753000E4F531F53205310A
:1014B800E531F470390532789AE6781914601278B3
:1014C8003214600D787D14600878FA146003753260
:1014D80000C3E53298401715327531B47899867093
:1014E800C2AF120758D2AF7898867012072E12072B
:1014F80024E529700530740241A27801207402782D
:1015080006C3E5599840A712072EE529700241A2A3
:10151800C2AF1128E4F522F523F524F525D2AF78DA
:10152800858662F53EF53FF540F541F542F56DF5E6
:1015380047F52CF52DF535120BF8756D0875BB10B0
:1015480012071A120B21E5E820ECFBA8BDA9BEE999
:101558007001F8886E120B25756D0875BB107887B9
:10156800E6FE7602119A7887EEF6C2AF755EFF1234
:101578000BDA85225E85225F852260D2AF75220153
:10158800752401752501855D6475650175B69075CD
:10159800A903757701D268D269753400120FA812B1
:1015A8000FD2120BF8120BFF120C7E0215C0112875
:1015B800119A756D0075BB09120D84120E3C120E3E
:1015C8005B120842120E84120ECE120BFF120C6D23
:1015D800120C7E120D3A120D79120E3C120E5B128D
:1015E80008E5120A4A120E84120EF7120BFF120CAB
:1015F8006D120C7E120D3A120D84120E3C120E5B07
:10160800120925120E84120F3B120BFF120C6D12D9
:101618000C7E120D3A120D79120E3C120E5B120955
:1016280082120E84120F6D120BFF120C6D120C7EBB
:10163800120D3A120D84120E3C120E5B1209E712BB
:101648000E84120FA8120BFF120C6D120C7E120DD5
:101658003A120D79120B21120E3C120E5B120B2559
:10166800120E84120FD2120BFF120C6D120C7E1286
:101678000D3A30692F206B2C85615E85615F855D31
:101688006475650179327A0AC3E534994009C269FB
:10169800D26A8A330216ACC3E55994014003021595
:1016A800C00216F7306A1B206B18E533147004C2A9
:1016B8006AA1B6F533C3E559940140030215C00287
:1016C80016F7C3E55C9401400985615F855D647523
:1016D8006501C3E55C94FA5016307404E529600F7F
:1016E800C3E53B78F0306B027860985002A1C0C225
:1016F800AF11287887E6FE7602119A7887EEF6E42D
:10170800F522F523F524F525F562C26875B68075CE
:10171800A900757700D2AF12071A1128307406E5B0
:1017280029700241A2788DE6C3940140026170815C
:10173800B1901A0D78201217BCE520B4A50CA3129D
:1017480017BCE520B45A0302175A113A12177A0245
:101758001779901A0378807B0A1217BCA308DBF963
:10176800901A0F788C7B151217BCA308DBF9901A16
:101778002422C2AF1217FB1217D5901A00740D124B
:1017880017C1A374021217C1A374131217C1901AB8
:101798000378807B0A1217C0A308DBF9901A0F7828
:1017A8008C7B151217C0A308DBF912180F1217EC5F
:1017B800901A2422E493F622E6438F01538FFD7595
:1017C800EF0275B7A575B7F1F0538FFE22438F026C
:1017D800438F0175EF0275B7A575B7F1901A0DF033
:1017E800538FFC22901A0D74A5F1C1901A0E745AE9
:1017F800F1C1227A3079D07820901A401217BCE5CE
:1018080020F709A3DAF6227A3079D0901A40E71245
:1018180017C109A3DAF822AB71A872BB010279805B
:10182800BB02027981BB03027982BB04027994BBB3
:1018380005027983BB06027986BB07027992BB0849
:10184800027987BB0902799CBB0A027988BB0B0223
:101858007989E8F7227C05120733DCFB22C2AF1234
:0E186800074312074A120751120758120724AD
:1018760012074312074A1207511207581207241279
:10188600074312074A120751120758D2AF22C2AFB6
:1018960012075812075112074A1207431207241259
:1018A600075812075112074A120743120724120754
:1018B6005812075112074A120743D2AF22AE71AF30
:1018C60072C2AF120743120743120743120724DE00
:1018D600F2120758120724DFF8D2AF221165115D04
:1018E600115D75710175720175730011C37C05ADCB
:1018F60059120733C3ED955970F5C3E55994014064
:101906000AC3E55994FF403302191F111F12177AB3
:101916001165C2AF75EF12115DDCD40573C3E573B3
:101926009403500280C5115D0572E5711490009A0A
:1019360093F808C3E57298500280AD115D115D05FC
:1019460071C3E571940C5002809B12103A12177AFB
:07195600C2AF75EF12115D35
:101A00000D021307070104FFFF09020101A55A0097
:101A100000B4FFFFFF03FF01FF03FA78C804FF01D2
:051A200000FF0A00FFB9
:101A400023506C6174696E756D50726F3330412331
:101A500023424C48454C492346333930232020202B
:101A60002020202020202020202020202020202076
:00000001FF
