:030000000210509B
:03000B000200A24E
:03002B000202CE00
:03005B0002041884
:030073000203F293
:1000800002030406080C10182030406080040608A3
:100090000C10182030406080A0C005050D0503033A
:1000A0000302C2AFC0D0C0E020622C20680241BA77
:1000B000306602417A302F02E4730563C3740595FC
:1000C0002540F5956340F12069EE758A78E5257045
:1000D00003758A000202C785258AC262E525F4708D
:1000E000022141206802212E207210758B00D0E081
:1000F000D0D0C293C295C297D2AF32C293C295C23A
:10010000977406D5E0FDE53C1420E21520E10D20B2
:100110007D02D296307D02D29202013ED29402013B
:100120003E207D02D292307D02D29602013E758B36
:1001300000D0E0D0D0C293C295C297D2AF32758BB7
:1001400000D0E0D0D0D2AF3241BAE525600A207DA0
:1001500002D293307D02D297C29541BAE525600262
:10016000D295207D02C297307D02C29341BAE52527
:10017000600A207D02D297307D02D293207D02C298
:1001800093307D02C29741BA207D02C292307D0237
:10019000C296207D02C296307D02C2927406D5E0DE
:1001A000FDE525600A207D02D293307D02D297C200
:1001B0009541BA207D02C292307D02C296C29474EB
:1001C00006D5E0FDE525600A207D02D293307D0250
:1001D000D297C29541BAC294207D02C292307D026C
:1001E000C2967406D5E0FDE5256002D295207D0219
:1001F000C297307D02C29341BAC294207D02C2965A
:10020000307D02C2927406D5E0FDE5256002D295EC
:10021000207D02C297307D02C29341BA207D02C286
:1002200096307D02C292C2947406D5E0FDE5256049
:100230000A207D02D297307D02D293207D02C293A4
:10024000307D02C29741BA207D02C296307D02C243
:1002500092207D02C292307D02C2967406D5E0FDE6
:10026000E525600A207D02D297307D02D293207D61
:1002700002C293307D02C29741BA30723DE53C2004
:10028000E21A20E129207D02C292307D02C296202E
:100290007D02C296307D02C2920202BA20E1E620BF
:1002A0007D02C292307D02C296C2940202BAC2940A
:1002B000207D02C296307D02C292E525F4F58A7552
:1002C0008B00756300D262D0E0D0D0D2AF32C2AF23
:1002D000C2AD53E6EFC0D0C0E0D2D3D2AFC2CEE5BC
:1002E0002960072074461529612C78007900E58083
:1002F000307E01F430E30278FF53DACF207E0343EF
:10030000DA20307E0343DA10C2D8C271E580307E35
:1003100001F430E30279FFC3E89970CE30610375D0
:1003200029182074037529188859D270E52A6004A9
:10033000152A613C20740543DA01C2D8207002619D
:1003400097A859206102C270207431C3E894F0402C
:100350000374F0F8E8C4540F28F87984B7030261F5
:100360007CC313C3138721200802C313200A06C3CA
:10037000C898F8617C28F8500374FFF8C3E89562C8
:100380005003E562F8882230690AC3E522955E4091
:1003900003855E22852224A824C3E524955E4002BD
:1003A000A85E8825C3E52594404002D26420CF0C86
:1003B000D0E0D0D0C2D343E610D2AD32C2CF780164
:1003C000E52960053074021529C3E55994014005FB
:1003D000755C0061E6755D00756400E55C2401F5FF
:1003E0005C5003755CFFD0E0D0D0C2D343E610D29E
:1003F000AD32C0D0C0E0C2AF53917F53E67FC26040
:10040000759100C3E49550F594E49551F595759177
:1004100004D0E0D0D0D2AF32C2AF53E6EFC2ADC00D
:10042000D0C0E0C0F0D2D3D2AFA8FBA9FCC2D83074
:100430007102817F53DACF207E0343DA10307E03CE
:1004400043DA20D271E580307E01F420E302815648
:1004500088268927C1BB53DACF207E0343DA2030B8
:100460007E0343DA10C2D8C271307402C1A778008B
:0F047000E580307E01F430E302C1A78859C18EC8
:10047F0053DACF207E0343DA20307E0343DA10C2F3
:10048F0071206102A14F53DACF207E0343DA10307F
:10049F007E0343DA20C2D8D27188548955C3E895B8
:1004AF0052F8E99553F9E4FB7E027A00C3E8948C85
:1004BF00E994005005755800A13FC3E894C8E9942A
:1004CF00005008E4D2E4FB7A0AA11CC3E89468E95F
:1004DF0094015008E4D2E3FB7A0FA11CC3E894D037
:1004EF00E994025008E4D2E2FB7A1EA11CC3E894FF
:1004FF00A0E994055008E4D2E1FB7A3CA11CC3E8C3
:10050F009498E994085008E4D2E0FB7A787E00C30F
:10051F00E89556FCE99557FD30E708ECF42401FC0B
:10052F00EDF4FD755800C3EC9AED9E50037558011C
:10053F0088568957A854A955885289537802C18E75
:10054F00C3E89526F8E99527F9307C02C172307B14
:10055F0002C172307A02C16B207502A172E9FDE807
:10056F00FCA191E9C313F9E813F8307902C16BE9E3
:10057F00C313F9E813F8307802C16BE9C313FDE830
:10058F0013FC206126C3EC941CED94024002A1A839
:10059F00ED7018C3EC94C850120528C3E528940ACF
:1005AF005002C1A7755900D270C1A7E52860021586
:1005BF00287400207F0B7888E67896B40302789E23
:1005CF00E624FAFEE43400FFC3EC9EFCED9FFD929F
:1005DF00087888E6B40327A2085009207D20C2AF0F
:1005EF00D27DA1FA307D17C2AFC27DC293C295C230
:1005FF0097C292C294C296206902D26BD2AFA20860
:10060F005017E6B4030DECF42401FCEDF43400FDB7
:10061F0002062878007900C1727888E6B40315ECD9
:10062F0033FCED33FDC3EC940AFCED9400FD500454
:10063F007C007D00C3EC94FFED9400400678FF79B9
:10064F0000C172EC856FF0A4C5F0A2F733F8790002
:10065F00400302068E78FF790002068EE9C313F974
:10066F00E813F8307C0EE9600278FFC3E81338F81E
:10067F00E43400F9C3E894FFE99400400278FF885E
:10068F0059D270206102C1A7741FF4552F4BF52F5B
:10069F00C274E42B7002D274752918307403752953
:1006AF000A306102C1BB20740353DAFE752A06308B
:1006BF007403752A0AD0F0D0E0D0D0C2D3D2AD43A4
:1006CF00E6103279010206F079030206F0790A0288
:1006DF0006F0791E0206F079640206F079C8020668
:1006EF00F07817E4D5E0FDD8FAD9F6227A147B78A2
:1006FF000207177A107B8C0207177A0D7BB402075B
:10070F00177A0B7BC8020717AC257525017902B242
:10071F007DE4C294D5E0FDE5256002D295D5E0FDDC
:10072F00C295D5E0FDD294D5E0FDE525600A207D88
:10073F0002D293307D02D297E570D5E0FD207D0285
:10074F00C293307D02C2977496D5E0FDD9C1EAF805
:10075F00D5E0FDD8FBDBB1C2948C2522C37C007D94
:10076F000075F00005F0EA33FAEB33FB50F6EB13AC
:10077F00FBEA13FAC3E9FFE8FEE89AF8E99BF950A0
:10078F0004EFF9EEF8B3EC33FCED33FDD5F0DFED0C
:10079F00F9ECF822E889F08A20D2D4F8A9F07B008E
:1007AF0030F70B7BFFF42401F8E9F43400F9E88506
:1007BF0020F0A4ADF0F8E98520F0A4AFF0FEED2E07
:1007CF00F974003FFA7C04C3EA13FAE913F9E8134A
:1007DF00F8DCF48BF030F70AE8F42401F8E9F4348C
:1007EF0000F9E889F0C2D4F8A9F02222E547603B6E
:1007FF00C3E53B13F9E53A13F8C3E53E98F8E53F37
:10080F0099F9500CC3E89480E994FF40160208361A
:10081F00C3E8947FE994005003020836787F79008B
:10082F00020836788079FF8843894422E54760586B
:10083F00E5432540F8E5443541F9854420E4300788
:10084F0001F43542FA30E709C3EA94F04015020883
:10085F0078C3EA940F500302087878FF79FF7A0F74
:0E086F00020878780079007AF0C3E524955EDF
:10087D005006E52460090191E54420E70D0191E55D
:10088D004430E706884089418A4222E547700302D9
:10089D0008FC78A1E6FAC3E54333F8E54433F912D1
:1008AD0007A3E930E70BC3E89480E994FF401301F7
:1008BD00D3C3E8947FE99400500201D3787F790087
:1008CD0001D3788079FFE820E715C3E52398F84038
:1008DD0009C3E8940140030208FA78010208FAE816
:1008ED00F424012523F840030208FA78FF884522F5
:1008FD00E547700302095F78A2E6FAA841A9421202
:10090D0007A3E930E70CC3E89401E994FF40160210
:10091D000936C3E894FFE99400500302093678FFC5
:10092D007900020936780179FFE920E715C3E5451D
:10093D0098F84009C3E89401400302095D7800026C
:10094D00095DE8F424012545F8400302095D78FFAF
:10095D0088242278FFC264E52D5406702FD264C31B
:10096D00E53B940A4009C3E52594405002C264E575
:10097D003B601974FF853BF0848537F0A4F8C5F012
:10098D00600278FFC3E895615002A8618860220279
:10099D000A397883E6F520120E7175E8901206D2A9
:1009AD0075E890E5E820ECFBA8BDA9BE120F077510
:1009BD006B55756C00C3740013FD745513FC7455A1
:1009CD002CFC74003DFDECFAEDFBC3E89AE99B406D
:1009DD0014E56B2455F56BE56C3400F56CEA2CFAD7
:1009ED00EB3DFB80E5AE6BAF6CC3E56C13F9E56BCE
:1009FD0013F8C3E913F9E813F8E56B28F569E56C0D
:100A0D0039F56A7A03C3E913F9E813F8DAF7AA207E
:100A1D001A7009756B00756C00020A391AEA6008C4
:100A2D00EE28FEEF39FFDAF88E6B8F6C2275E890A9
:100A3D00227883E6FFE5E820ECF7A8BDA9BE056D99
:100A4D00C3E56D94084052756D00E9FA79A0E76031
:100A5D0044EA7007E56E601B020A74C3E8956E6088
:100A6D0010E56E5006600C14020A800460F9020A4B
:100A7D0080E56EF56EC394A8401B755EC0C39405EA
:100A8D004013755E80C39405400B755E40C394059D
:100A9D004003755E0075BB0122E55EF46002055EE4
:100AAD00E56DB4070375BB1E22743279A387F0A4DC
:100ABD00C5F0A2F733F8C3E8955E4002A85E882220
:100ACD0088248825886122753A00753B7F2275C878
:100ADD0020A8CCA9CD75C824AA38AB398838893956
:100AED00C3E89AF8E99BF9AA3AAB3BAC3AAD3B7E29
:100AFD00047F02C3EB940440021E1FC3EB94084015
:100B0D00021E1FC3ED13FDEC13FCDEF7C3EA9CFAC6
:100B1D00EB9DFBEF6009C3E913F9E813F8DFF7EA82
:100B2D0028FAEB39FB8A3A8B3B400122753AFF7567
:100B3D003BFF223060026140854C50854D51D260A3
:100B4D0043E680227892E6FFC3E535948240010F9B
:100B5D00C3E53594A040010FC3EF940640027F0515
:100B6D007E021E3072010EC3E53B940350060E0E3D
:100B7D003072010EC3E53B940250060E0E30720129
:100B8D000EA93BA83A7A04C3E913F9E813F8DAF78A
:100B9D00C3E89EF8E99400F94009C3E89402E9948A
:100BAD000050047802E4F9E9FBE8FAC3E913FDE823
:100BBD0013FC884C894DC3EF94036037EF20E00D93
:100BCD00E82CF8E93DF9ECFAEDFB020BEDE828F81D
:100BDD00E939F9C3E89402F8E99400F97A02E4FBE3
:100BED00C3EF9403400D8A4E8B4F884889498C4A38
:100BFD008D4B22884E894F8A488B498C4A8D4B22CA
:100C0D00306002810DD26043E680E52D54066027E9
:100C1D00A83AA93BE53494085006E820E002A94D16
:100C2D00759100C3E498F594E499F595759104D206
:100C3D006053917F43E68022D265753D007520009B
:100C4D00020C58D265753D00752040E52D540660A7
:100C5D0002C265D2AF206005E53D60012278017AC0
:0F0C6D0002C3E53B940540027802C3E53B940ABD
:100C7C0040027803C3E53B940F40027A03306904C9
:100C8C00781E7A01206007E53D6003D2AF22D2AF17
:100C9C000000C2AFC3E53BFB940F40027B0FEB049B
:100CAC003073012320620123F93069027982E58BCC
:100CBC00C39940D0053DEAFBE59E7005E59B020C0F
:100CCC00CFE59A5440B52004DBEE81FC206502810F
:100CDC0058C265759100AE3AAF3BC3E49EF594E4FF
:100CEC009FF595759104D26053917F43E6808158AE
:100CFC003065028158D88DD2AF2230690B05342073
:100D0C006016753400020D2420600D20650A206BDE
:100D1C0007158115810215D722A84EA94F75910090
:100D2C0053917FC3E498F594E499F59575910485F6
:100D3C004850854951D26043E680227800306405E2
:100D4C003065027801E53575F007A4F9E5F028F572
:100D5C00F0E9A2F013A2F113A2F213F535C39478C3
:100D6C005003753578C3E53595364008D266C29385
:100D7C00C295C297306002A180854A50854B51D2F2
:100D8C006043E68022C2AFC292C294C29630720B0C
:100D9C0090021C7406D5E0FD020DA7207D02D292B4
:100DAC00307D02D296759F33759E00753C02020E03
:100DBC00ECC2AF207D02C297307D02C29330721715
:100DCC009001F9C294207D02C296307D02C29274C9
:100DDC0006D5E0FD020DE690015C306206E525606B
:100DEC0002D295207D03759E23307D03759E22755E
:100DFC003C03020EECC2AFC292C294C29630720B8C
:100E0C009001D67406D5E0FD020E17207D02D29615
:100E1C00307D02D292207D03759E22307D03759E1B
:100E2C0023753C04020EECC2AFC2953072179001D0
:100E3C00B3207D02C292307D02C296C2947406D554
:100E4C00E0FD020E5490014A30620EE525600A2046
:100E5C007D02D293307D02D297759F33759E0075BB
:100E6C003C05020EECC2AFC292C294C29630720B19
:100E7C009001887406D5E0FD020E87D294207D0384
:100E8C00759E23307D03759E22753C06020EECC2C6
:100E9C00AF207D02C293307D02C29730721F900248
:100EAC0047207D02C292307D02C296207D02C296FE
:100EBC00307D02C2927406D5E0FD020ECC90016E1C
:100ECC0030620EE525600A207D02D297307D02D279
:100EDC0093207D03759E22307D03759E23753C0106
:100EEC00306B13120F077406D5E0FD7406D5E0FDC8
:100EFC00D292D294D296C266D2AF22900148C293BB
:100F0C00C295C297C292C294C296C262227880766F
:100F1C00FF0876FF0876FF0876FF0876030876044C
:100F2C00087607087603087601087601788C760037
:100F3C000876FF0876FF0876FF0876FF0876FF082C
:100F4C0076030876FF0876FF0876FF0876030876A6
:100F5C00FA0876FA0876FA0876040876FF0876011D
:100F6C0008760008767D0876FF087600227887E6FA
:100F7C00FFC272BF0302D2727888E6C39403600882
:100F8C00C27DE630E102D27DC27E7889E630E10294
:100F9C00D27EC3EF94026008758E01D273020FB13A
:100FAC00758E00C273227880E6149000809378A12D
:100FBC00F67881E6149000809378A2F6F1072278F7
:100FCC0086E61490008D9378A3F6F1072222789C84
:100FDC00E67536FF75370CB402067536A075370A00
:100FEC00B4030675368275370522227896E6FA78B0
:100FFC0097E6FB307F047A007BFFC3EB9AFCC3942B
:10100C008250027C82756F00056FEC856FF0A4C373
:10101C00E5F0948040F222D27F120FF71206E17AAB
:10102C00007B007C101206D7E5592AFA74003BFBB2
:10103C00DCF37C04C3EB13FBEA13FADCF7FEC27F90
:10104C00120FF722E5EF20E6037520000520903DF6
:10105C00FFE520146006901FFF14600093046003EA
:0E106C0075EF12C2D353D9BF7581C043FF8008
:10107A001206D275EF0243B203E5B3240420E70255
:10108A00F5B3120F0775800875A40075F1FF75D4C2
:10109A00F775900275A5FC75F2FC75D50075A0FD73
:1010AA0075A60275F30275D60075B0FF75A70175AE
:1010BA00F4FF75E241120F1912164B78988670C226
:1010CA00AF1206EB1207101207101206E61206E616
:1010DA001206E61206E61207101207101206E612A8
:1010EA0006E61206E11206E11207101206E11206DE
:1010FA00E11207101207101206E61206E61206E6B9
:10110A001206E61207101207101206E61206E61277
:10111A0006E61206E61207091207091206E6120681
:10112A00E61206E61206E61206FB1206FB1206E6AF
:10113A001206E61206E11206E11207091206E11288
:10114A0006E11207101207101206E61206E6120648
:10115A00E61206E61206E61206E61206E61206E6A9
:10116A0012171D1206EB1206EB1206E6C2AFE4F8DE
:10117A00F6D8FD78C879C8308304D9FBD8F7120F9E
:10118A001912164B120F79120FB2120FCB120FD976
:10119A00120FDA120FF6120FF778988670120F07ED
:1011AA0075885075891275C82475910475D840756B
:1011BA00A82275B80275E690759B80759D00759A90
:1011CA0080759C0075D10E75BC5875BB0175BA1F28
:1011DA0075E8801206D2D2AF12099C43DA01C2D84E
:1011EA00C2711206EB753001D2617B037A0CE558A5
:1011FA0070067A0CDB0221761206E1207002217653
:10120A00C270E559C3940240E3E52F541F855B5A27
:10121A00F55BB55AD7DAD7C26153DACF207E0343DA
:10122A00DA20307E0343DA10C2D8C271C27575283B
:10123A00001206E6307409C3E528940A4002D27502
:10124A001206D778023074027800C3E5599840F044
:10125A00C2AF1206FB1206E11206FB1206E11207E2
:10126A00021206E1120702D2AF1206EB75460078A7
:10127A0088E6B40302615A1206D7788CE6C3940151
:10128A00500302135AE530C39401500302135A2043
:10129A007435C3E55994FF500302135AC2AF1207BB
:1012AA0010D2AF1206E6C3E559940150EFC2AF124D
:1012BA0006FB1206DC1206FBD2AF1206E6C3E5599C
:1012CA0094FF40E90217A27F05D27F120FF7120698
:1012DA00E6C2AFC27F120FF7AE59C3E559947FD267
:1012EA00AF40771206D2C2AF120710D2AFDFDA11BF
:1012FA0023C3EE94057897F61206EB12164B1217D3
:10130A00257F0AD27F120FF71206E6C2AFC27F12FA
:10131A000FF7AE59C3E559947FD2AF50E41206D203
:10132A00C2AF1206FB1206DC1206FBD2AFDFD411E3
:10133A0023EE24057896F61206EB12164B12175472
:10134A001206E6120FF7C3E55994FF40F30217A2FB
:10135A00C3E559954640038559461206E678017950
:10136A0088E7B403027805C3E5599840024179C277
:10137A00AF1207101206E11207101206E11207094E
:10138A001206E1120709D2AF1206EB753000E4F536
:10139A0031F5320531E531F470390532789AE6785B
:1013AA0019146012783214600D787D14600878FA86
:1013BA00146003753200C3E532984017153275314F
:1013CA00B478998670C2AF120710D2AF7898867037
:1013DA001206E61206DCE5297005307402217678D9
:1013EA00012074027806C3E5599840A77888E6C3B5
:1013FA00940360031206E6E52970022176C2AF1251
:10140A000F07E4F522F523F524F525D2AF78858672
:10141A0062F53EF53FF540F541F542F56DF547F5C4
:10142A002CF52DF535120AD4756D0875BB1E1206FA
:10143A00D2120A3AE5E820ECFBA8BDA9BEE9700180
:10144A00F8886E120A3E756D0875BB1E7887E6FE2F
:10145A007602120F797887EEF6C2AF755EFF120A2E
:0F146A00B685225E85225F852260D2AF75220192
:10147900752401752501855D64756501D268D26998
:10148900753400120E71120E9B120AD4120ADB1265
:101499000B510214AA120F07120F79756D0075BB53
:1014A90001120C50120D06120D251207FA120D47E2
:1014B900120D91120ADB120B40120B51120C0D1274
:1014C9000C45120D06120D251207FB120960120DAB
:1014D90047120DBD120ADB120B40120B51120C0DF3
:1014E900120C50120D06120D2512083B120D47124F
:1014F9000E01120ADB120B40120B51120C0D120CC9
:1015090045120D06120D25120898120D47120E33B9
:10151900120ADB120B40120B51120C0D120C501255
:101529000D06120D251208FD120D47120E71120A31
:10153900DB120B40120B51120C0D120C45120A3A18
:10154900120D06120D25120A3E120D47120E9B129C
:101559000ADB120B40120B51120C0D306935206B4E
:101569003285615E85615F855D6475650179327A71
:101579000AC3E53499400FC269D26A8A33755EFF9E
:10158900755FFF02159CC3E559940140030214AA33
:101599000215D7306A1B206B18E533147004C26A30
:1015A900819EF533C3E559940140030214AA02153B
:1015B900D7C3E55C94825016307404E529600FC3E3
:1015C900E53B78F0306B02786098500281AAC2AF8F
:1015D900120F077887E6FE7602120F797887EEF602
:1015E900E4F522F523F524F525F562C268D2AF1298
:1015F90006D2120F07307406E52970022176619828
:10160900901A0D782012168DE520B45A0CA31216E3
:101619008DE520B4A50302162B120F1912164B02E1
:10162900164A901A0378807B0A12168DA308DBF9F3
:10163900901A0F788C7B1512168DA308DBF9901A76
:101649002422C2AF1216CC1216A6901A00740D12DB
:101659001692A37402121692A37413121692901A78
:101669000378807B0A121691A308DBF9901A0F7888
:101679008C7B15121691A308DBF91216DF1216BD21
:10168900901A2422E493F622E6438F01538FFD75C5
:10169900EF0275B7A575B7F1F0538FFE22438F029C
:1016A900438F0175EF0275B7A575B7F1901A0DF063
:1016B900538FFC22901A0D745AD192901A0E74A568
:1016C900D192227A3079D07820901A40D18DE520B4
:1016D900F709A3DAF7227A3079D0901A40E7D19244
:1016E90009A3DAF922AB71A872BB01027984BB02A2
:1016F900027985BB03027986BB04027992BB050294
:101709007987BB0602799CBB07027988BB080279F5
:1017190089E8F7227C051206EBDCFB22C2AF120630
:10172900FB1207021207091207101206DC1206FB48
:101739001207021207091207101206DC1206FB1221
:101749000702120709120710D2AF22C2AF120710FF
:101759001207091207021206FB1206DC1207101201
:1017690007091207021206FB1206DC1207101207FC
:10177900091207021206FBD2AF22AE71AF72C2AFD5
:101789001206FB1206FB1206FB1206DCDEF212073A
:10179900101206DCDFF8D2AF22F125F11DF11D751B
:1017A9007101757201757300F1837C05AD591206DB
:1017B900EBC3ED955970F5C3E5599401400AC3E5AA
:1017C9005994FF40320217DED1EED14BF125C2AF59
:1017D90075EF12F11DDCD50573C3E573940350024F
:1017E90080C6F11D0572E5711490009A93F808C33B
:1017F900E57298500280AE12171D12171D0571C3AC
:10180900E57194095002809A120F1912164BC2AF52
:0618190075EF1212171D0D
:101A00000D0213FFFFFFFF0304070301015AA500A6
:101A1000FFFFFFFFFF03FFFFFF03FAFAFA04FF01D6
:051A2000007DFF00FF46
:101A400023506C6174696E756D31353041232020EF
:101A500023424C48454C4923463331302320202033
:101A60002020202020202020202020202020202076
:00000001FF
