:03000000021142A8
:03000B000200A54B
:03002B000202AB23
:03005B0002040993
:030073000203E3A2
:1000800002030406080C10182030406080040608A3
:100090000C10182030406080A0C00D0D0405060D26
:1000A0000502030302C2AFC0D0C0E020620C20688A
:1000B00002419A306602415AE47385258AC262E59C
:1000C00025F470022121206802210E758B00D0E0FA
:1000D000D0D0D297D295D293D2AF32D297D295D2F6
:1000E000937406D5E0FDE53C1420E21520E10D20D7
:1000F0007D02D292307D02D29602011ED29402017C
:100100001E207D02D296307D02D29202011E758B96
:1001100000D0E0D0D0D297D295D293D2AF32758BA7
:1001200000D0E0D0D0D2AF32419AE525600A207DE0
:1001300002C297307D02C293D295419AE5256002B2
:10014000C295207D02D293307D02D297419AE52557
:10015000600A207D02C293307D02C297207D02D2C8
:1001600097307D02D293419A207D02C296307D0263
:10017000C292207D02C292307D02C2967406D5E002
:10018000FDE525600A207D02C297307D02C293D230
:1001900095419A207D02C296307D02C292C294742B
:1001A00006D5E0FDE525600A207D02C297307D027C
:1001B000C293D295419AC294207D02C296307D02AC
:1001C000C2927406D5E0FDE5256002C295207D024D
:1001D000D293307D02D297419AC294207D02C2927E
:1001E000307D02C2967406D5E0FDE5256002C29519
:1001F000207D02D293307D02D297419A207D02C2A7
:1002000092307D02C296C2947406D5E0FDE5256069
:100210000A207D02C293307D02C297207D02D297D0
:10022000307D02D293419A207D02C292307D02C27B
:1002300096207D02C296307D02C2927406D5E0FD02
:10024000E525600A207D02C293307D02C297207DA1
:1002500002D297307D02D293419A30723DE53C2024
:10026000E21A20E129207D02C296307D02C292204E
:100270007D02C292307D02C29602029A20E1E620FF
:100280007D02C296307D02C292C29402029AC2944A
:10029000207D02C292307D02C296E525F4F58A7572
:1002A0008B00D262D0E0D0D0D2AF32C2AFC2AD5359
:1002B000E6EFC0D0C0E0D2D3D2AFC2CEE52960070E
:1002C0002074461529610978007900E580307E01A7
:1002D000F430E50278FF53DACF207E0343DA203092
:1002E0007E0343DA10C2D8C271E580307E01F4305B
:1002F000E50279FFC3E89970CE30610375291820B3
:1003000074037529188859D270E52A6004152A618A
:100310001920740543DA01C2D82070026180A859FF
:10032000206102C2702074367982B70431C3E89428
:10033000F0400374F0F8E8C4540F28F87984B70348
:1003400002615EC313C3138721200802C313200A6E
:1003500006C3C898F8615E28F8500374FFF8882235
:10036000306915E5222408F52250037522FFC3E504
:1003700022955E4003855E227882B6041885222489
:10038000A824C3E524955E4002A85EC3E8956040BA
:1003900002A8608825C3E52594404002D26420CF9E
:1003A0000CD0E0D0D0C2D343E610D2AD32C2CF7869
:1003B00001E52960053074021529C3E5599401400F
:1003C00005755C0061D7755D00756400E55C24010E
:1003D000F55C5003755CFFD0E0D0D0C2D343E6108B
:1003E000D2AD32C0D0C0E0C2AF53917F53E67FC2DE
:1003F00060759100C3E49550F594E49551F59575B9
:100400009104D0E0D0D0D2AF32C2AF53E6EFC2AD4C
:10041000C0D0C0E0C0F0D2D3D2AFA8FBA9FCC2D8F4
:10042000307102817053DACF207E0343DA10307EC0
:100430000343DA20D271E580307E01F420E50281A9
:100440004788268927C1AC53DACF207E0343DA20C0
:10045000307E0343DA10C2D8C271307402C198787A
:1004600000E580307E01F430E502C1988859C17FF3
:0F04700053DACF207E0343DA20307E0343DA10C5
:10047F00C271206102A14053DACF207E0343DA100C
:10048F00307E0343DA20C2D8D27188548955C3E82D
:10049F009552F8E99553F9E4FB7E027A00C3E8948C
:1004AF008CE994005005755800A130C3E894C8E951
:1004BF0094005008E4D2E4FB7A0AA10DC3E89468D3
:1004CF00E994015008E4D2E3FB7A0FA10DC3E8943D
:1004DF00D0E994025008E4D2E2FB7A1EA10DC3E8E2
:1004EF0094A0E994055008E4D2E1FB7A3CA10DC336
:1004FF00E89498E994085008E4D2E0FB7A787E00FB
:10050F00C3E89556FCE99557FD30E708ECF4240154
:10051F00FCEDF4FD755800C3EC9AED9E5003755831
:10052F000188568957A854A955885289537802C112
:10053F007FC3E89526F8E99527F9307C02C163302F
:10054F007B02C163307A02C15C207502A163E9FDB1
:10055F00E8FCA182E9C313F9E813F8307902C15C12
:10056F00E9C313F9E813F8307802C15CE9C313FD4E
:10057F00E813FC206126C3EC941CED94024002A109
:10058F0099ED7018C3EC94C850120528C3E5289450
:10059F000A5002C198755900D270C198E5286002BF
:1005AF0015287400207F0B7888E67896B4030278BC
:1005BF009EE624FAFEE43400FFC3EC9EFCED9FFDA3
:1005CF0092087888E6B40327A2085009207D20C23C
:1005DF00AFD27DA1EB307D17C2AFC27DD297D2953E
:1005EF00D293C296C294C292206902D26BD2AFA2AA
:1005FF00085017E6B4030DECF42401FCEDF43400BD
:10060F00FD02061978007900C1637888E6B40315F6
:10061F00EC33FCED33FDC3EC940AFCED9400FD507C
:10062F00047C007D00C3EC94FFED9400400678FF3E
:10063F007900C163EC856FF0A4C5F0A2F733F879A8
:10064F0000400302067F78FF790002067FE9C3139B
:10065F00F9E813F8307C0EE9600278FFC3E813382D
:10066F00F8E43400F9C3E894FFE99400400278FFFE
:10067F008859D270206102C198741FF4552F4BF521
:10068F002FC274E42B7002D274752918307403755D
:10069F00290A306102C1AC20740353DAFE752A06B1
:1006AF00307403752A0AD0F0D0E0D0D0C2D3D2ADC7
:1006BF0043E6103279010206E179030206E1790A75
:1006CF000206E1791E0206E179640206E179C802A9
:1006DF0006E17817E4D5E0FDD8FAD9F6227A147B33
:1006EF00780207087A107B8C0207087A0D7BB40218
:1006FF0007087A0B7BC8020708AC2575250179021C
:10070F00B27DE4C294D5E0FDE5256002C295D5E047
:10071F00FDD295D5E0FDD294D5E0FDE525600A2008
:10072F007D02C297307D02C293E570D5E0FD207D3A
:10073F0002D297307D02D2937496D5E0FDD9C1EAEB
:10074F00F8D5E0FDD8FBDBB1C2948C2522C37C0029
:10075F007D0075F00005F0EA33FAEB33FB50F6EB52
:10076F0013FBEA13FAC3E9FFE8FEE89AF8E99BF9ED
:10077F005004EFF9EEF8B3EC33FCED33FDD5F0DFB9
:10078F00EDF9ECF822E889F08A20D2D4F8A9F07BB1
:10079F000030F70B7BFFF42401F8E9F43400F9E89B
:1007AF008520F0A4ADF0F8E98520F0A4AFF0FEEDC0
:1007BF002EF974003FFA7C04C3EA13FAE913F9E83F
:1007CF0013F8DCF48BF030F70AE8F42401F8E9F4BD
:1007DF003400F9E889F0C2D4F8A9F0227882B6047F
:1007EF0003020848C3E5599401400302081085220B
:1007FF0024E4F53EF53FF540F541F542F547020893
:10080F00487882E6FC754701E522F523783879C7E9
:10081F00AA3AAB3BC3EB13FBEA13FAEC146013C316
:10082F00EB13FBEA13FAEC14146007C3EB13FBEAA8
:10083F0013FA12075C883E893F22E5476034C3E50F
:10084F003E9523F8E53F9400F9500CC3E89480E9F6
:10085F0094FF401602087DC3E8947FE9940050038B
:0E086F0002087D787F790002087D788079FF8D
:10087D008843894422E5476058E5432540F8E5441F
:10088D003541F9854420E4300701F43542FA30E76B
:10089D0009C3EA94F040150208BFC3EA940F500350
:1008AD000208BF78FF79FF7A0F0208BF7800790040
:1008BD007AF0C3E524955E5006E524600901D8E57C
:1008CD004420E70D01D8E54430E706884089418A88
:1008DD004222E547700302094378A1E6FAC3E543D6
:1008ED0033F8E54433F9120794E930E70BC3E89484
:1008FD0080E994FF4013211AC3E8947FE9940050D6
:10090D0002211A787F7900211A788079FFE820E793
:10091D0015C3E52398F84009C3E894014003020983
:10092D00417801020941E8F424012523F84003022E
:10093D00094178FF884522E54770030209A678A290
:10094D00E6FAA841A942120794E930E70CC3E894EE
:10095D0001E994FF401602097DC3E894FFE9940074
:10096D00500302097D78FF790002097D780179FF36
:10097D00E920E715C3E54598F84009C3E89401401F
:10098D00030209A478000209A4E8F424012545F81E
:10099D0040030209A478FF88242278FFC264E52D64
:1009AD005406702FD264C3E53B940A4009C3E52574
:1009BD0094405002C264E53B601974FF853BF0849E
:1009CD008537F0A4F8C5F0600278FFC3E895615053
:1009DD0002A8618860227883E6F520120F5075E831
:1009ED00901206C375E890E5E820ECFBA8BDA9BE02
:1009FD00120FFE756B55756C00C3740013FD7455A5
:100A0D0013FC74552CFC74003DFDECFAEDFBC3E8B2
:100A1D009AE99B4014E56B2455F56BE56C3400F5B4
:100A2D006CEA2CFAEB3DFB80E5AE6BAF6CC3E56C6D
:100A3D0013F9E56B13F8C3E913F9E813F8E56B281F
:100A4D00F569E56C39F56A7A03C3E913F9E813F82A
:100A5D00DAF7AA201A7009756B00756C00020A7D11
:100A6D001AEA6008EE28FEEF39FFDAF88E6B8F6C0C
:100A7D002275E890227883E6FFE5E820ECF7A8BD23
:100A8D00A9BE056DC3E56D94084052756D00E9FA78
:100A9D0079A0E76044EA7007E56E601B020AB8C3EF
:100AAD00E8956E6010E56E5006600C14020AC404E1
:100ABD0060F9020AC4E56EF56EC3946D401B755E58
:100ACD00C0C394044013755E80C39404400B755EDF
:100ADD0040C394044003755E0075BB0822EFC394B8
:100AED0001601BC3E894FFE994035012C3E8956BB2
:100AFD00E9956C5009E55E601A155E020B20E55E06
:100B0D00F46010055E7888E6B40308E55E240440C1
:100B1D0002F55EA85EC3E524985002A824C3E895AB
:100B2D005F400AA85FE55FF46003855F5E7982B779
:100B3D000402614BC3E895604002A8608825E56D0D
:100B4D00B4070375BB1022743279A387F0A4C5F0E6
:100B5D00A2F733F8C3E8955E4002A85E8822882488
:100B6D008825886122753A00753B7F2275C820A8BB
:100B7D00CCA9CD75C824AA38AB3988388939C3E8D2
:100B8D009AF8E99BF9AA3AAB3BAC3AAD3B7E047FB0
:100B9D0002C3EB940440021E1FC3EB940840021ED7
:100BAD001FC3ED13FDEC13FCDEF7C3EA9CFAEB9DBE
:100BBD00FBEF6009C3E913F9E813F8DFF7EA28FA48
:100BCD00EB39FB8A3A8B3B400122753AFF753BFFAF
:100BDD002230600261DE854C50854D51D26043E676
:100BED0080227892E6FFC3E535948240010FC3E57C
:100BFD003594A040010FC3EF940640027F057E029D
:100C0D001E3072010EC3E53B940350060E0E30727A
:100C1D00010EC3E53B940250060E0E3072010EA973
:100C2D003BA83A7A04C3E913F9E813F8DAF7C3E8F5
:100C3D009EF8E99400F94009C3E89402E994005044
:100C4D00047802E4F9E9FBE8FAC3E913FDE813FCC3
:100C5D00884C894DC3EF94036037EF20E00DE82CED
:0F0C6D00F8E93DF9ECFAEDFB020C8BE828F8E909
:100C7C0039F9C3E89402F8E99400F97A02E4FBC369
:100C8C00EF9403400D8A4E8B4F884889498C4A8DCE
:100C9C004B22884E894F8A488B498C4A8D4B223087
:100CAC00600281ABD26043E680E52D54066027A834
:100CBC003AA93BE53494085006E820E002A94D75AA
:100CCC009100C3E498F594E499F595759104D2607C
:100CDC0053917F43E68022D265753D00752000025A
:100CEC000CF6D265753D00752040E52D540660026A
:100CFC00C265D2AF206005E53D60012278017A0221
:100D0C00C3E53B940540027802C3E53B940A4002DC
:100D1C007803C3E53B940F40027A03306904781ED4
:100D2C007A01206007E53D6003D2AF22D2AF00000C
:100D3C00C2AFC3E53BFB940F40027B0FEB04307357
:100D4C00012320620123F93069027982E58BC39972
:100D5C0040D0053DEAFBE59B5440B52004DBF7A1F0
:100D6C009120650281F6C265759100AE3AAF3BC326
:100D7C00E49EF594E49FF595759104D26053917FB0
:100D8C0043E68081F630650281F6D896D2AF2230E8
:100D9C00690B0534206016753400020DB920600D06
:100DAC0020650A206B071581158102169B22A84E1F
:100DBC00A94F75910053917FC3E498F594E499F58C
:100DCC0095759104854850854951D26043E680223F
:100DDC0078003064053065027801E53575F007A4BC
:100DEC00F9E5F028F5F0E9A2F013A2F113A2F21341
:100DFC00F535C394785003753578C3E53595364091
:100E0C0008D266D297D295D293306002C115854A2A
:100E1C0050854B51D26043E68022C2AFC296C29439
:100E2C00C29230720B9001FC7406D5E0FD020E6488
:100E3C00E53B54F86022E525600A207D02C297301C
:100E4C007D02C293740FD5E0FD207D02D297307DD8
:100E5C0002D2937406D5E0FD207D02D296307D023D
:100E6C00D292759F10753C02020FE3C2AF207D0237
:100E7C00D293307D02D2973072179001D9C2942050
:100E8C007D02C292307D02C2967406D5E0FD020E40
:100E9C00A090013C306206E5256002C295207D03DE
:100EAC00759F13307D03759F11753C03020FE3C2D0
:100EBC00AFC296C294C29230720B9001B67406D532
:100ECC00E0FD020EF9E53B54F86022E525600A20AE
:100EDC007D02C293307D02C297740FD5E0FD207D58
:100EEC0002D293307D02D2977406D5E0FD207D02AC
:100EFC00D292307D02D296207D03759F11307D03F6
:100F0C00759F13753C04020FE3C2AFD29530721774
:100F1C00900193207D02C296307D02C292C29474DD
:100F2C0006D5E0FD020F3690012A30620EE52560F1
:100F3C000A207D02C297307D02C293759F10753CCA
:100F4C0005020FE3C2AFC296C294C29230720B90EC
:100F5C0001687406D5E0FD020F7EE53B54F8601283
:100F6C00E5256002C295740FD5E0FDD2957406D5C7
:100F7C00E0FDD294207D03759F13307D03759F1186
:100F8C00753C06020FE3C2AF207D02D297307D0282
:100F9C00D29330721F900227207D02C296307D02C0
:100FAC00C292207D02C292307D02C2967406D5E0B8
:100FBC00FD020FC390014E30620EE525600A207DC4
:100FCC0002C293307D02C297207D03759F11307D44
:100FDC0003759F13753C01306B13120FFE7406D50D
:100FEC00E0FD7406D5E0FDD296D294D292C266D2C0
:100FFC00AF22900128D297D295D293C296C294C2B6
:10100C0092C26222788076090876090876040876FE
:10101C00010876030876FF08760908760108760140
:10102C00087601788C76000876FF0876FF0876FF44
:10103C000876FF0876FF0876030876FF0876FF0827
:10104C0076FF0876030876FA087628087650087634
:10105C00050876FF08760208760008767D0876FF8C
:0E106C00087600227887E6FFC2727888E6C315
:10107A0094036008C27DE630E102D27DC27E78899F
:10108A00E630E102D27EC3EF94026008758E01D287
:10109A00730210A3758E00C273227880E614900042
:1010AA00809378A1F67881E6149000809378A2F66E
:1010BA00120FFE227886E61490008D9378A3F6121A
:1010CA000FFE2222789CE67536FF75370CB40206AD
:1010DA007536A075370AB403067536827537052248
:1010EA00227896E6FA7897E6FB307F047A007BFF4F
:1010FA00C3EB9AFCC3948250027C82756F00056F21
:10110A00EC856FF0A4C3E5F0948040F222D27F11FF
:10111A00EB1206D27A007B007C101206C8E5592A27
:10112A00FA74003BFBDCF37C04C3EB13FBEA13FA0F
:10113A00DCF7FEC27F11EB22E5EF20E60375200003
:10114A000520903FFFE520146006901DFF14600003
:10115A009304600375EF12C2D353D9BF7581C0439C
:10116A00FF801206C375EF0243B203E5B3240420DD
:10117A00E702F5B3120FFE7580FF75A40075F1B290
:10118A0075D4DF7590A975A5FC75F2FC75D5017546
:10119A00A60175E241111012170D78988670C2AF38
:1011AA001206DC1207011207011206D71206D7121D
:1011BA0006D71206D71207011207011206D712061E
:1011CA00D71206D21206D21207011206D21206D27C
:1011DA001207011207011206D71206D71206D712F2
:1011EA0006D71207011207011206D71206D71206EE
:1011FA00D71206D71206FA1206FA1206D71206D71D
:10120A001206D71206D71206EC1206EC1206D712ED
:10121A0006D71206D21206D21206FA1206D21206FF
:10122A00D21207011207011206D71206D71206D7E1
:10123A001206D71206D71206D71206D71206D7C237
:10124A00AFE4F8F6D8FD78C879C8308504D9FBD858
:10125A00F7111012170D117011A411BE11CD11CE74
:10126A0011EA11EB78988670120FFE75885075890D
:10127A001275C82475910475D84075A82275B802EC
:10128A0075E690759B80759D0075D10E75BC587575
:10129A00BB0875BA1175E8801206C3D2AF1209E30A
:1012AA0043DA01C2D8C2711206DC753001D2617B01
:1012BA00037A0CE55870067A0CDB0241491206D211
:1012CA002070024149C270E559C3940240E3E52FF8
:1012DA00541F855B5AF55BB55AD7DAD7C26153DA20
:1012EA00CF207E0343DA20307E0343DA10C2D8C20D
:1012FA0071C2757528001206D7307409C3E528949F
:10130A000A4002D2751206C878023074027800C305
:10131A00E5599840F0C2AF1206EC1206D21206EC5A
:10132A001206D21206F31206D21206F3D2AF120630
:10133A00DC7546007888E6B40302811A1206C8787A
:10134A008CE6C39401500302141AE530C394015089
:10135A000302141A207435C3E55994FF500302148A
:10136A001AC2AF120701D2AF1206D7C3E5599401C8
:10137A0050EFC2AF1206EC1206CD1206ECD2AF1233
:10138A0006D7C3E55994FF40E90218737F02D27F5A
:10139A0011EB1206D7C2AFC27F11EBAE59C3E559A2
:1013AA00947FD2AF40741206C3C2AF120701D2AF04
:1013BA00DFDC3117C3EE94057897F61206DC1217B4
:1013CA000D1217F67F0AD27F11EB1206D7C2AFC2EF
:1013DA007F11EBAE59C3E559947FD2AF50E612069E
:1013EA00C3C2AF1206EC1206CD1206ECD2AFDFD69C
:1013FA003117EE24057896F61206DC12170D12182C
:10140A00251206D711EBC3E55994FF40F40218736D
:10141A00C3E559954640038559461206D77801799E
:10142A0088E7B403027805C3E559984002613EC2D1
:10143A00AF1207011206D21207011206D21206FAD9
:10144A001206D21206FAD2AF1206DC753000E4F5A3
:10145A0031F5320531E531F470390532789AE6789A
:0E146A0019146012783214600D787D14600839
:1014780078FA146003753200C3E5329840171532C4
:101488007531B478998670C2AF120701D2AF7898D7
:1014980086701206D71206CDE52970053074024110
:1014A8004978012074027806C3E5599840A77888DE
:1014B800E6C3940360031206D7E52970024149C2C6
:1014C800AF120FFEE4F522F523F524F525D2AF7807
:1014D800858662F53EF53FF540F541F542F56DF537
:1014E80047F52CF52DF535120B72756D0875BB1087
:1014F8001206C3120A7EE5E820ECFBA8BDA9BEE9E6
:101508007001F8886E120A82756D0875BB107887AD
:10151800E6FE760211707887EEF6C2AF755EFF12AE
:101528000B5485225E85225F852260D2AF75220129
:10153800752401752501855D64756501D268D269D8
:10154800753400120F50120F92120B72120B79128F
:101558000BEF021568120FFE1170756D0075BB0850
:10156800120CEE120D9B120DBA1207EB120DDC12C3
:101578000E26120B79120BDE120BEF120CAB120CAB
:10158800E3120D9B120DBA1208491209A7120DDCBD
:10159800120E77120B79120BDE120BEF120CAB1234
:1015A8000CEE120D9B120DBA120882120DDC120EEF
:1015B800BB120B79120BDE120BEF120CAB120CE301
:1015C800120D9B120DBA1208DF120DDC120F151244
:1015D8000B79120BDE120BEF120CAB120CEE120D84
:1015E8009B120DBA120944120DDC120F50120B791E
:1015F800120BDE120BEF120CAB120CE3120A7E1266
:101608000D9B120DBA120A82120DDC120F92120BE8
:1016180079120BDE120BEF120CAB306938206B35E8
:1016280085615E85615F855D6475650179327A0AD9
:10163800C3E534994012C269D26A8A3385615E75FE
:101648005FFF75602002165DC3E5599401400302EF
:10165800156802169B306A1E206B1BE53314700751
:10166800C26A755EFFA15DF533C3E5599401400375
:1016780002156802169BC3E55C94FA501630740490
:10168800E529600FC3E53B78F0306B02786098502D
:1016980002A168C2AF120FFE7887E6FE76021170CB
:1016A8007887EEF6E4F522F523F524F525F562C2F0
:1016B80068D2AF1206C3120FFE307406E529700215
:1016C80041498158901A0D782012174FE520B455DA
:1016D8000CA312174FE520B4AA030216ED1110123D
:1016E800170D02170C901A0378807B0A12174FA364
:1016F80008DBF9901A0F788C7B1512174FA308DBBB
:10170800F9901A2422C2AF12178E121768901A0085
:10171800740D121754A37402121754A374131217DA
:1017280054901A0378807B0A121753A308DBF990A8
:101738001A0F788C7B15121753A308DBF91217A11F
:1017480012177F901A2422E493F622E6438F01535E
:101758008FFD75EF0275B7A575B7F1F0538FFE22AF
:10176800438F02438F0175EF0275B7A575B7F190E6
:101778001A0DF0538FFC22901A0D7455F154901ADB
:101788000E74AAF154227A3079D07820901A40F158
:101798004FE520F709A3DAF7227A3079D0901A407A
:1017A800E7F15409A3DAF922AB71A872BB010279F7
:1017B80080BB02027981BB03027982BB040279846F
:1017C800BB05027983BB06027986BB07027992BB07
:1017D80008027987BB0902799CBB0A027988BB0B8E
:1017E800027989E8F7227C051206DCDCFB22C2AF0D
:1017F8001206EC1206F31206FA1207011206CD12AF
:1018080006EC1206F31206FA1207011206CD1206AA
:10181800EC1206F31206FA120701D2AF22C2AF1277
:1018280007011206FA1206F31206EC1206CD120789
:10183800011206FA1206F31206EC1206CD1207017F
:101848001206FA1206F31206ECD2AF22AE71AF728C
:10185800C2AF1206EC1206EC1206EC1206CDDEF24E
:0E1868001207011206CDDFF8D2AF221217F6DA
:101876001217EE1217EE757101757201757300116C
:10188600547C05AD591206DCC3ED955970F5C3E5D8
:10189600599401400AC3E55994FF40370218B6121D
:1018A60017B012170D1217F6C2AF75EF121217EE18
:1018B600DCD10573C3E5739403500280C21217EEA0
:1018C6000572E5711490009A93F808C3E572985072
:1018D6000280A91217EE1217EE0571C3E571940C7A
:1018E6005002809512101012170DC2AF75EF12122A
:0218F60017EEEB
:101A00000D02130909040103FF0901010155AA0090
:101A1000FFFFFFFFFF03FFFFFF03FA285005FF0250
:051A2000007DFF00FF46
:101A400023536B79494949333041232020202020FA
:101A500023424C48454C4923463333302320202031
:101A60002020202020202020202020202020202076
:00000001FF
