:0300000002116A80
:03000B000200A54B
:03002B000202AE20
:03005B0002045F3D
:030073000204394B
:1000800002030406080C10182030406080040608A3
:100090000C10182030406080A0C00D0D0403060D28
:1000A0000503030202C2AFC0D0C0E020620C20688A
:1000B00002419D306602415DE47385258AC262E596
:1000C00025F4700221242068022111207210758B02
:1000D00000D0E0D0D0D297D295D293D2AF32D2977F
:1000E000D295D2937406D5E0FDE53C1420E21520AC
:1000F000E10D207D02D292307D02D296020121D202
:1001000094020121207D02D296307D02D29202011A
:1001100021758B00D0E0D0D0D297D295D293D2AFB8
:1001200032758B00D0E0D0D0D2AF32419DE5256052
:100130000A207D02C297307D02C293D295419DE58F
:10014000256002C295207D02D293307D02D2974174
:100150009DE525600A207D02C293307D02C2972072
:100160007D02D297307D02D293419D207D02C296BE
:10017000307D02C292207D02C292307D02C296740E
:1001800006D5E0FDE525600A207D02C297307D029C
:10019000C293D295419D207D02C296307D02C292CB
:1001A000C2947406D5E0FDE525600A207D02C29761
:1001B000307D02C293D295419DC294207D02C296A9
:1001C000307D02C2927406D5E0FDE5256002C2953D
:1001D000207D02D293307D02D297419DC294207D32
:1001E00002C292307D02C2967406D5E0FDE525601C
:1001F00002C295207D02D293307D02D297419D208C
:100200007D02C292307D02C296C2947406D5E0FD92
:10021000E525600A207D02C293307D02C297207DD1
:1002200002D297307D02D293419D207D02C292304E
:100230007D02C296207D02C296307D02C292740673
:10024000D5E0FDE525600A207D02C293307D02C223
:1002500097207D02D297307D02D293419D30723D2E
:10026000E53C20E21A20E129207D02C296307D0281
:10027000C292207D02C292307D02C29602029D206F
:10028000E1E6207D02C296307D02C292C294020253
:100290009DC294207D02C292307D02C296E525F473
:1002A000F58A758B00D262D0E0D0D0D2AF32C2AF27
:1002B000C2AD53E6EFC0D0C0E0D2D3D2AFC2CEE5DC
:1002C0002960072074461529610C78007900E580C3
:1002D000307E01F430E50278FF53DACF207E03430D
:1002E000DA20307E0343DA10C2D8C271E580307E56
:1002F00001F430E50279FFC3E89970CE30610375EF
:1003000029402074037529408859D270E52A600479
:10031000152A611C20740543DA01C2D820700261DD
:1003200044A859206102C270207402612D882230D5
:10033000690AC3E522955E4003855E227882B60491
:1003400003852224C3E52594404002D26420CF0CCB
:10035000D0E0D0D0C2D343E610D2AD32C2CF7802C3
:10036000E52960053074021529C3E559940140055B
:10037000755C006186755D00756400E55C2401F5BF
:100380005C5003755CFF7982B7020EE547601EC3BF
:10039000E522943240178546227982B7030FE5475C
:1003A000600BC3E52294324004798E8722C3E52393
:1003B000952260084004152361BC0523D8C8056454
:1003C000E56470021564D565647565017805C3E55B
:1003D0006495664058C3E564956750087801756573
:1003E000030203F0C3E56495685005780175650163
:1003F000C3E55F9524401F7982B704028122E54757
:10040000701485245FE56404600385666475650186
:1004100075233C02042DE55F285005755FFF81229E
:10042000F55FE55F047006755DFF7564FFD0E0D091
:10043000D0C2D343E610D2AD32C0D0C0E0C2AF5379
:10044000917F53E67FC260759100C3E49550F594A7
:10045000E49551F595759104D0E0D0D0D2AF32C279
:10046000AF53E6EFC2ADC0D0C0E0C0F0D2D3D2AF40
:0E047000A8FBA9FCC2D830710281C653DACFB6
:10047E00207E0343DA10307E0343DA20D271E5800A
:10048E00307E01F420E502819D88268927C19D5387
:10049E00DACF207E0343DA20307E0343DA10C2D84F
:1004AE00C271307402C1897800E580307E01F4306B
:1004BE00E502C1898859C17053DACF207E0343DA31
:1004CE0020307E0343DA10C271206102A19653DA06
:1004DE00CF207E0343DA10307E0343DA20C2D8D217
:1004EE007188548955C3E89552F8E99553F9E4FBA0
:1004FE007E027A00C3E8948CE9940050057558008A
:10050E00A186C3E894C8E994005008E4D2E4FB7ACB
:10051E000AA163C3E89468E994015008E4D2E3FBAE
:10052E007A0FA163C3E894D0E994025008E4D2E2B2
:10053E00FB7A1EA163C3E894A0E994055008E4D2A7
:10054E00E1FB7A3CA163C3E89498E994085008E46F
:10055E00D2E0FB7A787E00C3E89556FCE99557FD0C
:10056E0030E708ECF42401FCEDF4FD755800C3EC03
:10057E009AED9E500375580188568957A854A9556F
:10058E00885289537802C170C3E89526F8E99527F9
:10059E00F9307C02C154307B02C154307A02C14D15
:1005AE00207502A1B9E9FDE8FCA1D8E9C313F9E869
:1005BE0013F8307902C14DE9C313F9E813F8307816
:1005CE0002C14DE9C313FDE813FC206126C3EC9470
:1005DE001CED94024002A1EFED7018C3EC94C850CC
:1005EE00120528C3E528940A5002C189755900D214
:1005FE0070C189E528600215287400207F03789663
:10060E00E624FAFEE43400FFC3EC9EFCED9FFD50A1
:10061E000678007900C154C3EC94FFED94004006B7
:10062E0078FF7900C154EC856FF0A4C5F0A2F733C2
:10063E00F87900400302067078FF7900020670E92F
:10064E00C313F9E813F8307C0EE9600278FFC3E8B3
:10065E001338F8E43400F9C3E894FFE9940040023B
:10066E0078FF8859D270206102C189741FF4552F0A
:10067E004BF52FC274E42B7002D27475294030747E
:10068E000375290A306102C19D20740353DAFE7589
:10069E002A20307403752A0AD0F0D0E0D0D0C2D30D
:1006AE00D2AD43E6103279010206D279030206D2A8
:1006BE00790A0206D2791E0206D279640206D2792E
:1006CE00C80206D27817E4D5E0FDD8FAD9F6227A18
:1006DE00147B780206F97A107B8C0206F97A0D7B70
:1006EE00B40206F97A0B7BC80206F9AC2575250112
:1006FE007902B27DE4C294D5E0FDE5256002C29593
:10070E00D5E0FDD295D5E0FDD294D5E0FDE525608E
:10071E000A207D02C297307D02C293E570D5E0FDBE
:10072E00207D02D297307D02D2937496D5E0FDD90A
:10073E00C1EAF8D5E0FDD8FBDBB1C2948C2522C30B
:10074E007C007D0075F00005F0EA33FAEB33FB50C8
:10075E00F6EB13FBEA13FAC3E9FFE8FEE89AF8E9B1
:10076E009BF95004EFF9EEF8B3EC33FCED33FDD505
:10077E00F0DFEDF9ECF822E889F08A20D2D4F8A95E
:10078E00F07B0030F70B7BFFF42401F8E9F4340022
:10079E00F9E88520F0A4ADF0F8E98520F0A4AFF0DB
:1007AE00FEED2EF974003FFA7C04C3EA13FAE91346
:1007BE00F9E813F8DCF48BF030F70AE8F42401F8CA
:1007CE00E9F43400F9E889F0C2D4F8A9F02278826D
:1007DE00B6040302087EC3E5599419401FE52D5453
:1007EE00067019E547703878057994E71460077834
:1007FE000A1460027812C3E53B984020E547600971
:10080E0085615F7564FF756501852224E4F53EF50B
:10081E003FF540F541F542F54702087E75470179EF
:10082E0094E7147013E523F43333F913F8E9540104
:10083E0004F9E854FE020872E714147014E523F468
:10084E00333333F913F8E9540304F9E854FC02087E
:10085E007AE523F433333333F913F8E954070404F8
:0E086E00F9E854F8C39440F8E99400F9883E84
:10087C00893F22E547603BC3E53B13F9E53A13F8A2
:10088C00C3E53E98F8E53F99F9500CC3E89480E92C
:10089C0094FF40160208BAC3E8947FE99400500311
:1008AC000208BA787F79000208BA788079FF884309
:1008BC00894422E5476058E5432540F8E544354135
:1008CC00F9854420E4300701F43542FA30E709C3D6
:1008DC00EA94F040150208FCC3EA940F5003020896
:1008EC00FC78FF79FF7A0F0208FC780079007AF027
:1008FC00C3E524955E5006E52460092115E54420E6
:10090C00E70D2115E54430E706884089418A4222EB
:10091C00E547700302098078A1E6FAC3E54333F892
:10092C00E54433F9120785E930E70BC3E89480E915
:10093C0094FF40132157C3E8947FE994005002219F
:10094C0057787F79002157788079FFE820E715C325
:10095C00E52398F84009C3E89401400302097E7826
:10096C000102097EE8F424012523F8400302097EE4
:10097C0078FF884522E54770030209E378A2E6FA7E
:10098C00A841A942120785E930E70CC3E89401E9B4
:10099C0094FF40160209BAC3E894FFE9940050038F
:1009AC000209BA78FF79000209BA780179FFE920C7
:1009BC00E715C3E54598F84009C3E89401400302E4
:1009CC0009E178000209E1E8F424012545F8400327
:1009DC000209E178FF88242278FFC264E52D5406D1
:1009EC00702FD264C3E53B940A4009C3E5259440BB
:1009FC005002C264E53B601974FF853BF084853777
:100A0C00F0A4F8C5F0600278FFC3E895615002A825
:100A1C00618860227883E6F520120F7075E89012D9
:100A2C0006B475E890E5E820ECFBA8BDA9BE121051
:100A3C0008756B55756C00C3740013FD745513FC6D
:100A4C0074552CFC74003DFDECFAEDFBC3E89AE9FF
:100A5C009B4014E56B2455F56BE56C3400F56CEAA2
:100A6C002CFAEB3DFB80E5AE6BAF6CC3E56C13F978
:100A7C00E56B13F8C3E913F9E813F8E56B28F5698E
:100A8C00E56C39F56A7A03C3E913F9E813F8DAF778
:100A9C00AA201A7009756B00756C00020ABA1AEA62
:100AAC006008EE28FEEF39FFDAF88E6B8F6C22753A
:100ABC00E890227883E6FFE5E820ECF7A8BDA9BE14
:100ACC00056DC3E56D94084052756D00E9FA79A087
:100ADC00E76044EA7007E56E601B020AF5C3E8950F
:100AEC006E6010E56E5006600C14020B010460F988
:100AFC00020B01E56EF56EC3946D401B755EC0C3B1
:100B0C0094044013755E80C39404400B755E40C31F
:100B1C0094044003755E0075BB0822EFC39401601A
:100B2C001BC3E894FFE994035012C3E8956BE99555
:100B3C006C5009E55E600C155E020B4FE55EF460CF
:100B4C0002055EA85EC3E524985002A824C3E8956C
:100B5C005F400AA85FE55FF46003855F5E8825E56A
:100B6C006DB4070375BB1022743279A387F0A4C54A
:100B7C00F0A2F733F8C3E8955E4002A85E8822889D
:100B8C00248825886122753A00753B7F2275C82020
:100B9C00A8CCA9CD75C824AA38AB3988388939C3F3
:100BAC00E89AF8E99BF9AA3AAB3BAC3AAD3B7E0428
:100BBC007F02C3EB940440021E1FC3EB9408400257
:100BCC001E1FC3ED13FDEC13FCDEF7C3EA9CFAEB1E
:100BDC009DFBEF6009C3E913F9E813F8DFF7EA2886
:100BEC00FAEB39FB8A3A8B3B400122753AFF753B95
:100BFC00FF2230600261FE854C50854D51D260431E
:100C0C00E680227892E6FFC3E535948240010FC35B
:100C1C00E53594A040010FC3EF940640027F057E9A
:100C2C00021E3072010EC3E53B940350060E0E30CB
:100C3C0072010EC3E53B940250060E0E3072010E8B
:100C4C00A93BA83A7A04C3E913F9E813F8DAF7C315
:100C5C00E89EF8E99400F94009C3E89402E994008D
:0F0C6C0050047802E4F9E9FBE8FAC3E913FDE864
:100C7B0013FC884C894DC3EF94036037EF20E00DD4
:100C8B00E82CF8E93DF9ECFAEDFB020CABE828F89F
:100C9B00E939F9C3E89402F8E99400F97A02E4FB24
:100CAB00C3EF9403400D8A4E8B4F884889498C4A79
:100CBB008D4B22884E894F8A488B498C4A8D4B220B
:100CCB0030600281CBD26043E680E52D540660276D
:100CDB00A83AA93BE53494085006E820E002A94D58
:100CEB00759100C3E498F594E499F595759104D248
:100CFB006053917F43E68022D265753D00752000DD
:100D0B00020D16D265753D00752040E52D54066029
:100D1B0002C265D2AF206005E53D60012278017A01
:100D2B0002C3E53B940540027802C3E53B940A40BD
:100D3B00027803C3E53B940F40027A0330690478D1
:100D4B001E7A01206007E53D6003D2AF22D2AF00CF
:100D5B0000C2AFC3E53BFB940F40027B0FEB0430AB
:100D6B0073012320620123F93069027982E58BC379
:100D7B009940D0053DEAFBE59B5440B52004DBF7D9
:100D8B00A1B1206502A116C265759100AE3AAF3BC9
:100D9B00C3E49EF594E49FF595759104D26053914D
:100DAB007F43E680A116306502A116D896D2AF22FA
:100DBB0030690B0534206016753400020DD92060A4
:100DCB000D20650A206B07158115810216BF22A81D
:100DDB004EA94F75910053917FC3E498F594E49914
:100DEB00F595759104854850854951D26043E6804D
:100DFB002278003064053065027801E53575F0071F
:100E0B00A4F9E5F028F5F0E9A2F013A2F113A2F290
:100E1B0013F535C394785003753578C3E53595369E
:100E2B004008D266D297D295D293306002C13585F5
:100E3B004A50854B51D26043E68022C2AFC296C264
:100E4B0094C29230720B9001FF7406D5E0FD020E36
:100E5B0084E53B54F86022E525600A207D02C297A9
:100E6B00307D02C293740FD5E0FD207D02D2973006
:100E7B007D02D2937406D5E0FD207D02D296307DA3
:100E8B0002D292759F10753C02021003C2AF207DF7
:100E9B0002D293307D02D2973072179001DCC2944C
:100EAB00207D02C292307D02C2967406D5E0FD020F
:100EBB000EC090013F306206E5256002C295207D91
:100ECB0003759F13307D03759F11753C030210034F
:100EDB00C2AFC296C294C29230720B9001B9740623
:100EEB00D5E0FD020F19E53B54F86022E525600AB9
:100EFB00207D02C293307D02C297740FD5E0FD2096
:100F0B007D02D293307D02D2977406D5E0FD207D11
:100F1B0002D292307D02D296207D03759F11307DD7
:100F2B0003759F13753C04021003C2AFD295307248
:100F3B0017900196207D02C296307D02C292C29418
:100F4B007406D5E0FD020F5690012D30620EE5259B
:100F5B00600A207D02C297307D02C293759F107587
:100F6B003C05021003C2AFC296C294C29230720B00
:100F7B0090016B7406D5E0FD020F9EE53B54F860C3
:100F8B0012E5256002C295740FD5E0FDD29574066B
:100F9B00D5E0FDD294207D03759F13307D03759FA3
:100FAB0011753C06021003C2AF207D02D297307D33
:100FBB0002D29330721F90022A207D02C296307D9E
:100FCB0002C292207D02C292307D02C2967406D577
:100FDB00E0FD020FE390015130620EE525600A201F
:100FEB007D02C293307D02C297207D03759F113025
:100FFB007D03759F13753C01C266D2AF2290012B06
:10100B00D297D295D293C296C294C292C2622278E0
:10101B008076070876070876010876040876FF08BD
:10102B0076FF08760A087602087601087601788C36
:10103B0076000876000876B40876FF0876FF087607
:10104B00FF0876030876FF0876010876FF0876031B
:10105B000876FA0876780876C80876040876FF08CA
:0F106B00760108760008767D08760A087600225E
:10107A007887E6FFC272BF0302D2727888C27DE621
:10108A0030E102D27DC27E7889E630E102D27EC3A7
:10109A00EF94026008758E01D2730210AC758E004F
:1010AA00C273227880E6149000809378A1F6788142
:1010BA00E6149000809378A2F61108227886E61446
:1010CA0090008D9378A3F6110822789FE6F87001B4
:1010DA0008C3E8941140027811E82828F5662566C5
:1010EA00256628F56725662828F56822789CE6751E
:1010FA0036FF75370CB402067536A075370AB40385
:10110A000675368275370522227896E6FA7897E6CA
:10111A00FB307F047A007BFFC3EB9AFCC3948250B6
:10112A00027C82756F00056FEC856FF0A4C3E5F051
:10113A00948040F222D27F31131206C37A007B00D8
:10114A007C101206B9E5592AFA74003BFBDCF37CE1
:10115A0004C3EB13FBEA13FADCF7FEC27F31132256
:10116A00E5EF20E6037520000520903FFFE52014F7
:10117A006006901DFF1460009304600375EF12C2AD
:10118A00D353D9BF7581C043FF801206B475EF02ED
:10119A0043B203E5B3240420E702F5B311087580CE
:1011AA00FF75A40075F1B275D4DF7590A975A5FC19
:1011BA0075F2FC75D50175A60175E241111A12176F
:1011CA003978988670C2AF1206CD1206F21206F26C
:1011DA001206C81206C81206C81206C81206F21269
:1011EA0006F21206C81206C81206C31206C312066F
:1011FA00F21206C31206C31206F21206F21206C849
:10120A001206C81206C81206C81206F21206F2120E
:10121A0006C81206C81206C81206C81206EB12063B
:10122A00EB1206C81206C81206C81206C81206DD54
:10123A001206DD1206C81206C81206C31206C31227
:10124A0006EB1206C31206C31206F21206F21206C1
:10125A00C81206C81206C81206C81206C81206C85C
:10126A001206C81206C812181A1206CD1206CD1294
:10127A0006C8C2AFE4F8F6D8FD78C879C830850444
:10128A00D9FBD8F7111A121739117A11AD11C611F3
:10129A00D411F63112311378988670110875885076
:1012AA0075891275C82475910475D84075A8227578
:1012BA00B80275E690759B80759D0075D10E75BC58
:1012CA005875BB0875BA1175E8801206B4D2AF1208
:1012DA000A2043DA01C2D8C2711206CD753001D292
:1012EA00617B037A0CE55870067A0CDB02417C12AA
:1012FA0006C3207002417CC270E559C3940240E3E0
:10130A00E52F541F855B5AF55BB55AD7DAD7C26108
:10131A0053DACF207E0343DA20307E0343DA10C249
:10132A00D8C271C2757528001206C8307409C3E59F
:10133A0028940A4002D2751206B9780230740278EB
:10134A0000C3E5599840F0C2AF1206DD1206C31277
:10135A0006DD1206C31206E41206C31206E4D2AF71
:10136A001206CD7546001206B9788CE6C394015070
:10137A0003021444E530C394015003021444207458
:10138A0035C3E55994FF5003021444C2AF1206F262
:10139A00D2AF1206C8C3E559940150EFC2AF120684
:1013AA00DD1206BE1206DDD2AF1206C8C3E5599495
:1013BA00FF40E902189F7F05D27F31131206C8C287
:1013CA00AFC27F3113AE59C3E559947FD2AF40748F
:1013DA001206B4C2AF1206F2D2AFDFDC313FC3EE5F
:1013EA0094057897F61206CD1217391218227F0A39
:1013FA00D27F31131206C8C2AFC27F3113AE59C3AE
:10140A00E559947FD2AF50E61206B4C2AF1206DD98
:10141A001206BE1206DDD2AFDFD6313FEE240578C2
:10142A0096F61206CD1217391218511206C8311340
:10143A00C3E55994FF40F402189FC3E55995464005
:10144A00038559461206C878017988E7B4030278F9
:10145A0005C3E5599840026170C2AF1206F212063E
:0D146A00C31206F21206C31206EB1206C3EF
:101477001206EBD2AF1206CD753000E4F531F53226
:101487000531E531F470390532789AE67819146038
:1014970012783214600D787D14600878FA146003AE
:1014A700753200C3E53298401715327531B4789913
:1014B7008670C2AF1206F2D2AF789886701206C84D
:1014C7001206BEE5297005307402417C780120744C
:1014D700027806C3E5599840A71206C8E5297002A5
:1014E700417CC2AF1108E4F522F523F524F525D296
:1014F700AF78858662F53EF53FF540F541F542F553
:101507006DF547F52CF52DF535120B92756D0875B0
:10151700BB101206B4120ABBE5E820ECFBA8BDA974
:10152700BEE97001F8886E120ABF756D0875BB10A9
:101537007887E6FE7602117A7887EEF6C2AF755E97
:10154700FF120B7485225E85225F852260D2AF75FC
:101557002201752401752501855D64756501D268D1
:10156700D269753400120F70120FB2120B92120B60
:1015770099120C0F0215881108117A756D0075BB49
:1015870008120D0E120DBB120DDA1207DC120DFC3C
:10159700120E46120B99120BFE120C0F120CCB12E5
:1015A7000D03120DBB120DDA12087F1209E4120D9A
:1015B700FC120E97120B99120BFE120C0F120CCB8A
:1015C700120D0E120DBB120DDA1208BF120DFC120E
:1015D7000EDB120B99120BFE120C0F120CCB120D15
:1015E70003120DBB120DDA12091C120DFC120F3576
:1015F700120B99120BFE120C0F120CCB120D0E12BE
:101607000DBB120DDA120981120DFC120F70120BAD
:1016170099120BFE120C0F120CCB120D03120ABB00
:10162700120DBB120DDA120ABF120DFC120FB21205
:101637000B99120BFE120C0F120CCB30692F206B7B
:101647002C85615E85615F855D6475650179327A98
:101657000AC3E534994009C269D26A8A330216740B
:10166700C3E559940140030215880216BF306A1B6F
:10167700206B18E533147004C26AA17EF533C3E505
:1016870059940140030215880216BFC3E55C940113
:10169700400985615F855D64756501C3E55C94FA02
:1016A7005016307404E529600FC3E53B78F0306BC2
:1016B700027860985002A188C2AF11087887E6FEC9
:1016C7007602117A7887EEF6E4F522F523F524F50C
:1016D70025F562C268D2AF1206B41108307406E568
:1016E700297002417C788DE6C394014002614181F3
:1016F70082901A0D782012177BE520B4A50CA3124F
:10170700177BE520B45A03021719111A1217390269
:101717001738901A0378807B0A12177BA308DBF926
:10172700901A0F788C7B1512177BA308DBF9901A98
:101737002422C2AF1217BA121794901A00740D120E
:101747001780A37402121780A37413121780901ABC
:101757000378807B0A12177FA308DBF9901A0F78AA
:101767008C7B1512177FA308DBF91217CD1217AB65
:10177700901A2422E493F622E6438F01538FFD75D6
:10178700EF0275B7A575B7F1F0538FFE22438F02AD
:10179700438F0175EF0275B7A575B7F1901A0DF074
:1017A700538FFC22901A0D74A5F180901A0E745A6B
:1017B700F180227A3079D07820901A40F17BE520A9
:1017C700F709A3DAF7227A3079D0901A40E7F18047
:1017D70009A3DAF922AB71A872BB01027980BB02B7
:1017E700027981BB03027982BB04027994BB0502AB
:1017F7007983BB06027986BB07027992BB08027917
:1018070087BB0902799CBB0A027988BB0B027989DD
:10181700E8F7227C051206CDDCFB22C2AF1206DDFB
:101827001206E41206EB1206F21206BE1206DD12CB
:1018370006E41206EB1206F21206BE1206DD1206C7
:10184700E41206EB1206F2D2AF22C2AF1206F21270
:1018570006EB1206E41206DD1206BE1206F21206A7
:0D186700EB1206E41206DD1206BE1206F2B8
:101874001206EB1206E41206DDD2AF22AE71AF728D
:10188400C2AF1206DD1206DD1206DD1206BEDEF25E
:101894001206F21206BEDFF8D2AF221122111A117B
:1018A4001A75710175720175730011807C05AD594B
:1018B4001206CDC3ED955970F5C3E5599401400A5C
:1018C400C3E55994FF40340218DD1217DC121739AE
:1018D4001122C2AF75EF12111ADCD30573C3E5737D
:1018E4009403500280C4111A0572E5711490009A91
:1018F40093F808C3E57298500280AC111A111A05C6
:1019040071C3E571940C5002809A12101A1217399F
:07191400C2AF75EF12111ABA
:101A00000D021307070104FFFF0A020101A55A0096
:101A100000B4FFFFFF03FF01FF03FA78C804FF01D2
:051A200000FF0A00FFB9
:101A400023536B7977616C6B6572323041232020B0
:101A500023424C48454C4923463333302320202031
:101A60002020202020202020202020202020202076
:00000001FF
