:03000000021148A2
:03000B000200A54B
:03002B000202AE20
:03005B0002040C90
:030073000203E69F
:1000800002030406080C10182030406080040608A3
:100090000C10182030406080A0C00D0D0405060D26
:1000A0000503030302C2AFC0D0C0E020620C206889
:1000B00002419D306602415DE47385258AC262E596
:1000C00025F4700221242068022111207210758B02
:1000D00000D0E0D0D0D297D295D293D2AF32D2977F
:1000E000D295D2937406D5E0FDE53C1420E21520AC
:1000F000E10D207D02D292307D02D296020121D202
:1001000094020121207D02D296307D02D29202011A
:1001100021758B00D0E0D0D0D297D295D293D2AFB8
:1001200032758B00D0E0D0D0D2AF32419DE5256052
:100130000A207D02C297307D02C293D295419DE58F
:10014000256002C295207D02D293307D02D2974174
:100150009DE525600A207D02C293307D02C2972072
:100160007D02D297307D02D293419D207D02C296BE
:10017000307D02C292207D02C292307D02C296740E
:1001800006D5E0FDE525600A207D02C297307D029C
:10019000C293D295419D207D02C296307D02C292CB
:1001A000C2947406D5E0FDE525600A207D02C29761
:1001B000307D02C293D295419DC294207D02C296A9
:1001C000307D02C2927406D5E0FDE5256002C2953D
:1001D000207D02D293307D02D297419DC294207D32
:1001E00002C292307D02C2967406D5E0FDE525601C
:1001F00002C295207D02D293307D02D297419D208C
:100200007D02C292307D02C296C2947406D5E0FD92
:10021000E525600A207D02C293307D02C297207DD1
:1002200002D297307D02D293419D207D02C292304E
:100230007D02C296207D02C296307D02C292740673
:10024000D5E0FDE525600A207D02C293307D02C223
:1002500097207D02D297307D02D293419D30723D2E
:10026000E53C20E21A20E129207D02C296307D0281
:10027000C292207D02C292307D02C29602029D206F
:10028000E1E6207D02C296307D02C292C294020253
:100290009DC294207D02C292307D02C296E525F473
:1002A000F58A758B00D262D0E0D0D0D2AF32C2AF27
:1002B000C2AD53E6EFC0D0C0E0D2D3D2AFC2CEE5DC
:1002C0002960072074461529610C78007900E580C3
:1002D000307E01F430E50278FF53DACF207E03430D
:1002E000DA20307E0343DA10C2D8C271E580307E56
:1002F00001F430E50279FFC3E89970CE30610375EF
:1003000029182074037529188859D270E52A6004C9
:10031000152A611C20740543DA01C2D820700261DD
:1003200083A859206102C2702074367982B70431E3
:10033000C3E894F0400374F0F8E8C4540F28F87947
:1003400084B703026161C313C3138721200802C36A
:1003500013200A06C3C898F8616128F8500374FF97
:10036000F88822306915E5222408F5225003752209
:10037000FFC3E522955E4003855E227882B60418AD
:10038000852224A824C3E524955E4002A85EC3E824
:1003900095604002A8608825C3E52594404002D2BC
:1003A0006420CF0CD0E0D0D0C2D343E610D2AD321F
:1003B000C2CF7801E52960053074021529C3E559DB
:1003C00094014005755C0061DA755D00756400E5B7
:1003D0005C2401F55C5003755CFFD0E0D0D0C2D343
:1003E00043E610D2AD32C0D0C0E0C2AF53917F53CC
:1003F000E67FC260759100C3E49550F594E4955191
:10040000F595759104D0E0D0D0D2AF32C2AF53E6AB
:10041000EFC2ADC0D0C0E0C0F0D2D3D2AFA8FBA92C
:10042000FCC2D8307102817353DACF207E0343DAE5
:1004300010307E0343DA20D271E580307E01F42053
:10044000E502814A88268927C1AF53DACF207E038F
:1004500043DA20307E0343DA10C2D8C2713074020E
:10046000C19B7800E580307E01F430E502C19B88B5
:0F04700059C18253DACF207E0343DA20307E0356
:10047F0043DA10C271206102A14353DACF207E0309
:10048F0043DA10307E0343DA20C2D8D27188548900
:10049F0055C3E89552F8E99553F9E4FB7E027A00CB
:1004AF00C3E8948CE994005005755800A133C3E854
:1004BF0094C8E994005008E4D2E4FB7A0AA110C36F
:1004CF00E89468E994015008E4D2E3FB7A0FA11095
:1004DF00C3E894D0E994025008E4D2E2FB7A1EA15B
:1004EF0010C3E894A0E994055008E4D2E1FB7A3CEC
:1004FF00A110C3E89498E994085008E4D2E0FB7A7D
:10050F00787E00C3E89556FCE99557FD30E708EC77
:10051F00F42401FCEDF4FD755800C3EC9AED9E50E8
:10052F000375580188568957A854A955885289537D
:10053F007802C182C3E89526F8E99527F9307C0245
:10054F00C166307B02C166307A02C15F207502A19D
:10055F0066E9FDE8FCA185E9C313F9E813F83079E2
:10056F0002C15FE9C313F9E813F8307802C15FE9FC
:10057F00C313FDE813FC206126C3EC941CED940219
:10058F004002A19CED7018C3EC94C850120528C30B
:10059F00E528940A5002C19B755900D270C19BE5A2
:1005AF0028600215287400207F0B7888E67896B4AF
:1005BF000302789EE624FAFEE43400FFC3EC9EFCAF
:1005CF00ED9FFD92087888E6B40327A20850092012
:1005DF007D20C2AFD27DA1EE307D17C2AFC27DD2DA
:1005EF0097D295D293C296C294C292206902D26BCF
:1005FF00D2AFA2085017E6B4030DECF42401FCEDC2
:10060F00F43400FD02061C78007900C1667888E694
:10061F00B40315EC33FCED33FDC3EC940AFCED94FD
:10062F0000FD50047C007D00C3EC94FFED9400406E
:10063F000678FF7900C166EC856FF0A4C5F0A2F7CC
:10064F0033F87900400302068278FF7900020682B0
:10065F00E9C313F9E813F8307C0EE9600278FFC3A1
:10066F00E81338F8E43400F9C3E894FFE994004044
:10067F000278FF8859D270206102C19B741FF45514
:10068F002F4BF52FC274E42B7002D27475291830DA
:10069F00740375290A306102C1AF20740353DAFE67
:1006AF00752A06307403752A0AD0F0D0E0D0D0C274
:1006BF00D3D2AD43E6103279010206E47903020684
:1006CF00E4790A0206E4791E0206E479640206E47C
:1006DF0079C80206E47817E4D5E0FDD8FAD9F622F6
:1006EF007A147B7802070B7A107B8C02070B7A0D3A
:1006FF007BB402070B7A0B7BC802070BAC25752561
:10070F00017902B27DE4C294D5E0FDE5256002C215
:10071F0095D5E0FDD295D5E0FDD294D5E0FDE52548
:10072F00600A207D02C297307D02C293E570D5E04A
:10073F00FD207D02D297307D02D2937496D5E0FDD5
:10074F00D9C1EAF8D5E0FDD8FBDBB1C2948C2522E4
:10075F00C37C007D0075F00005F0EA33FAEB33FB44
:10076F0050F6EB13FBEA13FAC3E9FFE8FEE89AF839
:10077F00E99BF95004EFF9EEF8B3EC33FCED33FDE0
:10078F00D5F0DFEDF9ECF822E889F08A20D2D4F821
:10079F00A9F07B0030F70B7BFFF42401F8E9F43468
:1007AF0000F9E88520F0A4ADF0F8E98520F0A4AFBA
:1007BF00F0FEED2EF974003FFA7C04C3EA13FAE958
:1007CF0013F9E813F8DCF48BF030F70AE8F424019E
:1007DF00F8E9F43400F9E889F0C2D4F8A9F02278E6
:1007EF0082B6040302084BC3E55994014003020883
:1007FF0013852224E4F53EF53FF540F541F542F52A
:10080F004702084B7882E6FC754701E522F523780D
:10081F003879C7AA3AAB3BC3EB13FBEA13FAEC14D4
:10082F006013C3EB13FBEA13FAEC14146007C3EB6A
:10083F0013FBEA13FA12075F883E893F22E54760F0
:10084F0034C3E53E9523F8E53F9400F9500CC3E817
:10085F009480E994FF4016020880C3E8947FE994DE
:0F086F00005003020880787F79000208807880AB
:10087E0079FF8843894422E5476058E5432540F8CF
:10088E00E5443541F9854420E4300701F43542FA58
:10089E0030E709C3EA94F040150208C2C3EA940F88
:1008AE0050030208C278FF79FF7A0F0208C278005F
:1008BE0079007AF0C3E524955E5006E524600901BF
:1008CE00DBE54420E70D01DBE54430E7068840898F
:1008DE00418A4222E547700302094678A1E6FAC32F
:1008EE00E54333F8E54433F9120797E930E70BC3D4
:1008FE00E89480E994FF4013211DC3E8947FE994A6
:10090E00005002211D787F7900211D788079FFE843
:10091E0020E715C3E52398F84009C3E89401400386
:10092E000209447801020944E8F424012523F84021
:10093E000302094478FF884522E54770030209A99E
:10094E0078A2E6FAA841A942120797E930E70CC34C
:10095E00E89401E994FF4016020980C3E894FFE988
:10096E009400500302098078FF7900020980780113
:10097E0079FFE920E715C3E54598F84009C3E894E7
:10098E000140030209A778000209A7E8F424012513
:10099E0045F840030209A778FF88242278FFC26435
:1009AE00E52D5406702FD264C3E53B940A4009C36B
:1009BE00E52594405002C264E53B601974FF853B07
:1009CE00F0848537F0A4F8C5F0600278FFC3E8958F
:1009DE00615002A8618860227883E6F520120F53D9
:1009EE0075E8901206C675E890E5E820ECFBA8BD08
:1009FE00A9BE121001756B55756C00C3740013FD02
:100A0E00745513FC74552CFC74003DFDECFAEDFB93
:100A1E00C3E89AE99B4014E56B2455F56BE56C34FD
:100A2E0000F56CEA2CFAEB3DFB80E5AE6BAF6CC3C8
:100A3E00E56C13F9E56B13F8C3E913F9E813F8E560
:100A4E006B28F569E56C39F56A7A03C3E913F9E8A1
:100A5E0013F8DAF7AA201A7009756B00756C00028C
:100A6E000A801AEA6008EE28FEEF39FFDAF88E6B7C
:100A7E008F6C2275E890227883E6FFE5E820ECF78C
:100A8E00A8BDA9BE056DC3E56D94084052756D00F5
:100A9E00E9FA79A0E76044EA7007E56E601B020A86
:100AAE00BBC3E8956E6010E56E5006600C14020A2A
:100ABE00C70460F9020AC7E56EF56EC3946D401B5C
:100ACE00755EC0C394044013755E80C39404400BDE
:100ADE00755E40C394044003755E0075BB0822EF3B
:100AEE00C39401601BC3E894FFE994035012C3E85A
:100AFE00956BE9956C5009E55E601A155E020B2345
:100B0E00E55EF46010055E7888E6B40308E55E24C1
:100B1E00044002F55EA85EC3E524985002A824C3E3
:100B2E00E8955F400AA85FE55FF46003855F5E7934
:100B3E0082B70402614EC3E895604002A860882522
:100B4E00E56DB4070375BB1022743279A387F0A448
:100B5E00C5F0A2F733F8C3E8955E4002A85E88227E
:100B6E0088248825886122753A00753B7F2275C8D6
:100B7E0020A8CCA9CD75C824AA38AB3988388939B4
:100B8E00C3E89AF8E99BF9AA3AAB3BAC3AAD3B7E87
:100B9E00047F02C3EB940440021E1FC3EB94084073
:100BAE00021E1FC3ED13FDEC13FCDEF7C3EA9CFA25
:100BBE00EB9DFBEF6009C3E913F9E813F8DFF7EAE1
:100BCE0028FAEB39FB8A3A8B3B400122753AFF75C6
:100BDE003BFF2230600261E1854C50854D51D26061
:100BEE0043E680227892E6FFC3E535948240010FFA
:100BFE00C3E53594A040010FC3EF940640027F0574
:100C0E007E021E3072010EC3E53B940350060E0E9B
:100C1E003072010EC3E53B940250060E0E30720187
:100C2E000EA93BA83A7A04C3E913F9E813F8DAF7E8
:100C3E00C3E89EF8E99400F94009C3E89402E994E8
:100C4E000050047802E4F9E9FBE8FAC3E913FDE881
:100C5E0013FC884C894DC3EF94036037EF20E00DF1
:0F0C6E00E82CF8E93DF9ECFAEDFB020C8EE828D2
:100C7D00F8E939F9C3E89402F8E99400F97A02E445
:100C8D00FBC3EF9403400D8A4E8B4F884889498CE6
:100C9D004A8D4B22884E894F8A488B498C4A8D4B01
:100CAD002230600281AED26043E680E52D540660AD
:100CBD0027A83AA93BE53494085006E820E002A99C
:100CCD004D759100C3E498F594E499F595759104EB
:100CDD00D26053917F43E68022D265753D00752029
:100CED0000020CF9D265753D00752040E52D5406C6
:100CFD006002C265D2AF206005E53D60012278013A
:100D0D007A02C3E53B940540027802C3E53B940AA1
:100D1D0040027803C3E53B940F40027A0330690427
:100D2D00781E7A01206007E53D6003D2AF22D2AF75
:100D3D000000C2AFC3E53BFB940F40027B0FEB04F9
:100D4D003073012320620123F93069027982E58B2A
:100D5D00C39940D0053DEAFBE59B5440B52004DB2B
:100D6D00F7A19420650281F9C265759100AE3AAF85
:100D7D003BC3E49EF594E49FF595759104D26053C1
:100D8D00917F43E68081F930650281F9D896D2AF23
:100D9D002230690B0534206016753400020DBC201D
:100DAD00600D20650A206B071581158102169D22A5
:100DBD00A84EA94F75910053917FC3E498F594E423
:100DCD0099F595759104854850854951D26043E652
:100DDD00802278003064053065027801E53575F0C4
:100DED0007A4F9E5F028F5F0E9A2F013A2F113A29A
:100DFD00F213F535C394785003753578C3E5359501
:100E0D00364008D266D297D295D293306002C1187F
:100E1D00854A50854B51D26043E68022C2AFC296BF
:100E2D00C294C29230720B9001FF7406D5E0FD02A0
:100E3D000E67E53B54F86022E525600A207D02C26D
:100E4D0097307D02C293740FD5E0FD207D02D297BD
:100E5D00307D02D2937406D5E0FD207D02D296300E
:100E6D007D02D292759F10753C02020FE6C2AF2033
:100E7D007D02D293307D02D2973072179001DCC281
:100E8D0094207D02C292307D02C2967406D5E0FD9B
:100E9D00020EA390013F306206E5256002C2952047
:100EAD007D03759F13307D03759F11753C03020FF4
:100EBD00E6C2AFC296C294C29230720B9001B97461
:100ECD0006D5E0FD020EFCE53B54F86022E52560F9
:100EDD000A207D02C293307D02C297740FD5E0FDCA
:100EED00207D02D293307D02D2977406D5E0FD208D
:100EFD007D02D292307D02D296207D03759F1130F6
:100F0D007D03759F13753C04020FE6C2AFD2953079
:100F1D007217900196207D02C296307D02C292C258
:100F2D00947406D5E0FD020F3990012D30620EE567
:100F3D0025600A207D02C297307D02C293759F10F5
:100F4D00753C05020FE6C2AFC296C294C2923072D2
:100F5D000B90016B7406D5E0FD020F81E53B54F853
:100F6D006012E5256002C295740FD5E0FDD295742F
:100F7D0006D5E0FDD294207D03759F13307D03755A
:100F8D009F11753C06020FE6C2AF207D02D297304D
:100F9D007D02D29330721F90022A207D02C29630BC
:100FAD007D02C292207D02C292307D02C2967406ED
:100FBD00D5E0FD020FC690015130620EE525600AA5
:100FCD00207D02C293307D02C297207D03759F1153
:100FDD00307D03759F13753C01306B131210017436
:100FED0006D5E0FD7406D5E0FDD296D294D292C21C
:100FFD0066D2AF2290012BD297D295D293C296C2D0
:10100D0094C292C262227880760908760908760425
:10101D000876010876030876FF0876090876010838
:10102D007601087601788C76000876FF0876FF0841
:10103D0076FF0876FF0876FF0876030876FF0876B8
:10104D00FF0876FF0876030876FA087628087650AA
:10105D000876050876FF08760208760008767D0882
:0F106D0076FF087600227887E6FFC272BF030283
:10107C00D2727888E6C394036008C27DE630E10240
:10108C00D27DC27E7889E630E102D27EC3EF940233
:10109C006008758E01D2730210AB758E00C273227C
:1010AC007880E6149000809378A1F67881E614900D
:1010BC0000809378A2F61101227886E61490008DB8
:1010CC009378A3F611012222789CE67536FF7537CA
:1010DC000CB402067536A075370AB4030675368251
:1010EC0075370522227896E6FA7897E6FB307F046E
:1010FC007A007BFFC3EB9AFCC3948250027C82750E
:10110C006F00056FEC856FF0A4C3E5F0948040F29E
:10111C0022D27F11F11206D57A007B007C101206C8
:10112C00CBE5592AFA74003BFBDCF37C04C3EB13CC
:10113C00FBEA13FADCF7FEC27F11F122E5EF20E6A1
:10114C00037520000520903FFFE520146006901DDC
:10115C00FF1460009304600375EF12C2D353D9BF20
:10116C007581C043FF801206C675EF0243B203E5DA
:10117C00B3240420E702F5B311017580FF75A400B8
:10118C0075F1B275D4DF7590A975A5FC75F2FC7577
:10119C00D50175A60175E241111312170D789886C9
:1011AC0070C2AF1206DF1207041207041206DA121D
:1011BC0006DA1206DA1206DA12070412070412060D
:1011CC00DA1206DA1206D51206D51207041206D563
:1011DC001206D51207041207041206DA1206DA12E6
:1011EC0006DA1206DA1207041207041206DA1206DD
:1011FC00DA1206DA1206DA1206FD1206FD1206DA09
:10120C001206DA1206DA1206DA1206EF1206EF12DC
:10121C0006DA1206DA1206D51206D51206FD1206E9
:10122C00D51206D51207041207041206DA1206DAD2
:10123C001206DA1206DA1206DA1206DA1206DA12D6
:10124C0006DAC2AFE4F8F6D8FD78C879C830850460
:10125C00D9FBD8F7111312170D117311AC11C5115D
:10126C00D311D411F011F178988670110175885052
:10127C0075891275C82475910475D84075A82275A6
:10128C00B80275E690759B80759D0075D10E75BC86
:10129C005875BB0875BA1175E8801206C6D2AF1224
:1012AC0009E643DA01C2D8C2711206DF753001D2E9
:1012BC00617B037A0CE55870067A0CDB02414E1206
:1012CC0006D5207002414EC270E559C3940240E32A
:1012DC00E52F541F855B5AF55BB55AD7DAD7C26137
:1012EC0053DACF207E0343DA20307E0343DA10C278
:1012FC00D8C271C2757528001206DA307409C3E5BC
:10130C0028940A4002D2751206CB78023074027807
:10131C0000C3E5599840F0C2AF1206EF1206D51281
:10132C0006EF1206D51206F61206D51206F6D2AF45
:10133C001206DF7546007888E6B40302811E120699
:10134C00CB788CE6C39401500302141EE530C39491
:10135C0001500302141E207435C3E55994FF500349
:10136C0002141EC2AF120704D2AF1206DAC3E5593B
:10137C00940150EFC2AF1206EF1206D01206EFD254
:10138C00AF1206DAC3E55994FF40E90218737F02E5
:10139C00D27F11F11206DAC2AFC27F11F1AE59C37E
:1013AC00E559947FD2AF40741206C6C2AF1207043F
:1013BC00D2AFDFDC311DC3EE94057897F61206DF51
:1013CC0012170D1217F67F0AD27F11F11206DAC22C
:1013DC00AFC27F11F1AE59C3E559947FD2AF50E63D
:1013EC001206C6C2AF1206EF1206D01206EFD2AF2B
:1013FC00DFD6311DEE24057896F61206DF12170D96
:10140C001218251206DA11F1C3E55994FF40F402C3
:10141C001873C3E559954640038559461206DA7888
:10142C00017988E7B403027805C3E5599840026155
:10143C0042C2AF1207041206D51207041206D512C7
:10144C0006FD1206D51206FDD2AF1206DF7530006E
:10145C00E4F531F5320531E531F470390532789A1D
:0E146C00E67819146012783214600D787D1441
:10147A00600878FA146003753200C3E532984017A1
:10148A0015327531B478998670C2AF120704D2AF9B
:10149A00789886701206DA1206D0E529700530743B
:1014AA0002414E78012074027806C3E5599840A794
:1014BA007888E6C3940360031206DAE529700241CC
:1014CA004EC2AF1101E4F522F523F524F525D2AF7A
:1014DA0078858662F53EF53FF540F541F542F56DB2
:1014EA00F547F52CF52DF535120B75756D0875BB9D
:1014FA00101206C6120A81E5E820ECFBA8BDA9BEB7
:10150A00E97001F8886E120A85756D0875BB107846
:10151A0087E6FE760211737887EEF6C2AF755EFF34
:10152A00120B5785225E85225F852260D2AF752213
:10153A0001752401752501855D64756501D268D23E
:10154A0069753400120F53120F95120B75120B7C2A
:10155A00120BF202156A11011173756D0075BB0841
:10156A00120CF1120D9E120DBD1207EE120DDF12B2
:10157A000E29120B7C120BE1120BF2120CAE120C9A
:10158A00E6120D9E120DBD12084C1209AA120DDFA9
:10159A00120E7A120B7C120BE1120BF2120CAE1223
:1015AA000CF1120D9E120DBD120885120DDF120EDE
:1015BA00BE120B7C120BE1120BF2120CAE120CE6ED
:1015CA00120D9E120DBD1208E2120DDF120F181233
:1015DA000B7C120BE1120BF2120CAE120CF1120D73
:1015EA009E120DBD120947120DDF120F53120B7C0A
:1015FA00120BE1120BF2120CAE120CE6120A811255
:10160A000D9E120DBD120A85120DDF120F95120BD7
:10161A007C120BE1120BF2120CAE306938206B35DA
:10162A0085615E85615F855D6475650179327A0AD7
:10163A00C3E534994012C269D26A8A3385615E75FC
:10164A005FFF75602002165FC3E5599401400302EB
:10165A00156A02169D306A1E206B1BE5331470074B
:10166A00C26A755EFFA160F533C3E5599401400370
:10167A0002156A02169DC3E55C94FA50163074048A
:10168A00E529600FC3E53B78F0306B02786098502B
:10169A0002A16AC2AF11017887E6FE760211737859
:1016AA0087EEF6E4F522F523F524F525F562C268FE
:1016BA00D2AF1206C61101307406E5297002414EF6
:1016CA00815C901A0D782012174FE520B4550CA3AF
:1016DA0012174FE520B4AA030216ED111312170DC3
:1016EA0002170C901A0378807B0A12174FA308DBA3
:1016FA00F9901A0F788C7B1512174FA308DBF99013
:10170A001A2422C2AF12178E121768901A00740D8B
:10171A00121754A37402121754A374131217549075
:10172A001A0378807B0A121753A308DBF9901A0F61
:10173A00788C7B15121753A308DBF91217A112171D
:10174A007F901A2422E493F622E6438F01538FFDF9
:10175A0075EF0275B7A575B7F1F0538FFE22438F67
:10176A0002438F0175EF0275B7A575B7F1901A0D8F
:10177A00F0538FFC22901A0D7455F154901A0E747E
:10178A00AAF154227A3079D07820901A40F14FE5A4
:10179A0020F709A3DAF7227A3079D0901A40E7F1D4
:1017AA005409A3DAF922AB71A872BB01027980BB92
:1017BA0002027981BB03027982BB04027984BB05E8
:1017CA00027983BB06027986BB07027992BB0802BB
:1017DA007987BB0902799CBB0A027988BB0B02791B
:1017EA0089E8F7227C051206DFDCFB22C2AF12066B
:1017FA00EF1206F61206FD1207041206D01206EFC1
:10180A001206F61206FD1207041206D01206EF128D
:10181A0006F61206FD120704D2AF22C2AF1207045F
:10182A001206FD1206F61206EF1206D0120704126D
:10183A0006FD1206F61206EF1206D0120704120669
:10184A00FD1206F61206EFD2AF22AE71AF72C2AF28
:10185A001206EF1206EF1206EF1206D0DEF2120798
:0F186A00041206D0DFF8D2AF221217F61217EED3
:101879001217EE75710175720175730011547C05AB
:10188900AD591206DFC3ED955970F5C3E5599401B9
:10189900400AC3E55994FF40370218B61217B0122F
:1018A900170D1217F6C2AF75EF121217EEDCD1053C
:1018B90073C3E5739403500280C21217EE0572E5F3
:1018C900711490009A93F808C3E57298500280A9A0
:1018D9001217EE1217EE0571C3E571940C500280D0
:0F18E9009512101312170DC2AF75EF121217EEF2
:101A00000D02130909040103FF0901010155AA0090
:101A1000FFFFFFFFFF03FFFFFF03FA285005FF0250
:051A2000007DFF00FF46
:101A400023536B7977616C6B6572343041232020AE
:101A500023424C48454C4923463333302320202031
:101A60002020202020202020202020202020202076
:00000001FF
