:030000000210E902
:03000B000200A54B
:03002B000202AB23
:03005B0002040993
:030073000203E3A2
:1000800002030406080C10182030406080040608A3
:100090000C10182030406080A0C00D0D0405060D26
:1000A0000502030302C2AFC0D0C0E020620C20688A
:1000B00002419A306602415AE47385258AC262E59C
:1000C00025F470022121206802210E758B00D0E0FA
:1000D000D0D0C293C295C297D2AF32C293C295C25A
:1000E00097740AD5E0FDE53C1420E21520E10D20CF
:1000F0007D02D296307D02D29202011ED29402017C
:100100001E207D02D292307D02D29602011E758B96
:1001100000D0E0D0D0C293C295C297D2AF32758BD7
:1001200000D0E0D0D0D2AF32419AE525600A207DE0
:1001300002D293307D02D297C295419AE5256002A2
:10014000D295207D02C297307D02C293419AE52567
:10015000600A207D02D297307D02D293207D02C2B8
:1001600093307D02C297419A207D02C292307D0277
:10017000C296207D02C296307D02C292740AD5E0FA
:10018000FDE525600A207D02D293307D02D297C220
:1001900095419A207D02C292307D02C296C294742B
:1001A0000AD5E0FDE525600A207D02D293307D026C
:1001B000D297C295419AC294207D02C292307D02AC
:1001C000C296740AD5E0FDE5256002D295207D0235
:1001D000C297307D02C293419AC294207D02C2969A
:1001E000307D02C292740AD5E0FDE5256002D29509
:1001F000207D02C297307D02C293419A207D02C2C7
:1002000096307D02C292C294740AD5E0FDE5256065
:100210000A207D02D297307D02D293207D02C293C4
:10022000307D02C297419A207D02C296307D02C283
:1002300092207D02C292307D02C296740AD5E0FD02
:10024000E525600A207D02D297307D02D293207D81
:1002500002C293307D02C297419A30723DE53C2044
:10026000E21A20E129207D02C292307D02C296204E
:100270007D02C296307D02C29202029A20E1E620FF
:100280007D02C292307D02C296C29402029AC2944A
:10029000207D02C296307D02C292E525F4F58A7572
:1002A0008B00D262D0E0D0D0D2AF32C2AFC2AD5359
:1002B000E6EFC0D0C0E0D2D3D2AFC2CEE52960070E
:1002C0002074461529610978007900E580307E01A7
:1002D000F430E30278FF53DACF207E0343DA203094
:1002E0007E0343DA10C2D8C271E580307E01F4305B
:1002F000E30279FFC3E89970CE30610375291820B5
:1003000074037529188859D270E52A6004152A618A
:100310001920740543DA01C2D82070026180A859FF
:10032000206102C2702074367982B70431C3E89428
:10033000F0400374F0F8E8C4540F28F87984B70348
:1003400002615EC313C3138721200802C313200A6E
:1003500006C3C898F8615E28F8500374FFF8882235
:10036000306915E5222408F52250037522FFC3E504
:1003700022955E4003855E227882B6041885222489
:10038000A824C3E524955E4002A85EC3E8956040BA
:1003900002A8608825C3E52594404002D26420CF9E
:1003A0000CD0E0D0D0C2D343E610D2AD32C2CF7869
:1003B00001E52960053074021529C3E5599401400F
:1003C00005755C0061D7755D00756400E55C24010E
:1003D000F55C5003755CFFD0E0D0D0C2D343E6108B
:1003E000D2AD32C0D0C0E0C2AF53917F53E67FC2DE
:1003F00060759100C3E49550F594E49551F59575B9
:100400009104D0E0D0D0D2AF32C2AF53E6EFC2AD4C
:10041000C0D0C0E0C0F0D2D3D2AFA8FBA9FCC2D8F4
:10042000307102817053DACF207E0343DA10307EC0
:100430000343DA20D271E580307E01F420E30281AB
:100440004788268927C1AC53DACF207E0343DA20C0
:10045000307E0343DA10C2D8C271307402C198787A
:1004600000E580307E01F430E302C1988859C17FF5
:0F04700053DACF207E0343DA20307E0343DA10C5
:10047F00C271206102A14053DACF207E0343DA100C
:10048F00307E0343DA20C2D8D27188548955C3E82D
:10049F009552F8E99553F9E4FB7E027A00C3E8948C
:1004AF008CE994005005755800A130C3E894C8E951
:1004BF0094005008E4D2E4FB7A0AA10DC3E89468D3
:1004CF00E994015008E4D2E3FB7A0FA10DC3E8943D
:1004DF00D0E994025008E4D2E2FB7A1EA10DC3E8E2
:1004EF0094A0E994055008E4D2E1FB7A3CA10DC336
:1004FF00E89498E994085008E4D2E0FB7A787E00FB
:10050F00C3E89556FCE99557FD30E708ECF4240154
:10051F00FCEDF4FD755800C3EC9AED9E5003755831
:10052F000188568957A854A955885289537802C112
:10053F007FC3E89526F8E99527F9307C02C163302F
:10054F007B02C163307A02C15C207502A163E9FDB1
:10055F00E8FCA182E9C313F9E813F8307902C15C12
:10056F00E9C313F9E813F8307802C15CE9C313FD4E
:10057F00E813FC206126C3EC941CED94024002A109
:10058F0099ED7018C3EC94C850120528C3E5289450
:10059F000A5002C198755900D270C198E5286002BF
:1005AF0015287400207F0B7888E67896B4030278BC
:1005BF009EE624FAFEE43400FFC3EC9EFCED9FFDA3
:1005CF0092087888E6B40327A2085009207D20C23C
:1005DF00AFD27DA1EB307D17C2AFC27DC293C29562
:1005EF00C297C292C294C296206902D26BD2AFA2B6
:1005FF00085017E6B4030DECF42401FCEDF43400BD
:10060F00FD02061978007900C1637888E6B40315F6
:10061F00EC33FCED33FDC3EC940AFCED9400FD507C
:10062F00047C007D00C3EC94FFED9400400678FF3E
:10063F007900C163EC856FF0A4C5F0A2F733F879A8
:10064F0000400302067F78FF790002067FE9C3139B
:10065F00F9E813F8307C0EE9600278FFC3E813382D
:10066F00F8E43400F9C3E894FFE99400400278FFFE
:10067F008859D270206102C198741FF4552F4BF521
:10068F002FC274E42B7002D274752918307403755D
:10069F00290A306102C1AC20740353DAFE752A06B1
:1006AF00307403752A0AD0F0D0E0D0D0C2D3D2ADC7
:1006BF0043E6103279010206E179030206E1790A75
:1006CF000206E1791E0206E179640206E179C802A9
:1006DF0006E17817E4D5E0FDD8FAD9F6227A147B33
:1006EF00780207087A107B8C0207087A0D7BB40218
:1006FF0007087A0B7BC8020708AC2575250179021C
:10070F00B27DE4C294D5E0FDE5256002D295D5E037
:10071F00FDC295D5E0FDD294D5E0FDE525600A2018
:10072F007D02D293307D02D297E570D5E0FD207D1A
:10073F0002C293307D02C2977496D5E0FDD9C1EA0B
:10074F00F8D5E0FDD8FBDBB1C2948C2522C37C0029
:10075F007D0075F00005F0EA33FAEB33FB50F6EB52
:10076F0013FBEA13FAC3E9FFE8FEE89AF8E99BF9ED
:10077F005004EFF9EEF8B3EC33FCED33FDD5F0DFB9
:10078F00EDF9ECF822E889F08A20D2D4F8A9F07BB1
:10079F000030F70B7BFFF42401F8E9F43400F9E89B
:1007AF008520F0A4ADF0F8E98520F0A4AFF0FEEDC0
:1007BF002EF974003FFA7C04C3EA13FAE913F9E83F
:1007CF0013F8DCF48BF030F70AE8F42401F8E9F4BD
:1007DF003400F9E889F0C2D4F8A9F0227882B6047F
:1007EF0003020848C3E5599401400302081085220B
:1007FF0024E4F53EF53FF540F541F542F547020893
:10080F00487882E6FC754701E522F523783879C7E9
:10081F00AA3AAB3BC3EB13FBEA13FAEC146013C316
:10082F00EB13FBEA13FAEC14146007C3EB13FBEAA8
:10083F0013FA12075C883E893F22E5476034C3E50F
:10084F003E9523F8E53F9400F9500CC3E89480E9F6
:10085F0094FF401602087DC3E8947FE9940050038B
:0E086F0002087D787F790002087D788079FF8D
:10087D008843894422E5476058E5432540F8E5441F
:10088D003541F9854420E4300701F43542FA30E76B
:10089D0009C3EA94F040150208BFC3EA940F500350
:1008AD000208BF78FF79FF7A0F0208BF7800790040
:1008BD007AF0C3E524955E5006E524600901D8E57C
:1008CD004420E70D01D8E54430E706884089418A88
:1008DD004222E547700302094378A1E6FAC3E543D6
:1008ED0033F8E54433F9120794E930E70BC3E89484
:1008FD0080E994FF4013211AC3E8947FE9940050D6
:10090D0002211A787F7900211A788079FFE820E793
:10091D0015C3E52398F84009C3E894014003020983
:10092D00417801020941E8F424012523F84003022E
:10093D00094178FF884522E54770030209A678A290
:10094D00E6FAA841A942120794E930E70CC3E894EE
:10095D0001E994FF401602097DC3E894FFE9940074
:10096D00500302097D78FF790002097D780179FF36
:10097D00E920E715C3E54598F84009C3E89401401F
:10098D00030209A478000209A4E8F424012545F81E
:10099D0040030209A478FF88242278FFC264E52D64
:1009AD005406702FD264C3E53B940A4009C3E52574
:1009BD0094405002C264E53B601974FF853BF0849E
:1009CD008537F0A4F8C5F0600278FFC3E895615053
:1009DD0002A8618860227883E6F520120F0F75E872
:1009ED00901206C375E890E5E820ECFBA8BDA9BE02
:1009FD00120FA5756B30756C00C3740013FD743048
:100A0D0013FC74302CFC74003DFDECFAEDFBC3E8D7
:100A1D009AE99B4014E56B2430F56BE56C3400F5D9
:100A2D006CEA2CFAEB3DFB80E5AE6BAF6CC3E56C6D
:100A3D0013F9E56B13F8C3E913F9E813F8E56B281F
:100A4D00F569E56C39F56A7A03C3E913F9E813F82A
:100A5D00DAF7AA201A7009756B00756C00020A7D11
:100A6D001AEA6008EE28FEEF39FFDAF88E6B8F6C0C
:100A7D002275E890227883E6FFE5E820ECF7A8BD23
:100A8D00A9BE056DC3E56D94084052756D00E9FA78
:100A9D0079A0E76044EA7007E56E601B020AB8C3EF
:100AAD00E8956E6010E56E5006600C14020AC404E1
:100ABD0060F9020AC4E56EF56EC394A8401B755E1D
:100ACD00C0C394054013755E80C39405400B755EDD
:100ADD0040C394054003755E0075BB0122EFC394BE
:100AED0001601BC3E894FFE994035012C3E8956BB2
:100AFD00E9956C5009E55E601A155E020B20E55E06
:100B0D00F46010055E7888E6B40308E55E240440C1
:100B1D0002F55EA85EC3E524985002A824C3E895AB
:100B2D005F400AA85FE55FF46003855F5E7982B779
:100B3D000402614BC3E895604002A8608825E56D0D
:100B4D00B4070375BB1E22743279A387F0A4C5F0D8
:100B5D00A2F733F8C3E8955E4002A85E8822882488
:100B6D008825886122753A00753B7F2275C820A8BB
:100B7D00CCA9CD75C824AA38AB3988388939C3E8D2
:100B8D009AF8E99BF9AA3AAB3BAC3AAD3B7E047FB0
:100B9D0002C3EB940440021E1FC3EB940840021ED7
:100BAD001FC3ED13FDEC13FCDEF7C3EA9CFAEB9DBE
:100BBD00FBEF6009C3E913F9E813F8DFF7EA28FA48
:100BCD00EB39FB8A3A8B3B400122753AFF753BFFAF
:100BDD002230600261DE854C50854D51D26043E676
:100BED0080227892E6FFC3E535948240010FC3E57C
:100BFD003594A040010FC3EF940640027F057E029D
:100C0D001E3072010EC3E53B940350060E0E30727A
:100C1D00010EC3E53B940250060E0E3072010EA973
:100C2D003BA83A7A04C3E913F9E813F8DAF7C3E8F5
:100C3D009EF8E99400F94009C3E89402E994005044
:100C4D00047802E4F9E9FBE8FAC3E913FDE813FCC3
:100C5D00884C894DC3EF94036037EF20E00DE82CED
:0F0C6D00F8E93DF9ECFAEDFB020C8BE828F8E909
:100C7C0039F9C3E89402F8E99400F97A02E4FBC369
:100C8C00EF9403400D8A4E8B4F884889498C4A8DCE
:100C9C004B22884E894F8A488B498C4A8D4B223087
:100CAC00600281ABD26043E680E52D54066027A834
:100CBC003AA93BE53494085006E820E002A94D75AA
:100CCC009100C3E498F594E499F595759104D2607C
:100CDC0053917F43E68022D265753D00752000025A
:100CEC000CF6D265753D00752040E52D540660026A
:100CFC00C265D2AF206005E53D60012278017A0221
:100D0C00C3E53B940540027802C3E53B940A4002DC
:100D1C007803C3E53B940F40027A03306904781ED4
:100D2C007A01206007E53D6003D2AF22D2AF00000C
:100D3C00C2AFC3E53BFB940F40027B0FEB04307357
:100D4C00012320620123F93069027982E58BC39972
:100D5C0040D0053DEAFBE59E7005E59B020D6DE577
:100D6C009A5440B52004DBEEA19A20650281F6C2AC
:100D7C0065759100AE3AAF3BC3E49EF594E49FF5E4
:100D8C0095759104D26053917F43E68081F630656E
:100D9C000281F6D88DD2AF2230690B053420601653
:100DAC00753400020DC220600D20650A206B0715FA
:100DBC0081158102165C22A84EA94F7591005391A2
:100DCC007FC3E498F594E499F595759104854850A2
:100DDC00854951D26043E680227800306405306545
:100DEC00027801E53575F007A4F9E5F028F5F0E98E
:100DFC00A2F013A2F113A2F213F535C394785003A9
:100E0C00753578C3E53595364008D266C293C295E0
:100E1C00C297306002C11E854A50854B51D2604347
:100E2C00E68022C2AFC292C294C29630720B90017D
:100E3C00FC740AD5E0FD020E45207D02D292307D75
:100E4C0002D296759F33759E00753C02020F8AC2C2
:100E5C00AF207D02C297307D02C293307217900191
:100E6C00D9C294207D02C296307D02C292740AD5FA
:100E7C00E0FD020E8490013C306206E5256002D252
:100E8C0095207D03759E23307D03759E22753C0352
:100E9C00020F8AC2AFC292C294C29630720B9001FA
:100EAC00B6740AD5E0FD020EB5207D02D296307DD7
:100EBC0002D292207D03759E22307D03759E237590
:100ECC003C04020F8AC2AFC2953072179001932076
:100EDC007D02C292307D02C296C294740AD5E0FDA6
:100EEC00020EF290012A30620EE525600A207D0286
:100EFC00D293307D02D297759F33759E00753C0559
:100F0C00020F8AC2AFC292C294C29630720B900189
:100F1C0068740AD5E0FD020F25D294207D03759EDE
:100F2C0023307D03759E22753C06020F8AC2AF20CA
:100F3C007D02C293307D02C29730721F900227202F
:100F4C007D02C292307D02C296207D02C296307D17
:100F5C0002C292740AD5E0FD020F6A90014E306213
:100F6C000EE525600A207D02D297307D02D29320B7
:100F7C007D03759E22307D03759E23753C01306B7D
:100F8C0013120FA5740AD5E0FD740AD5E0FDD292B8
:100F9C00D294D296C266D2AF22900128C293C29547
:100FAC00C297C292C294C296C26222788076090815
:100FBC0076090876040876010876030876FF087629
:100FCC0007087601087601087601788C7600087699
:100FDC00FF0876FF0876FF0876FF0876FF08760391
:100FEC000876FF0876FF0876FF0876030876FA087D
:100FFC0076280876500876050876FF08760208767B
:10100C000008767D0876FF087600227887E6FFC216
:10101C00727888E6C394036008C27DE630E102D2A0
:10102C007DC27E7889E630E102D27EC3EF94026005
:10103C0008758E01D27302104A758E00C273227825
:10104C0080E6149000809378A1F67881E6149000E5
:10105C00809378A2F6120FA5227886E61490008D64
:0F106C009378A3F6120FA52222789CE67536FF23
:10107B0075370CB402067536A075370AB4030675BE
:10108B00368275370522227896E6FA7897E6FB309A
:10109B007F047A007BFFC3EB9AFCC3948250027CE3
:1010AB0082756F00056FEC856FF0A4C3E5F094803B
:1010BB0040F222D27F11921206D27A007B007C1072
:1010CB001206C8E5592AFA74003BFBDCF37C04C317
:1010DB00EB13FBEA13FADCF7FEC27F119222E5EF6A
:1010EB0020E6037520000520903DFFE520146006E7
:1010FB00901FFF1460009304600375EF12C2D3536B
:10110B00D9BF7581C043FF801206C375EF0243B28E
:10111B0003E5B3240420E702F5B3120FA57580FF96
:10112B0075A40075F1FE75D4F775900275A5FC7565
:10113B00F2FC75D50075A0FD75A60275F30275D688
:10114B000075B0FF75A70175F4FF75E241120FB77B
:10115B001216CF78988670C2AF1206DC12070112F6
:10116B0007011206D71206D71206D71206D7120797
:10117B00011207011206D71206D71206D21206D297
:10118B001207011206D21206D21207011207011220
:10119B0006D71206D71206D71206D7120701120767
:1011AB00011206D71206D71206D71206D71206FA65
:1011BB001206FA1206D71206D71206D71206D71244
:1011CB0006EC1206EC1206D71206D71206D212063E
:1011DB00D21206FA1206D21206D212070112070118
:1011EB001206D71206D71206D71206D71206D71237
:1011FB0006D71206D71206D7C2AFE4F8F6D8FD7899
:10120B00C879C8308304D9FBD8F7120FB71216CFA1
:10121B001117114B11651174117511911192789869
:10122B008670120FA575885075891275C824759133
:10123B000475D84075A82275B80275E690759B8029
:10124B00759D00759A80759C0075D10E75BC58758F
:10125B00BB0175BA1F75E8801206C3D2AF1209E342
:10126B0043DA01C2D8C2711206DC753001D2617B40
:10127B00037A0CE55870067A0CDB0241031206D296
:10128B002070024103C270E559C3940240E3E52F7D
:10129B00541F855B5AF55BB55AD7DAD7C26153DA5F
:1012AB00CF207E0343DA20307E0343DA10C2D8C24C
:1012BB0071C2757528001206D7307409C3E52894DE
:1012CB000A4002D2751206C878023074027800C345
:1012DB00E5599840F0C2AF1206EC1206D21206EC9A
:1012EB001206D21206F31206D21206F3D2AF120670
:1012FB00DC7546007888E6B4030261DB1206C87819
:10130B008CE6C3940150030213DBE530C394015008
:10131B00030213DB207435C3E55994FF500302130A
:10132B00DBC2AF120701D2AF1206D7C3E559940146
:10133B0050EFC2AF1206EC1206CD1206ECD2AF1272
:10134B0006D7C3E55994FF40E90218357F02D27FD7
:10135B0011921206D7C2AFC27F1192AE59C3E55993
:10136B00947FD2AF40741206C3C2AF120701D2AF43
:10137B00DFDC11BEC3EE94057897F61206DC12166D
:10138B00CF1217B87F0AD27F11921206D7C2AFC203
:10139B007F1192AE59C3E559947FD2AF50E6120636
:1013AB00C3C2AF1206EC1206CD1206ECD2AFDFD6DB
:1013BB0011BEEE24057896F61206DC1216CF121724
:1013CB00E71206D71192C3E55994FF40F402183582
:1013DB00C3E559954640038559461206D7780179DE
:1013EB0088E7B403027805C3E55998400241FFC270
:1013FB00AF1207011206D21207011206D21206FA19
:10140B001206D21206FAD2AF1206DC753000E4F5E2
:10141B0031F5320531E531F470390532789AE678D9
:10142B0019146012783214600D787D14600878FA04
:10143B00146003753200C3E53298401715327531CD
:10144B00B478998670C2AF120701D2AF78988670C4
:10145B001206D71206CDE5297005307402410378C8
:0F146B00012074027806C3E5599840A77888E6F7
:10147A00C3940360031206D7E52970024103C2AF81
:10148A00120FA5E4F522F523F524F525D2AF7885C8
:10149A008662F53EF53FF540F541F542F56DF547B3
:1014AA00F52CF52DF535120B72756D0875BB1E12EC
:1014BA0006C3120A7EE5E820ECFBA8BDA9BEE970C6
:1014CA0001F8886E120A82756D0875BB1E7887E668
:1014DA00FE760211177887EEF6C2AF755EFF120B21
:1014EA005485225E85225F852260D2AF75220175FE
:1014FA002401752501855D64756501D268D2697517
:10150A003400120F0F120F39120B72120B79120BD1
:10151A00EF021529120FA51117756D0075BB01127F
:10152A000CEE120DA4120DC31207EB120DE5120EEA
:10153A002F120B79120BDE120BEF120CAB120CE30B
:10154A00120DA4120DC31208491209A7120DE512B1
:10155A000E5B120B79120BDE120BEF120CAB120C94
:10156A00EE120DA4120DC3120882120DE5120E9F7F
:10157A00120B79120BDE120BEF120CAB120CE312E8
:10158A000DA4120DC31208DF120DE5120ED1120BB3
:10159A0079120BDE120BEF120CAB120CEE120DA429
:1015AA00120DC3120944120DE5120F0F120B791214
:1015BA000BDE120BEF120CAB120CE3120A7E120DA9
:1015CA00A4120DC3120A82120DE5120F39120B79F9
:1015DA00120BDE120BEF120CAB306938206B35851B
:1015EA00615E85615F855D6475650179327A0AC3DA
:1015FA00E534994012C269D26A8A3385615E755FA1
:10160A00FF75602002161EC3E559940140030215B6
:10161A002902165C306A1E206B1BE533147007C260
:10162A006A755EFFA11EF533C3E5599401400302B2
:10163A00152902165CC3E55C94FA5016307404E569
:10164A0029600FC3E53B78F0306B0278609850024E
:10165A00A129C2AF120FA57887E6FE760211177884
:10166A0087EEF6E4F522F523F524F525F562C2683E
:10167A00D2AF1206C3120FA5307406E529700241D3
:10168A00038119901A0D7820121711E520B4550C10
:10169A00A3121711E520B4AA030216AF120FB7124C
:1016AA0016CF0216CE901A0378807B0A121711A35E
:1016BA0008DBF9901A0F788C7B15121711A308DB37
:1016CA00F9901A2422C2AF12175012172A901A0040
:1016DA00740D121716A37402121716A37413121795
:1016EA0016901A0378807B0A121715A308DBF99063
:1016FA001A0F788C7B15121715A308DBF9121763DA
:10170A00121741901A2422E493F622E6438F0153DA
:10171A008FFD75EF0275B7A575B7F1F0538FFE22ED
:10172A00438F02438F0175EF0275B7A575B7F19024
:10173A001A0DF0538FFC22901A0D7455F116901A57
:10174A000E74AAF116227A3079D07820901A40F1D4
:10175A0011E520F709A3DAF7227A3079D0901A40F6
:10176A00E7F11609A3DAF922AB71A872BB01027973
:10177A0080BB02027981BB03027982BB04027984AD
:10178A00BB05027983BB06027986BB07027992BB45
:10179A0008027987BB0902799CBB0A027988BB0BCC
:1017AA00027989E8F7227C051206DCDCFB22C2AF4B
:1017BA001206EC1206F31206FA1207011206CD12ED
:1017CA0006EC1206F31206FA1207011206CD1206E9
:1017DA00EC1206F31206FA120701D2AF22C2AF12B6
:1017EA0007011206FA1206F31206EC1206CD1207C8
:1017FA00011206FA1206F31206EC1206CD120701BE
:10180A001206FA1206F31206ECD2AF22AE71AF72CA
:10181A00C2AF1206EC1206EC1206EC1206CDDEF28C
:10182A001207011206CDDFF8D2AF221217B812172B
:10183A00B01217B075710175720175730011167CBB
:10184A0005AD591206DCC3ED955970F5C3E55994F7
:10185A0001400AC3E55994FF4037021878121772FB
:0E186A001216CF1217B8C2AF75EF121217B0D8
:10187800DCD10573C3E5739403500280C21217B01C
:101888000572E5711490009A93F808C3E5729850B0
:101898000280A91217B01217B00571C3E571940C34
:1018A80050028095120FB71216CFC2AF75EF121201
:0218B80017B067
:101A00000D02130909040103FF0701010155AA0092
:101A1000FFFFFFFFFF03FFFFFF03FA285005FF0250
:051A2000007DFF00FF46
:101A4000235467794B4631323041485623202020B9
:101A500023424C48454C4923463331302320202033
:101A60002020202020202020202020202020202076
:00000001FF
