:0300000002110DDD
:03000B000200A54B
:03002B000202AE20
:03005B0002045F3D
:030073000204394B
:1000800002030406080C10182030406080040608A3
:100090000C10182030406080A0C00D0D0403060D28
:1000A0000503030202C2AFC0D0C0E020620C20688A
:1000B00002419D306602415DE47385258AC262E596
:1000C00025F4700221242068022111207210758B02
:1000D00000D0E0D0D0C2B1C287C281D2AF32C2B1AB
:1000E000C287C2817406D5E0FDE53C1420E21520EC
:1000F000E10D207D02D280307D02D282020121D228
:1001000086020121207D02D282307D02D28002014E
:1001100021758B00D0E0D0D0C2B1C287C281D2AFEE
:1001200032758B00D0E0D0D0D2AF32419DE5256052
:100130000A207D02D2B1307D02D281C287419DE585
:10014000256002D287207D02C281307D02C2B1418A
:100150009DE525600A207D02D281307D02D2B1204A
:100160007D02C2B1307D02C281419D207D02C282EA
:10017000307D02C280207D02C280307D02C2827446
:1001800006D5E0FDE525600A207D02D2B1307D0272
:10019000D281C287419D207D02C282307D02C28011
:1001A000C2867406D5E0FDE525600A207D02D2B145
:1001B000307D02D281C287419DC286207D02C282EB
:1001C000307D02C2807406D5E0FDE5256002D2874D
:1001D000207D02C281307D02C2B1419DC286207D58
:1001E00002C280307D02C2827406D5E0FDE5256042
:1001F00002D287207D02C281307D02C2B1419D20A2
:100200007D02C280307D02C282C2867406D5E0FDC6
:10021000E525600A207D02D281307D02D2B1207DA9
:1002200002C2B1307D02C281419D207D02C2803078
:100230007D02C282207D02C282307D02C2807406AD
:10024000D5E0FDE525600A207D02D281307D02D215
:10025000B1207D02C2B1307D02C281419D30723D2C
:10026000E53C20E21A20E129207D02C282307D0295
:10027000C280207D02C280307D02C28202029D20A7
:10028000E1E6207D02C282307D02C280C286020287
:100290009DC286207D02C280307D02C282E525F4A7
:1002A000F58A758B00D262D0E0D0D0D2AF32C2AF27
:1002B000C2AD53E6EFC0D0C0E0D2D3D2AFC2CEE5DC
:1002C0002960072074461529610C78007900E580C3
:1002D000307E01F430E50278FF53DACF207E03430D
:1002E000DA20307E0343DA10C2D8C271E580307E56
:1002F00001F430E50279FFC3E89970CE30610375EF
:1003000029402074037529408859D270E52A600479
:10031000152A611C20740543DA01C2D820700261DD
:1003200044A859206102C270207402612D882230D5
:10033000690AC3E522955E4003855E227882B60491
:1003400003852224C3E52594404002D26420CF0CCB
:10035000D0E0D0D0C2D343E610D2AD32C2CF7802C3
:10036000E52960053074021529C3E559940140055B
:10037000755C006186755D00756400E55C2401F5BF
:100380005C5003755CFF7982B7020EE547601EC3BF
:10039000E522943240178546227982B7030FE5475C
:1003A000600BC3E52294324004798E8722C3E52393
:1003B000952260084004152361BC0523D8C8056454
:1003C000E56470021564D565647565017805C3E55B
:1003D0006495664058C3E564956750087801756573
:1003E000030203F0C3E56495685005780175650163
:1003F000C3E55F9524401F7982B704028122E54757
:10040000701485245FE56404600385666475650186
:1004100075233C02042DE55F285005755FFF81229E
:10042000F55FE55F047006755DFF7564FFD0E0D091
:10043000D0C2D343E610D2AD32C0D0C0E0C2AF5379
:10044000917F53E67FC260759100C3E49550F594A7
:10045000E49551F595759104D0E0D0D0D2AF32C279
:10046000AF53E6EFC2ADC0D0C0E0C0F0D2D3D2AF40
:0E047000A8FBA9FCC2D830710281C653DACFB6
:10047E00207E0343DA10307E0343DA20D271E5800A
:10048E00307E01F420E502819D88268927C19D5387
:10049E00DACF207E0343DA20307E0343DA10C2D84F
:1004AE00C271307402C1897800E580307E01F4306B
:1004BE00E502C1898859C17053DACF207E0343DA31
:1004CE0020307E0343DA10C271206102A19653DA06
:1004DE00CF207E0343DA10307E0343DA20C2D8D217
:1004EE007188548955C3E89552F8E99553F9E4FBA0
:1004FE007E027A00C3E8948CE9940050057558008A
:10050E00A186C3E894C8E994005008E4D2E4FB7ACB
:10051E000AA163C3E89468E994015008E4D2E3FBAE
:10052E007A0FA163C3E894D0E994025008E4D2E2B2
:10053E00FB7A1EA163C3E894A0E994055008E4D2A7
:10054E00E1FB7A3CA163C3E89498E994085008E46F
:10055E00D2E0FB7A787E00C3E89556FCE99557FD0C
:10056E0030E708ECF42401FCEDF4FD755800C3EC03
:10057E009AED9E500375580188568957A854A9556F
:10058E00885289537802C170C3E89526F8E99527F9
:10059E00F9307C02C154307B02C154307A02C14D15
:1005AE00207502A1B9E9FDE8FCA1D8E9C313F9E869
:1005BE0013F8307902C14DE9C313F9E813F8307816
:1005CE0002C14DE9C313FDE813FC206126C3EC9470
:1005DE001CED94024002A1EFED7018C3EC94C850CC
:1005EE00120528C3E528940A5002C189755900D214
:1005FE0070C189E528600215287400207F03789663
:10060E00E624FAFEE43400FFC3EC9EFCED9FFD50A1
:10061E000678007900C154C3EC94FFED94004006B7
:10062E0078FF7900C154EC856FF0A4C5F0A2F733C2
:10063E00F87900400302067078FF7900020670E92F
:10064E00C313F9E813F8307C0EE9600278FFC3E8B3
:10065E001338F8E43400F9C3E894FFE9940040023B
:10066E0078FF8859D270206102C189741FF4552F0A
:10067E004BF52FC274E42B7002D27475294030747E
:10068E000375290A306102C19D20740353DAFE7589
:10069E002A20307403752A0AD0F0D0E0D0D0C2D30D
:1006AE00D2AD43E6103279010206D279030206D2A8
:1006BE00790A0206D2791E0206D279640206D2792E
:1006CE00C80206D27817E4D5E0FDD8FAD9F6227A18
:1006DE00147B780206F97A107B8C0206F97A0D7B70
:1006EE00B40206F97A0B7BC80206F9AC2575250112
:1006FE007902B27DE4C286D5E0FDE5256002D2879F
:10070E00D5E0FDC287D5E0FDD286D5E0FDE52560BA
:10071E000A207D02D2B1307D02D281E570D5E0FD96
:10072E00207D02C2B1307D02C2817496D5E0FDD922
:10073E00C1EAF8D5E0FDD8FBDBB1C2868C2522C319
:10074E007C007D0075F00005F0EA33FAEB33FB50C8
:10075E00F6EB13FBEA13FAC3E9FFE8FEE89AF8E9B1
:10076E009BF95004EFF9EEF8B3EC33FCED33FDD505
:10077E00F0DFEDF9ECF822E889F08A20D2D4F8A95E
:10078E00F07B0030F70B7BFFF42401F8E9F4340022
:10079E00F9E88520F0A4ADF0F8E98520F0A4AFF0DB
:1007AE00FEED2EF974003FFA7C04C3EA13FAE91346
:1007BE00F9E813F8DCF48BF030F70AE8F42401F8CA
:1007CE00E9F43400F9E889F0C2D4F8A9F02278826D
:1007DE00B6040302087EC3E5599419401FE52D5453
:1007EE00067019E547703878057994E71460077834
:1007FE000A1460027812C3E53B984020E547600971
:10080E0085615F7564FF756501852224E4F53EF50B
:10081E003FF540F541F542F54702087E75470179EF
:10082E0094E7147013E523F43333F913F8E9540104
:10083E0004F9E854FE020872E714147014E523F468
:10084E00333333F913F8E9540304F9E854FC02087E
:10085E007AE523F433333333F913F8E954070404F8
:0E086E00F9E854F8C39440F8E99400F9883E84
:10087C00893F22E547603BC3E53B13F9E53A13F8A2
:10088C00C3E53E98F8E53F99F9500CC3E89480E92C
:10089C0094FF40160208BAC3E8947FE99400500311
:1008AC000208BA787F79000208BA788079FF884309
:1008BC00894422E5476058E5432540F8E544354135
:1008CC00F9854420E4300701F43542FA30E709C3D6
:1008DC00EA94F040150208FCC3EA940F5003020896
:1008EC00FC78FF79FF7A0F0208FC780079007AF027
:1008FC00C3E524955E5006E52460092115E54420E6
:10090C00E70D2115E54430E706884089418A4222EB
:10091C00E547700302098078A1E6FAC3E54333F892
:10092C00E54433F9120785E930E70BC3E89480E915
:10093C0094FF40132157C3E8947FE994005002219F
:10094C0057787F79002157788079FFE820E715C325
:10095C00E52398F84009C3E89401400302097E7826
:10096C000102097EE8F424012523F8400302097EE4
:10097C0078FF884522E54770030209E378A2E6FA7E
:10098C00A841A942120785E930E70CC3E89401E9B4
:10099C0094FF40160209BAC3E894FFE9940050038F
:1009AC000209BA78FF79000209BA780179FFE920C7
:1009BC00E715C3E54598F84009C3E89401400302E4
:1009CC0009E178000209E1E8F424012545F8400327
:1009DC000209E178FF88242278FFC264E52D5406D1
:1009EC00702FD264C3E53B940A4009C3E5259440BB
:1009FC005002C264E53B601974FF853BF084853777
:100A0C00F0A4F8C5F0600278FFC3E895615002A825
:100A1C00618860227883E6F520120F2075E8901229
:100A2C0006B475E890E5E820ECFBA8BDA9BE120F52
:100A3C00A0756B55756C00C3740013FD745513FCD5
:100A4C0074552CFC74003DFDECFAEDFBC3E89AE9FF
:100A5C009B4014E56B2455F56BE56C3400F56CEAA2
:100A6C002CFAEB3DFB80E5AE6BAF6CC3E56C13F978
:100A7C00E56B13F8C3E913F9E813F8E56B28F5698E
:100A8C00E56C39F56A7A03C3E913F9E813F8DAF778
:100A9C00AA201A7009756B00756C00020ABA1AEA62
:100AAC006008EE28FEEF39FFDAF88E6B8F6C22753A
:100ABC00E890227883E6FFE5E820ECF7A8BDA9BE14
:100ACC00056DC3E56D94084052756D00E9FA79A087
:100ADC00E76044EA7007E56E601B020AF5C3E8950F
:100AEC006E6010E56E5006600C14020B010460F988
:100AFC00020B01E56EF56EC394A8401B755EC0C376
:100B0C0094054013755E80C39405400B755E40C31D
:100B1C0094054003755E0075BB0622EFC39401601B
:100B2C001BC3E894FFE994035012C3E8956BE99555
:100B3C006C5009E55E600C155E020B4FE55EF460CF
:100B4C0002055EA85EC3E524985002A824C3E8956C
:100B5C005F400AA85FE55FF46003855F5E8825E56A
:100B6C006DB4070375BB1E22743279A387F0A4C53C
:100B7C00F0A2F733F8C3E8955E4002A85E8822889D
:100B8C00248825886122753A00753B7F2275C82020
:100B9C00A8CCA9CD75C824AA38AB3988388939C3F3
:100BAC00E89AF8E99BF9AA3AAB3BAC3AAD3B7E0428
:100BBC007F02C3EB940440021E1FC3EB9408400257
:100BCC001E1FC3ED13FDEC13FCDEF7C3EA9CFAEB1E
:100BDC009DFBEF6009C3E913F9E813F8DFF7EA2886
:100BEC00FAEB39FB8A3A8B3B400122753AFF753B95
:100BFC00FF2230600261FE854C50854D51D260431E
:100C0C00E680227892E6FFC3E535948240010FC35B
:100C1C00E53594A040010FC3EF940640027F057E9A
:100C2C00021E3072010EC3E53B940350060E0E30CB
:100C3C0072010EC3E53B940250060E0E3072010E8B
:100C4C00A93BA83A7A04C3E913F9E813F8DAF7C315
:100C5C00E89EF8E99400F94009C3E89402E994008D
:0F0C6C0050047802E4F9E9FBE8FAC3E913FDE864
:100C7B0013FC884C894DC3EF94036037EF20E00DD4
:100C8B00E82CF8E93DF9ECFAEDFB020CABE828F89F
:100C9B00E939F9C3E89402F8E99400F97A02E4FB24
:100CAB00C3EF9403400D8A4E8B4F884889498C4A79
:100CBB008D4B22884E894F8A488B498C4A8D4B220B
:100CCB0030600281CBD26043E680E52D540660276D
:100CDB00A83AA93BE53494085006E820E002A94D58
:100CEB00759100C3E498F594E499F595759104D248
:100CFB006053917F43E68022D265753D00752000DD
:100D0B00020D16D265753D00752040E52D54066029
:100D1B0002C265D2AF206005E53D60012278017A01
:100D2B0002C3E53B940540027802C3E53B940A40BD
:100D3B00027803C3E53B940F40027A0330690478D1
:100D4B001E7A01206007E53D6003D2AF22D2AF00CF
:100D5B0000C2AFC3E53BFB940F40027B0FEB0430AB
:100D6B0073012320620123F93069027982E58BC379
:100D7B009940D0053DEAFBE59B5440B52004DBF7D9
:100D8B00A1B1206502A116C265759100AE3AAF3BC9
:100D9B00C3E49EF594E49FF595759104D26053914D
:100DAB007F43E680A116306502A116D896D2AF22FA
:100DBB0030690B0534206016753400020DD92060A4
:100DCB000D20650A206B071581158102167A22A862
:100DDB004EA94F75910053917FC3E498F594E49914
:100DEB00F595759104854850854951D26043E6804D
:100DFB002278003064053065027801E53575F0071F
:100E0B00A4F9E5F028F5F0E9A2F013A2F113A2F290
:100E1B0013F535C394785003753578C3E53595369E
:100E2B004008D266C2B1C287C281306002C135852B
:100E3B004A50854B51D26043E68022C2AFC282C278
:100E4B0086C28030720B9001FF7406D5E0FD020E56
:100E5B005C207D02D282307D02D280759F02753C70
:100E6B0002020F9BC2AF207D02C281307D02C2B154
:100E7B003072179001DCC286207D02C280307D0269
:100E8B00C2827406D5E0FD020E9890013F306206D7
:100E9B00E5256002D287207D03759F03307D0375A6
:100EAB009F01753C03020F9BC2AFC282C286C280F8
:100EBB0030720B9001B97406D5E0FD020EC9207D8E
:100ECB0002D280307D02D282207D03759F01307D5E
:100EDB0003759F03753C04020F9BC2AFC287307230
:100EEB0017900196207D02C282307D02C280C2869D
:100EFB007406D5E0FD020F0690012D30620EE5253C
:100F0B00600A207D02D2B1307D02D281759F0275BD
:100F1B003C05020F9BC2AFC282C286C28030720BED
:100F2B0090016B7406D5E0FD020F36D286207D034F
:100F3B00759F03307D03759F01753C06020F9BC2A5
:100F4B00AF207D02C2B1307D02C28130721F900290
:100F5B002A207D02C282307D02C280207D02C280A7
:100F6B00307D02C2827406D5E0FD020F7B900151E9
:100F7B0030620EE525600A207D02D281307D02D2DF
:100F8B00B1207D03759F01307D03759F03753C0177
:100F9B00C266D2AF2290012BC2B1C287C281C2827C
:100FAB00C286C280C26222788076070876070876EE
:100FBB00010876040876FF0876FF087609087602A2
:100FCB00087601087601788C76000876000876B4EE
:100FDB000876FF0876FF0876FF0876030876FF0889
:100FEB0076010876FF0876030876FA087678087695
:100FFB00C80876040876FF08760108760008767D27
:10100B0008760A087600227887E6FFC272BF0302D1
:10101B00D2727888C27DE630E102D27DC27E7889B9
:10102B00E630E102D27EC3EF94026008758E01D2E6
:10103B0073021044758E00C273227880E614900000
:10104B00809378A1F67881E6149000809378A2F6CD
:10105B00120FA0227886E61490008D9378A3F612D7
:0E106B000FA022789FE6F8700108C3E89411E8
:1010790040027811E82828F5662566256628F5676F
:1010890025662828F56822789CE67536FF75370CA1
:10109900B402067536A075370AB40306753682752B
:1010A900370522C2B3789DE66002D2B3227896E66C
:1010B900FA7897E6FB307F047A007BFFC3EB9AFC52
:1010C900C3948250027C82756F00056FEC856FF0C6
:1010D900A4C3E5F0948040F222D27F11B61206C370
:1010E9007A007B007C101206B9E5592AFA74003B94
:1010F900FBDCF37C04C3EB13FBEA13FADCF7FEC257
:101109007F11B622E5EF20E6037520000520903D0A
:10111900FFE520146006901FFF146000930460032C
:1011290075EF12C2D353D9BF7581C043FF80120630
:10113900B475EF0243B203E5B3240420E702F5B323
:10114900120FA075803875A4C775F1FF75D4DF75C6
:1011590090FF75A50075F20075D50075A0FF75A6FD
:101169000075F30075D60075B0E475A71B75F4FF1B
:1011790075E241120FB21216F778988670C2AF1253
:1011890006CD1206F21206F21206C81206C8120697
:10119900C81206C81206F21206F21206C81206C8CA
:1011A9001206C31206C31206F21206C31206C312AE
:1011B90006F21206F21206C81206C81206C812066C
:1011C900C81206F21206F21206C81206C81206C89A
:1011D9001206C81206EB1206EB1206C81206C8124E
:1011E90006C81206C81206DD1206DD1206C8120666
:1011F900C81206C31206C31206EB1206C31206C3AF
:101209001206F21206F21206C81206C81206C8120F
:1012190006C81206C81206C81206C81206C812174E
:10122900D81206CD1206CD1206C8C2AFE4F8F6D818
:10123900FD78C879C8308504D9FBD8F7120FB212E6
:1012490016F711121145115F116E119011AC11B6FB
:1012590078988670120FA075885075891275C82400
:1012690075910475D84075A82275B80275E6907510
:101279009B80759D0075D10E75BC5875BB0675BAF6
:101289001F75E8801206B4D2AF120A2043DA01C2F0
:10129900D8C2711206CD753001D2617B037A0CE593
:1012A9005870067A0CDB0241331206C320700241E2
:1012B90033C270E559C3940240E3E52F541F855B9F
:1012C9005AF55BB55AD7DAD7C26153DACF207E0314
:1012D90043DA20307E0343DA10C2D8C271C2757571
:1012E90028001206C8307409C3E528940A4002D2BE
:1012F900751206B978023074027800C3E55998402E
:10130900F0C2AF1206DD1206C31206DD1206C312C1
:1013190006E41206C31206E4D2AF1206CD754600E2
:101329001206B9788CE6C3940150030213FDE53027
:10133900C3940150030213FD207435C3E55994FF8A
:1013490050030213FDC2AF1206F2D2AF1206C8C390
:10135900E559940150EFC2AF1206DD1206BE12061E
:10136900DDD2AF1206C8C3E55994FF40E902185D02
:101379007F05D27F11B61206C8C2AFC27F11B6AEC1
:1013890059C3E559947FD2AF40741206B4C2AF1263
:1013990006F2D2AFDFDC11E2C3EE94057897F612BC
:1013A90006CD1216F71217E07F0AD27F11B6120680
:1013B900C8C2AFC27F11B6AE59C3E559947FD2AF47
:1013C90050E61206B4C2AF1206DD1206BE1206DDE1
:1013D900D2AFDFD611E2EE24057896F61206CD12C9
:1013E90016F712180F1206C811B6C3E55994FF4033
:1013F900F402185DC3E5599546400385594612061E
:10140900C878017988E7B403027805C3E55998409B
:10141900026129C2AF1206F21206C31206F21206BF
:10142900C31206EB1206C31206EBD2AF1206CD7534
:101439003000E4F531F5320531E531F47039053222
:10144900789AE67819146012783214600D787D1450
:10145900600878FA146003753200C3E532984017C2
:0E14690015327531B478998670C2AF1206F252
:10147700D2AF789886701206C81206BEE5297005A5
:10148700307402413378012074027806C3E5599815
:1014970040A71206C8E52970024133C2AF120FA058
:1014A700E4F522F523F524F525D2AF78858662F594
:1014B7003EF53FF540F541F542F56DF547F52CF55D
:1014C7002DF535120B92756D0875BB1E1206B412F9
:1014D7000ABBE5E820ECFBA8BDA9BEE97001F888C6
:1014E7006E120ABF756D0875BB1E7887E6FE760219
:1014F70011127887EEF6C2AF755EFF120B74852264
:101507005E85225F852260D2AF7522017524017541
:101517002501855D64756501D268D269753400124D
:101527000F20120F4A120B92120B99120C0F021571
:1015370043120FA01112756D0075BB06120D0E1226
:101547000DBB120DDA1207DC120DFC120E46120B40
:1015570099120BFE120C0F120CCB120D03120DBBBE
:10156700120DDA12087F1209E4120DFC120E6F1227
:101577000B99120BFE120C0F120CCB120D0E120D43
:10158700BB120DDA1208BF120DFC120EB3120B9923
:10159700120BFE120C0F120CCB120D03120DBB1205
:1015A7000DDA12091C120DFC120EE5120B99120B23
:1015B700FE120C0F120CCB120D0E120DBB120DDA10
:1015C700120981120DFC120F20120B99120BFE1239
:1015D7000C0F120CCB120D03120ABB120DBB120D0E
:1015E700DA120ABF120DFC120F4A120B99120BFEE8
:1015F700120C0F120CCB30692F206B2C85615E8586
:10160700615F855D6475650179327A0AC3E534994E
:101617004009C269D26A8A3302162FC3E559940179
:10162700400302154302167A306A1B206B18E53314
:10163700147004C26AA138F533C3E5599401400315
:1016470002154302167AC3E55C9401400985615F80
:10165700855D64756501C3E55C94FA5016307404C2
:10166700E529600FC3E53B78F0306B02786098504E
:1016770002A143C2AF120FA07887E6FE76021112CD
:101687007887EEF6E4F522F523F524F525F562C211
:1016970068D2AF1206B4120FA0307406E5297002A3
:1016A7004133788DE6C39401400241FA813B901A99
:1016B7000D7820121739E520B4A50CA3121739E5C8
:1016C70020B45A030216D7120FB21216F70216F6F3
:1016D700901A0378807B0A121739A308DBF9901A4E
:1016E7000F788C7B15121739A308DBF9901A24227F
:1016F700C2AF121778121752901A00740D12173EC4
:10170700A3740212173EA3741312173E901A03789C
:10171700807B0A12173DA308DBF9901A0F788C7BA0
:101727001512173DA308DBF912178B121769901AC8
:101737002422E493F622E6438F01538FFD75EF02CF
:1017470075B7A575B7F1F0538FFE22438F02438F0C
:101757000175EF0275B7A575B7F1901A0DF0538FA4
:10176700FC22901A0D74A5F13E901A0E745AF13EA0
:10177700227A3079D07820901A40F139E520F7099C
:10178700A3DAF7227A3079D0901A40E7F13E09A31D
:10179700DAF922AB71A872BB01027980BB02027928
:1017A70081BB03027982BB04027994BB050279836A
:1017B700BB06027986BB07027992BB08027987BB11
:1017C7000902799CBB0A027988BB0B027989E8F781
:1017D700227C051206CDDCFB22C2AF1206DD120603
:1017E700E41206EB1206F21206BE1206DD1206E43A
:1017F7001206EB1206F21206BE1206DD1206E412FC
:1018070006EB1206F2D2AF22C2AF1206F21206EBB5
:101817001206E41206DD1206BE1206F21206EB12DB
:1018270006E41206DD1206BE1206F21206EB1206D7
:10183700E41206DDD2AF22AE71AF72C2AF1206DD7F
:101847001206DD1206DD1206BEDEF21206F21206DF
:10185700BEDFF8D2AF221217E01217D81217D875C9
:0E1867007101757201757300113E7C05AD595B
:101875001206CDC3ED955970F5C3E5599401400A9B
:10188500C3E55994FF40370218A012179A1216F7AC
:101895001217E0C2AF75EF121217D8DCD10573C36A
:1018A500E5739403500280C21217D80572E57114CE
:1018B50090009A93F808C3E57298500280A9121710
:1018C500D81217D80571C3E571940C500280951292
:0D18D5000FB21216F7C2AF75EF121217D83E
:101A00000D021307070104FFFF09020101A55A0097
:101A100000B4FFFFFF03FF01FF03FA78C804FF01D2
:051A200000FF0A00FFB9
:101A4000235475726E6967794145343541232020EE
:101A500023424C48454C4923463331302320202033
:101A60002020202020202020202020202020202076
:00000001FF
