:030000000210A249
:03000B000200A24E
:03002B000202CB03
:03005B0002041587
:030073000203EF96
:1000800002030406080C10182030406080040608A3
:100090000C10182030406080A0C005050D0502033B
:1000A0000302C2AFC0D0C0E020622C20680241B77A
:1000B0003066024177302F02E4730563C3740595FF
:1000C0002540F5956340F12069EE758A78E5257045
:1000D00003758A000202C485258AC262E525F47090
:1000E00002213E206802212B758B00D0E0D0D0C2C7
:1000F00086C291C295D2AF32C286C291C295741A9D
:10010000D5E0FDE53C1420E21520E10D207D02D272
:1001100096307D02D29002013BD29202013B207DBB
:1001200002D290307D02D29602013B758B00D0E066
:10013000D0D0C286C291C295D2AF32758B00D0E0CA
:10014000D0D0D2AF3241B7E525600A207D02D286F9
:10015000307D02D295C29141B7E5256002D291204F
:100160007D02C295307D02C28641B7E525600A2036
:100170007D02D295307D02D286207D02C286307DFE
:1001800002C29541B7207D02C290307D02C2962006
:100190007D02C296307D02C290740ED5E0FDE52549
:1001A000600A207D02D286307D02D295C29141B78D
:1001B000207D02C290307D02C296C292740ED5E0BC
:1001C000FDE525600A207D02D286307D02D295C2EF
:1001D0009141B7C292207D02C290307D02C29674D6
:1001E0000ED5E0FDE5256002D291207D02C295305A
:1001F0007D02C28641B7C292207D02C296307D0246
:10020000C290740ED5E0FDE5256002D291207D02FA
:10021000C295307D02C28641B7207D02C296307DF4
:1002200002C290C292740ED5E0FDE525600A207DE1
:1002300002D295307D02D286207D02C286307D02B8
:10024000C29541B7207D02C296307D02C290207DCA
:1002500002C290307D02C296740ED5E0FDE52560A5
:100260000A207D02D295307D02D286207D02C28690
:10027000307D02C29541B730723DE53C20E21A2044
:10028000E129207D02C290307D02C296207D02C20B
:1002900096307D02C2900202B720E1E6207D02C2C4
:1002A00090307D02C296C2920202B7C292207D02B5
:1002B000C296307D02C290E525F4F58A758B0075F3
:1002C0006300D262D0E0D0D0D2AF32C2AFC2AD5361
:1002D000E6EFC0D0C0E0D2D3D2AFC2CEE5296007EE
:1002E0002074461529612978007900E580307E0167
:1002F000F430E50278FF53DACF207E0343DA203072
:100300007E0343DA10C2D8C271E580307E01F4303A
:10031000E50279FFC3E89970CE3061037529182092
:1003200074037529188859D270E52A6004152A616A
:100330003920740543DA01C2D82070026194A859AB
:10034000206102C270207431C3E894F0400374F05D
:10035000F8E8C4540F28F87984B703026179C3130D
:10036000C3138721200802C313200A06C3C898F8C4
:10037000617928F8500374FFF8C3E895625003E5EB
:1003800062F8882230690AC3E522955E4003855EE3
:1003900022852224A824C3E524955E4002A85E8815
:1003A00025C3E52594404002D26420CF0CD0E0D094
:1003B000D0C2D343E610D2AD32C2CF7801E5296076
:1003C000053074021529C3E55994014005755C0098
:1003D00061E3755D00756400E55C2401F55C500324
:1003E000755CFFD0E0D0D0C2D343E610D2AD32C0AE
:1003F000D0C0E0C2AF53917F53E67FC260759100D9
:10040000C3E49550F594E49551F595759104D0E0C9
:10041000D0D0D2AF32C2AF53E6EFC2ADC0D0C0E051
:10042000C0F0D2D3D2AFA8FBA9FCC2D830710281F0
:100430007C53DACF207E0343DA10307E0343DA2088
:10044000D271E580307E01F420E50281538826894F
:1004500027C1B853DACF207E0343DA20307E03432E
:10046000DA10C2D8C271307402C1A47800E58030BD
:0F0470007E01F430E502C1A48859C18B53DACF65
:10047F00207E0343DA20307E0343DA10C2712061FD
:10048F0002A14C53DACF207E0343DA10307E0343B0
:10049F00DA20C2D8D27188548955C3E89552F8E949
:1004AF009553F9E4FB7E027A00C3E8948CE994003B
:1004BF005005755800A13CC3E894C8E99400500852
:1004CF00E4D2E4FB7A0AA119C3E89468E9940150D5
:1004DF0008E4D2E3FB7A0FA119C3E894D0E99402A0
:1004EF005008E4D2E2FB7A1EA119C3E894A0E99464
:1004FF00055008E4D2E1FB7A3CA119C3E89498E9CE
:10050F0094085008E4D2E0FB7A787E00C3E8955651
:10051F00FCE99557FD30E708ECF42401FCEDF4FD00
:10052F00755800C3EC9AED9E500375580188568993
:10053F0057A854A955885289537802C18BC3E8959F
:10054F0026F8E99527F9307C02C16F307B02C16F25
:10055F00307A02C168207502A16FE9FDE8FCA18E17
:10056F00E9C313F9E813F8307902C168E9C313F945
:10057F00E813F8307802C168E9C313FDE813FC20D3
:10058F006126C3EC941CED94024002A1A5ED7018F6
:10059F00C3EC94C850120528C3E528940A5002C131
:1005AF00A4755900D270C1A4E52860021528740003
:1005BF00207F0B7888E67896B40302789EE624FABB
:1005CF00FEE43400FFC3EC9EFCED9FFD920878889B
:1005DF00E6B40327A2085009207D20C2AFD27DA127
:1005EF00F7307D17C2AFC27DC286C291C295C2904D
:1005FF00C292C296206902D26BD2AFA2085017E600
:10060F00B4030DECF42401FCEDF43400FD020625D7
:10061F0078007900C16F7888E6B40315EC33FCEDF0
:10062F0033FDC3EC940AFCED9400FD50047C007D77
:10063F0000C3EC94FFED9400400678FF7900C16F82
:10064F00EC856FF0A4C5F0A2F733F87900400302F0
:10065F00068B78FF790002068BE9C313F9E813F8CC
:10066F00307C0EE9600278FFC3E81338F8E43400F9
:10067F00F9C3E894FFE99400400278FF8859D270DB
:10068F00206102C1A4741FF4552F4BF52FC274E4DF
:10069F002B7002D27475291830740375290A3061D2
:1006AF0002C1B820740353DAFE752A06307403753D
:1006BF002A0AD0F0D0E0D0D0C2D3D2AD43E6103268
:1006CF0079010206ED79030206ED790A0206ED794A
:1006DF001E0206ED79640206ED79C80206ED781761
:1006EF00E4D5E0FDD8FAD9F6227A147B7802071404
:1006FF007A107B8C0207147A0D7BB40207147A0BE5
:10070F007BC8020714AC257525017902B27DE4C2BE
:10071F0092D5E0FDE5256002D291D5E0FDC291D5DD
:10072F00E0FDD292D5E0FDE525600A207D02D2865C
:10073F00307D02D295E570D5E0FD207D02C2863076
:10074F007D02C2957496D5E0FDD9C1EAF8D5E0FDDA
:10075F00D8FBDBB1C2928C2522C37C007D0075F0E3
:10076F000005F0EA33FAEB33FB50F6EB13FBEA1319
:10077F00FAC3E9FFE8FEE89AF8E99BF95004EFF9AC
:10078F00EEF8B3EC33FCED33FDD5F0DFEDF9ECF81B
:10079F0022E889F08A20D2D4F8A9F07B0030F70B39
:1007AF007BFFF42401F8E9F43400F9E88520F0A484
:1007BF00ADF0F8E98520F0A4AFF0FEED2EF974004E
:1007CF003FFA7C04C3EA13FAE913F9E813F8DCF4EF
:1007DF008BF030F70AE8F42401F8E9F43400F9E873
:1007EF0089F0C2D4F8A9F02222E547603BC3E53B6C
:1007FF0013F9E53A13F8C3E53E98F8E53F99F95038
:10080F000CC3E89480E994FF4016020833C3E894C0
:10081F007FE994005003020833787F790002083390
:10082F00788079FF8843894422E5476058E543255E
:10083F0040F8E5443541F9854420E4300701F435AB
:10084F0042FA30E709C3EA94F04015020875C3EA8B
:10085F00940F500302087578FF79FF7A0F0208751D
:0F086F00780079007AF0C3E524955E5006E52401
:10087E006009018EE54420E70D018EE54430E70660
:10088E00884089418A4222E54770030208F978A11F
:10089E00E6FAC3E54333F8E54433F91207A0E9302D
:1008AE00E70BC3E89480E994FF401301D0C3E894AA
:1008BE007FE99400500201D0787F790001D07880D2
:1008CE0079FFE820E715C3E52398F84009C3E894BB
:1008DE000140030208F778010208F7E8F424012525
:1008EE0023F840030208F778FF884522E547700396
:1008FE0002095C78A2E6FAA841A9421207A0E930E3
:10090E00E70CC3E89401E994FF4016020933C3E8EB
:10091E0094FFE99400500302093378FF790002092D
:10092E0033780179FFE920E715C3E54598F84009CA
:10093E00C3E89401400302095A780002095AE8F408
:10094E0024012545F8400302095A78FF88242278AD
:10095E00FFC264E52D5406702FD264C3E53B940AA2
:10096E004009C3E52594405002C264E53B6019740A
:10097E00FF853BF0848537F0A4F8C5F0600278FF60
:10098E00C3E895615002A861886022020A36788316
:10099E00E6F520120EB075E8901206CF75E890E5D8
:1009AE00E820ECFBA8BDA9BE120F5E756B55756CE9
:1009BE0000C3740013FD745513FC74552CFC7400A5
:1009CE003DFDECFAEDFBC3E89AE99B4014E56B2480
:1009DE0055F56BE56C3400F56CEA2CFAEB3DFB80BB
:1009EE00E5AE6BAF6CC3E56C13F9E56B13F8C3E9B9
:1009FE0013F9E813F8E56B28F569E56C39F56A7AB1
:100A0E0003C3E913F9E813F8DAF7AA201A70097587
:100A1E006B00756C00020A361AEA6008EE28FEEFCB
:100A2E0039FFDAF88E6B8F6C2275E890227883E6A8
:100A3E00FFE5E820ECF7A8BDA9BE056DC3E56D94F2
:100A4E00084052756D00E9FA79A0E76044EA700734
:100A5E00E56E601B020A71C3E8956E6010E56E507C
:100A6E0006600C14020A7D0460F9020A7DE56EF53B
:100A7E006EC3946D401B755EC0C394044013755EC7
:100A8E0080C39404400B755E40C394044003755EAE
:100A9E000075BB0B22E55EF46002055EE56DB407E2
:100AAE000375BB1022743279A387F0A4C5F0A2F7A8
:100ABE0033F8C3E8955E4002A85E88228824882514
:100ACE00886122753A00753B7F2275C820A8CCA993
:100ADE00CD75C824AA38AB3988388939C3E89AF855
:100AEE00E99BF9AA3AAB3BAC3AAD3B7E047F02C31D
:100AFE00EB940440021E1FC3EB940840021E1FC35A
:100B0E00ED13FDEC13FCDEF7C3EA9CFAEB9DFBEF55
:100B1E006009C3E913F9E813F8DFF7EA28FAEB39AD
:100B2E00FB8A3A8B3B400122753AFF753BFF223020
:100B3E006002613D854C50854D51D26043E6802266
:100B4E007892E6FFC3E535948240010FC3E53594F4
:100B5E00A040010FC3EF940640027F057E021E30B7
:100B6E0072010EC3E53B940350060E0E3072010E59
:100B7E00C3E53B940250060E0E3072010EA93BA83F
:100B8E003A7A04C3E913F9E813F8DAF7C3E89EF8E2
:100B9E00E99400F94009C3E89402E99400500478FE
:100BAE0002E4F9E9FBE8FAC3E913FDE813FC884C0B
:100BBE00894DC3EF94036037EF20E00DE82CF8E980
:100BCE003DF9ECFAEDFB020BEAE828F8E939F9C336
:100BDE00E89402F8E99400F97A02E4FBC3EF940377
:100BEE00400D8A4E8B4F884889498C4A8D4B2288FE
:100BFE004E894F8A488B498C4A8D4B223060028138
:100C0E000AD26043E680E52D54066027A83AA93B38
:100C1E00E53494085006E820E002A94D759100C312
:100C2E00E498F594E499F595759104D26053917F0B
:100C3E0043E68022D265753D00752000020C55D228
:100C4E0065753D00752040E52D54066002C265D2E3
:100C5E00AF206005E53D60012278017A02C3E53BD5
:0F0C6E00940540027802C3E53B940A40027803E4
:100C7D00C3E53B940F40027A03306904781E7A0174
:100C8D00206007E53D6003D2AF22D2AF0000C2AFB6
:100C9D00C3E53BFB940F40027B0FEB043073012344
:100CAD0020620123F93069027982E58BC39940D026
:100CBD00053DEAFBE59BF45440B52004DBF681F1DC
:100CCD002065028155C265759100AE3AAF3BC3E414
:100CDD009EF594E49FF595759104D26053917F43F1
:100CED00E68081553065028155D895D2AF223069A5
:100CFD000B0534206016753400020D1920600D208F
:100D0D00650A206B071581158102160622A84EA9CA
:100D1D004F75910053917FC3E498F594E499F5953F
:100D2D00759104854850854951D26043E6802278FB
:100D3D00003064053065027801E53575F007A4F9DA
:100D4D00E5F028F5F0E9A2F013A2F113A2F213F5E4
:100D5D0035C394785003753578C3E535953640081D
:100D6D00D266C286C291C295306002A175854A5085
:100D7D00854B51D26043E68022C2AFC290C292C26F
:100D8D009630720B900219740ED5E0FD020DC4E57C
:100D9D003B54F86022E525600A207D02D286307D25
:100DAD0002D2957403D5E0FD207D02C286307D020E
:100DBD00C295741AD5E0FD207D02D290307D02D20D
:100DCD0096759F56753C02020F43C2AF207D02C23D
:100DDD0095307D02C2863072179001F6C292207D49
:100DED0002C296307D02C290740ED5E0FD020E0057
:100DFD00900159306206E5256002D291207D037580
:100E0D009F76307D03759F36753C03020F43C2AF4D
:100E1D00C290C292C29630720B9001D3740ED5E07F
:100E2D00FD020E59E53B54F86022E525600A207D50
:100E3D0002D295307D02D2867403D5E0FD207D026D
:100E4D00C295307D02C286741AD5E0FD207D02D296
:100E5D0096307D02D290207D03759F36307D0375CF
:100E6D009F76753C04020F43C2AFC291307217904A
:100E7D0001B0207D02C290307D02C296C292740EE6
:100E8D00D5E0FD020E9690014730620EE525600A11
:100E9D00207D02D286307D02D295759F56753C0518
:100EAD00020F43C2AFC290C292C29630720B900134
:100EBD0085740ED5E0FD020EDEE53B54F86012E5BB
:100ECD00256002D2917403D5E0FDC291741AD5E06C
:100EDD00FDD292207D03759F76307D03759F36750B
:100EED003C06020F43C2AF207D02C286307D02C296
:100EFD009530721F900244207D02C290307D02C257
:100F0D0096207D02C296307D02C290740ED5E0FD12
:100F1D00020F2390016B30620EE525600A207D02E1
:100F2D00D295307D02D286207D03759F36307D03AC
:100F3D00759F76753C01306B13120F5E740ED5E004
:100F4D00FD741AD5E0FDD290D292D296C266D2AF80
:100F5D0022900145C286C291C295C290C292C2969C
:100F6D00C26222788076FF0876FF0876FF0876FF4A
:100F7D0008760308760408760A08760108760108D3
:100F8D007601788C76000876FF0876FF0876FF08E4
:100F9D0076FF0876FF0876030876FF0876FF087659
:100FAD00FF0876030876FA0876FA0876FA087604CA
:100FBD000876FF08760108760008767D0876FF082A
:100FCD007600227887E6FFC2727888E6C3940360C4
:100FDD0008C27DE630E102D27DC27E7889E630E13D
:100FED0002D27EC3EF94026008758E01D273021097
:100FFD0003758E00C273227880E61490008093787A
:10100D00A1F67881E6149000809378A2F6120F5E17
:10101D00227886E61490008D9378A3F6120F5E2247
:10102D0022789CE67536FF75370CB402067536A02E
:10103D0075370AB403067536827537052222789600
:10104D00E6FA7897E6FB307F047A007BFFC3EB9AD4
:10105D00FCC3948250027C82756F00056FEC856F26
:0E106D00F0A4C3E5F0948040F222D27F114B34
:10107B001206DE7A007B007C101206D4E5592AFAA0
:10108B0074003BFBDCF37C04C3EB13FBEA13FADCCD
:10109B00F7FEC27F114B22E5EF20E603752000051A
:1010AB0020903FFFE520146006901DFF1460009315
:1010BB0004600375EF12C2D353D9BF7581C043FFD0
:1010CB00801206CF75EF0243B203E5B3240420E789
:1010DB0002F5B3120F5E7580BF75A44075F17C7578
:1010EB00D4DF75909875A56775F26775D50075A6F1
:1010FB000175E241120F7012167A78988670C2AFA2
:10110B001206E812070D12070D1206E31206E31280
:10111B0006E31206E312070D12070D1206E3120681
:10112B00E31206DE1206DE12070D1206DE1206DED3
:10113B0012070D12070D1206E31206E31206E31255
:10114B0006E312070D12070D1206E31206E3120651
:10115B00E31206E31207061207061206E31206E372
:10116B001206E31206E31206F81206F81206E31251
:10117B0006E31206DE1206DE1207061206DE120662
:10118B00DE12070D12070D1206E31206E31206E339
:10119B001206E31206E31206E31206E31206E3124B
:1011AB00174C1206E81206E81206E3C2AFE4F8F693
:1011BB00D8FD78C879C8308504D9FBD8F7120F70E1
:1011CB0012167A120FD01104111E112D112E114A65
:1011DB00114B78988670120F5E7588507589127551
:1011EB00C82475910475D84075A82275B80275E6A8
:1011FB0090759B80759D0075D10E75BC5875BB0B9A
:10120B0075BA1175E8801206CFD2AF12099943DA7D
:10121B0001C2D8C2711206E8753001D2617B037A24
:10122B000CE55870067A0CDB0221B61206DE207034
:10123B000221B6C270E559C3940240E3E52F541F57
:10124B00855B5AF55BB55AD7DAD7C26153DACF2033
:10125B007E0343DA20307E0343DA10C2D8C271C258
:10126B00757528001206E3307409C3E528940A400B
:10127B0002D2751206D478023074027800C3E55995
:10128B009840F0C2AF1206F81206DE1206F81206EC
:10129B00DE1206FF1206DE1206FFD2AF1206E8754B
:1012AB0046007888E6B4030261891206D4788CE68E
:1012BB00C394015003021389E530C3940150030218
:1012CB001389207435C3E55994FF5003021389C267
:1012DB00AF12070DD2AF1206E3C3E559940150EFDD
:1012EB00C2AF1206F81206D91206F8D2AF1206E3F5
:1012FB00C3E55994FF40E90217D17F05D27F114B0B
:10130B001206E3C2AFC27F114BAE59C3E559947FAE
:10131B00D2AF40741206CFC2AF12070DD2AFDFDCD3
:10132B001177C3EE94057897F61206E812167A1227
:10133B0017547F0AD27F114B1206E3C2AFC27F1143
:10134B004BAE59C3E559947FD2AF50E61206CFC2CC
:10135B00AF1206F81206D91206F8D2AFDFD6117704
:10136B00EE24057896F61206E812167A12178312F7
:10137B0006E3114BC3E55994FF40F40217D1C3E5C3
:10138B0059954640038559461206E378017988E75B
:10139B00B403027805C3E55998400241ADC2AF12C0
:1013AB00070D1206DE12070D1206DE1207061206D5
:1013BB00DE120706D2AF1206E8753000E4F531F500
:1013CB00320531E531F470390532789AE678191423
:1013DB006012783214600D787D14600878FA14600E
:1013EB0003753200C3E53298401715327531B47866
:1013FB00998670C2AF12070DD2AF7898867012061D
:10140B00E31206D9E529700530740221B678012064
:10141B0074027806C3E5599840A77888E6C394030D
:10142B0060031206E3E529700221B6C2AF120F5E0C
:10143B00E4F522F523F524F525D2AF78858662F500
:10144B003EF53FF540F541F542F56DF547F52CF5C9
:10145B002DF535120AD1756D0875BB101206CF121A
:0F146B000A37E5E820ECFBA8BDA9BEE97001F83F
:10147A00886E120A3B756D0875BB107887E6FE7692
:10148A0002120FD07887EEF6C2AF755EFF120AB36A
:10149A0085225E85225F852260D2AF75220175247E
:1014AA0001752501855D64756501D268D269753457
:1014BA0000120EB0120EF2120AD1120AD8120B4EF4
:1014CA000214D9120F5E120FD0756D0075BB0B1284
:1014DA000C4D120CFB120D1A1207F7120D3C120DCD
:1014EA0086120AD8120B3D120B4E120C0A120C422B
:1014FA00120CFB120D1A1207F812095D120D3C129A
:10150A000DD7120AD8120B3D120B4E120C0A120CEE
:10151A004D120CFB120D1A120838120D3C120E1B3A
:10152A00120AD8120B3D120B4E120C0A120C42125E
:10153A000CFB120D1A120895120D3C120E75120AA6
:10154A00D8120B3D120B4E120C0A120C4D120CFB48
:10155A00120D1A1208FA120D3C120EB0120AD81203
:10156A000B3D120B4E120C0A120C42120A37120CC5
:10157A00FB120D1A120A3B120D3C120EF2120AD875
:10158A00120B3D120B4E120C0A306935206B328554
:10159A00615E85615F855D6475650179327A0AC32A
:1015AA00E53499400FC269D26A8A33755EFF755F66
:1015BA00FF0215CBC3E559940140030214D9021660
:1015CA0006306A1B206B18E533147004C26A81CD99
:1015DA00F533C3E559940140030214D9021606C330
:1015EA00E55C94825016307404E529600FC3E53B2C
:1015FA0078F0306B02786098500281D9C2AF120F2E
:10160A005E7887E6FE7602120FD07887EEF6E4F56A
:10161A0022F523F524F525F562C268D2AF1206CF6A
:10162A00120F5E307406E529700221B661C7901A5E
:10163A000D78201216BCE520B45A0CA31216BCE58C
:10164A0020B4A50302165A120F7012167A021679DE
:10165A00901A0378807B0A1216BCA308DBF9901A49
:10166A000F788C7B151216BCA308DBF9901A24227A
:10167A00C2AF1216FB1216D5901A00740D1216C1BB
:10168A00A374021216C1A374131216C1901A037816
:10169A00807B0A1216C0A308DBF9901A0F788C7B9C
:1016AA00151216C0A308DBF912170E1216EC901ABF
:1016BA002422E493F622E6438F01538FFD75EF024D
:1016CA0075B7A575B7F1F0538FFE22438F02438F8A
:1016DA000175EF0275B7A575B7F1901A0DF0538F22
:1016EA00FC22901A0D745AD1C1901A0E74A5D1C158
:1016FA00227A3079D07820901A40D1BCE520F709B7
:10170A00A3DAF7227A3079D0901A40E7D1C109A337
:10171A00DAF922AB71A872BB01027984BB020279A1
:10172A0085BB03027986BB04027992BB05027987DD
:10173A00BB0602799CBB07027988BB08027989E853
:10174A00F7227C051206E8DCFB22C2AF1206F81269
:10175A0006FF12070612070D1206D91206F812061C
:10176A00FF12070612070D1206D91206F81206FF13
:10177A0012070612070DD2AF22C2AF12070D1207C7
:10178A00061206FF1206F81206D912070D120706EC
:10179A001206FF1206F81206D912070D12070612D0
:1017AA0006FF1206F8D2AF22AE71AF72C2AF1206AE
:1017BA00F81206F81206F81206D9DEF212070D120E
:1017CA0006D9DFF8D2AF22F154F14CF14C75710110
:1017DA00757201757300F1B27C05AD591206E8C342
:1017EA00ED955970F5C3E5599401400AC3E559943A
:1017FA00FF403702181112171D12167A121754C217
:10180A00AF75EF1212174CDCD10573C3E57394035D
:10181A00500280C212174C0572E5711490009A9317
:10182A00F808C3E57298500280A912174C12174C97
:10183A000571C3E571940950028095120F70121652
:09184A007AC2AF75EF1212174CBF
:101A00000D0213FFFFFFFF03040A0101015AA500A5
:101A1000FFFFFFFFFF03FFFFFF03FAFAFA04FF01D6
:051A2000007DFF00FF46
:101A4000235475726E6967794145323541232020F0
:101A500023424C48454C4923463333302320202031
:101A60002020202020202020202020202020202076
:00000001FF
