:03000000021041AA
:03000B000200A24E
:03002B000202CE00
:03005B0002041884
:030073000203F293
:1000800002030406080C10182030406080040608A3
:100090000C10182030406080A0C005050D0503033A
:1000A0000302C2AFC0D0C0E020622C20680241BA77
:1000B000306602417A302F02E4730563C3740595FC
:1000C0002540F5956340F12069EE758A78E5257045
:1000D00003758A000202C785258AC262E525F4708D
:1000E000022141206802212E207210758B00D0E081
:1000F000D0D0C2B1C287C281D2AF32C2B1C287C230
:10010000817406D5E0FDE53C1420E21520E10D20C8
:100110007D02D280307D02D28202013ED28602016F
:100120003E207D02D282307D02D28002013E758B5C
:1001300000D0E0D0D0C2B1C287C281D2AF32758BBD
:1001400000D0E0D0D0D2AF3241BAE525600A207DA0
:1001500002D2B1307D02D281C28741BAE525600268
:10016000D287207D02C281307D02C2B141BAE5252D
:10017000600A207D02D281307D02D2B1207D02C290
:10018000B1307D02C28141BA207D02C282307D023F
:10019000C280207D02C280307D02C2827406D5E01A
:1001A000FDE525600A207D02D2B1307D02D281C2F8
:1001B0008741BA207D02C282307D02C280C286742D
:1001C00006D5E0FDE525600A207D02D2B1307D0232
:1001D000D281C28741BAC286207D02C282307D02AE
:1001E000C2807406D5E0FDE5256002D287207D023D
:1001F000C281307D02C2B141BAC286207D02C28076
:10020000307D02C2827406D5E0FDE5256002D2870A
:10021000207D02C281307D02C2B141BA207D02C27E
:1002200080307D02C282C2867406D5E0FDE525607D
:100230000A207D02D281307D02D2B1207D02C2B17E
:10024000307D02C28141BA207D02C280307D02C26F
:1002500082207D02C282307D02C2807406D5E0FD1C
:10026000E525600A207D02D281307D02D2B1207D59
:1002700002C2B1307D02C28141BA30723DE53C20FC
:10028000E21A20E129207D02C282307D02C2802054
:100290007D02C280307D02C2820202BA20E1E620E5
:1002A0007D02C282307D02C280C2860202BAC2864C
:1002B000207D02C280307D02C282E525F4F58A7578
:1002C0008B00756300D262D0E0D0D0D2AF32C2AF23
:1002D000C2AD53E6EFC0D0C0E0D2D3D2AFC2CEE5BC
:1002E0002960072074461529612C78007900E58083
:1002F000307E01F430E50278FF53DACF207E0343ED
:10030000DA20307E0343DA10C2D8C271E580307E35
:1003100001F430E50279FFC3E89970CE30610375CE
:1003200029182074037529188859D270E52A6004A9
:10033000152A613C20740543DA01C2D8207002619D
:1003400097A859206102C270207431C3E894F0402C
:100350000374F0F8E8C4540F28F87984B7030261F5
:100360007CC313C3138721200802C313200A06C3CA
:10037000C898F8617C28F8500374FFF8C3E89562C8
:100380005003E562F8882230690AC3E522955E4091
:1003900003855E22852224A824C3E524955E4002BD
:1003A000A85E8825C3E52594404002D26420CF0C86
:1003B000D0E0D0D0C2D343E610D2AD32C2CF780164
:1003C000E52960053074021529C3E55994014005FB
:1003D000755C0061E6755D00756400E55C2401F5FF
:1003E0005C5003755CFFD0E0D0D0C2D343E610D29E
:1003F000AD32C0D0C0E0C2AF53917F53E67FC26040
:10040000759100C3E49550F594E49551F595759177
:1004100004D0E0D0D0D2AF32C2AF53E6EFC2ADC00D
:10042000D0C0E0C0F0D2D3D2AFA8FBA9FCC2D83074
:100430007102817F53DACF207E0343DA10307E03CE
:1004400043DA20D271E580307E01F420E502815646
:1004500088268927C1BB53DACF207E0343DA2030B8
:100460007E0343DA10C2D8C271307402C1A778008B
:0F047000E580307E01F430E502C1A78859C18EC6
:10047F0053DACF207E0343DA20307E0343DA10C2F3
:10048F0071206102A14F53DACF207E0343DA10307F
:10049F007E0343DA20C2D8D27188548955C3E895B8
:1004AF0052F8E99553F9E4FB7E027A00C3E8948C85
:1004BF00E994005005755800A13FC3E894C8E9942A
:1004CF00005008E4D2E4FB7A0AA11CC3E89468E95F
:1004DF0094015008E4D2E3FB7A0FA11CC3E894D037
:1004EF00E994025008E4D2E2FB7A1EA11CC3E894FF
:1004FF00A0E994055008E4D2E1FB7A3CA11CC3E8C3
:10050F009498E994085008E4D2E0FB7A787E00C30F
:10051F00E89556FCE99557FD30E708ECF42401FC0B
:10052F00EDF4FD755800C3EC9AED9E50037558011C
:10053F0088568957A854A955885289537802C18E75
:10054F00C3E89526F8E99527F9307C02C172307B14
:10055F0002C172307A02C16B207502A172E9FDE807
:10056F00FCA191E9C313F9E813F8307902C16BE9E3
:10057F00C313F9E813F8307802C16BE9C313FDE830
:10058F0013FC206126C3EC941CED94024002A1A839
:10059F00ED7018C3EC94C850120528C3E528940ACF
:1005AF005002C1A7755900D270C1A7E52860021586
:1005BF00287400207F0B7888E67896B40302789E23
:1005CF00E624FAFEE43400FFC3EC9EFCED9FFD929F
:1005DF00087888E6B40327A2085009207D20C2AF0F
:1005EF00D27DA1FA307D17C2AFC27DC2B1C287C220
:1005FF0081C282C286C280206902D26BD2AFA208AA
:10060F005017E6B4030DECF42401FCEDF43400FDB7
:10061F0002062878007900C1727888E6B40315ECD9
:10062F0033FCED33FDC3EC940AFCED9400FD500454
:10063F007C007D00C3EC94FFED9400400678FF79B9
:10064F0000C172EC856FF0A4C5F0A2F733F8790002
:10065F00400302068E78FF790002068EE9C313F974
:10066F00E813F8307C0EE9600278FFC3E81338F81E
:10067F00E43400F9C3E894FFE99400400278FF885E
:10068F0059D270206102C1A7741FF4552F4BF52F5B
:10069F00C274E42B7002D274752918307403752953
:1006AF000A306102C1BB20740353DAFE752A06308B
:1006BF007403752A0AD0F0D0E0D0D0C2D3D2AD43A4
:1006CF00E6103279010206F079030206F0790A0288
:1006DF0006F0791E0206F079640206F079C8020668
:1006EF00F07817E4D5E0FDD8FAD9F6227A147B78A2
:1006FF000207177A107B8C0207177A0D7BB402075B
:10070F00177A0B7BC8020717AC257525017902B242
:10071F007DE4C286D5E0FDE5256002D287D5E0FDF8
:10072F00C287D5E0FDD286D5E0FDE525600A207DA4
:10073F0002D2B1307D02D281E570D5E0FD207D027D
:10074F00C2B1307D02C2817496D5E0FDD9C1EAF8FD
:10075F00D5E0FDD8FBDBB1C2868C2522C37C007DA2
:10076F000075F00005F0EA33FAEB33FB50F6EB13AC
:10077F00FBEA13FAC3E9FFE8FEE89AF8E99BF950A0
:10078F0004EFF9EEF8B3EC33FCED33FDD5F0DFED0C
:10079F00F9ECF822E889F08A20D2D4F8A9F07B008E
:1007AF0030F70B7BFFF42401F8E9F43400F9E88506
:1007BF0020F0A4ADF0F8E98520F0A4AFF0FEED2E07
:1007CF00F974003FFA7C04C3EA13FAE913F9E8134A
:1007DF00F8DCF48BF030F70AE8F42401F8E9F4348C
:1007EF0000F9E889F0C2D4F8A9F02222E547603B6E
:1007FF00C3E53B13F9E53A13F8C3E53E98F8E53F37
:10080F0099F9500CC3E89480E994FF40160208361A
:10081F00C3E8947FE994005003020836787F79008B
:10082F00020836788079FF8843894422E54760586B
:10083F00E5432540F8E5443541F9854420E4300788
:10084F0001F43542FA30E709C3EA94F04015020883
:10085F0078C3EA940F500302087878FF79FF7A0F74
:0E086F00020878780079007AF0C3E524955EDF
:10087D005006E52460090191E54420E70D0191E55D
:10088D004430E706884089418A4222E547700302D9
:10089D0008FC78A1E6FAC3E54333F8E54433F912D1
:1008AD0007A3E930E70BC3E89480E994FF401301F7
:1008BD00D3C3E8947FE99400500201D3787F790087
:1008CD0001D3788079FFE820E715C3E52398F84038
:1008DD0009C3E8940140030208FA78010208FAE816
:1008ED00F424012523F840030208FA78FF884522F5
:1008FD00E547700302095F78A2E6FAA841A9421202
:10090D0007A3E930E70CC3E89401E994FF40160210
:10091D000936C3E894FFE99400500302093678FFC5
:10092D007900020936780179FFE920E715C3E5451D
:10093D0098F84009C3E89401400302095D7800026C
:10094D00095DE8F424012545F8400302095D78FFAF
:10095D0088242278FFC264E52D5406702FD264C31B
:10096D00E53B940A4009C3E52594405002C264E575
:10097D003B601974FF853BF0848537F0A4F8C5F012
:10098D00600278FFC3E895615002A8618860220279
:10099D000A397883E6F520120E6275E8901206D2B8
:1009AD0075E890E5E820ECFBA8BDA9BE120EF87520
:1009BD006B55756C00C3740013FD745513FC7455A1
:1009CD002CFC74003DFDECFAEDFBC3E89AE99B406D
:1009DD0014E56B2455F56BE56C3400F56CEA2CFAD7
:1009ED00EB3DFB80E5AE6BAF6CC3E56C13F9E56BCE
:1009FD0013F8C3E913F9E813F8E56B28F569E56C0D
:100A0D0039F56A7A03C3E913F9E813F8DAF7AA207E
:100A1D001A7009756B00756C00020A391AEA6008C4
:100A2D00EE28FEEF39FFDAF88E6B8F6C2275E890A9
:100A3D00227883E6FFE5E820ECF7A8BDA9BE056D99
:100A4D00C3E56D94084052756D00E9FA79A0E76031
:100A5D0044EA7007E56E601B020A74C3E8956E6088
:100A6D0010E56E5006600C14020A800460F9020A4B
:100A7D0080E56EF56EC394A8401B755EC0C39405EA
:100A8D004013755E80C39405400B755E40C394059D
:100A9D004003755E0075BB0622E55EF46002055EDF
:100AAD00E56DB4070375BB1E22743279A387F0A4DC
:100ABD00C5F0A2F733F8C3E8955E4002A85E882220
:100ACD0088248825886122753A00753B7F2275C878
:100ADD0020A8CCA9CD75C824AA38AB398838893956
:100AED00C3E89AF8E99BF9AA3AAB3BAC3AAD3B7E29
:100AFD00047F02C3EB940440021E1FC3EB94084015
:100B0D00021E1FC3ED13FDEC13FCDEF7C3EA9CFAC6
:100B1D00EB9DFBEF6009C3E913F9E813F8DFF7EA82
:100B2D0028FAEB39FB8A3A8B3B400122753AFF7567
:100B3D003BFF223060026140854C50854D51D260A3
:100B4D0043E680227892E6FFC3E535948240010F9B
:100B5D00C3E53594A040010FC3EF940640027F0515
:100B6D007E021E3072010EC3E53B940350060E0E3D
:100B7D003072010EC3E53B940250060E0E30720129
:100B8D000EA93BA83A7A04C3E913F9E813F8DAF78A
:100B9D00C3E89EF8E99400F94009C3E89402E9948A
:100BAD000050047802E4F9E9FBE8FAC3E913FDE823
:100BBD0013FC884C894DC3EF94036037EF20E00D93
:100BCD00E82CF8E93DF9ECFAEDFB020BEDE828F81D
:100BDD00E939F9C3E89402F8E99400F97A02E4FBE3
:100BED00C3EF9403400D8A4E8B4F884889498C4A38
:100BFD008D4B22884E894F8A488B498C4A8D4B22CA
:100C0D00306002810DD26043E680E52D54066027E9
:100C1D00A83AA93BE53494085006E820E002A94D16
:100C2D00759100C3E498F594E499F595759104D206
:100C3D006053917F43E68022D265753D007520009B
:100C4D00020C58D265753D00752040E52D540660A7
:100C5D0002C265D2AF206005E53D60012278017AC0
:0F0C6D0002C3E53B940540027802C3E53B940ABD
:100C7C0040027803C3E53B940F40027A03306904C9
:100C8C00781E7A01206007E53D6003D2AF22D2AF17
:100C9C000000C2AFC3E53BFB940F40027B0FEB049B
:100CAC003073012320620123F93069027982E58BCC
:100CBC00C39940D0053DEAFBE59B5440B52004DBCD
:100CCC00F781F32065028158C265759100AE3AAF89
:100CDC003BC3E49EF594E49FF595759104D2605363
:100CEC00917F43E68081583065028158D896D2AF07
:100CFC002230690B0534206016753400020D1B2060
:100D0C00600D20650A206B07158115810215C22222
:100D1C00A84EA94F75910053917FC3E498F594E4C4
:100D2C0099F595759104854850854951D26043E6F3
:100D3C00802278003064053065027801E53575F065
:100D4C0007A4F9E5F028F5F0E9A2F013A2F113A23B
:100D5C00F213F535C394785003753578C3E53595A2
:100D6C00364008D266C2B1C287C281306002A17718
:100D7C00854A50854B51D26043E68022C2AFC28275
:100D8C00C286C28030720B90021C7406D5E0FD0244
:100D9C000D9E207D02D282307D02D280759F02751D
:100DAC003C02020EDDC2AF207D02C281307D02C248
:100DBC00B13072179001F9C286207D02C280307D5D
:100DCC0002C2827406D5E0FD020DDA90015C30623D
:100DDC0006E5256002D287207D03759F03307D03D5
:100DEC00759F01753C03020EDDC2AFC282C286C282
:100DFC008030720B9001D67406D5E0FD020E0B20EC
:100E0C007D02D280307D02D282207D03759F01301D
:100E1C007D03759F03753C04020EDDC2AFC28730A3
:100E2C0072179001B3207D02C282307D02C280C253
:100E3C00867406D5E0FD020E4890014A30620EE53C
:100E4C0025600A207D02D2B1307D02D281759F02CD
:100E5C00753C05020EDDC2AFC282C286C280307202
:100E6C000B9001887406D5E0FD020E78D286207DA9
:100E7C0003759F03307D03759F01753C06020EDDE3
:100E8C00C2AF207D02C2B1307D02C28130721F9090
:100E9C000247207D02C282307D02C280207D02C2C8
:100EAC0080307D02C2827406D5E0FD020EBD900139
:100EBC006E30620EE525600A207D02D281307D0203
:100ECC00D2B1207D03759F01307D03759F03753C66
:100EDC0001306B13120EF87406D5E0FD7406D5E0E4
:100EEC00FDD282D286D280C266D2AF22900148C295
:100EFC00B1C287C281C282C286C280C2622278809D
:100F0C0076FF0876FF0876FF0876FF0876030876EA
:100F1C0004087609087603087601087601788C7641
:100F2C00000876FF0876FF0876FF0876FF0876FF44
:100F3C000876030876FF0876FF0876FF0876030824
:100F4C0076FA0876FA0876FA0876040876FF0876B8
:100F5C000108760008767D0876FF087600227887EF
:100F6C00E6FFC272BF0302D2727888E6C3940360B4
:100F7C0008C27DE630E102D27DC27E7889E630E19E
:100F8C0002D27EC3EF94026008758E01D273020FF9
:100F9C00A2758E00C273227880E61490008093783C
:100FAC00A1F67881E6149000809378A2F6D1F8220D
:100FBC007886E61490008D9378A3F6D1F8222278E7
:100FCC009CE67536FF75370CB402067536A075377E
:100FDC000AB4030675368275370522227896E6FA2E
:100FEC007897E6FB307F047A007BFFC3EB9AFCC357
:100FFC00948250027C82756F00056FEC856FF0A4B3
:10100C00C3E5F0948040F222D27F120FE81206E181
:10101C007A007B007C101206D7E5592AFA74003B43
:10102C00FBDCF37C04C3EB13FBEA13FADCF7FEC224
:10103C007F120FE822E5EF20E603752000052090D3
:10104C003DFFE520146006901FFF146000930460C0
:10105C000375EF12C2D353D9BF7581C043FF801201
:0F106C0006D275EF0243B203E5B3240420E70276
:10107B00F5B3120EF875803875A4C775F1FF75D4EA
:10108B00DF7590FF75A50075F20075D50075A0FF93
:10109B0075A60075F30075D60075B0E475A71B75C2
:1010AB00F4FF75E241120F0A12163678988670C259
:1010BB00AF1206EB1207101207101206E61206E625
:1010CB001206E61206E61207101207101206E612B7
:1010DB0006E61206E11206E11207101206E11206ED
:1010EB00E11207101207101206E61206E61206E6C8
:1010FB001206E61207101207101206E61206E61287
:10110B0006E61206E61207091207091206E6120690
:10111B00E61206E61206E61206FB1206FB1206E6BE
:10112B001206E61206E11206E11207091206E11297
:10113B0006E11207101207101206E61206E6120657
:10114B00E61206E61206E61206E61206E61206E6B8
:10115B001217081206EB1206EB1206E6C2AFE4F802
:10116B00F6D8FD78C879C8308504D9FBD8F7120FAB
:10117B000A121636120F6A120FA3120FBC120FCAE5
:10118B00120FCB120FE7120FE878988670120EF839
:10119B0075885075891275C82475910475D840757A
:1011AB00A82275B80275E690759B80759D0075D168
:1011BB000E75BC5875BB0675BA1F75E8801206D242
:1011CB00D2AF12099C43DA01C2D8C2711206EB7579
:1011DB003001D2617B037A0CE55870067A0CDB0286
:1011EB0021671206E12070022167C270E559C39492
:1011FB000240E3E52F541F855B5AF55BB55AD7DAEE
:10120B00D7C26153DACF207E0343DA20307E03430B
:10121B00DA10C2D8C271C2757528001206E6307496
:10122B0009C3E528940A4002D2751206D77802301A
:10123B0074027800C3E5599840F0C2AF1206FB1256
:10124B0006E11206FB1206E11207021206E1120773
:10125B0002D2AF1206EB7546007888E6B403026142
:10126B00451206D7788CE6C394015003021345E56B
:10127B0030C394015003021345207435C3E55994D0
:10128B00FF5003021345C2AF120710D2AF1206E68E
:10129B00C3E559940150EFC2AF1206FB1206DC12E4
:1012AB0006FBD2AF1206E6C3E55994FF40E90217DD
:1012BB008D7F05D27F120FE81206E6C2AFC27F12F6
:1012CB000FE8AE59C3E559947FD2AF40771206D2DF
:1012DB00C2AF120710D2AFDFDA1114C3EE94057848
:1012EB0097F61206EB1216361217107F0AD27F12E0
:1012FB000FE81206E6C2AFC27F120FE8AE59C3E584
:10130B0059947FD2AF50E41206D2C2AF1206FB1231
:10131B0006DC1206FBD2AFDFD41114EE240578964F
:10132B00F61206EB12163612173F1206E6120FE8EC
:10133B00C3E55994FF40F302178DC3E55995464019
:10134B00038559461206E678017988E7B4030278DB
:10135B0005C3E5599840024164C2AF12071012064B
:10136B00E11207101206E11207091206E112070932
:10137B00D2AF1206EB753000E4F531F5320531E5ED
:10138B0031F470390532789AE67819146012783294
:10139B0014600D787D14600878FA146003753200C0
:1013AB00C3E53298401715327531B478998670C2FF
:1013BB00AF120710D2AF789886701206E61206DCD1
:1013CB00E5297005307402216778012074027806D4
:1013DB00C3E5599840A77888E6C3940360031206C7
:1013EB00E6E52970022167C2AF120EF8E4F522F58B
:1013FB0023F524F525D2AF78858662F53EF53FF5CA
:10140B0040F541F542F56DF547F52CF52DF5351207
:10141B000AD4756D0875BB1E1206D2120A3AE5E89E
:10142B0020ECFBA8BDA9BEE97001F8886E120A3E3C
:10143B00756D0875BB1E7887E6FE7602120F6A780B
:10144B0087EEF6C2AF755EFF120AB685225E852265
:10145B005F852260D2AF7522017524017525018548
:0F146B005D64756501D268D269753400120E6236
:10147A00120E8C120AD4120ADB120B5102149512A4
:10148A000EF8120F6A756D0075BB06120C50120C1D
:10149A00FD120D1C1207FA120D3E120D88120ADBFC
:1014AA00120B40120B51120C0D120C45120CFD12AC
:1014BA000D1C1207FB120960120D3E120DB1120A21
:1014CA00DB120B40120B51120C0D120C50120CFDB8
:1014DA00120D1C12083B120D3E120DF5120ADB12F8
:1014EA000B40120B51120C0D120C45120CFD120D71
:1014FA001C120898120D3E120E27120ADB120B401C
:10150A00120B51120C0D120C50120CFD120D1C1262
:10151A0008FD120D3E120E62120ADB120B40120B6C
:10152A0051120C0D120C45120A3A120CFD120D1C26
:10153A00120A3E120D3E120E8C120ADB120B4012D8
:10154A000B51120C0D306935206B3285615E856155
:10155A005F855D6475650179327A0AC3E53499401D
:10156A000FC269D26A8A33755EFF755FFF021587FB
:10157A00C3E559940140030214950215C2306A1B4F
:10158A00206B18E533147004C26A8189F533C3E508
:10159A0059940140030214950215C2C3E55C948272
:1015AA005016307404E529600FC3E53B78F0306BC0
:1015BA000278609850028195C2AF120EF87887E6D9
:1015CA00FE7602120F6A7887EEF6E4F522F523F525
:1015DA0024F525F562C268D2AF1206D2120EF8308F
:1015EA007406E529700221676183901A0D7820122A
:1015FA001678E520B45A0CA3121678E520B4A50390
:10160A00021616120F0A121636021635901A0378A7
:10161A00807B0A121678A308DBF9901A0F788C7B64
:10162A0015121678A308DBF9901A2422C2AF1216F3
:10163A00B7121691901A00740D12167DA374021235
:10164A00167DA3741312167D901A0378807B0A12F2
:10165A00167CA308DBF9901A0F788C7B1512167C7E
:10166A00A308DBF91216CA1216A8901A2422E493C8
:10167A00F622E6438F01538FFD75EF0275B7A57504
:10168A00B7F1F0538FFE22438F02438F0175EF02A9
:10169A0075B7A575B7F1901A0DF0538FFC22901A01
:1016AA000D745AD17D901A0E74A5D17D227A3079A3
:1016BA00D07820901A40D178E520F709A3DAF722EA
:1016CA007A3079D0901A40E7D17D09A3DAF922ABB2
:1016DA0071A872BB01027984BB02027985BB03023D
:1016EA007986BB04027992BB05027987BB06027927
:1016FA009CBB07027988BB08027989E8F7227C0536
:10170A001206EBDCFB22C2AF1206FB12070212071B
:10171A00091207101206DC1206FB12070212070949
:10172A001207101206DC1206FB1207021207091230
:10173A000710D2AF22C2AF1207101207091207020E
:10174A001206FB1206DC1207101207091207021210
:10175A0006FB1206DC12071012070912070212060C
:10176A00FBD2AF22AE71AF72C2AF1206FB1206FBFA
:10177A001206FB1206DCDEF21207101206DCDFF894
:10178A00D2AF22F110F108F1087571017572017575
:10179A007300F16E7C05AD591206EBC3ED955970D5
:1017AA00F5C3E5599401400AC3E55994FF40320252
:1017BA0017C9D1D9D136F110C2AF75EF12F108DCD1
:1017CA00D50573C3E5739403500280C6F108057208
:1017DA00E5711490009A93F808C3E5729850028054
:1017EA00AEF108F1080571C3E57194095002809CB5
:0D17FA00120F0AD136C2AF75EF1212170898
:101A00000D0213FFFFFFFF0304090301015AA500A4
:101A1000FFFFFFFFFF03FFFFFF03FAFAFA04FF01D6
:051A2000007DFF00FF46
:101A4000235475726E696779343041232020202039
:101A500023424C48454C4923463331302320202033
:101A60002020202020202020202020202020202076
:00000001FF
