:030000000210E209
:03000B000200A54B
:03002B000202AE20
:03005B0002040C90
:030073000203E69F
:1000800002030406080C10182030406080040608A3
:100090000C10182030406080A0C00D0D0405060D26
:1000A0000503030302C2AFC0D0C0E020620C206889
:1000B00002419D306602415DE47385258AC262E596
:1000C00025F4700221242068022111207210758B02
:1000D00000D0E0D0D0C2B1C287C281D2AF32C2B1AB
:1000E000C287C2817406D5E0FDE53C1420E21520EC
:1000F000E10D207D02D280307D02D282020121D228
:1001000086020121207D02D282307D02D28002014E
:1001100021758B00D0E0D0D0C2B1C287C281D2AFEE
:1001200032758B00D0E0D0D0D2AF32419DE5256052
:100130000A207D02D2B1307D02D281C287419DE585
:10014000256002D287207D02C281307D02C2B1418A
:100150009DE525600A207D02D281307D02D2B1204A
:100160007D02C2B1307D02C281419D207D02C282EA
:10017000307D02C280207D02C280307D02C2827446
:1001800006D5E0FDE525600A207D02D2B1307D0272
:10019000D281C287419D207D02C282307D02C28011
:1001A000C2867406D5E0FDE525600A207D02D2B145
:1001B000307D02D281C287419DC286207D02C282EB
:1001C000307D02C2807406D5E0FDE5256002D2874D
:1001D000207D02C281307D02C2B1419DC286207D58
:1001E00002C280307D02C2827406D5E0FDE5256042
:1001F00002D287207D02C281307D02C2B1419D20A2
:100200007D02C280307D02C282C2867406D5E0FDC6
:10021000E525600A207D02D281307D02D2B1207DA9
:1002200002C2B1307D02C281419D207D02C2803078
:100230007D02C282207D02C282307D02C2807406AD
:10024000D5E0FDE525600A207D02D281307D02D215
:10025000B1207D02C2B1307D02C281419D30723D2C
:10026000E53C20E21A20E129207D02C282307D0295
:10027000C280207D02C280307D02C28202029D20A7
:10028000E1E6207D02C282307D02C280C286020287
:100290009DC286207D02C280307D02C282E525F4A7
:1002A000F58A758B00D262D0E0D0D0D2AF32C2AF27
:1002B000C2AD53E6EFC0D0C0E0D2D3D2AFC2CEE5DC
:1002C0002960072074461529610C78007900E580C3
:1002D000307E01F430E50278FF53DACF207E03430D
:1002E000DA20307E0343DA10C2D8C271E580307E56
:1002F00001F430E50279FFC3E89970CE30610375EF
:1003000029182074037529188859D270E52A6004C9
:10031000152A611C20740543DA01C2D820700261DD
:1003200083A859206102C2702074367982B70431E3
:10033000C3E894F0400374F0F8E8C4540F28F87947
:1003400084B703026161C313C3138721200802C36A
:1003500013200A06C3C898F8616128F8500374FF97
:10036000F88822306915E5222408F5225003752209
:10037000FFC3E522955E4003855E227882B60418AD
:10038000852224A824C3E524955E4002A85EC3E824
:1003900095604002A8608825C3E52594404002D2BC
:1003A0006420CF0CD0E0D0D0C2D343E610D2AD321F
:1003B000C2CF7801E52960053074021529C3E559DB
:1003C00094014005755C0061DA755D00756400E5B7
:1003D0005C2401F55C5003755CFFD0E0D0D0C2D343
:1003E00043E610D2AD32C0D0C0E0C2AF53917F53CC
:1003F000E67FC260759100C3E49550F594E4955191
:10040000F595759104D0E0D0D0D2AF32C2AF53E6AB
:10041000EFC2ADC0D0C0E0C0F0D2D3D2AFA8FBA92C
:10042000FCC2D8307102817353DACF207E0343DAE5
:1004300010307E0343DA20D271E580307E01F42053
:10044000E502814A88268927C1AF53DACF207E038F
:1004500043DA20307E0343DA10C2D8C2713074020E
:10046000C19B7800E580307E01F430E502C19B88B5
:0F04700059C18253DACF207E0343DA20307E0356
:10047F0043DA10C271206102A14353DACF207E0309
:10048F0043DA10307E0343DA20C2D8D27188548900
:10049F0055C3E89552F8E99553F9E4FB7E027A00CB
:1004AF00C3E8948CE994005005755800A133C3E854
:1004BF0094C8E994005008E4D2E4FB7A0AA110C36F
:1004CF00E89468E994015008E4D2E3FB7A0FA11095
:1004DF00C3E894D0E994025008E4D2E2FB7A1EA15B
:1004EF0010C3E894A0E994055008E4D2E1FB7A3CEC
:1004FF00A110C3E89498E994085008E4D2E0FB7A7D
:10050F00787E00C3E89556FCE99557FD30E708EC77
:10051F00F42401FCEDF4FD755800C3EC9AED9E50E8
:10052F000375580188568957A854A955885289537D
:10053F007802C182C3E89526F8E99527F9307C0245
:10054F00C166307B02C166307A02C15F207502A19D
:10055F0066E9FDE8FCA185E9C313F9E813F83079E2
:10056F0002C15FE9C313F9E813F8307802C15FE9FC
:10057F00C313FDE813FC206126C3EC941CED940219
:10058F004002A19CED7018C3EC94C850120528C30B
:10059F00E528940A5002C19B755900D270C19BE5A2
:1005AF0028600215287400207F0B7888E67896B4AF
:1005BF000302789EE624FAFEE43400FFC3EC9EFCAF
:1005CF00ED9FFD92087888E6B40327A20850092012
:1005DF007D20C2AFD27DA1EE307D17C2AFC27DC2EA
:1005EF00B1C287C281C282C286C280206902D26B29
:1005FF00D2AFA2085017E6B4030DECF42401FCEDC2
:10060F00F43400FD02061C78007900C1667888E694
:10061F00B40315EC33FCED33FDC3EC940AFCED94FD
:10062F0000FD50047C007D00C3EC94FFED9400406E
:10063F000678FF7900C166EC856FF0A4C5F0A2F7CC
:10064F0033F87900400302068278FF7900020682B0
:10065F00E9C313F9E813F8307C0EE9600278FFC3A1
:10066F00E81338F8E43400F9C3E894FFE994004044
:10067F000278FF8859D270206102C19B741FF45514
:10068F002F4BF52FC274E42B7002D27475291830DA
:10069F00740375290A306102C1AF20740353DAFE67
:1006AF00752A06307403752A0AD0F0D0E0D0D0C274
:1006BF00D3D2AD43E6103279010206E47903020684
:1006CF00E4790A0206E4791E0206E479640206E47C
:1006DF0079C80206E47817E4D5E0FDD8FAD9F622F6
:1006EF007A147B7802070B7A107B8C02070B7A0D3A
:1006FF007BB402070B7A0B7BC802070BAC25752561
:10070F00017902B27DE4C286D5E0FDE5256002D213
:10071F0087D5E0FDC287D5E0FDD286D5E0FDE52582
:10072F00600A207D02D2B1307D02D281E570D5E022
:10073F00FD207D02C2B1307D02C2817496D5E0FDED
:10074F00D9C1EAF8D5E0FDD8FBDBB1C2868C2522F2
:10075F00C37C007D0075F00005F0EA33FAEB33FB44
:10076F0050F6EB13FBEA13FAC3E9FFE8FEE89AF839
:10077F00E99BF95004EFF9EEF8B3EC33FCED33FDE0
:10078F00D5F0DFEDF9ECF822E889F08A20D2D4F821
:10079F00A9F07B0030F70B7BFFF42401F8E9F43468
:1007AF0000F9E88520F0A4ADF0F8E98520F0A4AFBA
:1007BF00F0FEED2EF974003FFA7C04C3EA13FAE958
:1007CF0013F9E813F8DCF48BF030F70AE8F424019E
:1007DF00F8E9F43400F9E889F0C2D4F8A9F02278E6
:1007EF0082B6040302084BC3E55994014003020883
:1007FF0013852224E4F53EF53FF540F541F542F52A
:10080F004702084B7882E6FC754701E522F523780D
:10081F003879C7AA3AAB3BC3EB13FBEA13FAEC14D4
:10082F006013C3EB13FBEA13FAEC14146007C3EB6A
:10083F0013FBEA13FA12075F883E893F22E54760F0
:10084F0034C3E53E9523F8E53F9400F9500CC3E817
:10085F009480E994FF4016020880C3E8947FE994DE
:0F086F00005003020880787F79000208807880AB
:10087E0079FF8843894422E5476058E5432540F8CF
:10088E00E5443541F9854420E4300701F43542FA58
:10089E0030E709C3EA94F040150208C2C3EA940F88
:1008AE0050030208C278FF79FF7A0F0208C278005F
:1008BE0079007AF0C3E524955E5006E524600901BF
:1008CE00DBE54420E70D01DBE54430E7068840898F
:1008DE00418A4222E547700302094678A1E6FAC32F
:1008EE00E54333F8E54433F9120797E930E70BC3D4
:1008FE00E89480E994FF4013211DC3E8947FE994A6
:10090E00005002211D787F7900211D788079FFE843
:10091E0020E715C3E52398F84009C3E89401400386
:10092E000209447801020944E8F424012523F84021
:10093E000302094478FF884522E54770030209A99E
:10094E0078A2E6FAA841A942120797E930E70CC34C
:10095E00E89401E994FF4016020980C3E894FFE988
:10096E009400500302098078FF7900020980780113
:10097E0079FFE920E715C3E54598F84009C3E894E7
:10098E000140030209A778000209A7E8F424012513
:10099E0045F840030209A778FF88242278FFC26435
:1009AE00E52D5406702FD264C3E53B940A4009C36B
:1009BE00E52594405002C264E53B601974FF853B07
:1009CE00F0848537F0A4F8C5F0600278FFC3E8958F
:1009DE00615002A8618860227883E6F520120F0329
:1009EE0075E8901206C675E890E5E820ECFBA8BD08
:1009FE00A9BE120F99756B55756C00C3740013FD6B
:100A0E00745513FC74552CFC74003DFDECFAEDFB93
:100A1E00C3E89AE99B4014E56B2455F56BE56C34FD
:100A2E0000F56CEA2CFAEB3DFB80E5AE6BAF6CC3C8
:100A3E00E56C13F9E56B13F8C3E913F9E813F8E560
:100A4E006B28F569E56C39F56A7A03C3E913F9E8A1
:100A5E0013F8DAF7AA201A7009756B00756C00028C
:100A6E000A801AEA6008EE28FEEF39FFDAF88E6B7C
:100A7E008F6C2275E890227883E6FFE5E820ECF78C
:100A8E00A8BDA9BE056DC3E56D94084052756D00F5
:100A9E00E9FA79A0E76044EA7007E56E601B020A86
:100AAE00BBC3E8956E6010E56E5006600C14020A2A
:100ABE00C70460F9020AC7E56EF56EC394A8401B21
:100ACE00755EC0C394054013755E80C39405400BDC
:100ADE00755E40C394054003755E0075BB0622EF3C
:100AEE00C39401601BC3E894FFE994035012C3E85A
:100AFE00956BE9956C5009E55E601A155E020B2345
:100B0E00E55EF46010055E7888E6B40308E55E24C1
:100B1E00044002F55EA85EC3E524985002A824C3E3
:100B2E00E8955F400AA85FE55FF46003855F5E7934
:100B3E0082B70402614EC3E895604002A860882522
:100B4E00E56DB4070375BB1E22743279A387F0A43A
:100B5E00C5F0A2F733F8C3E8955E4002A85E88227E
:100B6E0088248825886122753A00753B7F2275C8D6
:100B7E0020A8CCA9CD75C824AA38AB3988388939B4
:100B8E00C3E89AF8E99BF9AA3AAB3BAC3AAD3B7E87
:100B9E00047F02C3EB940440021E1FC3EB94084073
:100BAE00021E1FC3ED13FDEC13FCDEF7C3EA9CFA25
:100BBE00EB9DFBEF6009C3E913F9E813F8DFF7EAE1
:100BCE0028FAEB39FB8A3A8B3B400122753AFF75C6
:100BDE003BFF2230600261E1854C50854D51D26061
:100BEE0043E680227892E6FFC3E535948240010FFA
:100BFE00C3E53594A040010FC3EF940640027F0574
:100C0E007E021E3072010EC3E53B940350060E0E9B
:100C1E003072010EC3E53B940250060E0E30720187
:100C2E000EA93BA83A7A04C3E913F9E813F8DAF7E8
:100C3E00C3E89EF8E99400F94009C3E89402E994E8
:100C4E000050047802E4F9E9FBE8FAC3E913FDE881
:100C5E0013FC884C894DC3EF94036037EF20E00DF1
:0F0C6E00E82CF8E93DF9ECFAEDFB020C8EE828D2
:100C7D00F8E939F9C3E89402F8E99400F97A02E445
:100C8D00FBC3EF9403400D8A4E8B4F884889498CE6
:100C9D004A8D4B22884E894F8A488B498C4A8D4B01
:100CAD002230600281AED26043E680E52D540660AD
:100CBD0027A83AA93BE53494085006E820E002A99C
:100CCD004D759100C3E498F594E499F595759104EB
:100CDD00D26053917F43E68022D265753D00752029
:100CED0000020CF9D265753D00752040E52D5406C6
:100CFD006002C265D2AF206005E53D60012278013A
:100D0D007A02C3E53B940540027802C3E53B940AA1
:100D1D0040027803C3E53B940F40027A0330690427
:100D2D00781E7A01206007E53D6003D2AF22D2AF75
:100D3D000000C2AFC3E53BFB940F40027B0FEB04F9
:100D4D003073012320620123F93069027982E58B2A
:100D5D00C39940D0053DEAFBE59B5440B52004DB2B
:100D6D00F7A19420650281F9C265759100AE3AAF85
:100D7D003BC3E49EF594E49FF595759104D26053C1
:100D8D00917F43E68081F930650281F9D896D2AF23
:100D9D002230690B0534206016753400020DBC201D
:100DAD00600D20650A206B071581158102164F22F3
:100DBD00A84EA94F75910053917FC3E498F594E423
:100DCD0099F595759104854850854951D26043E652
:100DDD00802278003064053065027801E53575F0C4
:100DED0007A4F9E5F028F5F0E9A2F013A2F113A29A
:100DFD00F213F535C394785003753578C3E5359501
:100E0D00364008D266C2B1C287C281306002C118B5
:100E1D00854A50854B51D26043E68022C2AFC282D3
:100E2D00C286C28030720B9001FF7406D5E0FD02C0
:100E3D000E3F207D02D282307D02D280759F0275D9
:100E4D003C02020F7EC2AF207D02C281307D02C204
:100E5D00B13072179001DCC286207D02C280307DD8
:100E6D0002C2827406D5E0FD020E7B90013F306216
:100E7D0006E5256002D287207D03759F03307D0333
:100E8D00759F01753C03020F7EC2AFC282C286C23E
:100E9D008030720B9001B97406D5E0FD020EAC20C6
:100EAD007D02D280307D02D282207D03759F01307C
:100EBD007D03759F03753C04020F7EC2AFC2873060
:100ECD007217900196207D02C282307D02C280C2CF
:100EDD00867406D5E0FD020EE990012D30620EE517
:100EED0025600A207D02D2B1307D02D281759F022C
:100EFD00753C05020F7EC2AFC282C286C2803072BF
:100F0D000B90016B7406D5E0FD020F19D286207D82
:100F1D0003759F03307D03759F01753C06020F7E9F
:100F2D00C2AF207D02C2B1307D02C28130721F90EE
:100F3D00022A207D02C282307D02C280207D02C243
:100F4D0080307D02C2827406D5E0FD020F5E9001F5
:100F5D005130620EE525600A207D02D281307D027E
:100F6D00D2B1207D03759F01307D03759F03753CC4
:100F7D0001306B13120F997406D5E0FD7406D5E0A0
:100F8D00FDD282D286D280C266D2AF2290012BC210
:100F9D00B1C287C281C282C286C280C262227880FB
:100FAD00760908760908760408760108760308762E
:100FBD00FF087609087601087601087601788C76A7
:100FCD00000876FF0876FF0876FF0876FF0876FFA3
:100FDD000876030876FF0876FF0876FF0876030883
:100FED0076FA0876280876500876050876FF087692
:100FFD000208760008767D0876FF0876002278874D
:10100D00E6FFC272BF0302D2727888E6C394036012
:10101D0008C27DE630E102D27DC27E7889E630E1FC
:10102D0002D27EC3EF94026008758E01D273021056
:10103D0043758E00C273227880E6149000809378F9
:10104D00A1F67881E6149000809378A2F6120F999C
:10105D00227886E61490008D9378A3F6120F9922CC
:0D106D0022789CE67536FF75370CB402063C
:10107A007536A075370AB4030675368275370522A8
:10108A00227896E6FA7897E6FB307F047A007BFFAF
:10109A00C3EB9AFCC3948250027C82756F00056F81
:1010AA00EC856FF0A4C3E5F0948040F222D27F1160
:1010BA008B1206D57A007B007C101206CBE5592AE2
:1010CA00FA74003BFBDCF37C04C3EB13FBEA13FA70
:1010DA00DCF7FEC27F118B22E5EF20E603752000C4
:1010EA000520903DFFE520146006901FFF14600064
:1010FA009304600375EF12C2D353D9BF7581C043FD
:10110A00FF801206C675EF0243B203E5B32404203A
:10111A00E702F5B3120F9975803875A4C775F1FF08
:10112A0075D4DF7590FF75A50075F20075D5007549
:10113A00A0FF75A60075F30075D60075B0E475A713
:10114A001B75F4FF75E241120FAB1216C27898862E
:10115A0070C2AF1206DF1207041207041206DA126F
:10116A0006DA1206DA1206DA12070412070412065F
:10117A00DA1206DA1206D51206D51207041206D5B5
:10118A001206D51207041207041206DA1206DA1238
:10119A0006DA1206DA1207041207041206DA12062F
:1011AA00DA1206DA1206DA1206FD1206FD1206DA5B
:1011BA001206DA1206DA1206DA1206EF1206EF122F
:1011CA0006DA1206DA1206D51206D51206FD12063C
:1011DA00D51206D51207041207041206DA1206DA25
:1011EA001206DA1206DA1206DA1206DA1206DA1229
:1011FA0006DAC2AFE4F8F6D8FD78C879C8308504B3
:10120A00D9FBD8F7120FAB1216C2110B1144115E9B
:10121A00116D116E118A118B78988670120F99755B
:10122A00885075891275C82475910475D84075A8B7
:10123A002275B80275E690759B80759D0075D10E72
:10124A0075BC5875BB0675BA1F75E8801206C6D2FA
:10125A00AF1209E643DA01C2D8C2711206DF75304D
:10126A0001D2617B037A0CE55870067A0CDB022105
:10127A00FC1206D520700221FCC270E559C3940203
:10128A0040E3E52F541F855B5AF55BB55AD7DAD789
:10129A00C26153DACF207E0343DA20307E0343DA79
:1012AA0010C2D8C271C2757528001206DA307409E4
:1012BA00C3E528940A4002D2751206CB780230742C
:1012CA00027800C3E5599840F0C2AF1206EF120641
:1012DA00D51206EF1206D51206F61206D51206F632
:1012EA00D2AF1206DF7546007888E6B4030261CEF3
:1012FA001206CB788CE6C3940150030213CEE53074
:10130A00C3940150030213CE207435C3E55994FFE8
:10131A0050030213CEC2AF120704D2AF1206DAC3C9
:10132A00E559940150EFC2AF1206EF1206D0120629
:10133A00EFD2AF1206DAC3E55994FF40E902182842
:10134A007F02D27F118B1206DAC2AFC27F118BAE37
:10135A0059C3E559947FD2AF40741206C6C2AF1280
:10136A000704D2AFDFDC11B7C3EE94057897F61203
:10137A0006DF1216C21217AB7F0AD27F118B120632
:10138A00DAC2AFC27F118BAE59C3E559947FD2AF8F
:10139A0050E61206C6C2AF1206EF1206D01206EFC8
:1013AA00D2AFDFD611B7EE24057896F61206DF1211
:1013BA0016C21217DA1206DA118BC3E55994FF40E6
:1013CA00F4021828C3E55995464003855946120682
:1013DA00DA78017988E7B403027805C3E5599840B9
:1013EA000241F2C2AF1207041206D512070412060E
:1013FA00D51206FD1206D51206FDD2AF1206DF750A
:10140A003000E4F531F5320531E531F47039053251
:10141A00789AE67819146012783214600D787D147F
:10142A00600878FA146003753200C3E532984017F1
:10143A0015327531B478998670C2AF120704D2AFEB
:10144A00789886701206DA1206D0E529700530748B
:10145A000221FC78012074027806C3E5599840A756
:0F146A007888E6C3940360031206DAE52970025E
:1014790021FCC2AF120F99E4F522F523F524F525D5
:10148900D2AF78858662F53EF53FF540F541F542E4
:10149900F56DF547F52CF52DF535120B75756D08BC
:1014A90075BB1E1206C6120A81E5E820ECFBA8BD31
:1014B900A9BEE97001F8886E120A85756D0875BBB9
:1014C9001E7887E6FE7602110B7887EEF6C2AF75B5
:1014D9005EFF120B5785225E85225F852260D2AF9F
:1014E900752201752401752501855D64756501D233
:1014F90068D269753400120F03120F2D120B751281
:101509000B7C120BF202151C120F99110B756D0051
:1015190075BB06120CF1120D9E120DBD1207EE12CB
:101529000DDF120E29120B7C120BE1120BF2120CB9
:10153900AE120CE6120D9E120DBD12084C1209AA2C
:10154900120DDF120E52120B7C120BE1120BF2126A
:101559000CAE120CF1120D9E120DBD120885120D62
:10156900DF120E96120B7C120BE1120BF2120CAE6B
:10157900120CE6120D9E120DBD1208E2120DDF12B9
:101589000EC8120B7C120BE1120BF2120CAE120CEC
:10159900F1120D9E120DBD120947120DDF120F0334
:1015A900120B7C120BE1120BF2120CAE120CE612AA
:1015B9000A81120D9E120DBD120A85120DDF120F3E
:1015C9002D120B7C120BE1120BF2120CAE306938A2
:1015D900206B3585615E85615F855D64756501791F
:1015E900327A0AC3E534994012C269D26A8A3385CC
:1015F900615E755FFF756020021611C3E55994019C
:10160900400302151C02164F306A1E206B1BE5337E
:10161900147007C26A755EFFA111F533C3E55994C9
:1016290001400302151C02164FC3E55C94FA5016DB
:10163900307404E529600FC3E53B78F0306B02781C
:1016490060985002A11CC2AF120F997887E6FE7606
:1016590002110B7887EEF6E4F522F523F524F5253A
:10166900F562C268D2AF1206C6120F99307406E548
:1016790029700221FC810C901A0D7820121704E5BB
:1016890020B4550CA3121704E520B4AA030216A22C
:10169900120FAB1216C20216C1901A0378807B0A88
:1016A900121704A308DBF9901A0F788C7B1512170F
:1016B90004A308DBF9901A2422C2AF1217431217A8
:1016C9001D901A00740D121709A37402121709A3A9
:1016D9007413121709901A0378807B0A121708A34A
:1016E90008DBF9901A0F788C7B15121708A308DB11
:1016F900F9121756121734901A2422E493F622E6A7
:10170900438F01538FFD75EF0275B7A575B7F1F0DA
:10171900538FFE22438F02438F0175EF0275B7A5E0
:1017290075B7F1901A0DF0538FFC22901A0D74556C
:10173900F109901A0E74AAF109227A3079D0782029
:10174900901A40F104E520F709A3DAF7227A3079F3
:10175900D0901A40E7F10909A3DAF922AB71A8720E
:10176900BB01027980BB02027981BB03027982BB8A
:1017790004027984BB05027983BB06027986BB071B
:10178900027992BB08027987BB0902799CBB0A02DC
:101799007988BB0B027989E8F7227C051206DFDC20
:1017A900FB22C2AF1206EF1206F61206FD1207045B
:1017B9001206D01206EF1206F61206FD12070412DF
:1017C90006D01206EF1206F61206FD120704D2AF72
:1017D90022C2AF1207041206FD1206F61206EF1214
:1017E90006D01207041206FD1206F61206EF1206BB
:1017F900D01207041206FD1206F61206EFD2AF2226
:10180900AE71AF72C2AF1206EF1206EF1206EF12F7
:1018190006D0DEF21207041206D0DFF8D2AF221288
:1018290017AB1217A31217A375710175720175739E
:101839000011097C05AD591206DFC3ED955970F504
:10184900C3E5599401400AC3E55994FF403702188A
:101859006B1217651216C21217ABC2AF75EF1212CF
:0F18690017A3DCD10573C3E5739403500280C24B
:101878001217A30572E5711490009A93F808C3E54E
:101888007298500280A91217A31217A30571C3E515
:1018980071940C50028095120FAB1216C2C2AF752C
:0518A800EF121217A36E
:101A00000D02130909040103FF0901010155AA0090
:101A1000FFFFFFFFFF03FFFFFF03FA285005FF0250
:051A2000007DFF00FF46
:101A4000235475726E696779343041232020202039
:101A500023424C48454C4923463331302320202033
:101A60002020202020202020202020202020202076
:00000001FF
